{
  "_format": "hh-sol-artifact-1",
  "contractName": "CommissionPool",
  "sourceName": "contracts/CommissionPool.sol",
  "abi": [
    {
      "anonymous": false,
      "inputs": [
        {
          "indexed": true,
          "internalType": "uint256",
          "name": "galleryId",
          "type": "uint256"
        },
        {
          "indexed": false,
          "internalType": "address",
          "name": "payee",
          "type": "address"
        },
        {
          "indexed": false,
          "internalType": "uint256",
          "name": "claimableBalance",
          "type": "uint256"
        }
      ],
      "name": "ClaimableUpdated",
      "type": "event"
    },
    {
      "anonymous": false,
      "inputs": [
        {
          "indexed": true,
          "internalType": "address",
          "name": "previousOwner",
          "type": "address"
        },
        {
          "indexed": true,
          "internalType": "address",
          "name": "newOwner",
          "type": "address"
        }
      ],
      "name": "OwnershipTransferred",
      "type": "event"
    },
    {
      "inputs": [
        {
          "internalType": "uint256",
          "name": "galleryId",
          "type": "uint256"
        }
      ],
      "name": "claim",
      "outputs": [],
      "stateMutability": "nonpayable",
      "type": "function"
    },
    {
      "inputs": [
        {
          "internalType": "uint256",
          "name": "galleryId",
          "type": "uint256"
        },
        {
          "internalType": "address",
          "name": "payee",
          "type": "address"
        }
      ],
      "name": "deposit",
      "outputs": [],
      "stateMutability": "payable",
      "type": "function"
    },
    {
      "inputs": [
        {
          "internalType": "uint256",
          "name": "galleryId",
          "type": "uint256"
        },
        {
          "internalType": "address",
          "name": "payee",
          "type": "address"
        }
      ],
      "name": "getClaimable",
      "outputs": [
        {
          "internalType": "uint256",
          "name": "",
          "type": "uint256"
        }
      ],
      "stateMutability": "view",
      "type": "function"
    },
    {
      "inputs": [
        {
          "internalType": "uint256",
          "name": "galleryId",
          "type": "uint256"
        }
      ],
      "name": "getGalleryCommission",
      "outputs": [
        {
          "internalType": "address[]",
          "name": "",
          "type": "address[]"
        },
        {
          "internalType": "uint256[]",
          "name": "",
          "type": "uint256[]"
        }
      ],
      "stateMutability": "view",
      "type": "function"
    },
    {
      "inputs": [],
      "name": "owner",
      "outputs": [
        {
          "internalType": "address",
          "name": "",
          "type": "address"
        }
      ],
      "stateMutability": "view",
      "type": "function"
    },
    {
      "inputs": [],
      "name": "renounceOwnership",
      "outputs": [],
      "stateMutability": "nonpayable",
      "type": "function"
    },
    {
      "inputs": [
        {
          "internalType": "uint256",
          "name": "galleryId",
          "type": "uint256"
        },
        {
          "internalType": "address[]",
          "name": "payees",
          "type": "address[]"
        },
        {
          "internalType": "uint256[]",
          "name": "commissionRates",
          "type": "uint256[]"
        }
      ],
      "name": "setGalleryCommission",
      "outputs": [],
      "stateMutability": "nonpayable",
      "type": "function"
    },
    {
      "inputs": [
        {
          "internalType": "address",
          "name": "newOwner",
          "type": "address"
        }
      ],
      "name": "transferOwnership",
      "outputs": [],
      "stateMutability": "nonpayable",
      "type": "function"
    }
  ],
  "bytecode": "0x6080806040523461005f5760008054336001600160a01b0319821681178355916001600160a01b03909116907f8be0079c531659141344cd1fd0a4f28419497f9722a3daafe3b4186f6b6457e09080a3600180556108c690816100658239f35b600080fdfe60406080815260048036101561001457600080fd5b600091823560e01c80631f63503a146104ba578063379607f5146103bb57806337bcb2eb1461028c5780636e553f65146101eb578063715018a6146101a05780638da5cb5b14610174578063b961cbe1146101325763f2fde38b1461007857600080fd5b3461012e57602036600319011261012e576001600160a01b0382358181169391929084900361012a576100a9610753565b83156100d857505082546001600160a01b0319811683178455166000805160206108718339815191528380a380f35b906020608492519162461bcd60e51b8352820152602660248201527f4f776e61626c653a206e6577206f776e657220697320746865207a65726f206160448201526564647265737360d01b6064820152fd5b8480fd5b8280fd5b50903461012e578160031936011261012e576020928291610151610738565b90358252600385528282206001600160a01b039091168252845220549051908152f35b83823461019c578160031936011261019c57905490516001600160a01b039091168152602090f35b5080fd5b83346101e857806003193601126101e8576101b9610753565b80546001600160a01b03198116825581906001600160a01b03166000805160206108718339815191528280a380f35b80fd5b5080839160031936011261019c57823590610204610738565b61020c6107fa565b828452600360209081528285206001600160a01b0383168087529152828520805434810191908210610279576000805160206108518339815191529596975055848652600360205282862090865260205261026f828620549251928392836107df565b0390a26001805580f35b634e487b7160e01b875260118852602487fd5b5082346101e8576020928360031936011261019c57358152600283528181209082516102b7816106cd565b8351835480825284845286842087830191855b81811061039e57505050816102e09103826106fe565b8152600180930194845191828288549182815201908198865283862090865b81811061038b57505050836103159103846106fe565b8282820152519185519580870190875283518091528260608801940190855b81811061036f57505050858303868301525180835291810195925b82811061035c5785870386f35b835187529581019592810192840161034f565b82516001600160a01b0316865294840194918401918701610334565b82548452928501929188019188016102ff565b82546001600160a01b0316845292890192600192830192016102ca565b503461012e576020806003193601126104b6578235926103d96107fa565b8385526003825282852033865282528285205490811561047357848652600383528386203387528352838620805491838303928311610460575086809381938293553382f115610456576000805160206108518339815191529161026f9184865260038152818620903387525280852054905191829133836107df565b81513d85823e3d90fd5b634e487b7160e01b885260119052602487fd5b835162461bcd60e51b8152908101839052601e60248201527f496e73756666696369656e7420636c61696d61626c652062616c616e636500006044820152606490fd5b8380fd5b50903461012e57606036600319011261012e5760248035926001600160401b03929091908385116106c957366023860112156106c95784810135916104fe83610721565b9561050b855197886106fe565b838752602093828589019160051b830101913683116106c5578301905b8282106106a657505050604435938585116106a257366023860112156106a257848301359461055686610721565b95610563835197886106fe565b808752838688019160051b8301019136831161069e5784879101915b83831061068e5750505050610592610753565b80519661059e886106cd565b875283870194855282358852600284528720955191825186811161064f57600160401b9384821161067c5785906105da838b54818d558c6107ab565b01888a52858a208a5b83811061066157505050506001809701945192835196871161064f57861161063e5750508190610618858554818755866107ab565b0191855280852090855b84811061062d578680f35b835183820155928101928501610622565b634e487b7160e01b88526041905286fd5b50634e487b7160e01b88526041905286fd5b82516001600160a01b031682820155918701916001016105e3565b634e487b7160e01b8a5260418352838afd5b823581529181019187910161057f565b8a80fd5b8780fd5b81356001600160a01b038116810361069e578152908501908501610528565b8980fd5b8580fd5b604081019081106001600160401b038211176106e857604052565b634e487b7160e01b600052604160045260246000fd5b601f909101601f19168101906001600160401b038211908210176106e857604052565b6001600160401b0381116106e85760051b60200190565b602435906001600160a01b038216820361074e57565b600080fd5b6000546001600160a01b0316330361076757565b606460405162461bcd60e51b815260206004820152602060248201527f4f776e61626c653a2063616c6c6572206973206e6f7420746865206f776e65726044820152fd5b90918281106107b957505050565b60009182526020822092830192015b8281106107d457505050565b8181556001016107c8565b6001600160a01b039091168152602081019190915260400190565b60026001541461080b576002600155565b60405162461bcd60e51b815260206004820152601f60248201527f5265656e7472616e637947756172643a207265656e7472616e742063616c6c006044820152606490fdfeae8f8bf7a17e85228ceb45755da4f4caefd40f17bfad89e34e910a6f952c17008be0079c531659141344cd1fd0a4f28419497f9722a3daafe3b4186f6b6457e0a264697066735822122007b64eac58e91ea46a2e1fd8f3caadbd2a8c507ee44e358536d4167c2f7bd19e64736f6c63430008110033",
  "linkReferences": {},
  "deployedLinkReferences": {}
}