{
  "_format": "hh-sol-artifact-1",
  "contractName": "Curation",
  "sourceName": "contracts/Curation.sol",
  "abi": [
    {
      "anonymous": false,
      "inputs": [
        {
          "indexed": true,
          "internalType": "uint256",
          "name": "id",
          "type": "uint256"
        },
        {
          "indexed": false,
          "internalType": "uint256",
          "name": "galleryId",
          "type": "uint256"
        },
        {
          "indexed": false,
          "internalType": "address",
          "name": "collection",
          "type": "address"
        },
        {
          "indexed": false,
          "internalType": "uint256",
          "name": "tokenId",
          "type": "uint256"
        },
        {
          "indexed": false,
          "internalType": "address",
          "name": "origin",
          "type": "address"
        },
        {
          "indexed": false,
          "internalType": "uint64",
          "name": "timestamp",
          "type": "uint64"
        }
      ],
      "name": "ExhibitCanceled",
      "type": "event"
    },
    {
      "anonymous": false,
      "inputs": [
        {
          "indexed": true,
          "internalType": "uint256",
          "name": "id",
          "type": "uint256"
        },
        {
          "indexed": false,
          "internalType": "uint256",
          "name": "galleryId",
          "type": "uint256"
        },
        {
          "indexed": false,
          "internalType": "address",
          "name": "collection",
          "type": "address"
        },
        {
          "indexed": false,
          "internalType": "uint256",
          "name": "tokenId",
          "type": "uint256"
        },
        {
          "indexed": false,
          "internalType": "address",
          "name": "origin",
          "type": "address"
        },
        {
          "indexed": false,
          "internalType": "uint64",
          "name": "timestamp",
          "type": "uint64"
        }
      ],
      "name": "ExhibitFrozen",
      "type": "event"
    },
    {
      "anonymous": false,
      "inputs": [
        {
          "indexed": true,
          "internalType": "uint256",
          "name": "id",
          "type": "uint256"
        },
        {
          "indexed": false,
          "internalType": "uint256",
          "name": "galleryId",
          "type": "uint256"
        },
        {
          "indexed": false,
          "internalType": "address",
          "name": "collection",
          "type": "address"
        },
        {
          "indexed": false,
          "internalType": "uint256",
          "name": "tokenId",
          "type": "uint256"
        },
        {
          "indexed": false,
          "internalType": "address",
          "name": "origin",
          "type": "address"
        },
        {
          "indexed": false,
          "internalType": "uint64",
          "name": "expiration",
          "type": "uint64"
        },
        {
          "indexed": false,
          "internalType": "uint256",
          "name": "price",
          "type": "uint256"
        },
        {
          "indexed": false,
          "internalType": "string",
          "name": "location",
          "type": "string"
        },
        {
          "indexed": false,
          "internalType": "string",
          "name": "url",
          "type": "string"
        },
        {
          "indexed": false,
          "internalType": "string",
          "name": "detail",
          "type": "string"
        },
        {
          "indexed": false,
          "internalType": "uint64",
          "name": "timestamp",
          "type": "uint64"
        }
      ],
      "name": "ExhibitListed",
      "type": "event"
    },
    {
      "anonymous": false,
      "inputs": [
        {
          "indexed": true,
          "internalType": "uint256",
          "name": "id",
          "type": "uint256"
        },
        {
          "indexed": false,
          "internalType": "uint256",
          "name": "galleryId",
          "type": "uint256"
        },
        {
          "indexed": false,
          "internalType": "address",
          "name": "collection",
          "type": "address"
        },
        {
          "indexed": false,
          "internalType": "uint256",
          "name": "tokenId",
          "type": "uint256"
        },
        {
          "indexed": false,
          "internalType": "address",
          "name": "origin",
          "type": "address"
        },
        {
          "indexed": false,
          "internalType": "uint64",
          "name": "timestamp",
          "type": "uint64"
        }
      ],
      "name": "ExhibitRedeemed",
      "type": "event"
    },
    {
      "anonymous": false,
      "inputs": [
        {
          "indexed": true,
          "internalType": "uint256",
          "name": "id",
          "type": "uint256"
        },
        {
          "indexed": false,
          "internalType": "uint256",
          "name": "galleryId",
          "type": "uint256"
        },
        {
          "indexed": false,
          "internalType": "address",
          "name": "collection",
          "type": "address"
        },
        {
          "indexed": false,
          "internalType": "uint256",
          "name": "tokenId",
          "type": "uint256"
        },
        {
          "indexed": false,
          "internalType": "address",
          "name": "origin",
          "type": "address"
        },
        {
          "indexed": false,
          "internalType": "uint256",
          "name": "price",
          "type": "uint256"
        },
        {
          "indexed": false,
          "internalType": "uint64",
          "name": "timestamp",
          "type": "uint64"
        }
      ],
      "name": "ExhibitSold",
      "type": "event"
    },
    {
      "anonymous": false,
      "inputs": [
        {
          "indexed": true,
          "internalType": "uint256",
          "name": "id",
          "type": "uint256"
        },
        {
          "indexed": false,
          "internalType": "address",
          "name": "collection",
          "type": "address"
        },
        {
          "indexed": false,
          "internalType": "uint256",
          "name": "tokenId",
          "type": "uint256"
        },
        {
          "indexed": false,
          "internalType": "address",
          "name": "owner",
          "type": "address"
        },
        {
          "indexed": false,
          "internalType": "string",
          "name": "spaceType",
          "type": "string"
        },
        {
          "indexed": false,
          "internalType": "string",
          "name": "name",
          "type": "string"
        },
        {
          "indexed": false,
          "internalType": "string",
          "name": "metadataUri",
          "type": "string"
        },
        {
          "indexed": false,
          "internalType": "bool",
          "name": "isToken",
          "type": "bool"
        },
        {
          "indexed": false,
          "internalType": "uint64",
          "name": "timestamp",
          "type": "uint64"
        },
        {
          "indexed": false,
          "internalType": "address[]",
          "name": "payees",
          "type": "address[]"
        },
        {
          "indexed": false,
          "internalType": "uint256[]",
          "name": "commissionRates",
          "type": "uint256[]"
        },
        {
          "indexed": false,
          "internalType": "address",
          "name": "commissionPool",
          "type": "address"
        }
      ],
      "name": "GalleryCreated",
      "type": "event"
    },
    {
      "anonymous": false,
      "inputs": [
        {
          "indexed": false,
          "internalType": "uint8",
          "name": "version",
          "type": "uint8"
        }
      ],
      "name": "Initialized",
      "type": "event"
    },
    {
      "anonymous": false,
      "inputs": [
        {
          "indexed": true,
          "internalType": "uint256",
          "name": "id",
          "type": "uint256"
        },
        {
          "indexed": false,
          "internalType": "address",
          "name": "collection",
          "type": "address"
        },
        {
          "indexed": false,
          "internalType": "uint256",
          "name": "tokenId",
          "type": "uint256"
        },
        {
          "indexed": false,
          "internalType": "address",
          "name": "from",
          "type": "address"
        },
        {
          "indexed": false,
          "internalType": "address",
          "name": "to",
          "type": "address"
        },
        {
          "indexed": false,
          "internalType": "uint256",
          "name": "price",
          "type": "uint256"
        },
        {
          "indexed": false,
          "internalType": "uint256",
          "name": "galleryId",
          "type": "uint256"
        },
        {
          "indexed": false,
          "internalType": "uint256",
          "name": "exhibitId",
          "type": "uint256"
        },
        {
          "indexed": false,
          "internalType": "uint64",
          "name": "exhibitExpiredAt",
          "type": "uint64"
        },
        {
          "indexed": false,
          "internalType": "uint64",
          "name": "timestamp",
          "type": "uint64"
        }
      ],
      "name": "OfferAccepted",
      "type": "event"
    },
    {
      "anonymous": false,
      "inputs": [
        {
          "indexed": true,
          "internalType": "uint256",
          "name": "id",
          "type": "uint256"
        },
        {
          "indexed": false,
          "internalType": "address",
          "name": "collection",
          "type": "address"
        },
        {
          "indexed": false,
          "internalType": "uint256",
          "name": "tokenId",
          "type": "uint256"
        },
        {
          "indexed": false,
          "internalType": "address",
          "name": "from",
          "type": "address"
        },
        {
          "indexed": false,
          "internalType": "address",
          "name": "to",
          "type": "address"
        },
        {
          "indexed": false,
          "internalType": "uint64",
          "name": "timestamp",
          "type": "uint64"
        }
      ],
      "name": "OfferCanceled",
      "type": "event"
    },
    {
      "anonymous": false,
      "inputs": [
        {
          "indexed": true,
          "internalType": "uint256",
          "name": "id",
          "type": "uint256"
        },
        {
          "indexed": false,
          "internalType": "address",
          "name": "collection",
          "type": "address"
        },
        {
          "indexed": false,
          "internalType": "uint256",
          "name": "tokenId",
          "type": "uint256"
        },
        {
          "indexed": false,
          "internalType": "address",
          "name": "from",
          "type": "address"
        },
        {
          "indexed": false,
          "internalType": "address",
          "name": "to",
          "type": "address"
        },
        {
          "indexed": false,
          "internalType": "uint256",
          "name": "price",
          "type": "uint256"
        },
        {
          "indexed": false,
          "internalType": "uint256",
          "name": "galleryId",
          "type": "uint256"
        },
        {
          "indexed": false,
          "internalType": "uint64",
          "name": "offerStartAt",
          "type": "uint64"
        },
        {
          "indexed": false,
          "internalType": "uint64",
          "name": "offerExpiredAt",
          "type": "uint64"
        },
        {
          "indexed": false,
          "internalType": "uint64",
          "name": "exhibitExpiredAt",
          "type": "uint64"
        },
        {
          "indexed": false,
          "internalType": "string",
          "name": "url",
          "type": "string"
        },
        {
          "indexed": false,
          "internalType": "string",
          "name": "detail",
          "type": "string"
        }
      ],
      "name": "OfferCreated",
      "type": "event"
    },
    {
      "anonymous": false,
      "inputs": [
        {
          "indexed": true,
          "internalType": "uint256",
          "name": "id",
          "type": "uint256"
        },
        {
          "indexed": false,
          "internalType": "address",
          "name": "collection",
          "type": "address"
        },
        {
          "indexed": false,
          "internalType": "uint256",
          "name": "tokenId",
          "type": "uint256"
        },
        {
          "indexed": false,
          "internalType": "address",
          "name": "from",
          "type": "address"
        },
        {
          "indexed": false,
          "internalType": "address",
          "name": "to",
          "type": "address"
        },
        {
          "indexed": false,
          "internalType": "uint64",
          "name": "timestamp",
          "type": "uint64"
        }
      ],
      "name": "OfferRejected",
      "type": "event"
    },
    {
      "inputs": [
        {
          "internalType": "uint256",
          "name": "galleryId",
          "type": "uint256"
        },
        {
          "internalType": "uint256",
          "name": "exhibitId",
          "type": "uint256"
        }
      ],
      "name": "buy",
      "outputs": [],
      "stateMutability": "payable",
      "type": "function"
    },
    {
      "inputs": [
        {
          "internalType": "uint256",
          "name": "galleryId",
          "type": "uint256"
        },
        {
          "internalType": "uint256",
          "name": "exhibitId",
          "type": "uint256"
        }
      ],
      "name": "cancel",
      "outputs": [],
      "stateMutability": "nonpayable",
      "type": "function"
    },
    {
      "inputs": [
        {
          "internalType": "uint256",
          "name": "offerId",
          "type": "uint256"
        }
      ],
      "name": "cancelOffer",
      "outputs": [],
      "stateMutability": "nonpayable",
      "type": "function"
    },
    {
      "inputs": [
        {
          "internalType": "address",
          "name": "collection",
          "type": "address"
        },
        {
          "internalType": "uint256",
          "name": "tokenId",
          "type": "uint256"
        },
        {
          "internalType": "string",
          "name": "spaceType",
          "type": "string"
        },
        {
          "internalType": "string",
          "name": "name",
          "type": "string"
        },
        {
          "internalType": "string",
          "name": "metadataUri",
          "type": "string"
        },
        {
          "internalType": "bool",
          "name": "isToken",
          "type": "bool"
        },
        {
          "internalType": "address[]",
          "name": "payees",
          "type": "address[]"
        },
        {
          "internalType": "uint256[]",
          "name": "commissionRates",
          "type": "uint256[]"
        }
      ],
      "name": "createGallery",
      "outputs": [],
      "stateMutability": "nonpayable",
      "type": "function"
    },
    {
      "inputs": [
        {
          "internalType": "uint256",
          "name": "",
          "type": "uint256"
        }
      ],
      "name": "exhibits",
      "outputs": [
        {
          "internalType": "uint256",
          "name": "id",
          "type": "uint256"
        },
        {
          "internalType": "uint256",
          "name": "galleryId",
          "type": "uint256"
        },
        {
          "internalType": "address",
          "name": "collection",
          "type": "address"
        },
        {
          "internalType": "uint256",
          "name": "tokenId",
          "type": "uint256"
        },
        {
          "internalType": "address",
          "name": "origin",
          "type": "address"
        },
        {
          "internalType": "uint64",
          "name": "expiration",
          "type": "uint64"
        },
        {
          "internalType": "uint256",
          "name": "price",
          "type": "uint256"
        },
        {
          "internalType": "string",
          "name": "location",
          "type": "string"
        },
        {
          "internalType": "string",
          "name": "url",
          "type": "string"
        },
        {
          "internalType": "string",
          "name": "detail",
          "type": "string"
        },
        {
          "internalType": "enum Curation.ExhibitStatus",
          "name": "status",
          "type": "uint8"
        }
      ],
      "stateMutability": "view",
      "type": "function"
    },
    {
      "inputs": [
        {
          "internalType": "uint256",
          "name": "galleryId",
          "type": "uint256"
        },
        {
          "internalType": "uint256",
          "name": "exhibitId",
          "type": "uint256"
        }
      ],
      "name": "freeze",
      "outputs": [],
      "stateMutability": "nonpayable",
      "type": "function"
    },
    {
      "inputs": [
        {
          "internalType": "uint256",
          "name": "",
          "type": "uint256"
        }
      ],
      "name": "galleries",
      "outputs": [
        {
          "internalType": "uint256",
          "name": "id",
          "type": "uint256"
        },
        {
          "internalType": "address",
          "name": "collection",
          "type": "address"
        },
        {
          "internalType": "uint256",
          "name": "tokenId",
          "type": "uint256"
        },
        {
          "internalType": "address",
          "name": "owner",
          "type": "address"
        },
        {
          "internalType": "string",
          "name": "spaceType",
          "type": "string"
        },
        {
          "internalType": "string",
          "name": "name",
          "type": "string"
        },
        {
          "internalType": "string",
          "name": "metadataUri",
          "type": "string"
        },
        {
          "internalType": "address",
          "name": "commissionPool",
          "type": "address"
        }
      ],
      "stateMutability": "view",
      "type": "function"
    },
    {
      "inputs": [
        {
          "internalType": "address",
          "name": "curator",
          "type": "address"
        }
      ],
      "name": "getCuratorGalleries",
      "outputs": [
        {
          "components": [
            {
              "internalType": "uint256",
              "name": "id",
              "type": "uint256"
            },
            {
              "internalType": "address",
              "name": "collection",
              "type": "address"
            },
            {
              "internalType": "uint256",
              "name": "tokenId",
              "type": "uint256"
            },
            {
              "internalType": "address",
              "name": "owner",
              "type": "address"
            },
            {
              "internalType": "string",
              "name": "spaceType",
              "type": "string"
            },
            {
              "internalType": "string",
              "name": "name",
              "type": "string"
            },
            {
              "internalType": "string",
              "name": "metadataUri",
              "type": "string"
            },
            {
              "internalType": "address",
              "name": "commissionPool",
              "type": "address"
            }
          ],
          "internalType": "struct Curation.Gallery[]",
          "name": "",
          "type": "tuple[]"
        }
      ],
      "stateMutability": "view",
      "type": "function"
    },
    {
      "inputs": [
        {
          "internalType": "uint256",
          "name": "galleryId",
          "type": "uint256"
        }
      ],
      "name": "getGalleryExhibits",
      "outputs": [
        {
          "components": [
            {
              "internalType": "uint256",
              "name": "id",
              "type": "uint256"
            },
            {
              "internalType": "uint256",
              "name": "galleryId",
              "type": "uint256"
            },
            {
              "internalType": "address",
              "name": "collection",
              "type": "address"
            },
            {
              "internalType": "uint256",
              "name": "tokenId",
              "type": "uint256"
            },
            {
              "internalType": "address",
              "name": "origin",
              "type": "address"
            },
            {
              "internalType": "uint64",
              "name": "expiration",
              "type": "uint64"
            },
            {
              "internalType": "uint256",
              "name": "price",
              "type": "uint256"
            },
            {
              "internalType": "string",
              "name": "location",
              "type": "string"
            },
            {
              "internalType": "string",
              "name": "url",
              "type": "string"
            },
            {
              "internalType": "string",
              "name": "detail",
              "type": "string"
            },
            {
              "internalType": "enum Curation.ExhibitStatus",
              "name": "status",
              "type": "uint8"
            }
          ],
          "internalType": "struct Curation.Exhibit[]",
          "name": "",
          "type": "tuple[]"
        }
      ],
      "stateMutability": "view",
      "type": "function"
    },
    {
      "inputs": [],
      "name": "getReceivedOffers",
      "outputs": [
        {
          "components": [
            {
              "internalType": "uint256",
              "name": "id",
              "type": "uint256"
            },
            {
              "internalType": "address",
              "name": "collection",
              "type": "address"
            },
            {
              "internalType": "uint256",
              "name": "tokenId",
              "type": "uint256"
            },
            {
              "internalType": "address",
              "name": "from",
              "type": "address"
            },
            {
              "internalType": "address",
              "name": "to",
              "type": "address"
            },
            {
              "internalType": "uint256",
              "name": "price",
              "type": "uint256"
            },
            {
              "internalType": "uint256",
              "name": "galleryId",
              "type": "uint256"
            },
            {
              "internalType": "uint64",
              "name": "offerStartAt",
              "type": "uint64"
            },
            {
              "internalType": "uint64",
              "name": "offerExpiredAt",
              "type": "uint64"
            },
            {
              "internalType": "uint64",
              "name": "exhibitExpiredAt",
              "type": "uint64"
            },
            {
              "internalType": "string",
              "name": "url",
              "type": "string"
            },
            {
              "internalType": "string",
              "name": "detail",
              "type": "string"
            },
            {
              "internalType": "enum Curation.OfferStatus",
              "name": "status",
              "type": "uint8"
            }
          ],
          "internalType": "struct Curation.Offer[]",
          "name": "",
          "type": "tuple[]"
        }
      ],
      "stateMutability": "view",
      "type": "function"
    },
    {
      "inputs": [],
      "name": "getSentOffers",
      "outputs": [
        {
          "components": [
            {
              "internalType": "uint256",
              "name": "id",
              "type": "uint256"
            },
            {
              "internalType": "address",
              "name": "collection",
              "type": "address"
            },
            {
              "internalType": "uint256",
              "name": "tokenId",
              "type": "uint256"
            },
            {
              "internalType": "address",
              "name": "from",
              "type": "address"
            },
            {
              "internalType": "address",
              "name": "to",
              "type": "address"
            },
            {
              "internalType": "uint256",
              "name": "price",
              "type": "uint256"
            },
            {
              "internalType": "uint256",
              "name": "galleryId",
              "type": "uint256"
            },
            {
              "internalType": "uint64",
              "name": "offerStartAt",
              "type": "uint64"
            },
            {
              "internalType": "uint64",
              "name": "offerExpiredAt",
              "type": "uint64"
            },
            {
              "internalType": "uint64",
              "name": "exhibitExpiredAt",
              "type": "uint64"
            },
            {
              "internalType": "string",
              "name": "url",
              "type": "string"
            },
            {
              "internalType": "string",
              "name": "detail",
              "type": "string"
            },
            {
              "internalType": "enum Curation.OfferStatus",
              "name": "status",
              "type": "uint8"
            }
          ],
          "internalType": "struct Curation.Offer[]",
          "name": "",
          "type": "tuple[]"
        }
      ],
      "stateMutability": "view",
      "type": "function"
    },
    {
      "inputs": [
        {
          "internalType": "address",
          "name": "owner",
          "type": "address"
        }
      ],
      "name": "initialize",
      "outputs": [],
      "stateMutability": "nonpayable",
      "type": "function"
    },
    {
      "inputs": [
        {
          "internalType": "uint256",
          "name": "galleryId",
          "type": "uint256"
        },
        {
          "internalType": "uint256",
          "name": "exhibitId",
          "type": "uint256"
        },
        {
          "internalType": "string",
          "name": "location",
          "type": "string"
        }
      ],
      "name": "list",
      "outputs": [],
      "stateMutability": "nonpayable",
      "type": "function"
    },
    {
      "inputs": [
        {
          "internalType": "uint256",
          "name": "galleryId",
          "type": "uint256"
        },
        {
          "internalType": "address",
          "name": "collection",
          "type": "address"
        },
        {
          "internalType": "uint256",
          "name": "tokenId",
          "type": "uint256"
        },
        {
          "internalType": "uint256",
          "name": "price",
          "type": "uint256"
        },
        {
          "internalType": "string",
          "name": "location",
          "type": "string"
        }
      ],
      "name": "listOwned",
      "outputs": [],
      "stateMutability": "nonpayable",
      "type": "function"
    },
    {
      "inputs": [
        {
          "internalType": "uint256",
          "name": "",
          "type": "uint256"
        }
      ],
      "name": "offers",
      "outputs": [
        {
          "internalType": "uint256",
          "name": "id",
          "type": "uint256"
        },
        {
          "internalType": "address",
          "name": "collection",
          "type": "address"
        },
        {
          "internalType": "uint256",
          "name": "tokenId",
          "type": "uint256"
        },
        {
          "internalType": "address",
          "name": "from",
          "type": "address"
        },
        {
          "internalType": "address",
          "name": "to",
          "type": "address"
        },
        {
          "internalType": "uint256",
          "name": "price",
          "type": "uint256"
        },
        {
          "internalType": "uint256",
          "name": "galleryId",
          "type": "uint256"
        },
        {
          "internalType": "uint64",
          "name": "offerStartAt",
          "type": "uint64"
        },
        {
          "internalType": "uint64",
          "name": "offerExpiredAt",
          "type": "uint64"
        },
        {
          "internalType": "uint64",
          "name": "exhibitExpiredAt",
          "type": "uint64"
        },
        {
          "internalType": "string",
          "name": "url",
          "type": "string"
        },
        {
          "internalType": "string",
          "name": "detail",
          "type": "string"
        },
        {
          "internalType": "enum Curation.OfferStatus",
          "name": "status",
          "type": "uint8"
        }
      ],
      "stateMutability": "view",
      "type": "function"
    },
    {
      "inputs": [
        {
          "internalType": "uint256",
          "name": "galleryId",
          "type": "uint256"
        },
        {
          "internalType": "uint256",
          "name": "exhibitId",
          "type": "uint256"
        }
      ],
      "name": "redeemForce",
      "outputs": [],
      "stateMutability": "nonpayable",
      "type": "function"
    },
    {
      "inputs": [
        {
          "internalType": "uint256",
          "name": "",
          "type": "uint256"
        }
      ],
      "name": "redeemRequests",
      "outputs": [
        {
          "internalType": "uint256",
          "name": "id",
          "type": "uint256"
        },
        {
          "internalType": "uint256",
          "name": "galleryId",
          "type": "uint256"
        },
        {
          "internalType": "uint256",
          "name": "createAt",
          "type": "uint256"
        },
        {
          "internalType": "uint256",
          "name": "endAt",
          "type": "uint256"
        }
      ],
      "stateMutability": "view",
      "type": "function"
    },
    {
      "inputs": [
        {
          "internalType": "uint256",
          "name": "galleryId",
          "type": "uint256"
        },
        {
          "internalType": "uint256",
          "name": "exhibitId",
          "type": "uint256"
        }
      ],
      "name": "redeemWithFreeze",
      "outputs": [],
      "stateMutability": "nonpayable",
      "type": "function"
    },
    {
      "inputs": [
        {
          "internalType": "uint256",
          "name": "offerId",
          "type": "uint256"
        },
        {
          "internalType": "bool",
          "name": "accept",
          "type": "bool"
        }
      ],
      "name": "replyOffer",
      "outputs": [],
      "stateMutability": "nonpayable",
      "type": "function"
    },
    {
      "inputs": [
        {
          "internalType": "address",
          "name": "collection",
          "type": "address"
        },
        {
          "internalType": "uint256",
          "name": "tokenId",
          "type": "uint256"
        },
        {
          "internalType": "uint256",
          "name": "galleryId",
          "type": "uint256"
        },
        {
          "internalType": "uint256",
          "name": "price",
          "type": "uint256"
        },
        {
          "internalType": "uint64",
          "name": "offerDuration",
          "type": "uint64"
        },
        {
          "internalType": "uint64",
          "name": "exhibitExpiredAt",
          "type": "uint64"
        },
        {
          "internalType": "string",
          "name": "url",
          "type": "string"
        },
        {
          "internalType": "string",
          "name": "detail",
          "type": "string"
        }
      ],
      "name": "sendOffer",
      "outputs": [],
      "stateMutability": "nonpayable",
      "type": "function"
    },
    {
      "inputs": [
        {
          "internalType": "address",
          "name": "curator",
          "type": "address"
        },
        {
          "internalType": "bool",
          "name": "enable",
          "type": "bool"
        }
      ],
      "name": "setWhitelist",
      "outputs": [],
      "stateMutability": "nonpayable",
      "type": "function"
    },
    {
      "inputs": [
        {
          "internalType": "bool",
          "name": "enable",
          "type": "bool"
        }
      ],
      "name": "toggleWhitelist",
      "outputs": [],
      "stateMutability": "nonpayable",
      "type": "function"
    },
    {
      "inputs": [
        {
          "internalType": "bytes32",
          "name": "",
          "type": "bytes32"
        },
        {
          "internalType": "uint256",
          "name": "",
          "type": "uint256"
        }
      ],
      "name": "tokenHashToOfferIds",
      "outputs": [
        {
          "internalType": "uint256",
          "name": "",
          "type": "uint256"
        }
      ],
      "stateMutability": "view",
      "type": "function"
    },
    {
      "inputs": [
        {
          "internalType": "address",
          "name": "newOwner",
          "type": "address"
        }
      ],
      "name": "transferOwnership",
      "outputs": [],
      "stateMutability": "nonpayable",
      "type": "function"
    },
    {
      "inputs": [
        {
          "internalType": "uint256",
          "name": "newFeeRate",
          "type": "uint256"
        }
      ],
      "name": "updateBaseFeeRate",
      "outputs": [],
      "stateMutability": "nonpayable",
      "type": "function"
    },
    {
      "inputs": [
        {
          "internalType": "address",
          "name": "",
          "type": "address"
        }
      ],
      "name": "whitelist",
      "outputs": [
        {
          "internalType": "bool",
          "name": "",
          "type": "bool"
        }
      ],
      "stateMutability": "view",
      "type": "function"
    }
  ],
  "bytecode": "0x6080806040523461001657615b6e908161001c8239f35b600080fdfe6080604052600436101561001257600080fd5b6000803560e01c8062efa8951461304757806301640ca414612f8557806317a59f9d14612f555780631ca177ed146128ba5780632a7ad08c146126175780632f8e456d146125f757806333b80a96146125b057806335d7a0521461259557806349c978e2146124025780635242458c14611b9957806353d6fd5914611b3e5780636c1556051461180e57806380e3f1ad146117c95780638a72ea6a146116cd5780639b19251a1461168f578063a571976d146114b2578063a815b68914611485578063abd46f6e14610cf6578063c24d346414610bfa578063c4d66de8146109ce578063c6f7812f14610986578063d4b0cc671461094a578063d6febde814610393578063e85ba3e914610346578063ef706adf146101dd5763f2fde38b1461013a57600080fd5b346101da5760203660031901126101da57610153613319565b604154906001600160a01b039061016d8284163314613520565b16908115610186576001600160a01b0319161760415580f35b60405162461bcd60e51b815260206004820152602660248201527f4f776e61626c653a206e6577206f776e657220697320746865207a65726f206160448201526564647265737360d01b6064820152608490fd5b80fd5b50346101da5760208060031936011261034257600435906101fc6136af565b61020d6102088361509a565b6135cb565b818352603c815260ff600a60408520015416600481101561032e576102329015613705565b818352603c815260408320600301546001600160a01b039190821633036102de5790603c7f8cb77cc41a7d6f7d0fbefa030d8a5556db3463c38f010b6f3e2e8aec995df71992848652818152600a6040872001600360ff1982541617905584865252806001604086200154166102d4600260408720015491836003604089200154169360046040892001541660405194859460018060401b034216938661374d565b0390a26001805580f35b6084906040519062461bcd60e51b82526004820152602360248201527f4f6e6c792067616c6c657279206f776e65722063616e2063616e63656c206f666044820152623332b960e91b6064820152fd5b634e487b7160e01b84526021600452602484fd5b5080fd5b50346101da5760203660031901126101da5760406080916004358152603f602052208054906001810154906003600282015491015491604051938452602084015260408301526060820152f35b5061039d3661313e565b90916103a76136af565b6103b3610208846150ad565b6103c46103bf83615087565b6143f3565b6103d66103d18385615036565b61489c565b818152603d6020526040812090604051906103f0826131a1565b825482526001830154602083015260028301546001600160a01b0390811660408401908152600385015460608501526004850154918216608085015260a091821c6001600160401b031691840191909152600584015460c0840152926104989060ff9060099061046260068201613233565b60e087015261047360078201613233565b61010087015261048560088201613233565b61012087015201541661014084016137a9565b60c0820151341061090e57809460248260018060a01b0360365416604051928380926337bcb2eb60e01b82528660048301525afa94851561078d57839184966107be575b5083975b82518910156105d2576001600160a01b036104fb8a856137dc565b51166105078a896137dc565b5160c08801519181838102048314821517156105be576036546001600160a01b031690813b156105ba578890604460405180948193636e553f6560e01b83528c60048401526024830152670de0b6b3a764000088880204905af180156105af57908891610597575b505091670de0b6b3a764000061058b926105919402049061492d565b986137cd565b976104e0565b6105a09061318e565b6105ab57863861056f565b8680fd5b6040513d8a823e3d90fd5b8880fd5b634e487b7160e01b88526011600452602488fd5b849188879260395460c0850151908181029181830414901517156107aa5790670de0b6b3a764000086920490828080808560018060a01b03604154168282156107a1575bf11561077e57608086015160c08701518493849384936001600160a01b03169261064992916106449161493a565b61493a565b90828215610798575bf11561078d578151606084015185916001600160a01b0316803b15610789576040516323b872dd60e01b8152918391839182908490829061069890333060048501613787565b03925af1801561077e57610766575b50918160c0927fc7a0defc2181bbd631aaec522445ff2430392a68b954b10a2edb0a81611273639452603d60205260096040872001600360ff198254161790558552603d60205260006006604087200161070a6107048254613154565b82613642565b5583519360208101519160018060a01b039051169060608101518460018060a01b0360808401511692015192604051948552602085015260408401526060830152608082015260018060401b03421660a0820152a26001805580f35b61076f9061318e565b61077a5783856106a7565b8380fd5b6040513d84823e3d90fd5b8280fd5b6040513d85823e3d90fd5b506108fc610652565b506108fc610616565b634e487b7160e01b86526011600452602486fd5b915094503d908184823e6107d28282613210565b604081838101031261077a578051906001600160401b03821161090a57828101601f83830101121561090a578181015161080b816134ce565b926108196040519485613210565b818452602084019085840160208460051b8387010101116108e75790602082850101915b60208460051b828701010183106108ef57505050506020810151926001600160401b0384116108eb57808201601f8584010112156108eb578382015191610883836134ce565b946108916040519687613210565b8386526020860192820160208560051b8385010101116108e7579190602083820101925b60208560051b828401010184106108d35750505050509094386104dc565b6020808094865181520194019392506108b5565b8780fd5b8580fd5b60208080936108fd8661360b565b815201930192915061083d565b8480fd5b60405162461bcd60e51b8152602060048201526014602482015273496e73756666696369656e742062616c616e636560601b6044820152606490fd5b50346101da5761097f61095c3661313e565b9061097260018060a01b03604154163314613520565b61097a6136af565b614caa565b6001805580f35b50346101da5760403660031901126101da57602435906004358152603b602052604081209081548310156101da5760206109c084846134f2565b90546040519160031b1c8152f35b50346101da5760203660031901126101da576109e8613319565b81549060ff8260081c161591828093610bed575b8015610bd6575b15610b7a5760ff198116600117845582610b69575b50604180546001600160a01b03199081166001600160a01b03938416179091558354909190610a559060081c60ff16610a508161356b565b61356b565b60018055604051610a18808201906001600160401b03821183831017610b5557918091879594936150c18339039084f090811561078d578391169182603654918216176036551617803b156103425781809160246040518094819363189acdbd60e31b83523060048401525af1801561077e57610b41575b505060056037556706f05b59d3b200006038556039829055603a80546001600160881b03191663278d00006203c267604f1b01179055610b0a5780f35b61ff001981541681557f7f26b83ff96e1f2b6a682f133852f6798a09c465da95921460cefb3847402498602060405160018152a180f35b610b4a9061318e565b610342578138610acd565b634e487b7160e01b87526041600452602487fd5b61ffff191661010117835538610a18565b60405162461bcd60e51b815260206004820152602e60248201527f496e697469616c697a61626c653a20636f6e747261637420697320616c72656160448201526d191e481a5b9a5d1a585b1a5e995960921b6064820152608490fd5b50303b158015610a035750600160ff821614610a03565b50600160ff8216106109fc565b50346101da5760203660031901126101da576004358152603d602052604090208054600182015491600160a01b60019003908160028201541691600382015490600483015460058401549060068501610c5290613233565b92610c5f60078701613233565b94610c6c60088801613233565b966009015460ff16976040519a8b9a8b5260208b015260408a0152606089015281166080880152600160401b600190039060a01c1660a087015260c08601526101608060e08701528501610cbf916132d9565b848103610100860152610cd1916132d9565b838103610120850152610ce3916132d9565b906101408301610cf2916134e5565b0390f35b50346101da576101003660031901126101da57610d11613319565b60843591906001600160401b03831683036114805760a435906001600160401b03821682036114805760c4356001600160401b03811161077a57610d5990369060040161332f565b9060e4356001600160401b03811161090a57610d7990369060040161332f565b610d816136af565b603a546001600160401b03600882901c8116908816116108eb576001600160401b0342811690861611156108eb576001600160401b03428116868216039190821161146c5760481c6001600160401b0390811691161161090a57610de96102086044356150ad565b6044358552603e60205260408520600301546001600160a01b0316923384900361141d576001603454019485603455604051976331a9108f60e11b895260243560048a015260208960248160018060a01b0389165afa9889156105af5788996113e1575b506001600160401b0342811682821601116113cb576044358852603e6020526040808920600301549051906001600160a01b0316610e8a826131d9565b88825260018060a01b03871660208301526024356040830152606082015260018060a01b038a16608082015260643560a082015260443560c082015260018060401b03421660e082015260018060401b0360018060401b03831660018060401b034216011661010082015260018060401b038316610120820152836101408201528461016082015288610180820152878952603c6020526040892090805182556001820160018060a01b036020830151169060018060a01b03199182825416179055604082015160028401556003830160018060a01b0360608401511682825416179055600483019060018060a01b036080840151169082541617905560a0810151600583015560c081015160068301556007820160018060401b0360e083015116815490600160401b600160801b0361010085015160401b1690600160801b600160c01b0361012086015160801b169260018060c01b031916171717905561014081015180519060018060401b03821161133d57819061101b826110126008880154613154565b6008880161366a565b602090601f831160011461135c578d92611351575b50508160011b916000199060031b1c19161760088301555b61016081015180519091906001600160401b03811161133d5761107b816110726009870154613154565b6009870161366a565b6020928c601f83116001146112c957610180949091836112be575b50508160011b916000199060031b1c19161760098401555b01519060048210156112aa57600a019060ff801983541691161790556110d660243586614f20565b98898952603b60205260408920541560001461122f57604051996001600160401b0360208c01908111908c11176112195760208b01604052888b528952603b60205260408920998a5460018c55806001106111fa575b50998952602089209989905b600182106111e6575050600080516020615ad983398151915297989950916102d49493916111d7935b604080516001600160a01b03998a1681526024356020820152908101999099529096166060880152606435608088015260443560a08801526001600160401b0342811660c08901819052968116909601861660e088015290941661010086015261016061012086018190528594908501906132d9565b908382036101408501526132d9565b80518c830155600190910190602001611138565b611213908c60005260016020600020918201910161362b565b3861112c565b634e487b7160e01b600052604160045260246000fd5b9091929394959697985060408920805490600160401b82101561129657926102d495928a611279846111d7976001600080516020615ad98339815191529e9d9c9a970181556134f2565b819291549060031b600019811b9283911b16911916179055611161565b634e487b7160e01b8b52604160045260248bfd5b634e487b7160e01b8a52602160045260248afd5b015190503880611096565b50909192600985018d5260208d20918d5b601f198516811061132557509183916001936101809695601f1981161061130c575b505050811b0160098401556110ae565b015160001960f88460031b161c191690553880806112fc565b919260206001819286850151815501940192016112da565b634e487b7160e01b8c52604160045260248cfd5b015190503880611030565b9250600885018d5260208d20908d935b601f19841685106113b0576001945083601f19811610611397575b505050811b016008830155611048565b015160001960f88460031b161c19169055388080611387565b8181015183556020948501946001909301929091019061136c565b634e487b7160e01b600052601160045260246000fd5b9098506020813d602011611415575b816113fd60209383613210565b810103126108e75761140e9061360b565b9738610e4d565b3d91506113f0565b60405162461bcd60e51b815260206004820152602160248201527f4f6e6c792067616c6c657279206f776e65722063616e206d616b65206f6666656044820152603960f91b6064820152608490fd5b634e487b7160e01b87526011600452602487fd5b600080fd5b50346101da5760403660031901126101da5761097f6114a26134bf565b6114aa6136af565b6004356137f0565b50346101da57806003193601126101da576034548190825b81811061162d57506114dc8392614e71565b9183905b8282106114f55760405180610cf286826133a8565b600180830180841161146c578652603c602090815260408720600401546001600160a01b039081163314611537575b50505090611531906137cd565b906114e0565b60ff600a6115f09260408b209060405195611551876131d9565b82548752818884015416908701526002820154604087015280600383015416606087015260048201541660809081870152600582015460a0870152600682015460c0870152600782015460018060401b039182821660e0890152828260401c166101008901521c166101208601526115cb60088201613233565b6101408601526115dd60098201613233565b610160860152015416610180830161361f565b6115fa83876137dc565b5261160582866137dc565b508101809111611619576115313880611524565b634e487b7160e01b85526011600452602485fd5b60018082018083116107aa578552603c60205260408520600401546001600160a01b03163314611667575b50611662906137cd565b6114ca565b8391930180911161167b5791611662611658565b634e487b7160e01b84526011600452602484fd5b50346101da5760203660031901126101da5760209060ff906040906001600160a01b036116ba613319565b1681528184522054166040519015158152f35b50346101da5760203660031901126101da5760406020916004358152603c835220805490610cf26117bd60018060a01b03926117ae84600183015416946002830154908060038501541690600485015416600585015460068601549160078701549361173b60088901613233565b9560ff600a61174c60098c01613233565b9a0154169b6040519e8f9e8f908152015260408d015260608c015260808b015260a08a015260c089015260018060401b039081811660e08a0152818160401c166101008a015260801c166101208801526101a0806101408901528701906132d9565b908582036101608701526132d9565b91610180840190613385565b50346101da5760203660031901126101da57600435801515809103611480576117fd60018060a01b03604154163314613520565b60ff8019603a5416911617603a5580f35b50346101da5760208060031936011261034257906004356035548291835b828110611af55750839061183f846134ce565b9361184d6040519586613210565b80855261185c601f19916134ce565b01855b818110611a95575050845b838110611973575050505060405191838301848452825180915260408401948060408360051b870101940192955b8287106118a55785850386f35b909192938280600192603f19898203018552611963885191825181528383015184820152858060a01b038060408501511660408301526060808501519083015260809081850151169082015260a0868060401b0381850151169082015260c0808401519082015261195361193f61192b60e08601516101608060e08701528501906132d9565b6101008087015190858303908601526132d9565b6101208086015190848303908501526132d9565b92610140809101519101906134e5565b9601920196019592919092611898565b6001969596808201808311611a81578852603d8752828160408a200154146119a8575b506119a0906137cd565b95949561186a565b60408894929420611a5960ff6009604051936119c3856131a1565b80548552858101548c86015260028101546001600160a01b039081166040870152600382015460608701526004820154908116608087015260a090811c6001600160401b031690860152600581015460c0860152611a2360068201613233565b60e0860152611a3460078201613233565b610100860152611a4660088201613233565b61012086015201541661014083016137a9565b611a6383886137dc565b52611a6e82876137dc565b50810180911161146c57916119a0611996565b634e487b7160e01b89526011600452602489fd5b96809697604051611aa5816131a1565b898152898382015289604082015260608a818301528a60808301528a60a08301528a60c08301528060e083015280610100830152610120820152896101408201528282890101520196959661185f565b60019594958082018083116105be578752603d8652828160408920015414611b2a575b50611b22906137cd565b94939461182c565b849194018091116107aa5792611b22611b18565b50346101da5760403660031901126101da57611b58613319565b611b606134bf565b60415490916001600160a01b0391611b7b9083163314613520565b1682526040602052604082209060ff80198354169115151617905580f35b50346101da576101003660031901126101da57611bb4613319565b906044356001600160401b03811161034257611bd490369060040161332f565b916064356001600160401b03811161078957611bf490369060040161332f565b906084356001600160401b03811161077a57611c1490369060040161332f565b60a435151560a43503611480576001600160401b0360c4351161077a5736602360c43501121561077a57611c4d60c435600401356134ce565b94611c5b6040519687613210565b60c4356004013586526020860136602460c4356004013560051b60c4350101116108eb57602460c43501905b602460c4356004013560051b60c435010182106123e25750506001600160401b0360e4351161090a5736602360e43501121561090a57611ccc60e435600401356134ce565b92611cda6040519485613210565b60e4356004013584526020840136602460e4356004013560051b60e4350101116105ab57602460e43501905b602460e4356004013560051b60e435010182106123d2575050611d276136af565b60a4351560a435612348575b1561230f5760ff603a54161580156122f9575b156122b657865184511061227757865160375410612236578594855b885160ff88161015611d9d57611d8690611d7f60ff8916886137dc565b519061492d565b9560ff808216146105be5760ff1660010195611d62565b88919293949650603854106121e5576001603354019586603355868852603e60205260408820878155855160018060401b0381116120e757611def81611de66004850154613154565b6004850161366a565b806020601f821160011461217b578b91612170575b508160011b916000199060031b1c19161760048201555b6001810180546001600160a01b0319166001600160a01b038716179055602435600282015583516001600160401b0381116120e757611e6a81611e616005850154613154565b6005850161366a565b806020601f8211600114612106578b916120fb575b508160011b916000199060031b1c19161760058201555b6003810180546001600160a01b0319163317905581516001600160401b0381116120e757611ed481611ecb6006850154613154565b6006850161366a565b806020601f821160011461207d578b91612072575b508160011b916000199060031b1c19161760068201555b6036805460079290920180546001600160a01b0319166001600160a01b0393841617905554899116803b1561034257604051630fb1a81d60e11b8152600481018a9052606060248201529082908290818381611f758e611f63606484018d614e00565b83810360031901604485015290614e3d565b03925af1801561077e5761205a575b50509461203a612049926120127f7aa175e04a2e31605f73606b22ee05e749d453ef18c1d978b98fb9ca37042ec09861200460018060a01b036036541697611ff66040519b8c9b60018060a01b03168c5260243560208d01523360408d015260608c61016091829101528c01906132d9565b908a820360808c01526132d9565b9088820360a08a01526132d9565b60a435151560c0880152426001600160401b031660e088015286810361010088015290614e00565b90848203610120860152614e3d565b906101408301520390a26001805580f35b6120669097929761318e565b6108e757948789611f84565b90508301518b611ee9565b9150600683018b5260208b208b925b601f19831684106120cf576001935082601f198116106120b6575b5050811b016006820155611f00565b85015160001960f88460031b161c191690558b806120a7565b8581015182556020938401936001909201910161208c565b634e487b7160e01b8a52604160045260248afd5b90508501518b611e7f565b9150600583018b5260208b208b925b601f1983168410612158576001935082601f1981161061213f575b5050811b016005820155611e96565b87015160001960f88460031b161c191690558b80612130565b87810151825560209384019360019092019101612115565b90508701518b611e04565b9150600483018b5260208b208b925b601f19831684106121cd576001935082601f198116106121b4575b5050811b016004820155611e1b565b89015160001960f88460031b161c191690558b806121a5565b8981015182556020938401936001909201910161218a565b60405162461bcd60e51b815260206004820152602360248201527f4578636565646564204d41585f544f54414c5f434f4d4d495353494f4e5f524160448201526254455360e81b6064820152608490fd5b60405162461bcd60e51b8152602060048201526019602482015278115e18d9595919590813505617d41056515154d7d0d3d55395603a1b6044820152606490fd5b60405162461bcd60e51b81526020600482015260176024820152764c61636b206f6620636f6d6d697373696f6e207261746560481b6044820152606490fd5b60405162461bcd60e51b815260206004820152601b60248201527a4e6f7420616c6c6f7720746f206372656174652067616c6c65727960281b6044820152606490fd5b50338652604060205260ff604087205416611d46565b60405162461bcd60e51b8152602060048201526011602482015270139bdd0819d85b1b195c9e481bdddb9959607a1b6044820152606490fd5b50604051627eeac760e11b815233600482015260248035908201526020816044816001600160a01b0386165afa9081156123c7578791612395575b5015158015611d33575060a435611d33565b90506020813d6020116123bf575b816123b060209383613210565b810103126105ab575138612383565b3d91506123a3565b6040513d89823e3d90fd5b8135815260209182019101611d06565b81356001600160a01b038116810361148057815260209182019101611c87565b50346101da57806003193601126101da576034548190825b818110612547575061242c8392614e71565b9183905b8282106124455760405180610cf286826133a8565b600180830180841161146c578652603c6020908152604087206003908101546001600160a01b03908116331461248a575b5050505090612484906137cd565b90612430565b600a61251d928260ff9360408d2092604051976124a6896131d9565b84548952828a86015416908901526002840154604089015283015416606087015260048201541660809081870152600582015460a0870152600682015460c0870152600782015460018060401b039182821660e0890152828260401c166101008901521c166101208601526115cb60088201613233565b61252783876137dc565b5261253282866137dc565b50810180911161161957612484388080612476565b60018082018083116107aa578552603c60205260408520600301546001600160a01b03163314612581575b5061257c906137cd565b61241a565b8391930180911161167b579161257c612572565b50346101da576125ad6125a73661313e565b906149f1565b80f35b50346101da5760603660031901126101da576044356001600160401b038111610342576125e461097f91369060040161332f565b6125ec6136af565b60243560043561447f565b50346101da5761097f6126093661313e565b906126126136af565b614bdc565b50346101da5760208060031936011261034257612632613319565b6033546001600160a01b0393918291908516825b82811061287457508290612659856134ce565b946126676040519687613210565b808652612676601f19916134ce565b0186855b82811061282e57505050835b83811061275d575050505060405192808401908085528351809252604085018160408460051b880101950193965b8388106126c15786860387f35b90919293948380600192603f198a820301865288519081518152858383015116838201526040820151604082015260608681840151169082015260e0868161274561273261271f6080808901519061010080918a01528801906132d9565b60a08089015190888303908901526132d9565b60c08088015190878303908801526132d9565b940151169101529701930197019690939291936126b4565b600180820180831161146c578652603e88526003838a8260408a2001541614612791575b505061278c906137cd565b612686565b8960076040899795972082604051946127a9866131bd565b825486528683015482168e870152600283015460408701528201541660608501526127d660048201613233565b60808501526127e760058201613233565b60a08501526127f860068201613233565b60c085015201541660e082015261280f83896137dc565b5261281a82886137dc565b508101809111611619579161278c38612781565b60405161283a816131bd565b8781528783820152876040820152606088818301528060808301528060a083015260c08201528760e082015282828a01015201879061267a565b60018082018083116107aa578552603e87528288600360408820015416146128a6575b506128a1906137cd565b612646565b8591950180911161167b57936128a1612897565b50346101da5760a03660031901126101da576024356001600160a01b0381168103610342576084356001600160401b038111610789576128fe90369060040161332f565b906129076136af565b6129156102086004356150ad565b6004358352603e60205261293960018060a01b036003604086200154163314614316565b6040516331a9108f60e11b815260443560048201526020816024816001600160a01b0386165afa908115612ed5578491612f1b575b506001600160a01b03163303612ee0576001600160a01b0381163b15610789576040516323b872dd60e01b81528381806129af604435303360048501613787565b0381836001600160a01b0387165af18015612ed557612ec2575b506001603554019081603555604051906129e2826131a1565b828252600435602083015260018060a01b0316604082015260443560608201523360808201528360a082015260643560c08201528260e0820152604051612a28816131f5565b848152610100820152604051612a3d816131f5565b84815261012082015260016101408201819052828552603d60209081526040808720845181559184015192820192909255908201516002820180546001600160a01b0319166001600160a01b0392831617905560608301516003830155608083015160048301805460a0808701516001600160e01b031990921693909416929092179190921b600160a01b600160e01b031617905560c0820151600582015560e08201518051919291906001600160401b038211610b55578190612b1182612b086006880154613154565b6006880161366a565b602090601f8311600114612e53578892612e48575b50508160011b916000199060031b1c19161760068301555b6101008101518051906001600160401b038211610b55578190612b7182612b686007880154613154565b6007880161366a565b602090601f8311600114612dd9578892612dce575b50508160011b916000199060031b1c19161760078301555b6101208101518051906001600160401b038211610b5557612bcf82612bc66008870154613154565b6008870161366a565b602090601f8311600114612d5d57610140939291889183612d52575b50508160011b916000199060031b1c19161760088401555b0151906006821015612d3e57906009612c1c92016137b5565b8252603d602052600080516020615b198339815191526040832060405192612c43846131a1565b815484526001820154602085015260028201546001600160a01b039081166040860190815260038401546060870190815260048501549283166080880190815260a093841c6001600160401b0316938801938452600586015460c08901908152909591946102d494928992612cba60068301613233565b60e0850152612cfc60ff6009612cd260078601613233565b946101008801958652610120612cea60088301613233565b98019788520154166101408d016137a9565b8a516020909b01519551975198519451905191519351604051998a996001600160401b034281169993989416936001600160a01b03908116939116908b614374565b634e487b7160e01b85526021600452602485fd5b015190503880612beb565b906008850188526020882091885b601f1985168110612db657509183916001936101409695601f19811610612d9d575b505050811b016008840155612c03565b015160001960f88460031b161c19169055388080612d8d565b91926020600181928685015181550194019201612d6b565b015190503880612b86565b9250600785018852602088209088935b601f1984168510612e2d576001945083601f19811610612e14575b505050811b016007830155612b9e565b015160001960f88460031b161c19169055388080612e04565b81810151835560209485019460019093019290910190612de9565b015190503880612b26565b9250600685018852602088209088935b601f1984168510612ea7576001945083601f19811610612e8e575b505050811b016006830155612b3e565b015160001960f88460031b161c19169055388080612e7e565b81810151835560209485019460019093019290910190612e63565b612ece9093919361318e565b91386129c9565b6040513d86823e3d90fd5b60405162461bcd60e51b81526020600482015260136024820152721bdb9b1e481bdddb995c8818d85b881b1a5cdd606a1b6044820152606490fd5b90506020813d602011612f4d575b81612f3660209383613210565b8101031261077a57612f479061360b565b3861296e565b3d9150612f29565b50346101da5760203660031901126101da57612f7c60018060a01b03604154163314613520565b60043560395580f35b50346101da5760203660031901126101da576040906004358152603e60205220805460018060a01b0361303d816001850154169361302f60028201549361302181600385015416612fd860048601613233565b90612fe560058701613233565b936007612ff460068901613233565b97015416976040519a8b9a8b5260208b015260408a015260608901526101008060808a01528801906132d9565b9086820360a08801526132d9565b9084820360c08601526132d9565b9060e08301520390f35b50346101da576130563661313e565b61305e6136af565b61306a610208836150ad565b818352603e6020526130a66103d18260018060a01b039461309586600360408a200154163314614316565b6130a16103bf83615087565b615036565b808352603d6020526009604084200160ff1981541690556000600660408520016130d36107048254613154565b558252603d60205260408083208054600182015460028301546003840154600490940154945192957fbdbcb1866e121f88ef3c59ce06c600b2734ae9127c149abfc1fa28b04499320095939485946102d4946001600160401b034216949184169390911690866148f4565b6040906003190112611480576004359060243590565b90600182811c92168015613184575b602083101461316e57565b634e487b7160e01b600052602260045260246000fd5b91607f1691613163565b6001600160401b03811161121957604052565b61016081019081106001600160401b0382111761121957604052565b61010081019081106001600160401b0382111761121957604052565b6101a081019081106001600160401b0382111761121957604052565b602081019081106001600160401b0382111761121957604052565b601f909101601f19168101906001600160401b0382119082101761121957604052565b906040519182600082549261324784613154565b9081845260019485811690816000146132b65750600114613273575b505061327192500383613210565b565b9093915060005260209081600020936000915b81831061329e57505061327193508201013880613263565b85548884018501529485019487945091830191613286565b91505061327194506020925060ff191682840152151560051b8201013880613263565b919082519283825260005b848110613305575050826000602080949584010152601f8019910116010190565b6020818301810151848301820152016132e4565b600435906001600160a01b038216820361148057565b81601f82011215611480578035906001600160401b0382116112195760405192613363601f8401601f191660200185613210565b8284526020838301011161148057816000926020809301838601378301015290565b9060048210156133925752565b634e487b7160e01b600052602160045260246000fd5b602080820190808352835180925260409283810182858560051b8401019601946000925b8584106133dd575050505050505090565b909192939495968580600192603f198582030187526134ae8b519182518152858060a01b0380858501511685830152888401518983015260608181860151169083015260809081850151169082015260a0808401519082015260c08084015190820152858060401b0360e081818601511690830152610100818186015116908301526101209081850151169082015261349e61348a61014080860151906101a080918601528401906132d9565b6101608086015190848303908501526132d9565b9261018080910151910190613385565b9901940194019295949391906133cc565b60243590811515820361148057565b6001600160401b0381116112195760051b60200190565b9060068210156133925752565b805482101561350a5760005260206000200190600090565b634e487b7160e01b600052603260045260246000fd5b1561352757565b606460405162461bcd60e51b815260206004820152602060248201527f4f776e61626c653a2063616c6c6572206973206e6f7420746865206f776e65726044820152fd5b1561357257565b60405162461bcd60e51b815260206004820152602b60248201527f496e697469616c697a61626c653a20636f6e7472616374206973206e6f74206960448201526a6e697469616c697a696e6760a81b6064820152608490fd5b156135d257565b60405162461bcd60e51b815260206004820152601160248201527011d85b1b195c9e481b9bdd08199bdd5b99607a1b6044820152606490fd5b51906001600160a01b038216820361148057565b60048210156133925752565b818110613636575050565b6000815560010161362b565b90601f811161364f575050565b61327191600052601f6020600020910160051c81019061362b565b9190601f811161367957505050565b613271926000526020600020906020601f840160051c830193106136a5575b601f0160051c019061362b565b9091508190613698565b6002600154146136c0576002600155565b60405162461bcd60e51b815260206004820152601f60248201527f5265656e7472616e637947756172643a207265656e7472616e742063616c6c006044820152606490fd5b1561370c57565b60405162461bcd60e51b815260206004820152601960248201527824ba103bb0b9b713ba1030903832b73234b7339037b33332b960391b6044820152606490fd5b6001600160a01b03918216815260208101929092529182166040820152911660608201526001600160401b03909116608082015260a00190565b6001600160a01b03918216815291166020820152604081019190915260600190565b60068210156133925752565b9060068110156133925760ff80198354169116179055565b60001981146113cb5760010190565b805182101561350a5760209160051b010190565b6137f98161509a565b156142df57600092818452603c60205260408420926138d560ff600a60405196613822886131d9565b8054885260018101546001600160a01b0390811660208a015260028201546040808b01919091526003830154821660608b015260048301549091166080808b0191909152600583015460a08b0152600683015460c08b015260078301546001600160401b0380821660e08d01529281901c83166101008c0152901c166101208901526138b060088201613233565b6101408901526138c260098201613233565b610160890152015416610180860161361f565b6138e561020860c08601516150ad565b60808401516001600160a01b0316330361428c5760018060a01b03602085015116602060408601516024604051809481936331a9108f60e11b835260048301525afa908115614281578691614247575b506001600160a01b031633036142085761018084015160048110156141f45761395e9015613705565b6101008401516001600160401b03164210156141b7571561414057600160355401603555818452603c602052600a6040852001600160ff198254161790558360018060a01b036020850151166040850151813b156107895782916139da916040519485809481936323b872dd60e01b8352303360048501613787565b03925af1801561413557614122575b506035549060c084015160018060a01b03602086015116604086015160018060a01b0360808801511660018060401b036101208901511660a0890151916101408a0151936101608b01519560405197613a41896131a1565b8a8952602089015260408801526060870152608086015260a085015260c084015260405180602081011060018060401b0360208301111761121957602081810160409081528a835260e086019283526101008601939093526101208501939093526101408401899052858952603d835281892084518155928401516001840155908301516002830180546001600160a01b0319166001600160a01b0392831617905560608401516003840155608084015160048401805460a0808801516001600160e01b031990921693909416929092179190921b600160a01b600160e01b031617905560c08301516005830155518051919291906001600160401b03821161401a578190613b5782612b086006880154613154565b602090601f83116001146140b3578a926140a8575b50508160011b916000199060031b1c19161760068301555b6101008101518051906001600160401b03821161401a578190613bae82612b686007880154613154565b602090601f8311600114614039578a9261402e575b50508160011b916000199060031b1c19161760078301555b6101208101518051906001600160401b03821161401a57613c0382612bc66008870154613154565b602090601f8311600114613fa9576101409392918a9183613f9e575b50508160011b916000199060031b1c19161760088401555b0151906006821015613f8a57906009613c5092016137b5565b60208401516040850151613c6c916001600160a01b0316614f20565b93848652603b6020526040862092604051808560208297549384815201908a5260208a20928a5b818110613f71575050613ca892500385613210565b865b8451811015613e8b57613cbd81866137dc565b518681141580613e7c575b80613e59575b613ce592919080613e35575b613cea575b506137cd565b613caa565b808a52603c60205260408a2090613dbe60ff600a60405194613d0b866131d9565b8054865260018101546001600160a01b03908116602088015260028201546040808901919091526003830154821660608901526004830154909116608080890191909152600583015460a0890152600683015460c089015260078301546001600160401b0380821660e08b01529281901c83166101008a0152901c16610120870152613d9960088201613233565b610140870152613dab60098201613233565b610160870152015416610180840161361f565b8a52603c60209081526040808c20600a01805460ff1916600217905582519183015183820151606085015160809095015192519394600080516020615af983398151915294938493613e2c93426001600160401b0316936001600160a01b039384169390811692168661374d565b0390a238613cdf565b50808a52603c6020526040808b2060070154901c6001600160401b03164210613cda565b50808952603c60205260ff600a60408b2001541660048110156112aa5715613cce565b50613e868161509a565b613cc8565b5091957f0c3e8074f052c3603a48585217829b87093de6d2ac306c8682e84f5a53b5fdce94506101209350604091958152603b6020522080546000825580613f55575b505083519360018060a01b036020820151169160408201519160018060a01b0360608201511660018060a01b0360808301511660a08301519160c0840151938860018060401b039101511695604051978852602088015260408701526060860152608085015260a084015260c083015260e082015260018060401b034216610100820152a2565b613f6a9160005260206000209081019061362b565b3880613ece565b8454835260019485019489945060209093019201613c93565b634e487b7160e01b87526021600452602487fd5b015190503880613c1f565b90600885018a5260208a20918a5b601f198516811061400257509183916001936101409695601f19811610613fe9575b505050811b016008840155613c37565b015160001960f88460031b161c19169055388080613fd9565b91926020600181928685015181550194019201613fb7565b634e487b7160e01b89526041600452602489fd5b015190503880613bc3565b9250600785018a5260208a20908a935b601f198416851061408d576001945083601f19811610614074575b505050811b016007830155613bdb565b015160001960f88460031b161c19169055388080614064565b81810151835560209485019460019093019290910190614049565b015190503880613b6c565b9250600685018a5260208a20908a935b601f1984168510614107576001945083601f198116106140ee575b505050811b016006830155613b84565b015160001960f88460031b161c191690553880806140de565b818101518355602094850194600190930192909101906140c3565b61412e9094919461318e565b92386139e9565b6040513d87823e3d90fd5b908352603c6020908152604093849020600a01805460ff19166002179055825190830151838501516060850151608090950151955193959294600080516020615af9833981519152949384936141b293426001600160401b0316936001600160a01b039384169390811692168661374d565b0390a2565b60405162461bcd60e51b8152602060048201526015602482015274151a19481bd999995c881dd85cc8195e1c1a5c9959605a1b6044820152606490fd5b634e487b7160e01b86526021600452602486fd5b60405162461bcd60e51b8152602060048201526017602482015276151bdad95b881bdddb995c881dd85cc818da185b99d959604a1b6044820152606490fd5b90506020813d602011614279575b8161426260209383613210565b810103126108eb576142739061360b565b38613935565b3d9150614255565b6040513d88823e3d90fd5b60405162461bcd60e51b815260206004820152602560248201527f4f6e6c7920746f6b656e206f776e65722063616e20616363657074207468652060448201526437b33332b960d91b6064820152608490fd5b60405162461bcd60e51b815260206004820152600f60248201526e13d999995c881b9bdd08199bdd5b99608a1b6044820152606490fd5b1561431d57565b60405162461bcd60e51b815260206004820152602960248201527f4f6e6c792067616c6c657279206f776e65722063616e206d616e6167652074686044820152681948195e1a1a589a5d60ba1b6064820152608490fd5b98949690956143cf926143dd956101209a956143ec999e9d9e8d528c602060018060a01b0380951691015260408d01521660608b015260018060401b0380981660808b015260a08a01526101408060c08b01528901906132d9565b9087820360e08901526132d9565b908582036101008701526132d9565b9416910152565b156143fa57565b60405162461bcd60e51b8152602060048201526011602482015270115e1a1a589a5d081b9bdd08199bdd5b99607a1b6044820152606490fd5b61443d8154613154565b9081614447575050565b81601f60009311600114614459575055565b8183526020832061447591601f0160051c81019060010161362b565b8160208120915555565b9092919261448f610208836150ad565b6000938285526020603e81526144b560018060a01b036003604089200154163314614316565b6144c16103bf84615087565b828652603d9384825260408720541515908161488b575b5080614870575b1561481d578286528381526040862093604051936144fc856131a1565b85548552600186015483860190815260028701546001600160a01b039081166040880152600388015460608801526004880154908116608088015260a090811c6001600160401b031690870152600587015460c0870152956145a09060ff9060099061456a60068201613233565b60e08a015261457b60078201613233565b6101008a015261458d60088201613233565b6101208a015201541661014087016137a9565b60a08501516001600160401b0316421161472d578088528183526040808920600901805460ff1916600117905590885290825286208251600691909101916001600160401b03821161471957614600826145fa8554613154565b8561366a565b80601f83116001146146a357508190600080516020615b1983398151915296979891614698575b508160011b916000199060031b1c19161790555b815193516040808401516060850151608086015160a087015160c08801516101008901516101209099015195519889986141b2986001600160401b03428116999893979296949516936001600160a01b039081169316908b614374565b905083015138614627565b8389528089209298905b601f198a16821061470157505096600191600080516020615b1983398151915296979882601f198116106146e8575b5050811b01905561463b565b85015160001960f88460031b161c1916905538806146dc565b806001849582949589015181550194019201906146ad565b634e487b7160e01b88526041600452602488fd5b919250929350808695965282825260096040862001600260ff198254161790556000600660408720016147636107048254613154565b558452528160096040822082815582600182015582600282015582600382015582600482015582600582015561479b60068201614433565b6147a760078201614433565b6147b360088201614433565b015560408101516080820151606090920151916001600160a01b039182169116813b1561077a579183916147ff93836040518096819582946323b872dd60e01b84523060048501613787565b03925af1801561077e57614811575050565b61481a9061318e565b50565b6084906040519062461bcd60e51b82526004820152602660248201527f45786869626974207761736e277420726573657276656420696e207468652067604482015265616c6c65727960d01b6064820152fd5b5060ff6009604088200154166006811015613f8a57156144df565b9050600160408820015414386144d8565b156148a357565b60405162461bcd60e51b8152602060048201526024808201527f45786869626974207761736e2774206c697374656420696e207468652067616c6044820152636c65727960e01b6064820152608490fd5b9081526001600160a01b039182166020820152604081019290925290911660608201526001600160401b03909116608082015260a00190565b919082018092116113cb57565b919082039182116113cb57565b1561494e57565b606460405162461bcd60e51b815260206004820152602060248201527f45786869626974206e6f7420666f756e6420696e207468652067616c6c6572796044820152fd5b1561499957565b60405162461bcd60e51b815260206004820152602a60248201527f43616c6c65722069736e2774206f726967696e616c206f776e6572206f6620746044820152691a1948195e1a1a589a5d60b21b6064820152608490fd5b919091614a00610208826150ad565b614a0c6103bf84615087565b614a1e614a198483614f63565b614947565b600092808452603d60205260409182852094835193614a3c856131a1565b865485526001870154946020810195865260018060a01b03908160028a0154169483820195865260038a0154966060830197885260048b015491614ae660ff6009608087019e8f898816905260018060401b03809760a01c1660a0890152600581015460c0890152614ab060068201613233565b60e0890152614ac160078201613233565b610100890152614ad360088201613233565b61012089015201541661014086016137a9565b614af4858d51163314614992565b818752603d602052858720600901805460ff19166004179055428316966202a300880192848411614bc8578751946080860186811082821117614bb457997fa1a1295a5dd5eb66093e4f576679928ff75b3c7e1736ba79dfdeec1d997ef83f9d9e9f97948a8a9895600395829c99956141b29f869f528189526020890194855283890195865260608901961686528152603f60205220945185555160018501555160028401555191015551995196511696519151169151958695866148f4565b634e487b7160e01b84526041600452602484fd5b634e487b7160e01b82526011600452602482fd5b614bf382600052603f602052604060002054151590565b15614ca057614c0f82600052603f602052604060002054151590565b80614c86575b15614c475781614c2491614caa565b6000908152603f6020526003604082208281558260018201558260028201550155565b60405162461bcd60e51b815260206004820152601760248201527622bc3434b134ba1034b99039ba34b63610333937bd32b760491b6044820152606490fd5b5081600052603f6020526003604060002001544211614c15565b90613271916149f1565b614a1982614cd292949394614cc1610208826150ad565b614ccd6103bf83615087565b614f63565b600091808352603d6020528260018060a01b03604081600482852001541633148015614df3575b614d0290614992565b838352603d60205281600282852001541660038285200154813b1561090a578491614d44918451998a809481936323b872dd60e01b8352333060048501613787565b03925af1958615614de9577fa101d67d05b6b8ad5f1d0629d3cb45c895bd38130f7b6f01415a939da1b5cf12949596614dd4575b50848352603d6020818152828520600901805460ff19166005179055868552529182902060018101546002820154600383015460049093015494519485946141b294426001600160401b031694928216939092911690866148f4565b92614de26141b2929461318e565b9290614d78565b81513d85823e3d90fd5b5060415482163314614cf9565b90815180825260208080930193019160005b828110614e20575050505090565b83516001600160a01b031685529381019392810192600101614e12565b90815180825260208080930193019160005b828110614e5d575050505090565b835185529381019392810192600101614e4f565b90614e7b826134ce565b604090614e8a82519182613210565b8381528093614e9b601f19916134ce565b019160005b838110614ead5750505050565b6020908251614ebb816131d9565b6000815282600081830152600085830152606060008184015260006080840152600060a0840152600060c0840152600060e084015260006101008401526000610120840152806101408401526101608301526000610180830152828601015201614ea0565b604051606091821b6001600160601b031916602082019081526034808301949094529281529081016001600160401b038111828210176112195760405251902090565b906000818152603d602052604081205415159283615025575b5082614f8757505090565b90915060ff600960408320015416600681101561501157600114918215614fec575b8215614fb457505090565b8152603d602052604081206009015460ff1691506006821015614fd8575060041490565b634e487b7160e01b81526021600452602490fd5b8092508152603d60205260ff6009604083200154166006811015615011571591614fa9565b634e487b7160e01b82526021600452602482fd5b604082206001015414925038614f7c565b906000908152603d602052604081205415159182615076575b5081615059575090565b604081206009015460ff1691506006821015614fd8575060011490565b60408220600101541491503861504f565b600052603d602052604060002054151590565b600052603c602052604060002054151590565b600052603e60205260406000205415159056fe60808060405234610016576109fc908161001c8239f35b600080fdfe6040608081526004908136101561001557600080fd5b600091823560e01c80631f63503a14610585578063379607f51461048557806337bcb2eb146103535780636e553f65146102ae578063b961cbe11461026d578063c4d66de8146101135763f2fde38b1461006e57600080fd5b3461010f57602036600319011261010f57610087610840565b60355491906001600160a01b03906100a28285163314610856565b169283156100bd5750506001600160a01b0319161760355580f35b906020608492519162461bcd60e51b8352820152602660248201527f4f776e61626c653a206e6577206f776e657220697320746865207a65726f206160448201526564647265737360d01b6064820152fd5b8280fd5b503461010f57602036600319011261010f5761012d610840565b835460ff8160081c161592838094610260575b8015610249575b156101ef575060ff1981166001178555826101de575b50603580546001600160a01b0319166001600160a01b039290921691909117905582549061019a600883901c60ff16610195816108a1565b6108a1565b600180556101a6578280f35b61ff001916825551600181527f7f26b83ff96e1f2b6a682f133852f6798a09c465da95921460cefb384740249890602090a138808280f35b61ffff19166101011784553861015d565b608490602086519162461bcd60e51b8352820152602e60248201527f496e697469616c697a61626c653a20636f6e747261637420697320616c72656160448201526d191e481a5b9a5d1a585b1a5e995960921b6064820152fd5b50303b1580156101475750600160ff831614610147565b50600160ff831610610140565b503461010f578160031936011261010f57602092829161028b610825565b90358252603485528282206001600160a01b039091168252845220549051908152f35b5091908060031936011261034f578235906102c7610825565b6102cf610950565b828452603460209081528285206001600160a01b038316808752915282852080543481019190821061033c576000805160206109a78339815191529596975055848652603460205282862090865260205261033282862054925192839283610935565b0390a26001805580f35b634e487b7160e01b875260118852602487fd5b5080fd5b509134610482576020928360031936011261034f573581526033835281812090825161037e816107ba565b8351835480825284845286842087830191855b81811061046557505050816103a79103826107eb565b8152600180930194845191828288549182815201908198865283862090865b81811061045257505050836103dc9103846107eb565b8282820152519185519580870190875283518091528260608801940190855b81811061043657505050858303868301525180835291810195925b8281106104235785870386f35b8351875295810195928101928401610416565b82516001600160a01b03168652948401949184019187016103fb565b82548452928501929188019188016103c6565b82546001600160a01b031684529289019260019283019201610391565b80fd5b50903461010f57602080600319360112610581578235926104a4610950565b8385526034825282852033865282528285205490811561053e5784865260348352838620338752835283862080549183830392831161052b575086809381938293553382f115610521576000805160206109a783398151915291610332918486526034815281862090338752528085205490519182913383610935565b81513d85823e3d90fd5b634e487b7160e01b885260119052602487fd5b835162461bcd60e51b8152908101839052601e60248201527f496e73756666696369656e7420636c61696d61626c652062616c616e636500006044820152606490fd5b8380fd5b50903461010f57606036600319011261010f5760248035926001600160401b03929091908385116107b657366023860112156107b65784830135916105c98361080e565b956105d6835197886107eb565b838752602093828589019160051b830101913683116107b2578301905b828210610793575050506044359385851161078f573660238601121561078f5784810135946106218661080e565b9561062e855197886107eb565b808752838688019160051b8301019136831161078b5784879101915b83831061077b5750506035546001600160a01b0395925061066f915085163314610856565b80519761067b896107ba565b88528488019586528135895260338552882096519283519087821161076957600160401b948583116107575786906106b9848c81815491558d610901565b0190898b52868b20908b5b8481106107435750505050506001809701945192835196871161073157861161072057505081906106fa85855481875586610901565b0191855280852090855b84811061070f578680f35b835183820155928101928501610704565b634e487b7160e01b88526041905286fd5b50634e487b7160e01b88526041905286fd5b8351821683820155928801926001016106c4565b634e487b7160e01b8b5260418452848bfd5b634e487b7160e01b8a5260418352838afd5b823581529181019187910161064a565b8a80fd5b8780fd5b81356001600160a01b038116810361078b5781529085019085016105f3565b8980fd5b8580fd5b604081019081106001600160401b038211176107d557604052565b634e487b7160e01b600052604160045260246000fd5b601f909101601f19168101906001600160401b038211908210176107d557604052565b6001600160401b0381116107d55760051b60200190565b602435906001600160a01b038216820361083b57565b600080fd5b600435906001600160a01b038216820361083b57565b1561085d57565b606460405162461bcd60e51b815260206004820152602060248201527f4f776e61626c653a2063616c6c6572206973206e6f7420746865206f776e65726044820152fd5b156108a857565b60405162461bcd60e51b815260206004820152602b60248201527f496e697469616c697a61626c653a20636f6e7472616374206973206e6f74206960448201526a6e697469616c697a696e6760a81b6064820152608490fd5b909182811061090f57505050565b60009182526020822092830192015b82811061092a57505050565b81815560010161091e565b6001600160a01b039091168152602081019190915260400190565b600260015414610961576002600155565b60405162461bcd60e51b815260206004820152601f60248201527f5265656e7472616e637947756172643a207265656e7472616e742063616c6c006044820152606490fdfeae8f8bf7a17e85228ceb45755da4f4caefd40f17bfad89e34e910a6f952c1700a26469706673582212209f5a444e4d65772f64f9a23c8705ead82d843e69573d6e3dcf9fd333612eade264736f6c63430008110033014f211bb3355024b7687e501e5eab427b6e5bbd1865a3a7437b866670c05a4cd18a69fc77b4af94976f4f0315b40768fa4d8d19144512d2fbaa3c2270a767e5f331ae5178cff91bffea424373c46780c8b27e6437e1917589d5b9bc3b043a1aa26469706673582212207877865a7c2266aaa097de21af5a2b0f401169da2ca8b5486fd355729fe57d4f64736f6c63430008110033",
  "linkReferences": {},
  "deployedLinkReferences": {}
}