{
  "_format": "hh-sol-artifact-1",
  "contractName": "Curation",
  "sourceName": "contracts/Curation.sol",
  "abi": [
    {
      "anonymous": false,
      "inputs": [
        {
          "indexed": true,
          "internalType": "uint256",
          "name": "id",
          "type": "uint256"
        },
        {
          "indexed": false,
          "internalType": "string",
          "name": "eventType",
          "type": "string"
        },
        {
          "indexed": false,
          "internalType": "uint256",
          "name": "galleryId",
          "type": "uint256"
        },
        {
          "indexed": false,
          "internalType": "address",
          "name": "collection",
          "type": "address"
        },
        {
          "indexed": false,
          "internalType": "uint256",
          "name": "tokenId",
          "type": "uint256"
        },
        {
          "indexed": false,
          "internalType": "address",
          "name": "origin",
          "type": "address"
        },
        {
          "indexed": false,
          "internalType": "uint64",
          "name": "expiration",
          "type": "uint64"
        },
        {
          "indexed": false,
          "internalType": "uint256",
          "name": "price",
          "type": "uint256"
        },
        {
          "indexed": false,
          "internalType": "string",
          "name": "location",
          "type": "string"
        },
        {
          "indexed": false,
          "internalType": "string",
          "name": "url",
          "type": "string"
        },
        {
          "indexed": false,
          "internalType": "string",
          "name": "detail",
          "type": "string"
        },
        {
          "indexed": false,
          "internalType": "uint64",
          "name": "timestamp",
          "type": "uint64"
        }
      ],
      "name": "ExhibitChanged",
      "type": "event"
    },
    {
      "anonymous": false,
      "inputs": [
        {
          "indexed": true,
          "internalType": "uint256",
          "name": "id",
          "type": "uint256"
        },
        {
          "indexed": false,
          "internalType": "string",
          "name": "eventType",
          "type": "string"
        },
        {
          "indexed": false,
          "internalType": "address",
          "name": "collection",
          "type": "address"
        },
        {
          "indexed": false,
          "internalType": "uint256",
          "name": "tokenId",
          "type": "uint256"
        },
        {
          "indexed": false,
          "internalType": "address",
          "name": "owner",
          "type": "address"
        },
        {
          "indexed": false,
          "internalType": "string",
          "name": "spaceType",
          "type": "string"
        },
        {
          "indexed": false,
          "internalType": "string",
          "name": "name",
          "type": "string"
        },
        {
          "indexed": false,
          "internalType": "string",
          "name": "metadataUri",
          "type": "string"
        },
        {
          "indexed": false,
          "internalType": "bool",
          "name": "isToken",
          "type": "bool"
        },
        {
          "indexed": false,
          "internalType": "uint64",
          "name": "timestamp",
          "type": "uint64"
        },
        {
          "indexed": false,
          "internalType": "address[]",
          "name": "payees",
          "type": "address[]"
        },
        {
          "indexed": false,
          "internalType": "uint256[]",
          "name": "commissionRates",
          "type": "uint256[]"
        },
        {
          "indexed": false,
          "internalType": "address",
          "name": "commissionPool",
          "type": "address"
        },
        {
          "indexed": false,
          "internalType": "address[]",
          "name": "admissions",
          "type": "address[]"
        }
      ],
      "name": "GalleryChanged",
      "type": "event"
    },
    {
      "anonymous": false,
      "inputs": [
        {
          "indexed": false,
          "internalType": "uint8",
          "name": "version",
          "type": "uint8"
        }
      ],
      "name": "Initialized",
      "type": "event"
    },
    {
      "anonymous": false,
      "inputs": [
        {
          "indexed": true,
          "internalType": "uint256",
          "name": "id",
          "type": "uint256"
        },
        {
          "indexed": false,
          "internalType": "string",
          "name": "eventType",
          "type": "string"
        },
        {
          "indexed": false,
          "internalType": "address",
          "name": "collection",
          "type": "address"
        },
        {
          "indexed": false,
          "internalType": "uint256",
          "name": "tokenId",
          "type": "uint256"
        },
        {
          "indexed": false,
          "internalType": "address",
          "name": "from",
          "type": "address"
        },
        {
          "indexed": false,
          "internalType": "address",
          "name": "to",
          "type": "address"
        },
        {
          "indexed": false,
          "internalType": "uint256",
          "name": "price",
          "type": "uint256"
        },
        {
          "indexed": false,
          "internalType": "uint256",
          "name": "galleryId",
          "type": "uint256"
        },
        {
          "indexed": false,
          "internalType": "uint64",
          "name": "offerStartAt",
          "type": "uint64"
        },
        {
          "indexed": false,
          "internalType": "uint64",
          "name": "offerExpiredAt",
          "type": "uint64"
        },
        {
          "indexed": false,
          "internalType": "uint64",
          "name": "exhibitExpiredAt",
          "type": "uint64"
        },
        {
          "indexed": false,
          "internalType": "string",
          "name": "url",
          "type": "string"
        },
        {
          "indexed": false,
          "internalType": "string",
          "name": "detail",
          "type": "string"
        },
        {
          "indexed": false,
          "internalType": "uint64",
          "name": "timestamp",
          "type": "uint64"
        }
      ],
      "name": "OfferChanged",
      "type": "event"
    },
    {
      "anonymous": false,
      "inputs": [
        {
          "indexed": true,
          "internalType": "address",
          "name": "previousOwner",
          "type": "address"
        },
        {
          "indexed": true,
          "internalType": "address",
          "name": "newOwner",
          "type": "address"
        }
      ],
      "name": "OwnershipTransferStarted",
      "type": "event"
    },
    {
      "anonymous": false,
      "inputs": [
        {
          "indexed": true,
          "internalType": "address",
          "name": "previousOwner",
          "type": "address"
        },
        {
          "indexed": true,
          "internalType": "address",
          "name": "newOwner",
          "type": "address"
        }
      ],
      "name": "OwnershipTransferred",
      "type": "event"
    },
    {
      "inputs": [],
      "name": "acceptOwnership",
      "outputs": [],
      "stateMutability": "nonpayable",
      "type": "function"
    },
    {
      "inputs": [
        {
          "internalType": "uint256[]",
          "name": "galleryIds",
          "type": "uint256[]"
        },
        {
          "internalType": "uint256[]",
          "name": "exhibitIds",
          "type": "uint256[]"
        }
      ],
      "name": "batchList",
      "outputs": [],
      "stateMutability": "nonpayable",
      "type": "function"
    },
    {
      "inputs": [
        {
          "internalType": "uint256[]",
          "name": "galleryIds",
          "type": "uint256[]"
        },
        {
          "internalType": "address[]",
          "name": "collections",
          "type": "address[]"
        },
        {
          "internalType": "uint256[]",
          "name": "tokenIds",
          "type": "uint256[]"
        },
        {
          "internalType": "uint256[]",
          "name": "prices",
          "type": "uint256[]"
        }
      ],
      "name": "batchListOwned",
      "outputs": [],
      "stateMutability": "nonpayable",
      "type": "function"
    },
    {
      "inputs": [
        {
          "internalType": "uint256",
          "name": "galleryId",
          "type": "uint256"
        },
        {
          "internalType": "uint256",
          "name": "exhibitId",
          "type": "uint256"
        }
      ],
      "name": "buy",
      "outputs": [],
      "stateMutability": "payable",
      "type": "function"
    },
    {
      "inputs": [
        {
          "internalType": "uint256",
          "name": "galleryId",
          "type": "uint256"
        },
        {
          "internalType": "uint256",
          "name": "exhibitId",
          "type": "uint256"
        }
      ],
      "name": "cancel",
      "outputs": [],
      "stateMutability": "nonpayable",
      "type": "function"
    },
    {
      "inputs": [
        {
          "internalType": "uint256",
          "name": "offerId",
          "type": "uint256"
        }
      ],
      "name": "cancelOffer",
      "outputs": [],
      "stateMutability": "nonpayable",
      "type": "function"
    },
    {
      "inputs": [
        {
          "internalType": "address",
          "name": "collection",
          "type": "address"
        },
        {
          "internalType": "uint256",
          "name": "tokenId",
          "type": "uint256"
        },
        {
          "internalType": "string",
          "name": "spaceType",
          "type": "string"
        },
        {
          "internalType": "string",
          "name": "name",
          "type": "string"
        },
        {
          "internalType": "string",
          "name": "metadataUri",
          "type": "string"
        },
        {
          "internalType": "bool",
          "name": "isToken",
          "type": "bool"
        },
        {
          "internalType": "address[]",
          "name": "payees",
          "type": "address[]"
        },
        {
          "internalType": "uint256[]",
          "name": "commissionRates",
          "type": "uint256[]"
        },
        {
          "internalType": "address[]",
          "name": "admissions",
          "type": "address[]"
        }
      ],
      "name": "createGallery",
      "outputs": [],
      "stateMutability": "nonpayable",
      "type": "function"
    },
    {
      "inputs": [
        {
          "internalType": "uint256",
          "name": "galleryId",
          "type": "uint256"
        },
        {
          "internalType": "uint256",
          "name": "exhibitId",
          "type": "uint256"
        }
      ],
      "name": "freeze",
      "outputs": [],
      "stateMutability": "nonpayable",
      "type": "function"
    },
    {
      "inputs": [],
      "name": "initialize",
      "outputs": [],
      "stateMutability": "nonpayable",
      "type": "function"
    },
    {
      "inputs": [
        {
          "internalType": "uint256",
          "name": "galleryId",
          "type": "uint256"
        },
        {
          "internalType": "uint256",
          "name": "exhibitId",
          "type": "uint256"
        },
        {
          "internalType": "string",
          "name": "location",
          "type": "string"
        }
      ],
      "name": "list",
      "outputs": [],
      "stateMutability": "nonpayable",
      "type": "function"
    },
    {
      "inputs": [
        {
          "internalType": "uint256",
          "name": "galleryId",
          "type": "uint256"
        },
        {
          "internalType": "address",
          "name": "collection",
          "type": "address"
        },
        {
          "internalType": "uint256",
          "name": "tokenId",
          "type": "uint256"
        },
        {
          "internalType": "uint256",
          "name": "price",
          "type": "uint256"
        },
        {
          "internalType": "string",
          "name": "location",
          "type": "string"
        }
      ],
      "name": "listOwned",
      "outputs": [],
      "stateMutability": "nonpayable",
      "type": "function"
    },
    {
      "inputs": [],
      "name": "owner",
      "outputs": [
        {
          "internalType": "address",
          "name": "",
          "type": "address"
        }
      ],
      "stateMutability": "view",
      "type": "function"
    },
    {
      "inputs": [],
      "name": "pendingOwner",
      "outputs": [
        {
          "internalType": "address",
          "name": "",
          "type": "address"
        }
      ],
      "stateMutability": "view",
      "type": "function"
    },
    {
      "inputs": [
        {
          "internalType": "uint256",
          "name": "galleryId",
          "type": "uint256"
        },
        {
          "internalType": "uint256",
          "name": "exhibitId",
          "type": "uint256"
        }
      ],
      "name": "redeemForce",
      "outputs": [],
      "stateMutability": "nonpayable",
      "type": "function"
    },
    {
      "inputs": [
        {
          "internalType": "uint256",
          "name": "galleryId",
          "type": "uint256"
        },
        {
          "internalType": "uint256",
          "name": "exhibitId",
          "type": "uint256"
        }
      ],
      "name": "redeemWithFreeze",
      "outputs": [],
      "stateMutability": "nonpayable",
      "type": "function"
    },
    {
      "inputs": [],
      "name": "renounceOwnership",
      "outputs": [],
      "stateMutability": "nonpayable",
      "type": "function"
    },
    {
      "inputs": [
        {
          "internalType": "uint256",
          "name": "offerId",
          "type": "uint256"
        },
        {
          "internalType": "bool",
          "name": "accept",
          "type": "bool"
        }
      ],
      "name": "replyOffer",
      "outputs": [],
      "stateMutability": "nonpayable",
      "type": "function"
    },
    {
      "inputs": [
        {
          "internalType": "address",
          "name": "collection",
          "type": "address"
        },
        {
          "internalType": "uint256",
          "name": "tokenId",
          "type": "uint256"
        },
        {
          "internalType": "uint256",
          "name": "galleryId",
          "type": "uint256"
        },
        {
          "internalType": "uint256",
          "name": "price",
          "type": "uint256"
        },
        {
          "internalType": "uint64",
          "name": "offerDuration",
          "type": "uint64"
        },
        {
          "internalType": "uint64",
          "name": "exhibitExpiredAt",
          "type": "uint64"
        },
        {
          "internalType": "string",
          "name": "url",
          "type": "string"
        },
        {
          "internalType": "string",
          "name": "detail",
          "type": "string"
        }
      ],
      "name": "sendOffer",
      "outputs": [],
      "stateMutability": "nonpayable",
      "type": "function"
    },
    {
      "inputs": [
        {
          "internalType": "address",
          "name": "curator",
          "type": "address"
        },
        {
          "internalType": "bool",
          "name": "enable",
          "type": "bool"
        }
      ],
      "name": "setWhitelist",
      "outputs": [],
      "stateMutability": "nonpayable",
      "type": "function"
    },
    {
      "inputs": [
        {
          "internalType": "bool",
          "name": "enable",
          "type": "bool"
        }
      ],
      "name": "toggleWhitelist",
      "outputs": [],
      "stateMutability": "nonpayable",
      "type": "function"
    },
    {
      "inputs": [
        {
          "internalType": "address",
          "name": "newOwner",
          "type": "address"
        }
      ],
      "name": "transferOwnership",
      "outputs": [],
      "stateMutability": "nonpayable",
      "type": "function"
    },
    {
      "inputs": [
        {
          "internalType": "uint256",
          "name": "newFeeRate",
          "type": "uint256"
        }
      ],
      "name": "updateBaseFeeRate",
      "outputs": [],
      "stateMutability": "nonpayable",
      "type": "function"
    }
  ],
  "bytecode": "0x6080806040523461001657615bf4908161001c8239f35b600080fdfe6080604052600436101561001257600080fd5b6000803560e01c8062efa89514612e7857806317a59f9d14612e555780631ca177ed146127af578063274a192b146127125780632f8e456d146126f257806333b80a96146126ab57806335d7a0521461269357806353d6fd5914612643578063715018a6146125ed57806379ba50971461256557806380e3f1ad1461252d5780638129fc1c146122fc5780638da5cb5b146122d3578063a815b689146122a6578063abd46f6e14611b2f578063ae9fc9e7146113f8578063d4b0cc67146113c9578063d6febde814610dc9578063e30c397814610da0578063e3a4748a14610514578063ef706adf1461017e5763f2fde38b1461010e57600080fd5b3461017b57602036600319011261017b57610127612ffa565b61012f613223565b60a680546001600160a01b0319166001600160a01b039283169081179091556074549091167f38d16b8cac22d99fc7c124b9cd0de2d3fa1faef420bfe791d8c362d765e227008380a380f35b80fd5b503461017b57602036600319011261017b5760043561019b613451565b6101ac6101a782614fe0565b6132db565b808252603c602052604082206040516101c48161303f565b8154815260018201546001600160a01b039081166020830152600283015460408084019190915260038401548216606084019081526004850154909216608080850191909152600585015460a0850152600685015460c085015260078501546001600160401b0380821660e08701529281901c8316610100860152901c1661012083015291610287906101809060ff90600a90610263600882016134a7565b610140870152610275600982016134a7565b6101608701520154169201918261332f565b5160048110156105005761029b901561354b565b516001600160a01b031633036104af57808252603c602052600a6040832001600360ff19825416179055808252603c602052600080516020615b5f833981519152604083206103a760ff600a604051936102f48561303f565b8054855260018101546001600160a01b03908116602087015260028201546040808801919091526003830154821660608801526004830154909116608080880191909152600583015460a0880152600683015460c088015260078301546001600160401b0380821660e08a01529281901c8316610100890152901c16610120860152610382600882016134a7565b610140860152610394600982016134a7565b610160860152015416610180830161332f565b602061049560018060a01b0382840151169261048660408201519160018060a01b0360608201511660018060a01b0360808301511660a083015160c084015160018060401b0360e0860151169160018060401b03610100870151169360018060401b036101208801511695610160610140890151980151996040519d8e9d8e600d6101a08083528201526c13d999995c90d85b98d95b1959609a1b6101c0820152015260408d015260608c015260808b015260a08a015260c089015260e08801526101008701526101208601526101e080610140870152850190613411565b90838203610160850152613411565b426001600160401b03166101808301520390a26001805580f35b60405162461bcd60e51b815260206004820152602360248201527f4f6e6c792067616c6c657279206f776e65722063616e2063616e63656c206f666044820152623332b960e91b6064820152608490fd5b634e487b7160e01b84526021600452602484fd5b503461017b5761012036600319011261017b5761052f612ffa565b6044356001600160401b038111610d975761054e903690600401613099565b6064356001600160401b038111610d935761056d903690600401613099565b926084356001600160401b0381116109ee5761058d903690600401613099565b9360a435151560a43503610d9b5760c4356001600160401b038111610d97576105ba903690600401613173565b9360e4356001600160401b038111610d93576105da903690600401613106565b936001600160401b036101043511610d93576105fc3661010435600401613173565b610604613451565b60a4351560a435610d06575b15610ccd5760ff603a5416158015610cb7575b15610c74578651865110610c3557865160375410610bf457849685975b815160ff8a16101561067057600161066760ff92610660848d168c613593565b5190614807565b99011697610640565b89909795969760385410610ba3576001603354019687603355878952603e60205260408920888155855160018060401b038111610a30576106c1816106b86004850154613351565b600485016133cc565b806020601f8211600114610b39578c91610b2e575b508160011b916000199060031b1c19161760048201555b6001810180546001600160a01b0319166001600160a01b038916179055602435600282015581516001600160401b038111610a305761073c816107336005850154613351565b600585016133cc565b806020601f8211600114610ac4578c91610ab9575b508160011b916000199060031b1c19161760058201555b6003810180546001600160a01b0319163317905582516001600160401b038111610a30576107a68161079d6006850154613351565b600685016133cc565b806020601f8211600114610a4f578c91610a44575b508160011b916000199060031b1c19161760068201555b6036546007820180546001600160a01b0319166001600160a01b03929092169190911790558451906001600160401b038211610a3057600160401b8211610a30576008810154826008830155808310610a0f575b5060086020870191018b5260208b208b5b8381106109f25750506036548b92506001600160a01b03169050803b156109ee57604051630fb1a81d60e11b8152600481018b905260606024820152908290829081838161089e8f61088c606484018e614df5565b83810360031901604485015290614e32565b03925af180156109e3576109c1575b50507f1c7babc4e894749cf4ce6a85c4751e3d0f558d1959c95f83233cec8aad742d73966109936020969461096a6109b7979561095c6109a29661094e60018060a01b03603654169a6040519e8f9e8f91600e6101a08085528401526d11d85b1b195c9e50dc99585d195960921b6101c084015260018060a01b03169101528d60406024359101528d6060339101528d6101e0908160808201520190613411565b8c810360a08e015290613411565b908a820360c08c0152613411565b60a435151560e08a0152426001600160401b03166101008a01528881036101208a015290614df5565b90868203610140880152614e32565b91610160850152838203610180850152614df5565b0390a26001805580f35b6109cf90969495939661302c565b6109df57888a95929493956108ad565b8880fd5b6040513d84823e3d90fd5b5080fd5b82516001600160a01b031681830155602090920191600101610837565b610a2a9060088301600052836020600020918201910161338b565b8b610826565b634e487b7160e01b8b52604160045260248bfd5b90508401518c6107bb565b9150600683018c5260208c208c925b601f1983168410610aa1576001935082601f19811610610a88575b5050811b0160068201556107d2565b86015160001960f88460031b161c191690558c80610a79565b86810151825560209384019360019092019101610a5e565b90508301518c610751565b9150600583018c5260208c208c925b601f1983168410610b16576001935082601f19811610610afd575b5050811b016005820155610768565b85015160001960f88460031b161c191690558c80610aee565b85810151825560209384019360019092019101610ad3565b90508701518c6106d6565b9150600483018c5260208c208c925b601f1983168410610b8b576001935082601f19811610610b72575b5050811b0160048201556106ed565b89015160001960f88460031b161c191690558c80610b63565b89810151825560209384019360019092019101610b48565b60405162461bcd60e51b815260206004820152602360248201527f4578636565646564204d41585f544f54414c5f434f4d4d495353494f4e5f524160448201526254455360e81b6064820152608490fd5b60405162461bcd60e51b8152602060048201526019602482015278115e18d9595919590813505617d41056515154d7d0d3d55395603a1b6044820152606490fd5b60405162461bcd60e51b81526020600482015260176024820152764c61636b206f6620636f6d6d697373696f6e207261746560481b6044820152606490fd5b60405162461bcd60e51b815260206004820152601b60248201527a4e6f7420616c6c6f7720746f206372656174652067616c6c65727960281b6044820152606490fd5b50338552604060205260ff604086205416610623565b60405162461bcd60e51b8152602060048201526011602482015270139bdd0819d85b1b195c9e481bdddb9959607a1b6044820152606490fd5b50604051627eeac760e11b815233600482015260248035908201526020816044816001600160a01b0388165afa908115610d88578691610d53575b5015158015610610575060a435610610565b90506020813d8211610d80575b81610d6d60209383613076565b81010312610d7c575138610d41565b8580fd5b3d9150610d60565b6040513d88823e3d90fd5b8380fd5b8280fd5b600080fd5b503461017b578060031936011261017b5760a6546040516001600160a01b039091168152602090f35b50610dd336612fe4565b9091610ddd613451565b610de96101a784614ff3565b610dfa610df583614fcd565b614315565b610e0c610e078385614f7c565b6147af565b818152603d60205260408120610ec460ff600960405193610e2c85613010565b805485526001810154602086015260028101546001600160a01b039081166040870152600382015460608701526004820154908116608087015260a090811c6001600160401b031690860152600581015460c0860152610e8e600682016134a7565b60e0860152610e9f600782016134a7565b610100860152610eb1600882016134a7565b61012086015201541661014083016141e2565b60c0810151340361138d576036546040516337bcb2eb60e01b815260048101869052929485918290859060249082906001600160a01b03165afa9384156109e35782908395611244575b5082965b8151881015610ffb576001600160a01b03610f2d8984613593565b5116610f398988613593565b5160c0870151918183810204831482151715610fe7576036546001600160a01b031690813b15610fe3578790604460405180948193636e553f6560e01b83528b60048401526024830152670de0b6b3a764000088880204905af18015610fd857908791610fc4575b505091670de0b6b3a7640000610fbc92600194020490614807565b970196610f12565b610fcd9061302c565b610d7c578538610fa1565b6040513d89823e3d90fd5b8780fd5b634e487b7160e01b87526011600452602487fd5b848785926039549060c0840151918083810204831481151715611230579085808080809695670de0b6b3a764000060018060a01b036074541697839202049687918215611227575bf1156109e357608085015160c08601518493849384936001600160a01b031692611076929161107191614814565b614814565b9082821561121e575bf1156109e3576040820151606083015184916001600160a01b0316803b15610d97576040516323b872dd60e01b815291839183918290849082906110c8903330600485016141c0565b03925af180156109e35761120a575b50819052603d60205260096040842001600360ff198254161790558252603d60205260006006604084200161111561110f8254613351565b826133a2565b55600080516020615b9f8339815191526a115e1a1a589a5d14dbdb1960aa1b6101806111f08451946111e16020820151916111d260018060a01b03604083015116606083015160018060a01b0360808501511660018060401b0360a0860151169060c08601519260e087015194610120610100890151980151996040519d8e9d8e600b610160808352820152015260208d015260408c015260608b015260808a015260a089015260c08801526101a08060e0890152870190613411565b90858203610100870152613411565b90838203610120850152613411565b426001600160401b03166101408301520390a26001805580f35b6112139061302c565b610d975782846110d7565b506108fc61107f565b506108fc611043565b634e487b7160e01b86526011600452602486fd5b9450503d938483823e6112578582613076565b6040818681010312610d97578051906001600160401b038211610d9357858101601f838301011215610d935781810151611290816130ef565b9261129e6040519485613076565b818452602084019088840160208460051b83870101011161136a5790602082850101915b60208460051b8287010101831061137257505050506020810151956001600160401b03871161136e57808201601f88840101121561136e578682015191611308836130ef565b97611316604051998a613076565b8389526020890192820160208560051b83850101011161136a579190602083820101925b60208560051b8284010101841061135657505050505038610f0e565b60208080948651815201940193925061133a565b8680fd5b8480fd5b60208080936113808661331b565b81520193019291506112c2565b60405162461bcd60e51b8152602060048201526014602482015273496e73756666696369656e742062616c616e636560601b6044820152606490fd5b503461017b576113f16113db36612fe4565b906113e4613223565b6113ec613451565b614c17565b6001805580f35b503461017b57608036600319011261017b576004356001600160401b0381116109ee57611429903690600401613106565b602480356001600160401b038111610d9357611449903690600401613173565b60449182356001600160401b038111610d7c5761146a903690600401613106565b916064356001600160401b03811161136a5761148a903690600401613106565b865b8251811015611b2b5761149f8188613593565b516001600160a01b036114b28386613593565b51166114be8388613593565b51916114ca8486613593565b51604051936114d88561305b565b8c85526114e3613451565b6114ef6101a784614ff3565b828d52603e60205260408d2060030154611513906001600160a01b03163314614226565b8c6040516331a9108f60e11b81528260048201526020818c81895afa918215611b1f5791611ae1575b506001600160a01b03163303611aa857833b15611aa4576040516323b872dd60e01b81528d90818180611574863033600485016141c0565b0381838a5af180156109e357611a90575b505060359360018554018095556040519361159f85613010565b8585526020850152604084015260608301523360808301528b60a083015260c08201528260e08201526040516115d48161305b565b8b81526101008201526040516115e98161305b565b8b815261012082015260016101408201819052828c52603d60209081526040808e20845181559184015192820192909255908201516002820180546001600160a01b0319166001600160a01b0392831617905560608301516003830155608083015160048301805460a0808701516001600160e01b031990921693909416929092179190921b600160a01b600160e01b031617905560c0820151600582015560e08201518051919291906001600160401b038211611989578d82916116be836116b56006890154613351565b600689016133cc565b602091601f8411600114611a215792611a16575b50508160011b916000199060031b1c19161760068301555b6101008101518051906001600160401b038211611989578d829161171e836117156007890154613351565b600789016133cc565b602091601f84116001146119a7579261199c575b50508160011b916000199060031b1c19161760078301555b61012081015180519091906001600160401b0381116119895761177d816117746008870154613351565b600887016133cc565b60208e6001601f8411146119175790610140948361190c575b50508160011b916000199060031b1c19161760088401555b01519060068210156118f95760019493929160096117cc92016141ee565b8a52603d602052600080516020615b9f83398151915260408b20604051906117f382613010565b80548252858101546020830152858060a01b036002820154166040830152600381015460608301526118ed600482015491878060a01b038316608085015260a0840192888060401b039060a01c16835260058101549260c0850193845261185c600683016134a7565b60e086015261186d600783016134a7565b91610100860192835261189f60ff6009611889600885016134a7565b936101208a0194855201541661014088016141e2565b8551976020870151938b8060a01b036040890151169660608901519860808e8060a01b0391015116948d8060401b0390511690519151935194604051998a998f8060401b034216988b614284565b0390a28180550161148c565b634e487b7160e01b8c526021600452878cfd5b015190503880611796565b91929360088601835260208320925b601f198516811061197157509183916001936101409695601f19811610611958575b505050811b0160088401556117ae565b015160001960f88460031b161c19169055388080611948565b91926020600181928685015181550194019201611926565b634e487b7160e01b8e526041600452898efd5b015190503880611732565b6007870181526020812090945091905b601f19841685106119fb576001945083601f198116106119e2575b505050811b01600783015561174a565b015160001960f88460031b161c191690553880806119d2565b818101518355602094850194600190930192909101906119b7565b0151905038806116d2565b6006870181526020812090945091905b601f1984168510611a75576001945083601f19811610611a5c575b505050811b0160068301556116ea565b015160001960f88460031b161c19169055388080611a4c565b81810151835560209485019460019093019290910190611a31565b611a999061302c565b611aa4578c38611585565b8c80fd5b60405162461bcd60e51b8152602060048201526013818b0152721bdb9b1e481bdddb995c8818d85b881b1a5cdd606a1b818d0152606490fd5b90506020813d602011611b17575b81611afc60209383613076565b81010312611b1357611b0d9061331b565b3861153c565b8d80fd5b3d9150611aef565b604051903d90823e3d90fd5b8780f35b503461017b5761010036600319011261017b57611b4a612ffa565b60843591906001600160401b0383168303610d9b5760a435906001600160401b0382168203610d9b5760c4356001600160401b038111610d9357611b92903690600401613099565b9060e4356001600160401b03811161136e57611bb2903690600401613099565b611bba613451565b603a546001600160401b03600882901c811690881611610d7c576001600160401b034281168682160391908211610fe75760481c6001600160401b0390811691161161136e57611c0e6101a7604435614ff3565b6044358552603e60205260408520600301546001600160a01b03169233849003612257576001603454019485603455604051976331a9108f60e11b895260243560048a015260208960248160018060a01b0389165afa98891561224c578899612210575b506001600160401b0342811682821601116121fa576044358852603e6020526040808920600301549051906001600160a01b0316611caf8261303f565b88825260018060a01b03871660208301526024356040830152606082015260018060a01b038a16608082015260643560a082015260443560c082015260018060401b03421660e082015260018060401b0360018060401b03831660018060401b034216011661010082015260018060401b038316610120820152836101408201528461016082015288610180820152878952603c6020526040892090805182556001820160018060a01b036020830151169060018060a01b03199182825416179055604082015160028401556003830160018060a01b0360608401511682825416179055600483019060018060a01b036080840151169082541617905560a0810151600583015560c081015160068301556007820160018060401b0360e083015116815490600160401b600160801b0361010085015160401b1690600160801b600160c01b0361012086015160801b169260018060c01b031916171717905561014081015180519060018060401b03821161216c578190611e4082611e376008880154613351565b600888016133cc565b602090601f831160011461218b578d92612180575b50508160011b916000199060031b1c19161760088301555b61016081015180519091906001600160401b03811161216c57611ea081611e976009870154613351565b600987016133cc565b6020928c601f83116001146120f857610180949091836120ed575b50508160011b916000199060031b1c19161760098401555b01519060048210156120d957600a019060ff80198354169116179055611efb60243586614e66565b98898952603b60205260408920541560001461206e57604051996001600160401b0360208c01908111908c11176120585760208b01604052888b528952603b60205260408920998a5460018c5580600110612039575b50998952602089209989905b60018210612025575050600080516020615b5f8339815191529798995091610495949391610486935b604080516101a0808252600c908201526b13d999995c90dc99585d195960a21b6101c08201526001600160a01b03998a166020820152602435918101919091526060810199909952909616608088015260643560a088015260443560c08801526001600160401b0342811660e0890181905296811690960186166101008801529094166101208601526101e06101408601819052859490850190613411565b80518c830155600190910190602001611f5d565b612052908c60005260016020600020918201910161338b565b38611f51565b634e487b7160e01b600052604160045260246000fd5b9091929394959697985060408920805490600160401b821015610a3057600182018082558210156120c5579261049595928a600080516020615b5f8339815191529a9998969360208e610486988152200155611f86565b634e487b7160e01b8b52603260045260248bfd5b634e487b7160e01b8a52602160045260248afd5b015190503880611ebb565b50909192600985018d5260208d20918d5b601f198516811061215457509183916001936101809695601f1981161061213b575b505050811b016009840155611ed3565b015160001960f88460031b161c1916905538808061212b565b91926020600181928685015181550194019201612109565b634e487b7160e01b8c52604160045260248cfd5b015190503880611e55565b9250600885018d5260208d20908d935b601f19841685106121df576001945083601f198116106121c6575b505050811b016008830155611e6d565b015160001960f88460031b161c191690553880806121b6565b8181015183556020948501946001909301929091019061219b565b634e487b7160e01b600052601160045260246000fd5b9098506020813d602011612244575b8161222c60209383613076565b81010312610fe35761223d9061331b565b9738611c72565b3d915061221f565b6040513d8a823e3d90fd5b60405162461bcd60e51b815260206004820152602160248201527f4f6e6c792067616c6c657279206f776e65722063616e206d616b65206f6666656044820152603960f91b6064820152608490fd5b503461017b57604036600319011261017b576113f16122c3613164565b6122cb613451565b6004356135bd565b503461017b578060031936011261017b576074546040516001600160a01b039091168152602090f35b503461017b578060031936011261017b57805460ff8160081c161590818092612520575b8015612509575b156124ad5760ff19811660011783558161249c575b50604180546001600160a01b0319908116301790915582546123829060081c60ff166123678161327b565b6123708161327b565b6001805561237d8161327b565b61327b565b61238b336131e1565b604051610b58808201906001600160401b03821183831017612488579180918694936150078339039083f080156109e357603680546001600160a01b039290921692821683179055821617803b156109ee5781809160046040518094819363204a7f0760e21b83525af180156109e357612474575b50506005603755670de0b6b3a76400006038556039829055603a80546001600160881b03191663278d00006203c267604f1b0117905561243d5780f35b61ff001981541681557f7f26b83ff96e1f2b6a682f133852f6798a09c465da95921460cefb3847402498602060405160018152a180f35b61247d9061302c565b6109ee578138612400565b634e487b7160e01b86526041600452602486fd5b61ffff19166101011782553861233c565b60405162461bcd60e51b815260206004820152602e60248201527f496e697469616c697a61626c653a20636f6e747261637420697320616c72656160448201526d191e481a5b9a5d1a585b1a5e995960921b6064820152608490fd5b50303b1580156123275750600160ff821614612327565b50600160ff821610612320565b503461017b57602036600319011261017b57600435801515809103610d9b57612554613223565b60ff8019603a5416911617603a5580f35b503461017b578060031936011261017b5760a654336001600160a01b039091160361259657612593336131e1565b80f35b60405162461bcd60e51b815260206004820152602960248201527f4f776e61626c6532537465703a2063616c6c6572206973206e6f7420746865206044820152683732bb9037bbb732b960b91b6064820152608490fd5b503461017b578060031936011261017b57612606613223565b60a680546001600160a01b03199081169091556074805491821690556000906001600160a01b0316600080516020615b7f8339815191528280a380f35b503461017b57604036600319011261017b5761265d612ffa565b612665613164565b9061266e613223565b60018060a01b031682526040602052604082209060ff80198354169115151617905580f35b503461017b576125936126a536612fe4565b906148cb565b503461017b57606036600319011261017b576044356001600160401b0381116109ee576126df6113f1913690600401613099565b6126e7613451565b6024356004356143a1565b503461017b576113f161270436612fe4565b9061270d613451565b614b49565b503461017b57604036600319011261017b576001600160401b03906004358281116109ee57612745903690600401613106565b916024359081116109ee5761275e903690600401613106565b90805b83518110156127ab576127a06127778286613593565b516127828386613593565b51604051916127908361305b565b85835261279b613451565b6143a1565b600180805501612761565b5080f35b503461017b5760a036600319011261017b576024356001600160a01b03811681036109ee576084356001600160401b038111610d97576127f3903690600401613099565b906127fc613451565b61280a6101a7600435614ff3565b6004358352603e60205261282e60018060a01b036003604086200154163314614226565b6040516331a9108f60e11b815260443560048201526020816024816001600160a01b0386165afa908115612dd5578491612e1b575b506001600160a01b03163303612de0576001600160a01b0381163b15610d97576040516323b872dd60e01b81528381806128a46044353033600485016141c0565b0381836001600160a01b0387165af18015612dd557612dc2575b506001603554019081603555604051906128d782613010565b828252600435602083015260018060a01b0316604082015260443560608201523360808201528360a082015260643560c08201528260e082015260405161291d8161305b565b8481526101008201526040516129328161305b565b84815261012082015260016101408201819052828552603d60209081526040808720845181559184015192820192909255908201516002820180546001600160a01b0319166001600160a01b0392831617905560608301516003830155608083015160048301805460a0808701516001600160e01b031990921693909416929092179190921b600160a01b600160e01b031617905560c0820151600582015560e08201518051919291906001600160401b038211612cba578190612a06826129fd6006880154613351565b600688016133cc565b602090601f8311600114612d53578892612d48575b50508160011b916000199060031b1c19161760068301555b6101008101518051906001600160401b038211612cba578190612a6682612a5d6007880154613351565b600788016133cc565b602090601f8311600114612cd9578892612cce575b50508160011b916000199060031b1c19161760078301555b6101208101518051906001600160401b038211612cba57612abb826117746008870154613351565b602090601f8311600114612c4957610140939291889183612c3e575b50508160011b916000199060031b1c19161760088401555b0151906006821015612c2a57906009612b0892016141ee565b8252603d602052600080516020615b9f8339815191526040832060405192612b2f84613010565b815484526001820154602085015260028201546001600160a01b039081166040860190815260038401546060870190815260048501549283166080880190815260a093841c6001600160401b0316938801938452600586015460c08901908152909591946109b794928992612ba6600683016134a7565b60e0850152612be860ff6009612bbe600786016134a7565b946101008801958652610120612bd6600883016134a7565b98019788520154166101408d016141e2565b8a516020909b01519551975198519451905191519351604051998a996001600160401b034281169993989416936001600160a01b03908116939116908b614284565b634e487b7160e01b85526021600452602485fd5b015190503880612ad7565b906008850188526020882091885b601f1985168110612ca257509183916001936101409695601f19811610612c89575b505050811b016008840155612aef565b015160001960f88460031b161c19169055388080612c79565b91926020600181928685015181550194019201612c57565b634e487b7160e01b87526041600452602487fd5b015190503880612a7b565b9250600785018852602088209088935b601f1984168510612d2d576001945083601f19811610612d14575b505050811b016007830155612a93565b015160001960f88460031b161c19169055388080612d04565b81810151835560209485019460019093019290910190612ce9565b015190503880612a1b565b9250600685018852602088209088935b601f1984168510612da7576001945083601f19811610612d8e575b505050811b016006830155612a33565b015160001960f88460031b161c19169055388080612d7e565b81810151835560209485019460019093019290910190612d63565b612dce9093919361302c565b91386128be565b6040513d86823e3d90fd5b60405162461bcd60e51b81526020600482015260136024820152721bdb9b1e481bdddb995c8818d85b881b1a5cdd606a1b6044820152606490fd5b90506020813d602011612e4d575b81612e3660209383613076565b81010312610d9357612e479061331b565b38612863565b3d9150612e29565b503461017b57602036600319011261017b57612e6f613223565b60043560395580f35b503461017b57610e07612ed7612e8d36612fe4565b809391612e98613451565b612ea46101a782614ff3565b808652603e602052612ec660018060a01b036003604089200154163314614226565b612ed2610df583614fcd565b614f7c565b808252603d6020526009604083200160ff198154169055600060066040842001612f0461110f8254613351565b558152603d60205260408120612f2460ff600960405193610e2c85613010565b600080516020615b9f8339815191526e115e1a1a589a5d10d85b98d95b1959608a1b6101806111f08451946111e16020820151916111d260018060a01b03604083015116606083015160018060a01b0360808501511660018060401b0360a0860151169060c08601519260e087015194610120610100890151980151996040519d8e9d8e600f610160808352820152015260208d015260408c015260608b015260808a015260a089015260c08801526101a08060e0890152870190613411565b6040906003190112610d9b576004359060243590565b600435906001600160a01b0382168203610d9b57565b61016081019081106001600160401b0382111761205857604052565b6001600160401b03811161205857604052565b6101a081019081106001600160401b0382111761205857604052565b602081019081106001600160401b0382111761205857604052565b601f909101601f19168101906001600160401b0382119082101761205857604052565b81601f82011215610d9b578035906001600160401b03821161205857604051926130cd601f8401601f191660200185613076565b82845260208383010111610d9b57816000926020809301838601378301015290565b6001600160401b0381116120585760051b60200190565b81601f82011215610d9b5780359161311d836130ef565b9261312b6040519485613076565b808452602092838086019260051b820101928311610d9b578301905b828210613155575050505090565b81358152908301908301613147565b602435908115158203610d9b57565b81601f82011215610d9b5780359161318a836130ef565b926131986040519485613076565b808452602092838086019260051b820101928311610d9b578301905b8282106131c2575050505090565b81356001600160a01b0381168103610d9b5781529083019083016131b4565b60a680546001600160a01b0319908116909155607480549182166001600160a01b039384169081179091559116600080516020615b7f833981519152600080a3565b6074546001600160a01b0316330361323757565b606460405162461bcd60e51b815260206004820152602060248201527f4f776e61626c653a2063616c6c6572206973206e6f7420746865206f776e65726044820152fd5b1561328257565b60405162461bcd60e51b815260206004820152602b60248201527f496e697469616c697a61626c653a20636f6e7472616374206973206e6f74206960448201526a6e697469616c697a696e6760a81b6064820152608490fd5b156132e257565b60405162461bcd60e51b815260206004820152601160248201527011d85b1b195c9e481b9bdd08199bdd5b99607a1b6044820152606490fd5b51906001600160a01b0382168203610d9b57565b600482101561333b5752565b634e487b7160e01b600052602160045260246000fd5b90600182811c92168015613381575b602083101461336b57565b634e487b7160e01b600052602260045260246000fd5b91607f1691613360565b818110613396575050565b6000815560010161338b565b90601f81116133af575050565b6133ca91600052601f6020600020910160051c81019061338b565b565b9190601f81116133db57505050565b6133ca926000526020600020906020601f840160051c83019310613407575b601f0160051c019061338b565b90915081906133fa565b919082519283825260005b84811061343d575050826000602080949584010152601f8019910116010190565b60208183018101518483018201520161341c565b600260015414613462576002600155565b60405162461bcd60e51b815260206004820152601f60248201527f5265656e7472616e637947756172643a207265656e7472616e742063616c6c006044820152606490fd5b90604051918260008254926134bb84613351565b90818452600194858116908160001461352857506001146134e5575b50506133ca92500383613076565b9093915060005260209081600020936000915b8183106135105750506133ca935082010138806134d7565b855488840185015294850194879450918301916134f8565b9150506133ca94506020925060ff191682840152151560051b82010138806134d7565b1561355257565b60405162461bcd60e51b815260206004820152601960248201527824ba103bb0b9b713ba1030903832b73234b7339037b33332b960391b6044820152606490fd5b80518210156135a75760209160051b010190565b634e487b7160e01b600052603260045260246000fd5b9190916135c981614fe0565b1561404f57600092818452603c60205260408420906136a560ff600a604051946135f28661303f565b8054865260018101546001600160a01b03908116602088015260028201546040808901919091526003830154821660608901526004830154909116608080890191909152600583015460a0890152600683015460c089015260078301546001600160401b0380821660e08b01529281901c83166101008a0152901c16610120870152613680600882016134a7565b610140870152613692600982016134a7565b610160870152015416610180840161332f565b6136b56101a760c0840151614ff3565b60808201516001600160a01b03163303613ffc5760018060a01b03602083015116602060408401516024604051809481936331a9108f60e11b835260048301525afa908115610d88578691613fc2575b506001600160a01b03163303613f83576101808201516004811015613f6f5761372e901561354b565b6101008201516001600160401b0316421015613f325715613f2657818452603c602052600a6040852001600160ff198254161790556040842061377b60ff600a604051936102f48561303f565b6020810151604082015186916001600160a01b031690813b15610d975782916137bc916040519485809481936323b872dd60e01b83523033600485016141c0565b03925af18015610d8857613f13575b50600080516020615b5f83398151915281519160206138bd60018060a01b0382840151169261048660408201519160018060a01b0360608201511660018060a01b0360808301511660a083015160c084015160018060401b0360e0860151169160018060401b03610100870151169360018060401b036101208801511695610160610140890151980151996040519d8e9d8e600d6101a08083528201526c13d999995c9058d8d95c1d1959609a1b6101c0820152015260408d015260608c015260808b015260a08a015260c089015260e08801526101008701526101208601526101e080610140870152850190613411565b426001600160401b03166101808301520390a260016035540180603555828552603c60205260408520906138fb60ff600a604051946135f28661303f565b60c08201519160018060a01b0360208201511690604081015160018060a01b0360808301511660018060401b03610120840151169060a08401519261016061014086015195015195604051986139508a613010565b888a5260208a015260408901526060880152608087015260a086015260c085015260405161397d8161305b565b88815260e0850190815261010085019190915261012084019190915260016101408401819052918752603d60209081526040808920855181559185015193820193909355918301516002830180546001600160a01b0319166001600160a01b0392831617905560608401516003840155608084015160048401805460a0808801516001600160e01b031990921693909416929092179190921b600160a01b600160e01b031617905560c08301516005830155518051906001600160401b038211613e0b578190613a5d82613a546006870154613351565b600687016133cc565b602090601f8311600114613ea4578992613e99575b50508160011b916000199060031b1c19161760068201555b6101008201518051906001600160401b038211613e0b578190613abd82613ab46007870154613351565b600787016133cc565b602090601f8311600114613e2a578992613e1f575b50508160011b916000199060031b1c19161760078201555b6101208201518051906001600160401b038211613e0b578190613b14826117746008870154613351565b602090601f8311600114613d9c578992613d91575b50508160011b916000199060031b1c19161760088201555b610140820151906006821015613d7d57613c409392916009613b6392016141ee565b600080516020615b9f8339815191528151916040613c13896111e1602085015194602060018060a01b038683015116968160608401519560018060a01b036080860151166001808b1b0360a08701511660c087015191610120610100890151980151998c519d8e9d8e6101608152613bde6101608201614206565b9989820152015260608d015260808c015260a08b015260c08a0152888303908160e08b01528352016101008801520190613411565b426001600160401b03166101408301520390a26020810151604090910151906001600160a01b0316614e66565b91828452603b60205260408420906040518083602082955493848152019088526020882092885b818110613d64575050613c7c92500383613076565b845b8251811015613d3057613c918184613593565b518481141580613d21575b80613cea575b600192919080613cc8575b613cb9575b5001613c7e565b613cc290614086565b38613cb2565b50808852603c602052828060401b03600760408a20015460401c164210613cad565b50808752603c60205260ff600a604089200154166004811015613d0d5715613ca2565b634e487b7160e01b88526021600452602488fd5b50613d2b81614fe0565b613c9c565b50939150506040918152603b6020522080546000825580613d4f575050565b6133ca9160005260206000209081019061338b565b8454835260019485019487945060209093019201613c67565b634e487b7160e01b87526021600452602487fd5b015190503880613b29565b9250600884018952602089209089935b601f1984168510613df0576001945083601f19811610613dd7575b505050811b016008820155613b41565b015160001960f88460031b161c19169055388080613dc7565b81810151835560209485019460019093019290910190613dac565b634e487b7160e01b88526041600452602488fd5b015190503880613ad2565b9250600784018952602089209089935b601f1984168510613e7e576001945083601f19811610613e65575b505050811b016007820155613aea565b015160001960f88460031b161c19169055388080613e55565b81810151835560209485019460019093019290910190613e3a565b015190503880613a72565b9250600684018952602089209089935b601f1984168510613ef8576001945083601f19811610613edf575b505050811b016006820155613a8a565b015160001960f88460031b161c19169055388080613ecf565b81810151835560209485019460019093019290910190613eb4565b613f1f9095919561302c565b93386137cb565b506133ca919250614086565b60405162461bcd60e51b8152602060048201526015602482015274151a19481bd999995c881dd85cc8195e1c1a5c9959605a1b6044820152606490fd5b634e487b7160e01b86526021600452602486fd5b60405162461bcd60e51b8152602060048201526017602482015276151bdad95b881bdddb995c881dd85cc818da185b99d959604a1b6044820152606490fd5b90506020813d602011613ff4575b81613fdd60209383613076565b81010312610d7c57613fee9061331b565b38613705565b3d9150613fd0565b60405162461bcd60e51b815260206004820152602560248201527f4f6e6c7920746f6b656e206f776e65722063616e20616363657074207468652060448201526437b33332b960d91b6064820152608490fd5b60405162461bcd60e51b815260206004820152600f60248201526e13d999995c881b9bdd08199bdd5b99608a1b6044820152606490fd5b600052603c602052600a604060002001600260ff1982541617905560406000206140ba60ff600a604051936102f48561303f565b600080516020615b5f83398151915281519160206141ab60018060a01b0382840151169261048660408201519160018060a01b0360608201511660018060a01b0360808301511660a083015160c084015160018060401b0360e0860151169160018060401b03610100870151169360018060401b036101208801511695610160610140890151980151996040519d8e9d8e600d6101a08083528201526c13d999995c94995a9958dd1959609a1b6101c0820152015260408d015260608c015260808b015260a08a015260c089015260e08801526101008701526101208601526101e080610140870152850190613411565b426001600160401b03166101808301520390a2565b6001600160a01b03918216815291166020820152604081019190915260600190565b600682101561333b5752565b90600681101561333b5760ff80198354169116179055565b600d81526c115e1a1a589a5d131a5cdd1959609a1b602082015260400190565b1561422d57565b60405162461bcd60e51b815260206004820152602960248201527f4f6e6c792067616c6c657279206f776e65722063616e206d616e6167652074686044820152681948195e1a1a589a5d60ba1b6064820152608490fd5b98949661430e966142f0936142ff966101409b969d9e9d60608e6142ae6101608083528201614206565b60208201989098526001600160a01b03948516604082015201521660808c01526001600160401b0398891660a08c015260c08b015289820360e08b0152613411565b90878203610100890152613411565b90858203610120870152613411565b9416910152565b1561431c57565b60405162461bcd60e51b8152602060048201526011602482015270115e1a1a589a5d081b9bdd08199bdd5b99607a1b6044820152606490fd5b61435f8154613351565b9081614369575050565b81601f6000931160011461437b575055565b8183526020832061439791601f0160051c81019060010161338b565b8160208120915555565b909291926143b16101a783614ff3565b6000938285526020603e81526143d760018060a01b036003604089200154163314614226565b6143e3610df584614fcd565b828652603d9384825260408720541515908161479e575b5080614783575b156147305782865283815260408620936040519361441e85613010565b85548552600186015483860190815260028701546001600160a01b039081166040880152600388015460608801526004880154908116608088015260a090811c6001600160401b031690870152600587015460c0870152956144c29060ff9060099061448c600682016134a7565b60e08a015261449d600782016134a7565b6101008a01526144af600882016134a7565b6101208a015201541661014087016141e2565b60a08501516001600160401b03164211614640578088528183526040808920600901805460ff1916600117905590885290825286208251600691909101916001600160401b038211613e0b576145228261451c8554613351565b856133cc565b80601f83116001146145ca57508190600080516020615b9f833981519152969798916145bf575b508160011b916000199060031b1c19161790555b815193516040808401516060850151608086015160a087015160c08801516101008901516101209099015195519889986145ba986001600160401b03428116999893979296949516936001600160a01b039081169316908b614284565b0390a2565b905083015138614549565b8389528089209298905b601f198a16821061462857505096600191600080516020615b9f83398151915296979882601f1981161061460f575b5050811b01905561455d565b85015160001960f88460031b161c191690553880614603565b806001849582949589015181550194019201906145d4565b919250929350808695965282825260096040862001600260ff1982541617905560006006604087200161467661110f8254613351565b55845252816009604082208281558260018201558260028201558260038201558260048201558260058201556146ae60068201614355565b6146ba60078201614355565b6146c660088201614355565b015560408101516080820151606090920151916001600160a01b039182169116813b15610d935791839161471293836040518096819582946323b872dd60e01b845230600485016141c0565b03925af180156109e357614724575050565b61472d9061302c565b50565b6084906040519062461bcd60e51b82526004820152602660248201527f45786869626974207761736e277420726573657276656420696e207468652067604482015265616c6c65727960d01b6064820152fd5b5060ff6009604088200154166006811015613d7d5715614401565b9050600160408820015414386143fa565b156147b657565b60405162461bcd60e51b8152602060048201526024808201527f45786869626974207761736e2774206c697374656420696e207468652067616c6044820152636c65727960e01b6064820152608490fd5b919082018092116121fa57565b919082039182116121fa57565b1561482857565b606460405162461bcd60e51b815260206004820152602060248201527f45786869626974206e6f7420666f756e6420696e207468652067616c6c6572796044820152fd5b1561487357565b60405162461bcd60e51b815260206004820152602a60248201527f43616c6c65722069736e2774206f726967696e616c206f776e6572206f6620746044820152691a1948195e1a1a589a5d60b21b6064820152608490fd5b906148d86101a783614ff3565b6148e4610df582614fcd565b6148f66148f18284614ea9565b614821565b80600052603d6020526040600020916149b160ff60096040519561491987613010565b805487526001810154602088015260028101546001600160a01b039081166040890152600382015460608901526004820154908116608089015260a090811c6001600160401b031690880152600581015460c088015261497b600682016134a7565b60e088015261498c600782016134a7565b61010088015261499e600882016134a7565b61012088015201541661014085016141e2565b6149c860018060a01b03608085015116331461486c565b6000828152603d60205260409020600901805460ff191660041790556001600160401b034281166202a30001116121fa57604051916001600160401b036080840190811190841117612058576003916080840160405281845260208401908152604084019060018060401b0342168252606085019260018060401b036202a30060018060401b03421601168452600052603f60205260406000209451855551600185015551600284015551910155600080516020615b9f8339815191526c22bc3434b134ba233937bd32b760991b610180614b348451946111e16020820151916111d260018060a01b03604083015116606083015160018060a01b0360808501511660018060401b0360a0860151169060c08601519260e087015194610120610100890151980151996040519d8e9d8e600d610160808352820152015260208d015260408c015260608b015260808a015260a089015260c08801526101a08060e0890152870190613411565b426001600160401b03166101408301520390a2565b614b6082600052603f602052604060002054151590565b15614c0d57614b7c82600052603f602052604060002054151590565b80614bf3575b15614bb45781614b9191614c17565b6000908152603f6020526003604082208281558260018201558260028201550155565b60405162461bcd60e51b815260206004820152601760248201527622bc3434b134ba1034b99039ba34b63610333937bd32b760491b6044820152606490fd5b5081600052603f6020526003604060002001544211614b82565b906133ca916148cb565b6148f182614c3f92949394614c2e6101a782614ff3565b614c3a610df583614fcd565b614ea9565b600091808352603d60205260018060a01b0360046040852001541633148015614de1575b614c6c9061486c565b808352603d60205260408320600281015460039091015484916001600160a01b031690813b15610d97578291614cba916040519788809481936323b872dd60e01b83523330600485016141c0565b03925af1938415614dd45760409394614dc5575b5090808252603d602052600983832001600560ff198254161790558152603d60205220614d0560ff600960405193610e2c85613010565b600080516020615b9f8339815191526e115e1a1a589a5d14995919595b5959608a1b610180614b348451946111e16020820151916111d260018060a01b03604083015116606083015160018060a01b0360808501511660018060401b0360a0860151169060c08601519260e087015194610120610100890151980151996040519d8e9d8e600f610160808352820152015260208d015260408c015260608b015260808a015260a089015260c08801526101a08060e0890152870190613411565b614dce9061302c565b38614cce565b50604051903d90823e3d90fd5b506074546001600160a01b03163314614c63565b90815180825260208080930193019160005b828110614e15575050505090565b83516001600160a01b031685529381019392810192600101614e07565b90815180825260208080930193019160005b828110614e52575050505090565b835185529381019392810192600101614e44565b604051606091821b6001600160601b031916602082019081526034808301949094529281529081016001600160401b038111828210176120585760405251902090565b906000818152603d602052604081205415159283614f6b575b5082614ecd57505090565b90915060ff6009604083200154166006811015614f5757600114918215614f32575b8215614efa57505090565b8152603d602052604081206009015460ff1691506006821015614f1e575060041490565b634e487b7160e01b81526021600452602490fd5b8092508152603d60205260ff6009604083200154166006811015614f57571591614eef565b634e487b7160e01b82526021600452602482fd5b604082206001015414925038614ec2565b906000908152603d602052604081205415159182614fbc575b5081614f9f575090565b604081206009015460ff1691506006821015614f1e575060011490565b604082206001015414915038614f95565b600052603d602052604060002054151590565b600052603c602052604060002054151590565b600052603e60205260406000205415159056fe6080806040523461001657610b3c908161001c8239f35b600080fdfe60406080815260048036101561001457600080fd5b600091823560e01c9081631f63503a1461068d57816337bcb2eb1461055d5781635e7375481461046c5781636e553f65146103cb578163715018a61461037357816379ba5097146102eb5781638129fc1c146101a25781638da5cb5b14610179578163b961cbe114610136578163e30c39781461010d575063f2fde38b1461009b57600080fd5b3461010957602036600319011261010957356001600160a01b0381811691829003610105576100c8610969565b609780546001600160a01b03191683179055606554167f38d16b8cac22d99fc7c124b9cd0de2d3fa1faef420bfe791d8c362d765e227008380a380f35b8280fd5b5080fd5b83903461010957816003193601126101095760975490516001600160a01b039091168152602090f35b91905034610105578160031936011261010557602092829161015661090c565b9035825260ca85528282206001600160a01b039091168252845220549051908152f35b83903461010957816003193601126101095760655490516001600160a01b039091168152602090f35b91905034610105578260031936011261010557825460ff8160081c1615918280936102de575b80156102c7575b1561026d575060ff19811660011784558161025c575b5061021560ff845460081c166101fa816109c1565b610203816109c1565b60018055610210816109c1565b6109c1565b61021e33610927565b610226575080f35b60207f7f26b83ff96e1f2b6a682f133852f6798a09c465da95921460cefb38474024989161ff001984541684555160018152a180f35b61ffff1916610101178355386101e5565b608490602085519162461bcd60e51b8352820152602e60248201527f496e697469616c697a61626c653a20636f6e747261637420697320616c72656160448201526d191e481a5b9a5d1a585b1a5e995960921b6064820152fd5b50303b1580156101cf5750600160ff8316146101cf565b50600160ff8316106101c8565b905034610105578260031936011261010557609754336001600160a01b039091160361031e578261031b33610927565b80f35b906020608492519162461bcd60e51b8352820152602960248201527f4f776e61626c6532537465703a2063616c6c6572206973206e6f7420746865206044820152683732bb9037bbb732b960b91b6064820152fd5b83346103c857806003193601126103c85761038c610969565b609780546001600160a01b031990811690915560658054918216905581906001600160a01b0316600080516020610ae78339815191528280a380f35b80fd5b83915080600319360112610109578235906103e461090c565b6103ec610a70565b82845260ca60209081528285206001600160a01b038316808752915282852080543481019190821061045957600080516020610ac7833981519152959697505584865260ca60205282862090865260205261044f82862054925192839283610a55565b0390a26001805580f35b634e487b7160e01b875260118852602487fd5b919050346101055760603660031901126101055780359161048b61090c565b60443590610497610a70565b84865260ca6020528286203387526020528286205493821561052357828503948511610510575085808093819388835260ca602052868320338452602052878784205560018060a01b031682f1156105075751600080516020610ac783398151915291819061044f903383610a55565b513d84823e3d90fd5b634e487b7160e01b875260119052602486fd5b606490602085519162461bcd60e51b8352820152601460248201527343616e6e6f7420636c61696d20302076616c756560601b6044820152fd5b905082346103c857602092836003193601126101095735815260c98352818120908251610589816108a1565b8351835480825284845286842087830191855b81811061067057505050816105b29103826108d2565b8152600180930194845191828288549182815201908198865283862090865b81811061065d57505050836105e79103846108d2565b8282820152519185519580870190875283518091528260608801940190855b81811061064157505050858303868301525180835291810195925b82811061062e5785870386f35b8351875295810195928101928401610621565b82516001600160a01b0316865294840194918401918701610606565b82548452928501929188019188016105d1565b82546001600160a01b03168452928901926001928301920161059c565b919050346101055760603660031901126101055760248035926001600160401b039290919083851161089d573660238601121561089d5784810135916106d2836108f5565b956106df855197886108d2565b838752602093828589019160051b83010191368311610899578301905b82821061087a5750505060443593858511610876573660238601121561087657848301359461072a866108f5565b95610737835197886108d2565b808752838688019160051b830101913683116108725784879101915b8383106108625750505050610766610969565b805196610772886108a1565b87528387019485528235885260c984528720955191825186811161082357600160401b938482116108505785906107ae838b54818d558c610a21565b01888a52858a208a5b83811061083557505050506001809701945192835196871161082357861161081257505081906107ec85855481875586610a21565b0191855280852090855b848110610801578680f35b8351838201559281019285016107f6565b634e487b7160e01b88526041905286fd5b50634e487b7160e01b88526041905286fd5b82516001600160a01b031682820155918701916001016107b7565b634e487b7160e01b8a5260418352838afd5b8235815291810191879101610753565b8a80fd5b8780fd5b81356001600160a01b03811681036108725781529085019085016106fc565b8980fd5b8580fd5b604081019081106001600160401b038211176108bc57604052565b634e487b7160e01b600052604160045260246000fd5b601f909101601f19168101906001600160401b038211908210176108bc57604052565b6001600160401b0381116108bc5760051b60200190565b602435906001600160a01b038216820361092257565b600080fd5b609780546001600160a01b0319908116909155606580549182166001600160a01b039384169081179091559116600080516020610ae7833981519152600080a3565b6065546001600160a01b0316330361097d57565b606460405162461bcd60e51b815260206004820152602060248201527f4f776e61626c653a2063616c6c6572206973206e6f7420746865206f776e65726044820152fd5b156109c857565b60405162461bcd60e51b815260206004820152602b60248201527f496e697469616c697a61626c653a20636f6e7472616374206973206e6f74206960448201526a6e697469616c697a696e6760a81b6064820152608490fd5b9091828110610a2f57505050565b60009182526020822092830192015b828110610a4a57505050565b818155600101610a3e565b6001600160a01b039091168152602081019190915260400190565b600260015414610a81576002600155565b60405162461bcd60e51b815260206004820152601f60248201527f5265656e7472616e637947756172643a207265656e7472616e742063616c6c006044820152606490fdfeae8f8bf7a17e85228ceb45755da4f4caefd40f17bfad89e34e910a6f952c17008be0079c531659141344cd1fd0a4f28419497f9722a3daafe3b4186f6b6457e0a2646970667358221220ad1ace53266a484cd7879ad4083ae4f647e40eb005538259b313eae8954081fd64736f6c63430008110033bf076646518bfc89aa04223054c6ebb7b85b3ecce008024a5b0d21fee43f97c78be0079c531659141344cd1fd0a4f28419497f9722a3daafe3b4186f6b6457e066db01a2d81855ab9f32c6e24f5b9dd677486ecaf7f601ba22798f41231d3cb5a26469706673582212200ad22b3aca8560d43fc3b41c4e20fbf122f930324dfde4186ea84e2ec613761664736f6c63430008110033",
  "linkReferences": {},
  "deployedLinkReferences": {}
}