{
  "_format": "hh-sol-artifact-1",
  "contractName": "Curation",
  "sourceName": "contracts/Curation.sol",
  "abi": [
    {
      "inputs": [],
      "stateMutability": "nonpayable",
      "type": "constructor"
    },
    {
      "anonymous": false,
      "inputs": [
        {
          "indexed": true,
          "internalType": "uint256",
          "name": "id",
          "type": "uint256"
        },
        {
          "indexed": false,
          "internalType": "uint256",
          "name": "galleryId",
          "type": "uint256"
        },
        {
          "indexed": false,
          "internalType": "address",
          "name": "collection",
          "type": "address"
        },
        {
          "indexed": false,
          "internalType": "uint256",
          "name": "tokenId",
          "type": "uint256"
        },
        {
          "indexed": false,
          "internalType": "address",
          "name": "origin",
          "type": "address"
        },
        {
          "indexed": false,
          "internalType": "uint64",
          "name": "timestamp",
          "type": "uint64"
        }
      ],
      "name": "ExhibitCanceled",
      "type": "event"
    },
    {
      "anonymous": false,
      "inputs": [
        {
          "indexed": true,
          "internalType": "uint256",
          "name": "id",
          "type": "uint256"
        },
        {
          "indexed": false,
          "internalType": "uint256",
          "name": "galleryId",
          "type": "uint256"
        },
        {
          "indexed": false,
          "internalType": "address",
          "name": "collection",
          "type": "address"
        },
        {
          "indexed": false,
          "internalType": "uint256",
          "name": "tokenId",
          "type": "uint256"
        },
        {
          "indexed": false,
          "internalType": "address",
          "name": "origin",
          "type": "address"
        },
        {
          "indexed": false,
          "internalType": "uint64",
          "name": "timestamp",
          "type": "uint64"
        }
      ],
      "name": "ExhibitFrozen",
      "type": "event"
    },
    {
      "anonymous": false,
      "inputs": [
        {
          "indexed": true,
          "internalType": "uint256",
          "name": "id",
          "type": "uint256"
        },
        {
          "indexed": false,
          "internalType": "uint256",
          "name": "galleryId",
          "type": "uint256"
        },
        {
          "indexed": false,
          "internalType": "address",
          "name": "collection",
          "type": "address"
        },
        {
          "indexed": false,
          "internalType": "uint256",
          "name": "tokenId",
          "type": "uint256"
        },
        {
          "indexed": false,
          "internalType": "address",
          "name": "origin",
          "type": "address"
        },
        {
          "indexed": false,
          "internalType": "uint64",
          "name": "expiration",
          "type": "uint64"
        },
        {
          "indexed": false,
          "internalType": "uint256",
          "name": "price",
          "type": "uint256"
        },
        {
          "indexed": false,
          "internalType": "string",
          "name": "location",
          "type": "string"
        },
        {
          "indexed": false,
          "internalType": "string",
          "name": "url",
          "type": "string"
        },
        {
          "indexed": false,
          "internalType": "string",
          "name": "detail",
          "type": "string"
        },
        {
          "indexed": false,
          "internalType": "uint64",
          "name": "timestamp",
          "type": "uint64"
        }
      ],
      "name": "ExhibitListed",
      "type": "event"
    },
    {
      "anonymous": false,
      "inputs": [
        {
          "indexed": true,
          "internalType": "uint256",
          "name": "id",
          "type": "uint256"
        },
        {
          "indexed": false,
          "internalType": "uint256",
          "name": "galleryId",
          "type": "uint256"
        },
        {
          "indexed": false,
          "internalType": "address",
          "name": "collection",
          "type": "address"
        },
        {
          "indexed": false,
          "internalType": "uint256",
          "name": "tokenId",
          "type": "uint256"
        },
        {
          "indexed": false,
          "internalType": "address",
          "name": "origin",
          "type": "address"
        },
        {
          "indexed": false,
          "internalType": "uint64",
          "name": "timestamp",
          "type": "uint64"
        }
      ],
      "name": "ExhibitRedeemed",
      "type": "event"
    },
    {
      "anonymous": false,
      "inputs": [
        {
          "indexed": true,
          "internalType": "uint256",
          "name": "id",
          "type": "uint256"
        },
        {
          "indexed": false,
          "internalType": "uint256",
          "name": "galleryId",
          "type": "uint256"
        },
        {
          "indexed": false,
          "internalType": "address",
          "name": "collection",
          "type": "address"
        },
        {
          "indexed": false,
          "internalType": "uint256",
          "name": "tokenId",
          "type": "uint256"
        },
        {
          "indexed": false,
          "internalType": "address",
          "name": "origin",
          "type": "address"
        },
        {
          "indexed": false,
          "internalType": "uint256",
          "name": "price",
          "type": "uint256"
        },
        {
          "indexed": false,
          "internalType": "uint64",
          "name": "timestamp",
          "type": "uint64"
        }
      ],
      "name": "ExhibitSold",
      "type": "event"
    },
    {
      "anonymous": false,
      "inputs": [
        {
          "indexed": true,
          "internalType": "uint256",
          "name": "id",
          "type": "uint256"
        },
        {
          "indexed": false,
          "internalType": "address",
          "name": "collection",
          "type": "address"
        },
        {
          "indexed": false,
          "internalType": "uint256",
          "name": "tokenId",
          "type": "uint256"
        },
        {
          "indexed": false,
          "internalType": "address",
          "name": "owner",
          "type": "address"
        },
        {
          "indexed": false,
          "internalType": "string",
          "name": "spaceType",
          "type": "string"
        },
        {
          "indexed": false,
          "internalType": "string",
          "name": "name",
          "type": "string"
        },
        {
          "indexed": false,
          "internalType": "string",
          "name": "metadataUri",
          "type": "string"
        },
        {
          "indexed": false,
          "internalType": "bool",
          "name": "isToken",
          "type": "bool"
        },
        {
          "indexed": false,
          "internalType": "uint64",
          "name": "timestamp",
          "type": "uint64"
        },
        {
          "indexed": false,
          "internalType": "address[]",
          "name": "payees",
          "type": "address[]"
        },
        {
          "indexed": false,
          "internalType": "uint256[]",
          "name": "commissionRates",
          "type": "uint256[]"
        },
        {
          "indexed": false,
          "internalType": "address",
          "name": "commissionPool",
          "type": "address"
        }
      ],
      "name": "GalleryCreated",
      "type": "event"
    },
    {
      "anonymous": false,
      "inputs": [
        {
          "indexed": true,
          "internalType": "uint256",
          "name": "id",
          "type": "uint256"
        },
        {
          "indexed": false,
          "internalType": "address",
          "name": "collection",
          "type": "address"
        },
        {
          "indexed": false,
          "internalType": "uint256",
          "name": "tokenId",
          "type": "uint256"
        },
        {
          "indexed": false,
          "internalType": "address",
          "name": "from",
          "type": "address"
        },
        {
          "indexed": false,
          "internalType": "address",
          "name": "to",
          "type": "address"
        },
        {
          "indexed": false,
          "internalType": "uint256",
          "name": "price",
          "type": "uint256"
        },
        {
          "indexed": false,
          "internalType": "uint256",
          "name": "galleryId",
          "type": "uint256"
        },
        {
          "indexed": false,
          "internalType": "uint64",
          "name": "exhibitExpiredAt",
          "type": "uint64"
        },
        {
          "indexed": false,
          "internalType": "uint64",
          "name": "timestamp",
          "type": "uint64"
        }
      ],
      "name": "OfferAccepted",
      "type": "event"
    },
    {
      "anonymous": false,
      "inputs": [
        {
          "indexed": true,
          "internalType": "uint256",
          "name": "id",
          "type": "uint256"
        },
        {
          "indexed": false,
          "internalType": "address",
          "name": "collection",
          "type": "address"
        },
        {
          "indexed": false,
          "internalType": "uint256",
          "name": "tokenId",
          "type": "uint256"
        },
        {
          "indexed": false,
          "internalType": "address",
          "name": "from",
          "type": "address"
        },
        {
          "indexed": false,
          "internalType": "address",
          "name": "to",
          "type": "address"
        },
        {
          "indexed": false,
          "internalType": "uint64",
          "name": "timestamp",
          "type": "uint64"
        }
      ],
      "name": "OfferCanceled",
      "type": "event"
    },
    {
      "anonymous": false,
      "inputs": [
        {
          "indexed": true,
          "internalType": "uint256",
          "name": "id",
          "type": "uint256"
        },
        {
          "indexed": false,
          "internalType": "address",
          "name": "collection",
          "type": "address"
        },
        {
          "indexed": false,
          "internalType": "uint256",
          "name": "tokenId",
          "type": "uint256"
        },
        {
          "indexed": false,
          "internalType": "address",
          "name": "from",
          "type": "address"
        },
        {
          "indexed": false,
          "internalType": "address",
          "name": "to",
          "type": "address"
        },
        {
          "indexed": false,
          "internalType": "uint256",
          "name": "price",
          "type": "uint256"
        },
        {
          "indexed": false,
          "internalType": "uint256",
          "name": "galleryId",
          "type": "uint256"
        },
        {
          "indexed": false,
          "internalType": "uint64",
          "name": "offerStartAt",
          "type": "uint64"
        },
        {
          "indexed": false,
          "internalType": "uint64",
          "name": "offerExpiredAt",
          "type": "uint64"
        },
        {
          "indexed": false,
          "internalType": "uint64",
          "name": "exhibitExpiredAt",
          "type": "uint64"
        },
        {
          "indexed": false,
          "internalType": "string",
          "name": "url",
          "type": "string"
        },
        {
          "indexed": false,
          "internalType": "string",
          "name": "detail",
          "type": "string"
        }
      ],
      "name": "OfferCreated",
      "type": "event"
    },
    {
      "anonymous": false,
      "inputs": [
        {
          "indexed": true,
          "internalType": "uint256",
          "name": "id",
          "type": "uint256"
        },
        {
          "indexed": false,
          "internalType": "address",
          "name": "collection",
          "type": "address"
        },
        {
          "indexed": false,
          "internalType": "uint256",
          "name": "tokenId",
          "type": "uint256"
        },
        {
          "indexed": false,
          "internalType": "address",
          "name": "from",
          "type": "address"
        },
        {
          "indexed": false,
          "internalType": "address",
          "name": "to",
          "type": "address"
        },
        {
          "indexed": false,
          "internalType": "uint64",
          "name": "timestamp",
          "type": "uint64"
        }
      ],
      "name": "OfferRejected",
      "type": "event"
    },
    {
      "anonymous": false,
      "inputs": [
        {
          "indexed": true,
          "internalType": "address",
          "name": "previousOwner",
          "type": "address"
        },
        {
          "indexed": true,
          "internalType": "address",
          "name": "newOwner",
          "type": "address"
        }
      ],
      "name": "OwnershipTransferred",
      "type": "event"
    },
    {
      "inputs": [
        {
          "internalType": "uint256",
          "name": "galleryId",
          "type": "uint256"
        },
        {
          "internalType": "uint256",
          "name": "exhibitId",
          "type": "uint256"
        }
      ],
      "name": "buy",
      "outputs": [],
      "stateMutability": "payable",
      "type": "function"
    },
    {
      "inputs": [
        {
          "internalType": "uint256",
          "name": "galleryId",
          "type": "uint256"
        },
        {
          "internalType": "uint256",
          "name": "exhibitId",
          "type": "uint256"
        }
      ],
      "name": "cancel",
      "outputs": [],
      "stateMutability": "nonpayable",
      "type": "function"
    },
    {
      "inputs": [
        {
          "internalType": "uint256",
          "name": "offerId",
          "type": "uint256"
        }
      ],
      "name": "cancelOffer",
      "outputs": [],
      "stateMutability": "nonpayable",
      "type": "function"
    },
    {
      "inputs": [
        {
          "internalType": "address",
          "name": "collection",
          "type": "address"
        },
        {
          "internalType": "uint256",
          "name": "tokenId",
          "type": "uint256"
        },
        {
          "internalType": "string",
          "name": "spaceType",
          "type": "string"
        },
        {
          "internalType": "string",
          "name": "name",
          "type": "string"
        },
        {
          "internalType": "string",
          "name": "metadataUri",
          "type": "string"
        },
        {
          "internalType": "bool",
          "name": "isToken",
          "type": "bool"
        },
        {
          "internalType": "address[]",
          "name": "payees",
          "type": "address[]"
        },
        {
          "internalType": "uint256[]",
          "name": "commissionRates",
          "type": "uint256[]"
        }
      ],
      "name": "createGallery",
      "outputs": [],
      "stateMutability": "nonpayable",
      "type": "function"
    },
    {
      "inputs": [
        {
          "internalType": "uint256",
          "name": "",
          "type": "uint256"
        }
      ],
      "name": "exhibits",
      "outputs": [
        {
          "internalType": "uint256",
          "name": "id",
          "type": "uint256"
        },
        {
          "internalType": "uint256",
          "name": "galleryId",
          "type": "uint256"
        },
        {
          "internalType": "address",
          "name": "collection",
          "type": "address"
        },
        {
          "internalType": "uint256",
          "name": "tokenId",
          "type": "uint256"
        },
        {
          "internalType": "address",
          "name": "origin",
          "type": "address"
        },
        {
          "internalType": "uint64",
          "name": "expiration",
          "type": "uint64"
        },
        {
          "internalType": "uint256",
          "name": "price",
          "type": "uint256"
        },
        {
          "internalType": "string",
          "name": "location",
          "type": "string"
        },
        {
          "internalType": "string",
          "name": "url",
          "type": "string"
        },
        {
          "internalType": "string",
          "name": "detail",
          "type": "string"
        },
        {
          "internalType": "enum Curation.ExhibitStatus",
          "name": "status",
          "type": "uint8"
        }
      ],
      "stateMutability": "view",
      "type": "function"
    },
    {
      "inputs": [
        {
          "internalType": "uint256",
          "name": "galleryId",
          "type": "uint256"
        },
        {
          "internalType": "uint256",
          "name": "exhibitId",
          "type": "uint256"
        }
      ],
      "name": "freeze",
      "outputs": [],
      "stateMutability": "nonpayable",
      "type": "function"
    },
    {
      "inputs": [
        {
          "internalType": "uint256",
          "name": "",
          "type": "uint256"
        }
      ],
      "name": "galleries",
      "outputs": [
        {
          "internalType": "uint256",
          "name": "id",
          "type": "uint256"
        },
        {
          "internalType": "address",
          "name": "collection",
          "type": "address"
        },
        {
          "internalType": "uint256",
          "name": "tokenId",
          "type": "uint256"
        },
        {
          "internalType": "address",
          "name": "owner",
          "type": "address"
        },
        {
          "internalType": "string",
          "name": "spaceType",
          "type": "string"
        },
        {
          "internalType": "string",
          "name": "name",
          "type": "string"
        },
        {
          "internalType": "string",
          "name": "metadataUri",
          "type": "string"
        },
        {
          "internalType": "address",
          "name": "commissionPool",
          "type": "address"
        }
      ],
      "stateMutability": "view",
      "type": "function"
    },
    {
      "inputs": [
        {
          "internalType": "address",
          "name": "curator",
          "type": "address"
        }
      ],
      "name": "getCuratorGalleries",
      "outputs": [
        {
          "components": [
            {
              "internalType": "uint256",
              "name": "id",
              "type": "uint256"
            },
            {
              "internalType": "address",
              "name": "collection",
              "type": "address"
            },
            {
              "internalType": "uint256",
              "name": "tokenId",
              "type": "uint256"
            },
            {
              "internalType": "address",
              "name": "owner",
              "type": "address"
            },
            {
              "internalType": "string",
              "name": "spaceType",
              "type": "string"
            },
            {
              "internalType": "string",
              "name": "name",
              "type": "string"
            },
            {
              "internalType": "string",
              "name": "metadataUri",
              "type": "string"
            },
            {
              "internalType": "address",
              "name": "commissionPool",
              "type": "address"
            }
          ],
          "internalType": "struct Curation.Gallery[]",
          "name": "",
          "type": "tuple[]"
        }
      ],
      "stateMutability": "view",
      "type": "function"
    },
    {
      "inputs": [
        {
          "internalType": "uint256",
          "name": "galleryId",
          "type": "uint256"
        }
      ],
      "name": "getGalleryExhibits",
      "outputs": [
        {
          "components": [
            {
              "internalType": "uint256",
              "name": "id",
              "type": "uint256"
            },
            {
              "internalType": "uint256",
              "name": "galleryId",
              "type": "uint256"
            },
            {
              "internalType": "address",
              "name": "collection",
              "type": "address"
            },
            {
              "internalType": "uint256",
              "name": "tokenId",
              "type": "uint256"
            },
            {
              "internalType": "address",
              "name": "origin",
              "type": "address"
            },
            {
              "internalType": "uint64",
              "name": "expiration",
              "type": "uint64"
            },
            {
              "internalType": "uint256",
              "name": "price",
              "type": "uint256"
            },
            {
              "internalType": "string",
              "name": "location",
              "type": "string"
            },
            {
              "internalType": "string",
              "name": "url",
              "type": "string"
            },
            {
              "internalType": "string",
              "name": "detail",
              "type": "string"
            },
            {
              "internalType": "enum Curation.ExhibitStatus",
              "name": "status",
              "type": "uint8"
            }
          ],
          "internalType": "struct Curation.Exhibit[]",
          "name": "",
          "type": "tuple[]"
        }
      ],
      "stateMutability": "view",
      "type": "function"
    },
    {
      "inputs": [],
      "name": "getReceivedOffers",
      "outputs": [
        {
          "components": [
            {
              "internalType": "uint256",
              "name": "id",
              "type": "uint256"
            },
            {
              "internalType": "address",
              "name": "collection",
              "type": "address"
            },
            {
              "internalType": "uint256",
              "name": "tokenId",
              "type": "uint256"
            },
            {
              "internalType": "address",
              "name": "from",
              "type": "address"
            },
            {
              "internalType": "address",
              "name": "to",
              "type": "address"
            },
            {
              "internalType": "uint256",
              "name": "price",
              "type": "uint256"
            },
            {
              "internalType": "uint256",
              "name": "galleryId",
              "type": "uint256"
            },
            {
              "internalType": "uint64",
              "name": "offerStartAt",
              "type": "uint64"
            },
            {
              "internalType": "uint64",
              "name": "offerExpiredAt",
              "type": "uint64"
            },
            {
              "internalType": "uint64",
              "name": "exhibitExpiredAt",
              "type": "uint64"
            },
            {
              "internalType": "string",
              "name": "url",
              "type": "string"
            },
            {
              "internalType": "string",
              "name": "detail",
              "type": "string"
            },
            {
              "internalType": "enum Curation.OfferStatus",
              "name": "status",
              "type": "uint8"
            }
          ],
          "internalType": "struct Curation.Offer[]",
          "name": "",
          "type": "tuple[]"
        }
      ],
      "stateMutability": "view",
      "type": "function"
    },
    {
      "inputs": [],
      "name": "getSentOffers",
      "outputs": [
        {
          "components": [
            {
              "internalType": "uint256",
              "name": "id",
              "type": "uint256"
            },
            {
              "internalType": "address",
              "name": "collection",
              "type": "address"
            },
            {
              "internalType": "uint256",
              "name": "tokenId",
              "type": "uint256"
            },
            {
              "internalType": "address",
              "name": "from",
              "type": "address"
            },
            {
              "internalType": "address",
              "name": "to",
              "type": "address"
            },
            {
              "internalType": "uint256",
              "name": "price",
              "type": "uint256"
            },
            {
              "internalType": "uint256",
              "name": "galleryId",
              "type": "uint256"
            },
            {
              "internalType": "uint64",
              "name": "offerStartAt",
              "type": "uint64"
            },
            {
              "internalType": "uint64",
              "name": "offerExpiredAt",
              "type": "uint64"
            },
            {
              "internalType": "uint64",
              "name": "exhibitExpiredAt",
              "type": "uint64"
            },
            {
              "internalType": "string",
              "name": "url",
              "type": "string"
            },
            {
              "internalType": "string",
              "name": "detail",
              "type": "string"
            },
            {
              "internalType": "enum Curation.OfferStatus",
              "name": "status",
              "type": "uint8"
            }
          ],
          "internalType": "struct Curation.Offer[]",
          "name": "",
          "type": "tuple[]"
        }
      ],
      "stateMutability": "view",
      "type": "function"
    },
    {
      "inputs": [
        {
          "internalType": "uint256",
          "name": "galleryId",
          "type": "uint256"
        },
        {
          "internalType": "uint256",
          "name": "exhibitId",
          "type": "uint256"
        },
        {
          "internalType": "string",
          "name": "location",
          "type": "string"
        }
      ],
      "name": "list",
      "outputs": [],
      "stateMutability": "nonpayable",
      "type": "function"
    },
    {
      "inputs": [
        {
          "internalType": "uint256",
          "name": "",
          "type": "uint256"
        }
      ],
      "name": "offers",
      "outputs": [
        {
          "internalType": "uint256",
          "name": "id",
          "type": "uint256"
        },
        {
          "internalType": "address",
          "name": "collection",
          "type": "address"
        },
        {
          "internalType": "uint256",
          "name": "tokenId",
          "type": "uint256"
        },
        {
          "internalType": "address",
          "name": "from",
          "type": "address"
        },
        {
          "internalType": "address",
          "name": "to",
          "type": "address"
        },
        {
          "internalType": "uint256",
          "name": "price",
          "type": "uint256"
        },
        {
          "internalType": "uint256",
          "name": "galleryId",
          "type": "uint256"
        },
        {
          "internalType": "uint64",
          "name": "offerStartAt",
          "type": "uint64"
        },
        {
          "internalType": "uint64",
          "name": "offerExpiredAt",
          "type": "uint64"
        },
        {
          "internalType": "uint64",
          "name": "exhibitExpiredAt",
          "type": "uint64"
        },
        {
          "internalType": "string",
          "name": "url",
          "type": "string"
        },
        {
          "internalType": "string",
          "name": "detail",
          "type": "string"
        },
        {
          "internalType": "enum Curation.OfferStatus",
          "name": "status",
          "type": "uint8"
        }
      ],
      "stateMutability": "view",
      "type": "function"
    },
    {
      "inputs": [],
      "name": "owner",
      "outputs": [
        {
          "internalType": "address",
          "name": "",
          "type": "address"
        }
      ],
      "stateMutability": "view",
      "type": "function"
    },
    {
      "inputs": [
        {
          "internalType": "uint256",
          "name": "galleryId",
          "type": "uint256"
        },
        {
          "internalType": "uint256",
          "name": "exhibitId",
          "type": "uint256"
        }
      ],
      "name": "redeemForce",
      "outputs": [],
      "stateMutability": "nonpayable",
      "type": "function"
    },
    {
      "inputs": [
        {
          "internalType": "uint256",
          "name": "",
          "type": "uint256"
        }
      ],
      "name": "redeemRequests",
      "outputs": [
        {
          "internalType": "uint256",
          "name": "id",
          "type": "uint256"
        },
        {
          "internalType": "uint256",
          "name": "galleryId",
          "type": "uint256"
        },
        {
          "internalType": "uint256",
          "name": "createAt",
          "type": "uint256"
        },
        {
          "internalType": "uint256",
          "name": "endAt",
          "type": "uint256"
        }
      ],
      "stateMutability": "view",
      "type": "function"
    },
    {
      "inputs": [
        {
          "internalType": "uint256",
          "name": "galleryId",
          "type": "uint256"
        },
        {
          "internalType": "uint256",
          "name": "exhibitId",
          "type": "uint256"
        }
      ],
      "name": "redeemWithFreeze",
      "outputs": [],
      "stateMutability": "nonpayable",
      "type": "function"
    },
    {
      "inputs": [],
      "name": "renounceOwnership",
      "outputs": [],
      "stateMutability": "nonpayable",
      "type": "function"
    },
    {
      "inputs": [
        {
          "internalType": "uint256",
          "name": "offerId",
          "type": "uint256"
        },
        {
          "internalType": "bool",
          "name": "accept",
          "type": "bool"
        }
      ],
      "name": "replyOffer",
      "outputs": [],
      "stateMutability": "nonpayable",
      "type": "function"
    },
    {
      "inputs": [
        {
          "internalType": "address",
          "name": "collection",
          "type": "address"
        },
        {
          "internalType": "uint256",
          "name": "tokenId",
          "type": "uint256"
        },
        {
          "internalType": "uint256",
          "name": "galleryId",
          "type": "uint256"
        },
        {
          "internalType": "uint256",
          "name": "price",
          "type": "uint256"
        },
        {
          "internalType": "uint64",
          "name": "offerDuration",
          "type": "uint64"
        },
        {
          "internalType": "uint64",
          "name": "exhibitExpiredAt",
          "type": "uint64"
        },
        {
          "internalType": "string",
          "name": "url",
          "type": "string"
        },
        {
          "internalType": "string",
          "name": "detail",
          "type": "string"
        }
      ],
      "name": "sendOffer",
      "outputs": [],
      "stateMutability": "nonpayable",
      "type": "function"
    },
    {
      "inputs": [
        {
          "internalType": "address",
          "name": "curator",
          "type": "address"
        },
        {
          "internalType": "bool",
          "name": "enable",
          "type": "bool"
        }
      ],
      "name": "setWhitelist",
      "outputs": [],
      "stateMutability": "nonpayable",
      "type": "function"
    },
    {
      "inputs": [
        {
          "internalType": "bool",
          "name": "enable",
          "type": "bool"
        }
      ],
      "name": "toggleWhitelist",
      "outputs": [],
      "stateMutability": "nonpayable",
      "type": "function"
    },
    {
      "inputs": [
        {
          "internalType": "bytes32",
          "name": "",
          "type": "bytes32"
        },
        {
          "internalType": "uint256",
          "name": "",
          "type": "uint256"
        }
      ],
      "name": "tokenHashToOfferIds",
      "outputs": [
        {
          "internalType": "uint256",
          "name": "",
          "type": "uint256"
        }
      ],
      "stateMutability": "view",
      "type": "function"
    },
    {
      "inputs": [
        {
          "internalType": "address",
          "name": "newOwner",
          "type": "address"
        }
      ],
      "name": "transferOwnership",
      "outputs": [],
      "stateMutability": "nonpayable",
      "type": "function"
    },
    {
      "inputs": [
        {
          "internalType": "uint256",
          "name": "newFeeRate",
          "type": "uint256"
        }
      ],
      "name": "updateBaseFeeRate",
      "outputs": [],
      "stateMutability": "nonpayable",
      "type": "function"
    },
    {
      "inputs": [
        {
          "internalType": "address",
          "name": "",
          "type": "address"
        }
      ],
      "name": "whitelist",
      "outputs": [
        {
          "internalType": "bool",
          "name": "",
          "type": "bool"
        }
      ],
      "stateMutability": "view",
      "type": "function"
    }
  ],
  "bytecode": "0x60806040908082523462000160576001600081815581546001600160a01b0319808216339081179094559193926001600160a01b039182167f8be0079c531659141344cd1fd0a4f28419497f9722a3daafe3b4186f6b6457e08680a360056006556706f05b59d3b200006007556008849055600980546001600160881b0319166c01e133800000000000278d00001790556001600160401b039261092b81810190858211838310176200014c5790829162004a6e8339039085f0801562000142571680916005541617600555803b156200013e5790828092602486518096819363f2fde38b60e01b83523060048401525af1801562000134576200010d575b83516149089081620001668239f35b82116200012057508152388080620000fe565b634e487b7160e01b81526041600452602490fd5b84513d84823e3d90fd5b8280fd5b85513d86823e3d90fd5b634e487b7160e01b87526041600452602487fd5b600080fdfe6080604052600436101561001257600080fd5b6000803560e01c8062efa8951461286a57806301640ca4146127a857806317a59f9d146127855780632a7ad08c146124da5780632f8e456d146124ba57806333b80a961461247357806335d7a052146122c657806349c978e2146121b25780635242458c1461195657806353d6fd59146119065780636c155605146115d6578063715018a61461158a57806380e3f1ad146115525780638a72ea6a146114565780638da5cb5b1461142d5780639b19251a146113ee578063a571976d14611226578063a815b689146111f9578063abd46f6e14610acf578063c24d3464146109d3578063c6f7812f1461098b578063d4b0cc671461095c578063d6febde8146103a5578063e85ba3e914610358578063ef706adf146101ef5763f2fde38b1461013a57600080fd5b346101ec5760203660031901126101ec57610153612b99565b61015b612da0565b6001600160a01b0390811690811561019857600180546001600160a01b03198116841790915516600080516020614893833981519152600080a380f35b60405162461bcd60e51b815260206004820152602660248201527f4f776e61626c653a206e6577206f776e657220697320746865207a65726f206160448201526564647265737360d01b6064820152608490fd5b80fd5b50346101ec57602080600319360112610354576004359061020e612ee2565b61021f61021a8361476e565b612df8565b818352600b815260ff600a604085200154166004811015610340576102449015612f38565b818352600b815260408320600301546001600160a01b039190821633036102f05790600b7f8cb77cc41a7d6f7d0fbefa030d8a5556db3463c38f010b6f3e2e8aec995df71992848652818152600a6040872001600360ff1982541617905584865252806001604086200154166102e6600260408720015491836003604089200154169360046040892001541660405194859460018060401b0342169386612f80565b0390a26001815580f35b6084906040519062461bcd60e51b82526004820152602360248201527f4f6e6c792067616c6c657279206f776e65722063616e2063616e63656c206f666044820152623332b960e91b6064820152fd5b634e487b7160e01b84526021600452602484fd5b5080fd5b50346101ec5760203660031901126101ec5760406080916004358152600e602052208054906001810154906003600282015491015491604051938452602084015260408301526060820152f35b506103af366129be565b90916103b9612ee2565b6103c561021a84614781565b6103d66103d18361475b565b613a8d565b6103e86103e3838561470a565b613fa0565b818152600c60205260408120906040519061040282612a0e565b825482526001830154602083015260028301546001600160a01b0390811660408401908152600385015460608501526004850154918216608085015260a091821c6001600160401b031691840191909152600584015460c0840152926104aa9060ff9060099061047460068201612ab3565b60e087015261048560078201612ab3565b61010087015261049760088201612ab3565b6101208701520154166101408401612fdc565b60c0820151341061092057809460248260018060a01b0360055416604051928380926337bcb2eb60e01b82528660048301525afa94851561079f57839184966107d0575b5083975b82518910156105e4576001600160a01b0361050d8a85612ff7565b51166105198a89612ff7565b5160c08801519181838102048314821517156105d0576005546001600160a01b031690813b156105cc578890604460405180948193636e553f6560e01b83528c60048401526024830152670de0b6b3a764000088880204905af180156105c1579088916105a9575b505091670de0b6b3a764000061059d926105a394020490614045565b98612fe8565b976104f2565b6105b290612a7d565b6105bd578638610581565b8680fd5b6040513d8a823e3d90fd5b8880fd5b634e487b7160e01b88526011600452602488fd5b849188879260085460c0850151908181029181830414901517156107bc5790670de0b6b3a764000086920490828080808560018060a01b03600154168282156107b3575bf11561079057608086015160c08701518493849384936001600160a01b03169261065b929161065691614052565b614052565b908282156107aa575bf11561079f578151606084015185916001600160a01b0316803b1561079b576040516323b872dd60e01b815291839183918290849082906106aa90333060048501612fba565b03925af1801561079057610778575b50918160c0927fc7a0defc2181bbd631aaec522445ff2430392a68b954b10a2edb0a81611273639452600c60205260096040872001600360ff198254161790558552600c60205260006006604087200161071c61071682546129d4565b82612e75565b5583519360208101519160018060a01b039051169060608101518460018060a01b0360808401511692015192604051948552602085015260408401526060830152608082015260018060401b03421660a0820152a26001815580f35b61078190612a7d565b61078c5783856106b9565b8380fd5b6040513d84823e3d90fd5b8280fd5b6040513d85823e3d90fd5b506108fc610664565b506108fc610628565b634e487b7160e01b86526011600452602486fd5b915094503d908184823e6107e48282612a90565b604081838101031261078c578051906001600160401b03821161091c57828101601f83830101121561091c578181015161081d81612d4e565b9261082b6040519485612a90565b818452602084019085840160208460051b8387010101116108f95790602082850101915b60208460051b8287010101831061090157505050506020810151926001600160401b0384116108fd57808201601f8584010112156108fd57838201519161089583612d4e565b946108a36040519687612a90565b8386526020860192820160208560051b8385010101116108f9579190602083820101925b60208560051b828401010184106108e55750505050509094386104ee565b6020808094865181520194019392506108c7565b8780fd5b8580fd5b602080809361090f86614031565b815201930192915061084f565b8480fd5b60405162461bcd60e51b8152602060048201526014602482015273496e73756666696369656e742062616c616e636560601b6044820152606490fd5b50346101ec5761098461096e366129be565b90610977612da0565b61097f612ee2565b61436a565b6001815580f35b50346101ec5760403660031901126101ec57602435906004358152600a602052604081209081548310156101ec5760206109c58484612d72565b90546040519160031b1c8152f35b50346101ec5760203660031901126101ec576004358152600c602052604090208054600182015491600160a01b60019003908160028201541691600382015490600483015460058401549060068501610a2b90612ab3565b92610a3860078701612ab3565b94610a4560088801612ab3565b966009015460ff16976040519a8b9a8b5260208b015260408a0152606089015281166080880152600160401b600190039060a01c1660a087015260c08601526101608060e08701528501610a9891612b59565b848103610100860152610aaa91612b59565b838103610120850152610abc91612b59565b906101408301610acb91612d65565b0390f35b50346101ec576101003660031901126101ec57610aea612b99565b60843591906001600160401b03831683036111f45760a435906001600160401b03821682036111f45760c4356001600160401b03811161078c57610b32903690600401612baf565b9060e4356001600160401b03811161091c57610b52903690600401612baf565b610b5a612ee2565b6009546001600160401b03600882901c8116908816116108fd576001600160401b0342811690861611156108fd576001600160401b0342811686821603919082116111e05760481c6001600160401b0390811691161161091c57610bc261021a604435614781565b6044358552600d60205260408520600301546001600160a01b03169233849003611191576001600354019485600355610bfd60243585614794565b976001600160401b03428116818316011161117b576044358852600d6020526040808920600301549051906001600160a01b0316610c3a82612a61565b88825260018060a01b03871660208301526024356040830152606082015260018060a01b038a16608082015260643560a082015260443560c082015260018060401b03421660e082015260018060401b0360018060401b03831660018060401b034216011661010082015260018060401b038316610120820152836101408201528461016082015288610180820152878952600b6020526040892090805182556001820160018060a01b036020830151169060018060a01b03199182825416179055604082015160028401556003830160018060a01b0360608401511682825416179055600483019060018060a01b036080840151169082541617905560a0810151600583015560c081015160068301556007820160018060401b0360e083015116815490600160401b600160801b0361010085015160401b1690600160801b600160c01b0361012086015160801b169260018060c01b031916171717905561014081015180519060018060401b0382116110ed578190610dcb82610dc260088801546129d4565b60088801612e9d565b602090601f831160011461110c578d92611101575b50508160011b916000199060031b1c19161760088301555b61016081015180519091906001600160401b0381116110ed57610e2b81610e2260098701546129d4565b60098701612e9d565b6020928c601f8311600114611079576101809490918361106e575b50508160011b916000199060031b1c19161760098401555b015190600482101561105a57600a019060ff80198354169116179055610e8660243586614608565b98898952600a602052604089205415600014610fdf57604051996001600160401b0360208c01908111908c1117610fc95760208b01604052888b528952600a60205260408920998a5460018c5580600110610faa575b50998952602089209989905b60018210610f9657505060008051602061483383398151915297989950916102e6949391610f87935b604080516001600160a01b03998a1681526024356020820152908101999099529096166060880152606435608088015260443560a08801526001600160401b0342811660c08901819052968116909601861660e08801529094166101008601526101606101208601819052859490850190612b59565b90838203610140850152612b59565b80518c830155600190910190602001610ee8565b610fc3908c600052600160206000209182019101612e5e565b38610edc565b634e487b7160e01b600052604160045260246000fd5b9091929394959697985060408920805490600160401b82101561104657926102e695928a61102984610f879760016000805160206148338339815191529e9d9c9a97018155612d72565b819291549060031b600019811b9283911b16911916179055610f11565b634e487b7160e01b8b52604160045260248bfd5b634e487b7160e01b8a52602160045260248afd5b015190503880610e46565b50909192600985018d5260208d20918d5b601f19851681106110d557509183916001936101809695601f198116106110bc575b505050811b016009840155610e5e565b015160001960f88460031b161c191690553880806110ac565b9192602060018192868501518155019401920161108a565b634e487b7160e01b8c52604160045260248cfd5b015190503880610de0565b9250600885018d5260208d20908d935b601f1984168510611160576001945083601f19811610611147575b505050811b016008830155610df8565b015160001960f88460031b161c19169055388080611137565b8181015183556020948501946001909301929091019061111c565b634e487b7160e01b600052601160045260246000fd5b60405162461bcd60e51b815260206004820152602160248201527f4f6e6c792067616c6c657279206f776e65722063616e206d616b65206f6666656044820152603960f91b6064820152608490fd5b634e487b7160e01b87526011600452602487fd5b600080fd5b50346101ec5760403660031901126101ec57610984611216612d3f565b61121e612ee2565b60043561300b565b50346101ec57806003193601126101ec576003805482835b82811061138d57506112508491614559565b92845b8381106112685760405180610acb8782612c28565b60018082018083116105d0578752600b602090815260408820600401546001600160a01b0390811633146112a8575b5050506112a390612fe8565b611253565b60ff600a6113639260408c9997992090604051956112c587612a61565b825487528188840154169087015260028201546040870152808983015416606087015260048201541660809081870152600582015460a0870152600682015460c0870152600782015460018060401b039182821660e0890152828260401c166101008901521c1661012086015261133e60088201612ab3565b61014086015261135060098201612ab3565b6101608601520154166101808301612e52565b61136d8388612ff7565b526113788287612ff7565b5081018091116107bc57916112a33880611297565b9060018083018084116111e0578652600b60205260408620600401546001600160a01b031633146113c9575b50906113c490612fe8565b61123e565b81018091116113da576113c46113b9565b634e487b7160e01b85526011600452602485fd5b50346101ec5760203660031901126101ec5760209060ff906040906001600160a01b03611419612b99565b168152600f84522054166040519015158152f35b50346101ec57806003193601126101ec576001546040516001600160a01b039091168152602090f35b50346101ec5760203660031901126101ec5760406020916004358152600b835220805490610acb61154660018060a01b03926115378460018301541694600283015490806003850154169060048501541660058501546006860154916007870154936114c460088901612ab3565b9560ff600a6114d560098c01612ab3565b9a0154169b6040519e8f9e8f908152015260408d015260608c015260808b015260a08a015260c089015260018060401b039081811660e08a0152818160401c166101008a015260801c166101208801526101a080610140890152870190612b59565b90858203610160870152612b59565b91610180840190612c05565b50346101ec5760203660031901126101ec576004358015158091036111f457611579612da0565b60ff80196009541691161760095580f35b50346101ec57806003193601126101ec576115a3612da0565b600180546001600160a01b031981169091556000906001600160a01b03166000805160206148938339815191528280a380f35b50346101ec5760208060031936011261035457906004356004548291835b8281106118bd5750839061160784612d4e565b936116156040519586612a90565b808552611624601f1991612d4e565b01855b81811061185d575050845b83811061173b575050505060405191838301848452825180915260408401948060408360051b870101940192955b82871061166d5785850386f35b909192938280600192603f1989820301855261172b885191825181528383015184820152858060a01b038060408501511660408301526060808501519083015260809081850151169082015260a0868060401b0381850151169082015260c0808401519082015261171b6117076116f360e08601516101608060e0870152850190612b59565b610100808701519085830390860152612b59565b610120808601519084830390850152612b59565b9261014080910151910190612d65565b9601920196019592919092611660565b6001969596808201808311611849578852600c8752828160408a20015414611770575b5061176890612fe8565b959495611632565b6040889492942061182160ff60096040519361178b85612a0e565b80548552858101548c86015260028101546001600160a01b039081166040870152600382015460608701526004820154908116608087015260a090811c6001600160401b031690860152600581015460c08601526117eb60068201612ab3565b60e08601526117fc60078201612ab3565b61010086015261180e60088201612ab3565b6101208601520154166101408301612fdc565b61182b8388612ff7565b526118368287612ff7565b5081018091116111e0579161176861175e565b634e487b7160e01b89526011600452602489fd5b9680969760405161186d81612a0e565b898152898382015289604082015260608a818301528a60808301528a60a08301528a60c08301528060e0830152806101008301526101208201528961014082015282828901015201969596611627565b60019594958082018083116105d0578752600c86528281604089200154146118f2575b506118ea90612fe8565b9493946115f4565b849194018091116107bc57926118ea6118e0565b50346101ec5760403660031901126101ec57611920612b99565b611928612d3f565b90611931612da0565b60018060a01b03168252600f602052604082209060ff80198354169115151617905580f35b50346101ec576101003660031901126101ec57611971612b99565b906044356001600160401b03811161035457611991903690600401612baf565b916064356001600160401b03811161079b576119b1903690600401612baf565b926084356001600160401b03811161078c576119d1903690600401612baf565b60a435151560a4350361078c576001600160401b0360c4351161078c5736602360c43501121561078c5760c43560040135611a0b81612d4e565b90611a196040519283612a90565b80825260208201903660248260051b60c4350101116105bd57602460c43501915b60248260051b60c435010183106121925750506001600160401b0360e43511905061091c5736602360e43501121561091c57611a7b60e43560040135612d4e565b92611a896040519485612a90565b60e4356004013584526020840136602460e4356004013560051b60e4350101116105bd57602460e43501905b602460e4356004013560051b60e43501018210612182575050611ad6612ee2565b60a4351560a4356120f8575b156120bf5760ff600954161580156120a9575b1561206657815184511061202757815160065410611fe6578594855b835160ff88161015611b4c57611b3590611b2e60ff891688612ff7565b5190614045565b9560ff808216146105d05760ff1660010195611b11565b879495899160075410611f95576001600254019485600255858752600d60205260408720868155855160018060401b038111611e9757611b9c81611b9360048501546129d4565b60048501612e9d565b806020601f8211600114611f2b578a91611f20575b508160011b916000199060031b1c19161760048201555b6001810180546001600160a01b0319166001600160a01b038716179055602435600282015583516001600160401b038111611e9757611c1781611c0e60058501546129d4565b60058501612e9d565b806020601f8211600114611eb6578a91611eab575b508160011b916000199060031b1c19161760058201555b6003810180546001600160a01b0319163317905588516001600160401b038111611e9757611c8181611c7860068501546129d4565b60068501612e9d565b806020601f8211600114611e2c578a91611e21575b508160011b916000199060031b1c19161760068201555b6005805460079290920180546001600160a01b0319166001600160a01b039384161790555416803b156108f957876040518092630fb1a81d60e11b825289600483015260606024830152818381611d1c611d0a606483018a6144e8565b8281036003190160448401528a614525565b03925af180156105c157611df0575b5090611dd0611ddf92611da860008051602061481383398151915298999a611d9a60018060a01b036005541697611d8c6040519b8c9b60018060a01b03168c5260243560208d01523360408d015260608c61016091829101528c0190612b59565b908a820360808c0152612b59565b9088820360a08a0152612b59565b60a435151560c0880152426001600160401b031660e0880152868103610100880152906144e8565b90848203610120860152614525565b906101408301520390a26001815580f35b611ddf9291611da86000805160206148138339815191529899611e15611dd094612a7d565b99985050919250611d2b565b90508a01518b611c96565b9150600683018a5260208a208a925b8c601f1984168510611e8057506001935082601f19811610611e67575b5050811b016006820155611cad565b8c015160001960f88460031b161c191690558b80611e58565b810151825560209384019360019092019101611e3b565b634e487b7160e01b89526041600452602489fd5b90508501518b611c2c565b9150600583018a5260208a208a925b601f1983168410611f08576001935082601f19811610611eef575b5050811b016005820155611c43565b87015160001960f88460031b161c191690558b80611ee0565b87810151825560209384019360019092019101611ec5565b90508701518b611bb1565b9150600483018a5260208a208a925b601f1983168410611f7d576001935082601f19811610611f64575b5050811b016004820155611bc8565b89015160001960f88460031b161c191690558b80611f55565b89810151825560209384019360019092019101611f3a565b60405162461bcd60e51b815260206004820152602360248201527f4578636565646564204d41585f544f54414c5f434f4d4d495353494f4e5f524160448201526254455360e81b6064820152608490fd5b60405162461bcd60e51b8152602060048201526019602482015278115e18d9595919590813505617d41056515154d7d0d3d55395603a1b6044820152606490fd5b60405162461bcd60e51b81526020600482015260176024820152764c61636b206f6620636f6d6d697373696f6e207261746560481b6044820152606490fd5b60405162461bcd60e51b815260206004820152601b60248201527a4e6f7420616c6c6f7720746f206372656174652067616c6c65727960281b6044820152606490fd5b50338652600f60205260ff604087205416611af5565b60405162461bcd60e51b8152602060048201526011602482015270139bdd0819d85b1b195c9e481bdddb9959607a1b6044820152606490fd5b50604051627eeac760e11b815233600482015260248035908201526020816044816001600160a01b038a165afa908115612177578791612145575b5015158015611ae2575060a435611ae2565b90506020813d60201161216f575b8161216060209383612a90565b810103126105bd575138612133565b3d9150612153565b6040513d89823e3d90fd5b8135815260209182019101611ab5565b82356001600160a01b03811681036105cc57815260209283019201611a3a565b50346101ec57806003193601126101ec576003805482835b82811061227a57506121dc8491614559565b92845b8381106121f45760405180610acb8782612c28565b60018082018083116105d0578752600b6020908152604088208401546001600160a01b039081163314612233575b50505061222e90612fe8565b6121df565b60ff600a6122509260408c9997992090604051956112c587612a61565b61225a8388612ff7565b526122658287612ff7565b5081018091116107bc579161222e3880612222565b9060018083018084116111e0578652600b602052604086208501546001600160a01b031633146122b5575b50906122b090612fe8565b6121ca565b81018091116113da576122b06122a5565b50346101ec576000805160206148b38339815191526122e4366129be565b6122ef929192612ee2565b6122fb61021a84614781565b6123076103d18261475b565b612319612314828561464b565b61405f565b808452600c60205260408420926102e66040519161233683612a0e565b855483526001860154956020840196875260018060a01b03808060028401541695604081019687526003840154976060820198895260038c60048701546123e260ff6009608088019a8985168c5260018060401b03809560a01c1660a08a0152600581015460c08a01526123ac60068201612ab3565b60e08a01526123bd60078201612ab3565b6101008a01526123cf60088201612ab3565b6101208a01520154166101408701612fdc565b6123f08689511633146140aa565b838252600c60205260096040832001600460ff198254161790558042169860406124198b612e38565b9381519661242688612a46565b80885260208801938452828801948d865260608901961686528152600e60205220945185555160018501555160028401555191015551985195511695519151169060405195869586613ff8565b50346101ec5760603660031901126101ec576044356001600160401b038111610354576124a7610984913690600401612baf565b6124af612ee2565b602435600435613b19565b50346101ec576109846124cc366129be565b906124d5612ee2565b614109565b50346101ec57602080600319360112610354576124f5612b99565b600280546001600160a01b0394928392908616835b83811061273f5750839161251d86612d4e565b9561252b6040519788612a90565b80875261253a601f1991612d4e565b0187865b8281106126f957505050845b84811061262257505050505060405192808401908085528351809252604085018160408460051b880101950193965b8388106125865786860387f35b90919293948380600192603f198a820301865288519081518152858383015116838201526040820151604082015260608681840151169082015260e0868161260a6125f76125e46080808901519061010080918a0152880190612b59565b60a0808901519088830390890152612b59565b60c0808801519087830390880152612b59565b94015116910152970193019701969093929193612579565b60018082018083116105d0578752600d8952888a600386828260408d200154161461265a575b5050505061265590612fe8565b61254a565b6007908260408c9a979a20916040519561267387612a2a565b835487528288850154169087015288830154604087015282015416606085015261269f60048201612ab3565b60808501526126b060058201612ab3565b60a08501526126c160068201612ab3565b60c085015201541660e08201526126d8838a612ff7565b526126e38289612ff7565b5081018091116107bc5792612655888a38612648565b60405161270581612a2a565b8881528883820152886040820152606089818301528060808301528060a083015260c08201528860e082015282828b01015201889061253e565b60018082018083116111e0578652600d8852828960036040892001541614612771575b5061276c90612fe8565b61250a565b869196018091116113da579461276c612762565b50346101ec5760203660031901126101ec5761279f612da0565b60043560085580f35b50346101ec5760203660031901126101ec576040906004358152600d60205220805460018060a01b036128608160018501541693612852600282015493612844816003850154166127fb60048601612ab3565b9061280860058701612ab3565b93600761281760068901612ab3565b97015416976040519a8b9a8b5260208b015260408a015260608901526101008060808a0152880190612b59565b9086820360a0880152612b59565b9084820360c0860152612b59565b9060e08301520390f35b50346101ec577fbdbcb1866e121f88ef3c59ce06c600b2734ae9127c149abfc1fa28b04499320061289a366129be565b91906128a4612ee2565b6128b061021a82614781565b808452600d6020526128ec6103e38460018060a01b03936128db85600360408b200154163314613a2f565b6128e76103d18361475b565b61470a565b828452600c60205260408420926102e66040519261290984612a0e565b8554845260018601549560208501968752816002820154169160408601928352806003830154966060810197885260048401549661297660ff60096080850197868c16895260018060401b03809c60a01c1660a0870152600581015460c087015261047460068201612ab3565b8b52600c602052600960408c200160ff1981541690556000600660408d20016129a261071682546129d4565b5551985193511695519151169060405195869542169386613ff8565b60409060031901126111f4576004359060243590565b90600182811c92168015612a04575b60208310146129ee57565b634e487b7160e01b600052602260045260246000fd5b91607f16916129e3565b61016081019081106001600160401b03821117610fc957604052565b61010081019081106001600160401b03821117610fc957604052565b608081019081106001600160401b03821117610fc957604052565b6101a081019081106001600160401b03821117610fc957604052565b6001600160401b038111610fc957604052565b601f909101601f19168101906001600160401b03821190821017610fc957604052565b9060405191826000825492612ac7846129d4565b908184526001948581169081600014612b365750600114612af3575b5050612af192500383612a90565b565b9093915060005260209081600020936000915b818310612b1e575050612af193508201013880612ae3565b85548884018501529485019487945091830191612b06565b915050612af194506020925060ff191682840152151560051b8201013880612ae3565b919082519283825260005b848110612b85575050826000602080949584010152601f8019910116010190565b602081830181015184830182015201612b64565b600435906001600160a01b03821682036111f457565b81601f820112156111f4578035906001600160401b038211610fc95760405192612be3601f8401601f191660200185612a90565b828452602083830101116111f457816000926020809301838601378301015290565b906004821015612c125752565b634e487b7160e01b600052602160045260246000fd5b602080820190808352835180925260409283810182858560051b8401019601946000925b858410612c5d575050505050505090565b909192939495968580600192603f19858203018752612d2e8b519182518152858060a01b0380858501511685830152888401518983015260608181860151169083015260809081850151169082015260a0808401519082015260c08084015190820152858060401b0360e0818186015116908301526101008181860151169083015261012090818501511690820152612d1e612d0a61014080860151906101a08091860152840190612b59565b610160808601519084830390850152612b59565b9261018080910151910190612c05565b990194019401929594939190612c4c565b6024359081151582036111f457565b6001600160401b038111610fc95760051b60200190565b906006821015612c125752565b8054821015612d8a5760005260206000200190600090565b634e487b7160e01b600052603260045260246000fd5b6001546001600160a01b03163303612db457565b606460405162461bcd60e51b815260206004820152602060248201527f4f776e61626c653a2063616c6c6572206973206e6f7420746865206f776e65726044820152fd5b15612dff57565b60405162461bcd60e51b815260206004820152601160248201527011d85b1b195c9e481b9bdd08199bdd5b99607a1b6044820152606490fd5b6001600160401b039081166202a300019190821161117b57565b6004821015612c125752565b818110612e69575050565b60008155600101612e5e565b90601f8111612e82575050565b612af191600052601f6020600020910160051c810190612e5e565b9190601f8111612eac57505050565b612af1926000526020600020906020601f840160051c83019310612ed8575b601f0160051c0190612e5e565b9091508190612ecb565b600260005414612ef3576002600055565b60405162461bcd60e51b815260206004820152601f60248201527f5265656e7472616e637947756172643a207265656e7472616e742063616c6c006044820152606490fd5b15612f3f57565b60405162461bcd60e51b815260206004820152601960248201527824ba103bb0b9b713ba1030903832b73234b7339037b33332b960391b6044820152606490fd5b6001600160a01b03918216815260208101929092529182166040820152911660608201526001600160401b03909116608082015260a00190565b6001600160a01b03918216815291166020820152604081019190915260600190565b6006821015612c125752565b600019811461117b5760010190565b8051821015612d8a5760209160051b010190565b9190916130178161476e565b156139f857600092818452600b60205260408420906130f360ff600a6040519461304086612a61565b8054865260018101546001600160a01b03908116602088015260028201546040808901919091526003830154821660608901526004830154909116608080890191909152600583015460a0890152600683015460c089015260078301546001600160401b0380821660e08b01529281901c83166101008a0152901c166101208701526130ce60088201612ab3565b6101408701526130e060098201612ab3565b6101608701520154166101808401612e52565b61310361021a60c0840151614781565b60808201516001600160a01b031633036139a557602082015160408301516001600160a01b039161313691908316614794565b1633036139665761018082015160048110156136fb576131569015612f38565b6101008201516001600160401b031642101561392957156138b157600160045401600455818452600b602052600a6040852001600160ff198254161790558360018060a01b036020830151166040830151813b1561079b5782916131d2916040519485809481936323b872dd60e01b8352303360048501612fba565b03925af180156138a657613893575b5060045460c08201519060018060a01b03602084015116604084015160018060a01b0360808601511660018060401b036101208701511660a0870151916101408801519361016089015195604051986132398a612a0e565b888a5260208a015260408901526060880152608087015260a086015260c085015260405180602081011060018060401b03602083011117610fc957602081810160409081528a835260e087019283526101008701939093526101208601939093526101408501899052928852600c8252808820845181559184015160018301558301516002820180546001600160a01b0319166001600160a01b0392831617905560608401516003830155608084015160048301805460a0808801516001600160e01b031990921693909416929092179190921b600160a01b600160e01b031617905560c0830151600582015590518051919291906001600160401b03821161378b5781906133588261334f60068801546129d4565b60068801612e9d565b602090601f8311600114613824578992613819575b50508160011b916000199060031b1c19161760068301555b6101008101518051906001600160401b03821161378b5781906133b8826133af60078801546129d4565b60078801612e9d565b602090601f83116001146137aa57899261379f575b50508160011b916000199060031b1c19161760078301555b6101208101518051906001600160401b03821161378b576134168261340d60088701546129d4565b60088701612e9d565b602090601f831160011461371a5761014093929189918361370f575b50508160011b916000199060031b1c19161760088401555b01519060068210156136fb576009019060ff8019835416911617905561348160018060a01b03602083015116604083015190614608565b92838552600a60205260408520916040518084602082965493848152019089526020892092895b8181106136e25750506134bd92500384612a90565b855b8351811015613601576134d28185612ff7565b5185811415806135f2575b806135bb575b6134fa92919080613597575b6134ff575b50612fe8565b6134bf565b808952600b602052604089209061352060ff600a6040519461304086612a61565b8952600b60209081526040808b20600a01805460ff19166002179055825191830151838201516060850151608090950151925193946000805160206148538339815191529493849361358e93426001600160401b0316936001600160a01b0393841693908116921686612f80565b0390a2386134f4565b50808952600b6020526040808a2060070154901c6001600160401b031642106134ef565b50808852600b60205260ff600a60408a2001541660048110156135de57156134e3565b634e487b7160e01b89526021600452602489fd5b506135fc8161476e565b6134dd565b509390949150604092508152600a60205220805460008255806136c6575b50507fc1fa3eaf95eefdd5528bde6ff9f4f1dc39f16deec19972e2f18e5993f345d36861010082519260018060a01b036020820151169060408101519060018060a01b0360608201511660018060a01b0360808301511660a08301519160c08401519361012060018060401b039101511694604051968752602087015260408601526060850152608084015260a083015260c082015260018060401b03421660e0820152a2565b6136db91600052602060002090810190612e5e565b388061361f565b84548352600194850194889450602090930192016134a8565b634e487b7160e01b86526021600452602486fd5b015190503880613432565b906008850189526020892091895b601f198516811061377357509183916001936101409695601f1981161061375a575b505050811b01600884015561344a565b015160001960f88460031b161c1916905538808061374a565b91926020600181928685015181550194019201613728565b634e487b7160e01b88526041600452602488fd5b0151905038806133cd565b9250600785018952602089209089935b601f19841685106137fe576001945083601f198116106137e5575b505050811b0160078301556133e5565b015160001960f88460031b161c191690553880806137d5565b818101518355602094850194600190930192909101906137ba565b01519050388061336d565b9250600685018952602089209089935b601f1984168510613878576001945083601f1981161061385f575b505050811b016006830155613385565b015160001960f88460031b161c1916905538808061384f565b81810151835560209485019460019093019290910190613834565b61389f90949194612a7d565b92386131e1565b6040513d87823e3d90fd5b908352600b6020908152604093849020600a01805460ff19166002179055815190820151848301516060840151608090940151955194959294600080516020614853833981519152949093849361392493426001600160401b0316936001600160a01b0393841693908116921686612f80565b0390a2565b60405162461bcd60e51b8152602060048201526015602482015274151a19481bd999995c881dd85cc8195e1c1a5c9959605a1b6044820152606490fd5b60405162461bcd60e51b8152602060048201526017602482015276151bdad95b881bdddb995c881dd85cc818da185b99d959604a1b6044820152606490fd5b60405162461bcd60e51b815260206004820152602560248201527f4f6e6c7920746f6b656e206f776e65722063616e20616363657074207468652060448201526437b33332b960d91b6064820152608490fd5b60405162461bcd60e51b815260206004820152600f60248201526e13d999995c881b9bdd08199bdd5b99608a1b6044820152606490fd5b15613a3657565b60405162461bcd60e51b815260206004820152602960248201527f4f6e6c792067616c6c657279206f776e65722063616e206d616e6167652074686044820152681948195e1a1a589a5d60ba1b6064820152608490fd5b15613a9457565b60405162461bcd60e51b8152602060048201526011602482015270115e1a1a589a5d081b9bdd08199bdd5b99607a1b6044820152606490fd5b613ad781546129d4565b9081613ae1575050565b81601f60009311600114613af3575055565b81835260208320613b0f91601f0160051c810190600101612e5e565b8160208120915555565b613b2561021a82614781565b600090808252600d602052613b4a60018060a01b036003604085200154163314613a2f565b613b566103d18461475b565b828252600c602052604082205415159081613f8f575b5080613f60575b15613f0c57818152600c6020526040812091613c3160ff600960405195613b9987612a0e565b805487526001810154602088015260028101546001600160a01b039081166040890152600382015460608901526004820154908116608089015260a090811c6001600160401b031690880152600581015460c0880152613bfb60068201612ab3565b60e0880152613c0c60078201612ab3565b610100880152613c1e60088201612ab3565b6101208801520154166101408501612fdc565b60a08301516001600160401b03164211613e1b57808252600c60208181526040808520600901805460ff191660011790559284525281208351600691909101916001600160401b038211613e0757613c9382613c8d85546129d4565b85612e9d565b602090601f8311600114613d92576000805160206148738339815191529493929182613d87575b508160011b916000199060031b1c19161790555b805192613d72602083015191613d6360018060a01b0360408601511694613d5560608201519360018060a01b0360808401511660018060401b0360a08501511660c085015191610120610100870151960151976040519b8c9b8c5260208c015260408b015260608a0152608089015260a088015261014060c0880152610140870190612b59565b9085820360e0870152612b59565b90838203610100850152612b59565b426001600160401b03166101208301520390a2565b905085015138613cba565b9083825260208220915b601f1984168110613def57509160019160008051602061487383398151915295949382601f19811610613dd6575b5050811b019055613cce565b87015160001960f88460031b161c191690553880613dca565b9091602060018192858a015181550193019101613d9c565b634e487b7160e01b81526041600452602490fd5b818192945052600c60205260096040842001600260ff19825416179055600060066040852001613e4e61071682546129d4565b558252600c60205281600960408220828155826001820155826002820155826003820155826004820155826005820155613e8a60068201613acd565b613e9660078201613acd565b613ea260088201613acd565b015560408101516080820151606090920151916001600160a01b039182169116813b1561078c57918391613eee93836040518096819582946323b872dd60e01b84523060048501612fba565b03925af1801561079057613f00575050565b613f0990612a7d565b50565b60405162461bcd60e51b815260206004820152602660248201527f45786869626974207761736e277420726573657276656420696e207468652067604482015265616c6c65727960d01b6064820152608490fd5b5060ff6009604083200154166006811015613f7b5715613b73565b634e487b7160e01b82526021600452602482fd5b905060016040832001541438613b6c565b15613fa757565b60405162461bcd60e51b8152602060048201526024808201527f45786869626974207761736e2774206c697374656420696e207468652067616c6044820152636c65727960e01b6064820152608490fd5b9081526001600160a01b039182166020820152604081019290925290911660608201526001600160401b03909116608082015260a00190565b51906001600160a01b03821682036111f457565b9190820180921161117b57565b9190820391821161117b57565b1561406657565b606460405162461bcd60e51b815260206004820152602060248201527f45786869626974206e6f7420666f756e6420696e207468652067616c6c6572796044820152fd5b156140b157565b60405162461bcd60e51b815260206004820152602a60248201527f43616c6c65722069736e2774206f726967696e616c206f776e6572206f6620746044820152691a1948195e1a1a589a5d60b21b6064820152608490fd5b61412082600052600e602052604060002054151590565b156141cd5761413c82600052600e602052604060002054151590565b806141b3575b1561417457816141519161436a565b6000908152600e6020526003604082208281558260018201558260028201550155565b60405162461bcd60e51b815260206004820152601760248201527622bc3434b134ba1034b99039ba34b63610333937bd32b760491b6044820152606490fd5b5081600052600e6020526003604060002001544211614142565b906001916141d9612ee2565b6141e561021a82614781565b6141f16103d18361475b565b6141fe612314838361464b565b6000805160206148b383398151915260008381948252600c602052614364604080808520815161422d81612a0e565b815481528a8201549860208201998a528b8060a01b03918291600383600287015416998784019a8b52818701549b606085019c8d526004880154936142d760ff6009608089019b8a89168d5260018060401b03809960a01c1660a08b0152600581015460c08b01526142a160068201612ab3565b60e08b01526142b260078201612ab3565b6101008b01526142c460088201612ab3565b6101208b01520154166101408801612fdc565b6142e5878a511633146140aa565b828252600c602052898220600901805460ff191660041790554285169a8b9261430d84612e38565b9482519761431a89612a46565b8189526020890194855283890195865260608901961686528152600e6020522094518555516001850155516002840155519101555199519651169651915116915195869586613ff8565b0390a255565b6123148261438f9261437e61021a82614781565b61438a6103d18361475b565b61464b565b600090808252600c602052604091828120928051906143ad82612a0e565b845482526001850154946020830195865260018060a01b0380600283015416938381019485526003830154966060820197885260048401549661441f60ff60096080860197878c16895260018060401b03809c60a01c1660a0880152600581015460c0880152613bfb60068201612ab3565b61442d8486511633146140aa565b838751168951813b1561079b5761445e839283928a519485809481936323b872dd60e01b8352333060048501612fba565b03925af180156144de578786946139249997947fa101d67d05b6b8ad5f1d0629d3cb45c895bd38130f7b6f01415a939da1b5cf129d9c9b9997946009946144cf575b50908152600c6020522001600560ff198254161790555199519451169651915116915195869542169386613ff8565b6144d890612a7d565b386144a0565b87513d84823e3d90fd5b90815180825260208080930193019160005b828110614508575050505090565b83516001600160a01b0316855293810193928101926001016144fa565b90815180825260208080930193019160005b828110614545575050505090565b835185529381019392810192600101614537565b9061456382612d4e565b60409061457282519182612a90565b8381528093614583601f1991612d4e565b019160005b8381106145955750505050565b60209082516145a381612a61565b6000815282600081830152600085830152606060008184015260006080840152600060a0840152600060c0840152600060e084015260006101008401526000610120840152806101408401526101608301526000610180830152828601015201614588565b604051606091821b6001600160601b031916602082019081526034808301949094529281529081016001600160401b03811182821017610fc95760405251902090565b906000818152600c6020526040812054151592836146f9575b508261466f57505090565b90915060ff6009604083200154166006811015613f7b576001149182156146d4575b821561469c57505090565b8152600c602052604081206009015460ff16915060068210156146c0575060041490565b634e487b7160e01b81526021600452602490fd5b8092508152600c60205260ff6009604083200154166006811015613f7b571591614691565b604082206001015414925038614664565b906000908152600c60205260408120541515918261474a575b508161472d575090565b604081206009015460ff16915060068210156146c0575060011490565b604082206001015414915038614723565b600052600c602052604060002054151590565b600052600b602052604060002054151590565b600052600d602052604060002054151590565b6040516331a9108f60e11b81526004810192909252602090829060249082906001600160a01b03165afa908115614806576000916147d0575090565b906020823d82116147fe575b816147e960209383612a90565b810103126101ec57506147fb90614031565b90565b3d91506147dc565b6040513d6000823e3d90fdfe7aa175e04a2e31605f73606b22ee05e749d453ef18c1d978b98fb9ca37042ec0014f211bb3355024b7687e501e5eab427b6e5bbd1865a3a7437b866670c05a4cd18a69fc77b4af94976f4f0315b40768fa4d8d19144512d2fbaa3c2270a767e5f331ae5178cff91bffea424373c46780c8b27e6437e1917589d5b9bc3b043a1a8be0079c531659141344cd1fd0a4f28419497f9722a3daafe3b4186f6b6457e0a1a1295a5dd5eb66093e4f576679928ff75b3c7e1736ba79dfdeec1d997ef83fa264697066735822122021920aa92b8ac851f327faa0f0bfa781ee99c8fe44bce0ba42f8ef3a31ac851664736f6c634300081100336080806040523461005f5760008054336001600160a01b0319821681178355916001600160a01b03909116907f8be0079c531659141344cd1fd0a4f28419497f9722a3daafe3b4186f6b6457e09080a3600180556108c690816100658239f35b600080fdfe60406080815260048036101561001457600080fd5b600091823560e01c80631f63503a146104ba578063379607f5146103bb57806337bcb2eb1461028c5780636e553f65146101eb578063715018a6146101a05780638da5cb5b14610174578063b961cbe1146101325763f2fde38b1461007857600080fd5b3461012e57602036600319011261012e576001600160a01b0382358181169391929084900361012a576100a9610753565b83156100d857505082546001600160a01b0319811683178455166000805160206108718339815191528380a380f35b906020608492519162461bcd60e51b8352820152602660248201527f4f776e61626c653a206e6577206f776e657220697320746865207a65726f206160448201526564647265737360d01b6064820152fd5b8480fd5b8280fd5b50903461012e578160031936011261012e576020928291610151610738565b90358252600385528282206001600160a01b039091168252845220549051908152f35b83823461019c578160031936011261019c57905490516001600160a01b039091168152602090f35b5080fd5b83346101e857806003193601126101e8576101b9610753565b80546001600160a01b03198116825581906001600160a01b03166000805160206108718339815191528280a380f35b80fd5b5080839160031936011261019c57823590610204610738565b61020c6107fa565b828452600360209081528285206001600160a01b0383168087529152828520805434810191908210610279576000805160206108518339815191529596975055848652600360205282862090865260205261026f828620549251928392836107df565b0390a26001805580f35b634e487b7160e01b875260118852602487fd5b5082346101e8576020928360031936011261019c57358152600283528181209082516102b7816106cd565b8351835480825284845286842087830191855b81811061039e57505050816102e09103826106fe565b8152600180930194845191828288549182815201908198865283862090865b81811061038b57505050836103159103846106fe565b8282820152519185519580870190875283518091528260608801940190855b81811061036f57505050858303868301525180835291810195925b82811061035c5785870386f35b835187529581019592810192840161034f565b82516001600160a01b0316865294840194918401918701610334565b82548452928501929188019188016102ff565b82546001600160a01b0316845292890192600192830192016102ca565b503461012e576020806003193601126104b6578235926103d96107fa565b8385526003825282852033865282528285205490811561047357848652600383528386203387528352838620805491838303928311610460575086809381938293553382f115610456576000805160206108518339815191529161026f9184865260038152818620903387525280852054905191829133836107df565b81513d85823e3d90fd5b634e487b7160e01b885260119052602487fd5b835162461bcd60e51b8152908101839052601e60248201527f496e73756666696369656e7420636c61696d61626c652062616c616e636500006044820152606490fd5b8380fd5b50903461012e57606036600319011261012e5760248035926001600160401b03929091908385116106c957366023860112156106c95784810135916104fe83610721565b9561050b855197886106fe565b838752602093828589019160051b830101913683116106c5578301905b8282106106a657505050604435938585116106a257366023860112156106a257848301359461055686610721565b95610563835197886106fe565b808752838688019160051b8301019136831161069e5784879101915b83831061068e5750505050610592610753565b80519661059e886106cd565b875283870194855282358852600284528720955191825186811161064f57600160401b9384821161067c5785906105da838b54818d558c6107ab565b01888a52858a208a5b83811061066157505050506001809701945192835196871161064f57861161063e5750508190610618858554818755866107ab565b0191855280852090855b84811061062d578680f35b835183820155928101928501610622565b634e487b7160e01b88526041905286fd5b50634e487b7160e01b88526041905286fd5b82516001600160a01b031682820155918701916001016105e3565b634e487b7160e01b8a5260418352838afd5b823581529181019187910161057f565b8a80fd5b8780fd5b81356001600160a01b038116810361069e578152908501908501610528565b8980fd5b8580fd5b604081019081106001600160401b038211176106e857604052565b634e487b7160e01b600052604160045260246000fd5b601f909101601f19168101906001600160401b038211908210176106e857604052565b6001600160401b0381116106e85760051b60200190565b602435906001600160a01b038216820361074e57565b600080fd5b6000546001600160a01b0316330361076757565b606460405162461bcd60e51b815260206004820152602060248201527f4f776e61626c653a2063616c6c6572206973206e6f7420746865206f776e65726044820152fd5b90918281106107b957505050565b60009182526020822092830192015b8281106107d457505050565b8181556001016107c8565b6001600160a01b039091168152602081019190915260400190565b60026001541461080b576002600155565b60405162461bcd60e51b815260206004820152601f60248201527f5265656e7472616e637947756172643a207265656e7472616e742063616c6c006044820152606490fdfeae8f8bf7a17e85228ceb45755da4f4caefd40f17bfad89e34e910a6f952c17008be0079c531659141344cd1fd0a4f28419497f9722a3daafe3b4186f6b6457e0a264697066735822122007b64eac58e91ea46a2e1fd8f3caadbd2a8c507ee44e358536d4167c2f7bd19e64736f6c63430008110033",
  "linkReferences": {},
  "deployedLinkReferences": {}
}