{
  "_format": "hh-sol-artifact-1",
  "contractName": "Curation",
  "sourceName": "contracts/Curation.sol",
  "abi": [
    {
      "anonymous": false,
      "inputs": [
        {
          "indexed": true,
          "internalType": "uint256",
          "name": "id",
          "type": "uint256"
        },
        {
          "indexed": false,
          "internalType": "string",
          "name": "eventType",
          "type": "string"
        },
        {
          "indexed": false,
          "internalType": "uint256",
          "name": "galleryId",
          "type": "uint256"
        },
        {
          "indexed": false,
          "internalType": "address",
          "name": "collection",
          "type": "address"
        },
        {
          "indexed": false,
          "internalType": "uint256",
          "name": "tokenId",
          "type": "uint256"
        },
        {
          "indexed": false,
          "internalType": "address",
          "name": "origin",
          "type": "address"
        },
        {
          "indexed": false,
          "internalType": "uint64",
          "name": "expiration",
          "type": "uint64"
        },
        {
          "indexed": false,
          "internalType": "uint256",
          "name": "price",
          "type": "uint256"
        },
        {
          "indexed": false,
          "internalType": "string",
          "name": "location",
          "type": "string"
        },
        {
          "indexed": false,
          "internalType": "string",
          "name": "url",
          "type": "string"
        },
        {
          "indexed": false,
          "internalType": "string",
          "name": "detail",
          "type": "string"
        },
        {
          "indexed": false,
          "internalType": "uint64",
          "name": "timestamp",
          "type": "uint64"
        }
      ],
      "name": "ExhibitChanged",
      "type": "event"
    },
    {
      "anonymous": false,
      "inputs": [
        {
          "indexed": true,
          "internalType": "uint256",
          "name": "id",
          "type": "uint256"
        },
        {
          "indexed": false,
          "internalType": "string",
          "name": "eventType",
          "type": "string"
        },
        {
          "indexed": false,
          "internalType": "address",
          "name": "collection",
          "type": "address"
        },
        {
          "indexed": false,
          "internalType": "uint256",
          "name": "tokenId",
          "type": "uint256"
        },
        {
          "indexed": false,
          "internalType": "address",
          "name": "owner",
          "type": "address"
        },
        {
          "indexed": false,
          "internalType": "string",
          "name": "spaceType",
          "type": "string"
        },
        {
          "indexed": false,
          "internalType": "string",
          "name": "name",
          "type": "string"
        },
        {
          "indexed": false,
          "internalType": "string",
          "name": "metadataUri",
          "type": "string"
        },
        {
          "indexed": false,
          "internalType": "bool",
          "name": "isToken",
          "type": "bool"
        },
        {
          "indexed": false,
          "internalType": "uint64",
          "name": "timestamp",
          "type": "uint64"
        },
        {
          "indexed": false,
          "internalType": "address[]",
          "name": "payees",
          "type": "address[]"
        },
        {
          "indexed": false,
          "internalType": "uint256[]",
          "name": "commissionRates",
          "type": "uint256[]"
        },
        {
          "indexed": false,
          "internalType": "address",
          "name": "commissionPool",
          "type": "address"
        },
        {
          "indexed": false,
          "internalType": "address[]",
          "name": "admissions",
          "type": "address[]"
        }
      ],
      "name": "GalleryChanged",
      "type": "event"
    },
    {
      "anonymous": false,
      "inputs": [
        {
          "indexed": false,
          "internalType": "uint8",
          "name": "version",
          "type": "uint8"
        }
      ],
      "name": "Initialized",
      "type": "event"
    },
    {
      "anonymous": false,
      "inputs": [
        {
          "indexed": true,
          "internalType": "uint256",
          "name": "id",
          "type": "uint256"
        },
        {
          "indexed": false,
          "internalType": "string",
          "name": "eventType",
          "type": "string"
        },
        {
          "indexed": false,
          "internalType": "address",
          "name": "collection",
          "type": "address"
        },
        {
          "indexed": false,
          "internalType": "uint256",
          "name": "tokenId",
          "type": "uint256"
        },
        {
          "indexed": false,
          "internalType": "address",
          "name": "from",
          "type": "address"
        },
        {
          "indexed": false,
          "internalType": "address",
          "name": "to",
          "type": "address"
        },
        {
          "indexed": false,
          "internalType": "uint256",
          "name": "price",
          "type": "uint256"
        },
        {
          "indexed": false,
          "internalType": "uint256",
          "name": "galleryId",
          "type": "uint256"
        },
        {
          "indexed": false,
          "internalType": "uint64",
          "name": "offerStartAt",
          "type": "uint64"
        },
        {
          "indexed": false,
          "internalType": "uint64",
          "name": "offerExpiredAt",
          "type": "uint64"
        },
        {
          "indexed": false,
          "internalType": "uint64",
          "name": "exhibitExpiredAt",
          "type": "uint64"
        },
        {
          "indexed": false,
          "internalType": "string",
          "name": "url",
          "type": "string"
        },
        {
          "indexed": false,
          "internalType": "string",
          "name": "detail",
          "type": "string"
        },
        {
          "indexed": false,
          "internalType": "uint64",
          "name": "timestamp",
          "type": "uint64"
        }
      ],
      "name": "OfferChanged",
      "type": "event"
    },
    {
      "anonymous": false,
      "inputs": [
        {
          "indexed": true,
          "internalType": "address",
          "name": "previousOwner",
          "type": "address"
        },
        {
          "indexed": true,
          "internalType": "address",
          "name": "newOwner",
          "type": "address"
        }
      ],
      "name": "OwnershipTransferStarted",
      "type": "event"
    },
    {
      "anonymous": false,
      "inputs": [
        {
          "indexed": true,
          "internalType": "address",
          "name": "previousOwner",
          "type": "address"
        },
        {
          "indexed": true,
          "internalType": "address",
          "name": "newOwner",
          "type": "address"
        }
      ],
      "name": "OwnershipTransferred",
      "type": "event"
    },
    {
      "inputs": [],
      "name": "acceptOwnership",
      "outputs": [],
      "stateMutability": "nonpayable",
      "type": "function"
    },
    {
      "inputs": [
        {
          "internalType": "uint256[]",
          "name": "galleryIds",
          "type": "uint256[]"
        },
        {
          "internalType": "address[]",
          "name": "collections",
          "type": "address[]"
        },
        {
          "internalType": "uint256[]",
          "name": "tokenIds",
          "type": "uint256[]"
        },
        {
          "internalType": "uint256[]",
          "name": "prices",
          "type": "uint256[]"
        }
      ],
      "name": "batchListOwned",
      "outputs": [],
      "stateMutability": "nonpayable",
      "type": "function"
    },
    {
      "inputs": [
        {
          "internalType": "uint256",
          "name": "galleryId",
          "type": "uint256"
        },
        {
          "internalType": "uint256",
          "name": "exhibitId",
          "type": "uint256"
        }
      ],
      "name": "buy",
      "outputs": [],
      "stateMutability": "payable",
      "type": "function"
    },
    {
      "inputs": [
        {
          "internalType": "uint256",
          "name": "offerId",
          "type": "uint256"
        }
      ],
      "name": "cancelOffer",
      "outputs": [],
      "stateMutability": "nonpayable",
      "type": "function"
    },
    {
      "inputs": [
        {
          "internalType": "address",
          "name": "collection",
          "type": "address"
        },
        {
          "internalType": "uint256",
          "name": "tokenId",
          "type": "uint256"
        },
        {
          "internalType": "string",
          "name": "spaceType",
          "type": "string"
        },
        {
          "internalType": "string",
          "name": "name",
          "type": "string"
        },
        {
          "internalType": "string",
          "name": "metadataUri",
          "type": "string"
        },
        {
          "internalType": "bool",
          "name": "isToken",
          "type": "bool"
        },
        {
          "internalType": "address[]",
          "name": "payees",
          "type": "address[]"
        },
        {
          "internalType": "uint256[]",
          "name": "commissionRates",
          "type": "uint256[]"
        },
        {
          "internalType": "address[]",
          "name": "admissions",
          "type": "address[]"
        }
      ],
      "name": "createGallery",
      "outputs": [],
      "stateMutability": "nonpayable",
      "type": "function"
    },
    {
      "inputs": [
        {
          "internalType": "address",
          "name": "to",
          "type": "address"
        },
        {
          "internalType": "address",
          "name": "collection",
          "type": "address"
        },
        {
          "internalType": "uint256",
          "name": "tokenId",
          "type": "uint256"
        },
        {
          "internalType": "string",
          "name": "spaceType",
          "type": "string"
        },
        {
          "internalType": "string",
          "name": "name",
          "type": "string"
        },
        {
          "internalType": "string",
          "name": "metadataUri",
          "type": "string"
        },
        {
          "internalType": "bool",
          "name": "isToken",
          "type": "bool"
        },
        {
          "internalType": "address[]",
          "name": "payees",
          "type": "address[]"
        },
        {
          "internalType": "uint256[]",
          "name": "commissionRates",
          "type": "uint256[]"
        },
        {
          "internalType": "address[]",
          "name": "admissions",
          "type": "address[]"
        }
      ],
      "name": "createGalleryTo",
      "outputs": [],
      "stateMutability": "nonpayable",
      "type": "function"
    },
    {
      "inputs": [],
      "name": "initialize",
      "outputs": [],
      "stateMutability": "nonpayable",
      "type": "function"
    },
    {
      "inputs": [
        {
          "internalType": "uint256",
          "name": "galleryId",
          "type": "uint256"
        },
        {
          "internalType": "address",
          "name": "collection",
          "type": "address"
        },
        {
          "internalType": "uint256",
          "name": "tokenId",
          "type": "uint256"
        },
        {
          "internalType": "uint256",
          "name": "price",
          "type": "uint256"
        },
        {
          "internalType": "string",
          "name": "location",
          "type": "string"
        }
      ],
      "name": "listOwned",
      "outputs": [],
      "stateMutability": "nonpayable",
      "type": "function"
    },
    {
      "inputs": [],
      "name": "owner",
      "outputs": [
        {
          "internalType": "address",
          "name": "",
          "type": "address"
        }
      ],
      "stateMutability": "view",
      "type": "function"
    },
    {
      "inputs": [],
      "name": "pendingOwner",
      "outputs": [
        {
          "internalType": "address",
          "name": "",
          "type": "address"
        }
      ],
      "stateMutability": "view",
      "type": "function"
    },
    {
      "inputs": [],
      "name": "renounceOwnership",
      "outputs": [],
      "stateMutability": "nonpayable",
      "type": "function"
    },
    {
      "inputs": [
        {
          "internalType": "uint256",
          "name": "offerId",
          "type": "uint256"
        },
        {
          "internalType": "bool",
          "name": "accept",
          "type": "bool"
        }
      ],
      "name": "replyOffer",
      "outputs": [],
      "stateMutability": "nonpayable",
      "type": "function"
    },
    {
      "inputs": [
        {
          "internalType": "address",
          "name": "collection",
          "type": "address"
        },
        {
          "internalType": "uint256",
          "name": "tokenId",
          "type": "uint256"
        },
        {
          "internalType": "uint256",
          "name": "galleryId",
          "type": "uint256"
        },
        {
          "internalType": "uint256",
          "name": "price",
          "type": "uint256"
        },
        {
          "internalType": "uint64",
          "name": "offerDuration",
          "type": "uint64"
        },
        {
          "internalType": "uint64",
          "name": "exhibitExpiredAt",
          "type": "uint64"
        },
        {
          "internalType": "string",
          "name": "url",
          "type": "string"
        },
        {
          "internalType": "string",
          "name": "detail",
          "type": "string"
        }
      ],
      "name": "sendOffer",
      "outputs": [],
      "stateMutability": "nonpayable",
      "type": "function"
    },
    {
      "inputs": [
        {
          "internalType": "address",
          "name": "newOwner",
          "type": "address"
        }
      ],
      "name": "transferOwnership",
      "outputs": [],
      "stateMutability": "nonpayable",
      "type": "function"
    },
    {
      "inputs": [
        {
          "internalType": "uint256",
          "name": "newFeeRate",
          "type": "uint256"
        }
      ],
      "name": "updateBaseFeeRate",
      "outputs": [],
      "stateMutability": "nonpayable",
      "type": "function"
    }
  ],
  "bytecode": "0x6080806040523461001657615549908161001c8239f35b600080fdfe6080604052600436101561001257600080fd5b6000803560e01c806317a59f9d1461361e5780631ca177ed14612ecd578063715018a614612e7857806379ba509714612df05780638129fc1c14612bd75780638da5cb5b14612bae578063a815b68914612b75578063abd46f6e14612400578063ae9fc9e714611aec578063bb41edd7146113e1578063d6febde814610d5f578063e30c397814610d36578063e3a4748a146104c8578063ef706adf146101325763f2fde38b146100c257600080fd5b3461012f57602036600319011261012f576100db613657565b6100e3613871565b60a680546001600160a01b0319166001600160a01b039283169081179091556074549091167f38d16b8cac22d99fc7c124b9cd0de2d3fa1faef420bfe791d8c362d765e227008380a380f35b80fd5b503461012f57602036600319011261012f5760043561014f613a9a565b61016061015b82614915565b613929565b808252603c602052604082206040516101788161369c565b8154815260018201546001600160a01b039081166020830152600283015460408084019190915260038401548216606084019081526004850154909216608080850191909152600585015460a0850152600685015460c085015260078501546001600160401b0380821660e08701529281901c8316610100860152901c166101208301529161023b906101809060ff90600a9061021760088201613af0565b61014087015261022960098201613af0565b6101608701520154169201918261397d565b5160048110156104b45761024f9015613b94565b516001600160a01b0316330361046357808252603c602052600a6040832001600360ff19825416179055808252603c6020526000805160206154948339815191526040832061035b60ff600a604051936102a88561369c565b8054855260018101546001600160a01b03908116602087015260028201546040808801919091526003830154821660608801526004830154909116608080880191909152600583015460a0880152600683015460c088015260078301546001600160401b0380821660e08a01529281901c8316610100890152901c1661012086015261033660088201613af0565b61014086015261034860098201613af0565b610160860152015416610180830161397d565b602061044960018060a01b0382840151169261043a60408201519160018060a01b0360608201511660018060a01b0360808301511660a083015160c084015160018060401b0360e0860151169160018060401b03610100870151169360018060401b036101208801511695610160610140890151980151996040519d8e9d8e600d6101a08083528201526c13d999995c90d85b98d95b1959609a1b6101c0820152015260408d015260608c015260808b015260a08a015260c089015260e08801526101008701526101208601526101e080610140870152850190613a5a565b90838203610160850152613a5a565b426001600160401b03166101808301520390a26001805580f35b60405162461bcd60e51b815260206004820152602360248201527f4f6e6c792067616c6c657279206f776e65722063616e2063616e63656c206f666044820152623332b960e91b6064820152608490fd5b634e487b7160e01b84526021600452602484fd5b503461012f5761012036600319011261012f576104e3613657565b6044356001600160401b038111610d2d576105029036906004016136f6565b6064356001600160401b038111610d29576105219036906004016136f6565b926084356001600160401b038111610980576105419036906004016136f6565b9360a435151560a43503610d315760c4356001600160401b038111610d2d5761056e9036906004016137c1565b9360e4356001600160401b038111610d295761058e903690600401613763565b936001600160401b036101043511610d29576105b036610104356004016137c1565b6105b8613a9a565b60a4351560a435610c9a575b15610c55578651865110610c1657865160375410610bd557849685975b815160ff8a16101561061157600161060860ff92610601848d168c613bdc565b519061482b565b990116976105e1565b89909795969760385410610b845760a435610b14575b6001603354019687603355878952603e60205260408920888155855160018060401b0381116109a15761066a81610661600485015461399f565b600485016139f0565b806020601f8211600114610aaa578c91610a9f575b508160011b916000199060031b1c19161760048201555b6001810180546001600160a01b0319166001600160a01b038916179055602435600282015581516001600160401b0381116109a1576106e5816106dc600585015461399f565b600585016139f0565b806020601f8211600114610a35578c91610a2a575b508160011b916000199060031b1c19161760058201555b6003810180546001600160a01b0319163317905582516001600160401b0381116109a15761074f81610746600685015461399f565b600685016139f0565b806020601f82116001146109c0578c916109b5575b508160011b916000199060031b1c19161760068201555b6036546007820180546001600160a01b0319166001600160a01b03929092169190911790558451906001600160401b0382116109a157600160401b82116109a1576008016107ce82825481845583613a37565b60208601908b5260208b208b5b8381106109845750506036548b92506001600160a01b03169050803b1561098057604051630fb1a81d60e11b8152600481018b90526060602482015290829082908183816108428f610830606484018e61484e565b8381036003190160448501529061488b565b03925af1801561097557610953575b50506000805160206154b483398151915296610925602096946108fc61094997956108ee610934966108e060018060a01b03603654169a6040519e8f9e8f91600e6101a08085528401526d11d85b1b195c9e50dc99585d195960921b6101c084015260018060a01b03169101528d60406024359101528d6060339101528d6101e0908160808201520190613a5a565b8c810360a08e015290613a5a565b908a820360c08c0152613a5a565b60a435151560e08a0152426001600160401b03166101008a01528881036101208a01529061484e565b9086820361014088015261488b565b9161016085015283820361018085015261484e565b0390a26001805580f35b610961909694959396613689565b61097157888a9592949395610851565b8880fd5b6040513d84823e3d90fd5b5080fd5b82516001600160a01b0316818301556020909201916001016107db565b634e487b7160e01b8b52604160045260248bfd5b90508401518c610764565b9150600683018c5260208c208c925b601f1983168410610a12576001935082601f198116106109f9575b5050811b01600682015561077b565b86015160001960f88460031b161c191690558c806109ea565b868101518255602093840193600190920191016109cf565b90508301518c6106fa565b9150600583018c5260208c208c925b601f1983168410610a87576001935082601f19811610610a6e575b5050811b016005820155610711565b85015160001960f88460031b161c191690558c80610a5f565b85810151825560209384019360019092019101610a44565b90508701518c61067f565b9150600483018c5260208c208c925b601f1983168410610afc576001935082601f19811610610ae3575b5050811b016004820155610696565b89015160001960f88460031b161c191690558c80610ad4565b89810151825560209384019360019092019101610ab9565b6001600160a01b0385163b15610b8057604051637a94c56560e11b815233600482015260248035908201526001604482015288908181606481836001600160a01b038c165af1801561097557610b6c575b5050610627565b610b7590613689565b610b80578789610b65565b8780fd5b60405162461bcd60e51b815260206004820152602360248201527f4578636565646564204d41585f544f54414c5f434f4d4d495353494f4e5f524160448201526254455360e81b6064820152608490fd5b60405162461bcd60e51b8152602060048201526019602482015278115e18d9595919590813505617d41056515154d7d0d3d55395603a1b6044820152606490fd5b60405162461bcd60e51b81526020600482015260176024820152764c61636b206f6620636f6d6d697373696f6e207261746560481b6044820152606490fd5b60405162461bcd60e51b815260206004820152601e60248201527f4e6f742067616c6c657279204e46542074656d706c617465206f776e656400006044820152606490fd5b50604051627eeac760e11b815260208180610cbb60243533600484016147cc565b03816001600160a01b0388165afa908115610d1e578691610ce9575b50151580156105c4575060a4356105c4565b90506020813d8211610d16575b81610d03602093836136d3565b81010312610d12575138610cd7565b8580fd5b3d9150610cf6565b6040513d88823e3d90fd5b8380fd5b8280fd5b600080fd5b503461012f578060031936011261012f5760a6546040516001600160a01b039091168152602090f35b50604036600319011261012f57610d74613a9a565b610d8261015b600435614928565b610d8d602435614902565b156113a8576024358152603d6020526040812090610e4d60ff600960405194610db58661366d565b805486526001810154602087015260028101546001600160a01b039081166040880152600382015460608801526004820154908116608088015260a090811c6001600160401b031690870152600581015460c0870152610e1760068201613af0565b60e0870152610e2860078201613af0565b610100870152610e3a60088201613af0565b61012087015201541661014084016147e7565b60c0820151340361136c576036546040516337bcb2eb60e01b81526004803590820152919283918290849060249082906001600160a01b03165afa9182156113605780938193611214575b5080945b8451861015610f83576001600160a01b03610eb78787613bdc565b5116610ec38786613bdc565b5160c0850151918183810204831482151715610f6f576036546001600160a01b031690813b15610d12578590604460405180948193636e553f6560e01b835260043560048401526024830152670de0b6b3a764000088880204905af18015610f6457908591610f50575b505091670de0b6b3a7640000610f489260019402049061482b565b950194610e9c565b610f5990613689565b610d29578338610f2d565b6040513d87823e3d90fd5b634e487b7160e01b85526011600452602485fd5b608083015160c0840151849290916001600160a01b0316908083038310610f6f5784809381938293839281811461120a575b0391f1156111fd578160018060a01b03604083015116602060608401516024604051809481936331a9108f60e11b835260048301525afa9081156109755782916111c3575b5060018060a01b03604084015116906060840151823b15610d29576040516323b872dd60e01b81526001600160a01b03909216600483015233602483015260448201529082908290606490829084905af18015610975576111af575b50506024358252603d60205260096040832001600360ff198254161790556024358252603d602052600060066040842001611091815461399f565b601f8111611190575b50556000805160206154f48339815191526a115e1a1a589a5d14dbdb1960aa1b61018061117684519461116760208201519161115860018060a01b03604083015116606083015160018060a01b0360808501511660018060401b0360a0860151169060c08601519260e087015194610120610100890151980151996040519d8e9d8e600b610160808352820152015260208d015260408c015260608b015260808a015260a089015260c08801526101a08060e0890152870190613a5a565b90858203610100870152613a5a565b90838203610120850152613a5a565b426001600160401b03166101408301520390a26001805580f35b818352602083206111a991601f0160051c8101906139d9565b8461109a565b6111b890613689565b610980578183611056565b90506020813d6020116111f5575b816111de602093836136d3565b81010312610980576111ef90613969565b84610ffa565b3d91506111d1565b50604051903d90823e3d90fd5b6108fc9350610fb5565b935091503d928383823e61122884826136d3565b6040818581010312610d2d578051906001600160401b038211610d2957848101601f838301011215610d2957818101516112618161374c565b9261126f60405194856136d3565b818452602084019087840160208460051b83870101011161133d5790602082850101915b60208460051b8287010101831061134557505050506020810151946001600160401b03861161134157808201601f8784010112156113415785820151916112d98361374c565b966112e760405198896136d3565b8388526020880192820160208560051b83850101011161133d579190602083820101925b60208560051b82840101018410611329575050505050929138610e98565b60208080948651815201940193925061130b565b8680fd5b8480fd5b602080809361135386613969565b8152019301929150611293565b604051903d90823e3d90fd5b60405162461bcd60e51b8152602060048201526014602482015273496e73756666696369656e742062616c616e636560601b6044820152606490fd5b60405162461bcd60e51b8152602060048201526011602482015270115e1a1a589a5d081b9bdd08199bdd5b99607a1b6044820152606490fd5b503461012f5761014036600319011261012f576113fc613657565b90611405613641565b906064356001600160401b038111610980576114259036906004016136f6565b906084356001600160401b038111610980576114459036906004016136f6565b60a4356001600160401b038111610d2d576114649036906004016136f6565b9460c435151560c43503610d315760e4356001600160401b038111610d29576114919036906004016137c1565b94610104356001600160401b038111611341576114b2903690600401613763565b946001600160401b036101243511611341576114d436610124356004016137c1565b906114dd613a9a565b60c4351560c435611a61575b15610c55578751875110610c1657875160375410610bd557859786985b815160ff8b16101561152f57600161152660ff92610601848e168d613bdc565b9a011698611506565b908a899260385410610b845760c4356119fc575b6001603354019788603355888a52603e60205260408a20898155855160018060401b0381116118895761157d81610661600485015461399f565b806020601f8211600114611992578d91611987575b508160011b916000199060031b1c19161760048201555b6001810180546001600160a01b0319166001600160a01b038a16179055604435600282015581516001600160401b038111611889576115ef816106dc600585015461399f565b806020601f821160011461191d578d91611912575b508160011b916000199060031b1c19161760058201555b6003810180546001600160a01b0319166001600160a01b038b1617905582516001600160401b0381116118895761165981610746600685015461399f565b806020601f82116001146118a8578d9161189d575b508160011b916000199060031b1c19161760068201555b6036546007820180546001600160a01b0319166001600160a01b03929092169190911790558651906001600160401b03821161188957600160401b8211611889576008016116d882825481845583613a37565b60208801908c5260208c208c5b83811061186c5750506036548c92506001600160a01b03169050803b1561098057816040518092630fb1a81d60e11b82528d600483015260606024830152818381611748611736606483018d61484e565b8281036003190160448401528d61488b565b03925af1801561097557611854575b5050603654604080516101a0808252600e908201526d11d85b1b195c9e50dc99585d195960921b6101c08201526001600160a01b03998a1660208201526044359181019190915298881660608a01526101e060808a018190528998909116956117c291890190613a5a565b87810360a08901526117d391613a5a565b86810360c08801526117e491613a5a565b60c435151560e0870152426001600160401b03166101008701528581036101208701526118109161484e565b8481036101408601526118229161488b565b9061016084015282810361018084015261183b9161484e565b036000805160206154b483398151915291a26001805580f35b61185d90613689565b61186857898b611757565b8980fd5b82516001600160a01b0316818301556020909201916001016116e5565b634e487b7160e01b8c52604160045260248cfd5b90508401518d61166e565b9150600683018d5260208d208d925b601f19831684106118fa576001935082601f198116106118e1575b5050811b016006820155611685565b86015160001960f88460031b161c191690558d806118d2565b868101518255602093840193600190920191016118b7565b90508301518d611604565b9150600583018d5260208d208d925b601f198316841061196f576001935082601f19811610611956575b5050811b01600582015561161b565b85015160001960f88460031b161c191690558d80611947565b8581015182556020938401936001909201910161192c565b90508701518d611592565b9150600483018d5260208d208d925b601f19831684106119e4576001935082601f198116106119cb575b5050811b0160048201556115a9565b89015160001960f88460031b161c191690558d806119bc565b898101518255602093840193600190920191016119a1565b886001600160a01b038716803b1561098057818091606460405180948193637a94c56560e11b83523360048401526044356024840152600160448401525af1801561097557611a4d575b5050611543565b611a5690613689565b61097157888a611a46565b50604051627eeac760e11b815260208180611a8260443533600484016147cc565b03816001600160a01b0388165afa908115611ae1578791611ab0575b50151580156114e9575060c4356114e9565b90506020813d8211611ad9575b81611aca602093836136d3565b8101031261133d575138611a9e565b3d9150611abd565b6040513d89823e3d90fd5b503461012f57608036600319011261012f576004356001600160401b03811161098057611b1d903690600401613763565b6024356001600160401b038111610d2d57611b3c9036906004016137c1565b916044356001600160401b03811161098057611b5c903690600401613763565b906064356001600160401b03811161098057611b7c903690600401613763565b815b85518110156123fc57611b918186613bdc565b516001600160a01b03611ba48389613bdc565b511690611bb18387613bdc565b51611bbc8486613bdc565b519160405192611bcb846136b8565b878452611bd6613a9a565b611be261015b83614928565b818852603e6020526040882060030154336001600160a01b03909116036123a5576040516331a9108f60e11b815260048101849052602081602481895afa90811561239a578991612360575b506001600160a01b0316330361232557611c4883866148bf565b9485895260d8602052604089205493611c6085614902565b15611f2c575050828852603d602052600560408920015560066040882001835160018060401b038111611f1857611ca181611c9b845461399f565b846139f0565b6020601f8211600114611e9e579181600198979694926000805160206154f483398151915296948c91611e93575b50600019600383901b1c191690891b1790555b818952603d60205286908160408b200155600960408a20019060ff19825416179055808852603d6020526004604089200133878060a01b03198254161790555b808852603d6020526040882093611dd960ff600960405197611d438961366d565b805489528a81015460208a01528a8060a01b0360028201541660408a0152600381015460608a015260048101548b8060a01b03811660808b01528b8060401b039060a01c1660a08a0152600581015460c08a0152611da360068201613af0565b60e08a0152611db460078201613af0565b6101008a0152611dc660088201613af0565b6101208a015201541661014087016147e7565b885260d86020526040882055825192611e79602082015192611167888060a01b03604085015116936111586060820151968b8060a01b03608084015116948c8060401b0360a08501511660c085015190610120610100870151960151976040519b8c9b8c966020611e50610160808b528a0161480b565b98015260408d015260608c015260808b015260a08a015260c089015287820360e0890152613a5a565b868060401b0342166101408301520390a281805501611b7e565b905085015138611ccf565b828a5260208a20908a5b601f1984168110611f005750916000805160206154f48339815191529593916001999897959382601f19811610611ee7575b5050881b88019055611ce2565b86015160001960f88460031b161c191690553880611eda565b9091602060018192858b015181550193019101611ea8565b634e487b7160e01b89526041600452602489fd5b919093506035916001835401809355829460405194611f4a8661366d565b8486526020860152604085015260608401523360808401528860a084015260c08301528360e0830152604051611f7f816136b8565b888152610100830152604051611f94816136b8565b88815261012083015260016101408301819052908852603d60209081526040808a20845181559184015192820192909255908201516002820180546001600160a01b0319166001600160a01b0392831617905560608301516003830155608083015160048301805460a0808701516001600160e01b031990921693909416929092179190921b600160a01b600160e01b031617905560c0820151600582015560e08201518051919291906001600160401b03821161221d5781906120688261205f600688015461399f565b600688016139f0565b602090601f83116001146122b6578b926122ab575b50508160011b916000199060031b1c19161760068301555b6101008101518051906001600160401b03821161221d5781906120c8826120bf600788015461399f565b600788016139f0565b602090601f831160011461223c578b92612231575b50508160011b916000199060031b1c19161760078301555b6101208101518051906001600160401b03821161221d576121268261211d600887015461399f565b600887016139f0565b602090601f83116001146121ac576101409392918b91836121a1575b50508160011b916000199060031b1c19161760088401555b015190600682101561218d579161218860019695949260096000805160206154f483398151915295016147f3565b611d22565b634e487b7160e01b88526021600452602488fd5b015190503880612142565b90600885018b5260208b20918b5b601f198516811061220557509183916001936101409695601f198116106121ec575b505050811b01600884015561215a565b015160001960f88460031b161c191690553880806121dc565b919260206001819286850151815501940192016121ba565b634e487b7160e01b8a52604160045260248afd5b0151905038806120dd565b9250600785018b5260208b20908b935b601f1984168510612290576001945083601f19811610612277575b505050811b0160078301556120f5565b015160001960f88460031b161c19169055388080612267565b8181015183556020948501946001909301929091019061224c565b01519050388061207d565b9250600685018b5260208b20908b935b601f198416851061230a576001945083601f198116106122f1575b505050811b016006830155612095565b015160001960f88460031b161c191690553880806122e1565b818101518355602094850194600190930192909101906122c6565b60405162461bcd60e51b81526020600482015260136024820152721bdb9b1e481bdddb995c8818d85b881b1a5cdd606a1b6044820152606490fd5b90506020813d602011612392575b8161237b602093836136d3565b810103126109715761238c90613969565b38611c2e565b3d915061236e565b6040513d8b823e3d90fd5b60405162461bcd60e51b815260206004820152602960248201527f4f6e6c792067616c6c657279206f776e65722063616e206d616e6167652074686044820152681948195e1a1a589a5d60ba1b6064820152608490fd5b8280f35b503461012f5761010036600319011261012f5761241b613657565b60843591906001600160401b0383168303610d315760a435906001600160401b0382168203610d315760c4356001600160401b038111610d29576124639036906004016136f6565b9060e4356001600160401b038111611341576124839036906004016136f6565b61248b613a9a565b603a546001600160401b03600882901c811690881611610d12576001600160401b034281168682160391908211612b615760481c6001600160401b03908116911611611341576124df61015b604435614928565b6044358552603e60205260408520600301546001600160a01b03169233849003612b12576001603454019485603455604051976331a9108f60e11b895260243560048a015260208960248160018060a01b0389165afa988915612b07578899612acb575b506001600160401b034281168282160111612ab7576044358852603e6020526040808920600301549051906001600160a01b03166125808261369c565b88825260018060a01b03871660208301526024356040830152606082015260018060a01b038a16608082015260643560a082015260443560c082015260018060401b03421660e082015260018060401b0360018060401b03831660018060401b034216011661010082015260018060401b038316610120820152836101408201528461016082015288610180820152878952603c6020526040892090805182556001820160018060a01b036020830151169060018060a01b03199182825416179055604082015160028401556003830160018060a01b0360608401511682825416179055600483019060018060a01b036080840151169082541617905560a0810151600583015560c081015160068301556007820160018060401b0360e083015116815490600160401b600160801b0361010085015160401b1690600160801b600160c01b0361012086015160801b169260018060c01b031916171717905561014081015180519060018060401b03821161188957819061271182612708600888015461399f565b600888016139f0565b602090601f8311600114612a48578d92612a3d575b50508160011b916000199060031b1c19161760088301555b61016081015180519091906001600160401b0381116118895761277181612768600987015461399f565b600987016139f0565b6020928c601f83116001146129c957610180949091836129be575b50508160011b916000199060031b1c19161760098401555b01519060048210156129aa57600a019060ff801983541691161790556127cc602435866148bf565b98898952603b60205260408920541560001461293f57604051996001600160401b0360208c01908111908c11176129295760208b01604052888b528952603b60205260408920998a5460018c558060011061290a575b50998952602089209989905b600182106128f6575050600080516020615494833981519152979899509161044994939161043a935b604080516101a0808252600c908201526b13d999995c90dc99585d195960a21b6101c08201526001600160a01b03998a166020820152602435918101919091526060810199909952909616608088015260643560a088015260443560c08801526001600160401b0342811660e0890181905296811690960186166101008801529094166101208601526101e06101408601819052859490850190613a5a565b80518c83015560019091019060200161282e565b612923908c6000526001602060002091820191016139d9565b38612822565b634e487b7160e01b600052604160045260246000fd5b9091929394959697985060408920805490600160401b8210156109a15760018201808255821015612996579261044995928a6000805160206154948339815191529a9998969360208e61043a988152200155612857565b634e487b7160e01b8b52603260045260248bfd5b634e487b7160e01b8a52602160045260248afd5b01519050388061278c565b50909192600985018d5260208d20918d5b601f1985168110612a2557509183916001936101809695601f19811610612a0c575b505050811b0160098401556127a4565b015160001960f88460031b161c191690553880806129fc565b919260206001819286850151815501940192016129da565b015190503880612726565b9250600885018d5260208d20908d935b601f1984168510612a9c576001945083601f19811610612a83575b505050811b01600883015561273e565b015160001960f88460031b161c19169055388080612a73565b81810151835560209485019460019093019290910190612a58565b634e487b7160e01b88526011600452602488fd5b9098506020813d602011612aff575b81612ae7602093836136d3565b81010312610b8057612af890613969565b9738612543565b3d9150612ada565b6040513d8a823e3d90fd5b60405162461bcd60e51b815260206004820152602160248201527f4f6e6c792067616c6c657279206f776e65722063616e206d616b65206f6666656044820152603960f91b6064820152608490fd5b634e487b7160e01b87526011600452602487fd5b503461012f57604036600319011261012f576024358015158103610d3157612ba790612b9f613a9a565b600435613c06565b6001805580f35b503461012f578060031936011261012f576074546040516001600160a01b039091168152602090f35b503461012f578060031936011261012f5780549060ff8260081c161591828093612de3575b8015612dcc575b15612d705760ff198116600117825582612d5f575b50612c4860ff825460081c16612c2d816138c9565b612c36816138c9565b60018055612c43816138c9565b6138c9565b612c513361382f565b604051610b58808201906001600160401b03821183831017612d4b5790829161493c8339039082f080156111fd57603680546001600160a01b0319166001600160a01b03929092169182179055803b156109805781809160046040518094819363204a7f0760e21b83525af1801561097557612d3c575b506005603755670de0b6b3a76400006038556039819055603a80546001600160881b03191663278d00006203c267604f1b0117905590612d055780f35b61ff001981541681557f7f26b83ff96e1f2b6a682f133852f6798a09c465da95921460cefb3847402498602060405160018152a180f35b612d4590613689565b38612cc8565b634e487b7160e01b84526041600452602484fd5b61ffff191661010117815538612c18565b60405162461bcd60e51b815260206004820152602e60248201527f496e697469616c697a61626c653a20636f6e747261637420697320616c72656160448201526d191e481a5b9a5d1a585b1a5e995960921b6064820152608490fd5b50303b158015612c035750600160ff821614612c03565b50600160ff821610612bfc565b503461012f578060031936011261012f5760a654336001600160a01b0390911603612e2157612e1e3361382f565b80f35b60405162461bcd60e51b815260206004820152602960248201527f4f776e61626c6532537465703a2063616c6c6572206973206e6f7420746865206044820152683732bb9037bbb732b960b91b6064820152608490fd5b503461012f578060031936011261012f57612e91613871565b60a680546001600160a01b031990811690915560748054918216905581906001600160a01b03166000805160206154d48339815191528280a380f35b503461012f5760a036600319011261012f57612ee7613641565b906084356001600160401b03811161098057612f079036906004016136f6565b612f0f613a9a565b612f1d61015b600435614928565b6004358252603e60205260408220600301546001600160a01b031633036123a5576040516331a9108f60e11b815260443560048201526020816024816001600160a01b0388165afa9081156136135783916135d9575b506001600160a01b0316330361232557612f8f604435846148bf565b9081835260d8602052604083205493612fa785614902565b156131f15750838352603d602052604083206064356005820155815194906006016001600160401b0386116131dd57612fea86612fe4835461399f565b836139f0565b602095601f8111600114613168578086976000805160206154f483398151915296979161315d575b508160011b916000199060031b1c19161790555b808552603d602052604085206004803560018381019190915560098301805460ff191690911790550180546001600160a01b031916331790555b808552603d60205260408520936130e360ff6009604051976130818961366d565b80548952600181015460208a015260028101546001600160a01b0390811660408b0152600382015460608b0152600482015490811660808b015260a090811c6001600160401b0316908a0152600581015460c08a0152611da360068201613af0565b855260d8602052604085205582519261117660208201519261116760018060a01b036040850151169361115860608201519660018060a01b036080840151169460018060401b0360a08501511660c085015190610120610100870151960151976040519b8c9b8c966020611e50610160808b528a0161480b565b905084015138613012565b8186526020862096865b601f19831681106131c55750906000805160206154f483398151915295969760019282601f198116106131ac575b5050811b019055613026565b86015160001960f88460031b161c1916905538806131a0565b85820151895560019098019760209182019101613172565b634e487b7160e01b85526041600452602485fd5b90919293506001603554019081603555816040519161320f8361366d565b818352600435602084015260018060a01b0316604083015260443560608301523360808301528560a083015260643560c08301528360e0830152604051613255816136b8565b86815261010083015260405161326a816136b8565b86815261012083015260016101408301819052908652603d60209081526040808820845181559184015192820192909255908201516002820180546001600160a01b0319166001600160a01b0392831617905560608301516003830155608083015160048301805460a0808701516001600160e01b031990921693909416929092179190921b600160a01b600160e01b031617905560c0820151600582015560e08201518051919291906001600160401b0382116134d15781906133358261205f600688015461399f565b602090601f831160011461356a57899261355f575b50508160011b916000199060031b1c19161760068301555b6101008101518051906001600160401b0382116134d157819061338c826120bf600788015461399f565b602090601f83116001146134f05789926134e5575b50508160011b916000199060031b1c19161760078301555b61012081015180516001600160401b0381116134d15760088401916133e8826133e2855461399f565b856139f0565b602090601f831160011461346857610140949392918a918361345d575b50508160011b916000199060031b1c19161790555b0151906006821015613449576000805160206154f4833981519152939291600961344492016147f3565b613060565b634e487b7160e01b86526021600452602486fd5b015190503880613405565b838a5260208a209190601f1984168b5b8181106134b9575091600193918561014098979694106134a0575b505050811b01905561341a565b015160001960f88460031b161c19169055388080613493565b92936020600181928786015181550195019301613478565b634e487b7160e01b88526041600452602488fd5b0151905038806133a1565b9250600785018952602089209089935b601f1984168510613544576001945083601f1981161061352b575b505050811b0160078301556133b9565b015160001960f88460031b161c1916905538808061351b565b81810151835560209485019460019093019290910190613500565b01519050388061334a565b9250600685018952602089209089935b601f19841685106135be576001945083601f198116106135a5575b505050811b016006830155613362565b015160001960f88460031b161c19169055388080613595565b8181015183556020948501946001909301929091019061357a565b90506020813d60201161360b575b816135f4602093836136d3565b81010312610d2d5761360590613969565b38612f73565b3d91506135e7565b6040513d85823e3d90fd5b503461012f57602036600319011261012f57613638613871565b60043560395580f35b602435906001600160a01b0382168203610d3157565b600435906001600160a01b0382168203610d3157565b61016081019081106001600160401b0382111761292957604052565b6001600160401b03811161292957604052565b6101a081019081106001600160401b0382111761292957604052565b602081019081106001600160401b0382111761292957604052565b601f909101601f19168101906001600160401b0382119082101761292957604052565b81601f82011215610d31578035906001600160401b038211612929576040519261372a601f8401601f1916602001856136d3565b82845260208383010111610d3157816000926020809301838601378301015290565b6001600160401b0381116129295760051b60200190565b81601f82011215610d315780359161377a8361374c565b9261378860405194856136d3565b808452602092838086019260051b820101928311610d31578301905b8282106137b2575050505090565b813581529083019083016137a4565b81601f82011215610d31578035916137d88361374c565b926137e660405194856136d3565b808452602092838086019260051b820101928311610d31578301905b828210613810575050505090565b81356001600160a01b0381168103610d31578152908301908301613802565b60a680546001600160a01b0319908116909155607480549182166001600160a01b0393841690811790915591166000805160206154d4833981519152600080a3565b6074546001600160a01b0316330361388557565b606460405162461bcd60e51b815260206004820152602060248201527f4f776e61626c653a2063616c6c6572206973206e6f7420746865206f776e65726044820152fd5b156138d057565b60405162461bcd60e51b815260206004820152602b60248201527f496e697469616c697a61626c653a20636f6e7472616374206973206e6f74206960448201526a6e697469616c697a696e6760a81b6064820152608490fd5b1561393057565b60405162461bcd60e51b815260206004820152601160248201527011d85b1b195c9e481b9bdd08199bdd5b99607a1b6044820152606490fd5b51906001600160a01b0382168203610d3157565b60048210156139895752565b634e487b7160e01b600052602160045260246000fd5b90600182811c921680156139cf575b60208310146139b957565b634e487b7160e01b600052602260045260246000fd5b91607f16916139ae565b8181106139e4575050565b600081556001016139d9565b9190601f81116139ff57505050565b613a2b926000526020600020906020601f840160051c83019310613a2d575b601f0160051c01906139d9565b565b9091508190613a1e565b91818110613a4457505050565b613a2b92600052602060002091820191016139d9565b919082519283825260005b848110613a86575050826000602080949584010152601f8019910116010190565b602081830181015184830182015201613a65565b600260015414613aab576002600155565b60405162461bcd60e51b815260206004820152601f60248201527f5265656e7472616e637947756172643a207265656e7472616e742063616c6c006044820152606490fd5b9060405191826000825492613b048461399f565b908184526001948581169081600014613b715750600114613b2e575b5050613a2b925003836136d3565b9093915060005260209081600020936000915b818310613b59575050613a2b93508201013880613b20565b85548884018501529485019487945091830191613b41565b915050613a2b94506020925060ff191682840152151560051b8201013880613b20565b15613b9b57565b60405162461bcd60e51b815260206004820152601960248201527824ba103bb0b9b713ba1030903832b73234b7339037b33332b960391b6044820152606490fd5b8051821015613bf05760209160051b010190565b634e487b7160e01b600052603260045260246000fd5b919091613c1281614915565b1561465b57600092818452603c6020526040842090613cee60ff600a60405194613c3b8661369c565b8054865260018101546001600160a01b03908116602088015260028201546040808901919091526003830154821660608901526004830154909116608080890191909152600583015460a0890152600683015460c089015260078301546001600160401b0380821660e08b01529281901c83166101008a0152901c16610120870152613cc960088201613af0565b610140870152613cdb60098201613af0565b610160870152015416610180840161397d565b613cfe61015b60c0840151614928565b60808201516001600160a01b031633036146085760018060a01b03602083015116602060408401516024604051809481936331a9108f60e11b835260048301525afa908115610d1e5786916145ce575b506001600160a01b0316330361458f57610180820151600481101561344957613d779015613b94565b6101008201516001600160401b0316421015614552571561454657818452603c602052600a6040852001600160ff1982541617905560408420613dc460ff600a604051936102a88561369c565b6020810151604082015186916001600160a01b031690813b15610d2d578291613e049160405194858094819363095ea7b360e01b835230600484016147cc565b03925af18015610d1e57614533575b506000805160206154948339815191528151916020613f0560018060a01b0382840151169261043a60408201519160018060a01b0360608201511660018060a01b0360808301511660a083015160c084015160018060401b0360e0860151169160018060401b03610100870151169360018060401b036101208801511695610160610140890151980151996040519d8e9d8e600d6101a08083528201526c13d999995c9058d8d95c1d1959609a1b6101c0820152015260408d015260608c015260808b015260a08a015260c089015260e08801526101008701526101208601526101e080610140870152850190613a5a565b426001600160401b03166101808301520390a260016035540180603555828552603c6020526040852090613f4360ff600a60405194613c3b8661369c565b60c08201519160018060a01b0360208201511690604081015160018060a01b0360808301511660018060401b03610120840151169060a0840151926101606101408601519501519560405198613f988a61366d565b888a5260208a015260408901526060880152608087015260a086015260c0850152604051613fc5816136b8565b88815260e0850190815261010085019190915261012084019190915260016101408401819052918752603d60209081526040808920855181559185015193820193909355918301516002830180546001600160a01b0319166001600160a01b0392831617905560608401516003840155608084015160048401805460a0808801516001600160e01b031990921693909416929092179190921b600160a01b600160e01b031617905560c08301516005830155518051906001600160401b0382116134d15781906140a58261409c600687015461399f565b600687016139f0565b602090601f83116001146144c45789926144b9575b50508160011b916000199060031b1c19161760068201555b6101008201518051906001600160401b0382116134d1578190614105826140fc600787015461399f565b600787016139f0565b602090601f831160011461444a57899261443f575b50508160011b916000199060031b1c19161760078201555b6101208201518051906001600160401b0382116134d157819061415c8261211d600887015461399f565b602090601f83116001146143d05789926143c5575b50508160011b916000199060031b1c19161760088201555b6101408201519060068210156143b15761428893929160096141ab92016147f3565b6000805160206154f4833981519152815191604061425b89611167602085015194602060018060a01b038683015116968160608401519560018060a01b036080860151166001808b1b0360a08701511660c087015191610120610100890151980151998c519d8e9d8e6101608152614226610160820161480b565b9989820152015260608d015260808c015260a08b015260c08a0152888303908160e08b01528352016101008801520190613a5a565b426001600160401b03166101408301520390a26020810151604090910151906001600160a01b03166148bf565b91828452603b60205260408420906040518083602082955493848152019088526020882092885b8181106143985750506142c4925003836136d3565b845b8251811015614364576142d98184613bdc565b518481141580614355575b80614332575b600192919080614310575b614301575b50016142c6565b61430a90614692565b386142fa565b50808852603c602052828060401b03600760408a20015460401c1642106142f5565b50808752603c60205260ff600a60408920015416600481101561218d57156142ea565b5061435f81614915565b6142e4565b50939150506040918152603b6020522080546000825580614383575050565b613a2b916000526020600020908101906139d9565b84548352600194850194879450602090930192016142af565b634e487b7160e01b87526021600452602487fd5b015190503880614171565b9250600884018952602089209089935b601f1984168510614424576001945083601f1981161061440b575b505050811b016008820155614189565b015160001960f88460031b161c191690553880806143fb565b818101518355602094850194600190930192909101906143e0565b01519050388061411a565b9250600784018952602089209089935b601f198416851061449e576001945083601f19811610614485575b505050811b016007820155614132565b015160001960f88460031b161c19169055388080614475565b8181015183556020948501946001909301929091019061445a565b0151905038806140ba565b9250600684018952602089209089935b601f1984168510614518576001945083601f198116106144ff575b505050811b0160068201556140d2565b015160001960f88460031b161c191690553880806144ef565b818101518355602094850194600190930192909101906144d4565b61453f90959195613689565b9338613e13565b50613a2b919250614692565b60405162461bcd60e51b8152602060048201526015602482015274151a19481bd999995c881dd85cc8195e1c1a5c9959605a1b6044820152606490fd5b60405162461bcd60e51b8152602060048201526017602482015276151bdad95b881bdddb995c881dd85cc818da185b99d959604a1b6044820152606490fd5b90506020813d602011614600575b816145e9602093836136d3565b81010312610d12576145fa90613969565b38613d4e565b3d91506145dc565b60405162461bcd60e51b815260206004820152602560248201527f4f6e6c7920746f6b656e206f776e65722063616e20616363657074207468652060448201526437b33332b960d91b6064820152608490fd5b60405162461bcd60e51b815260206004820152600f60248201526e13d999995c881b9bdd08199bdd5b99608a1b6044820152606490fd5b600052603c602052600a604060002001600260ff1982541617905560406000206146c660ff600a604051936102a88561369c565b60008051602061549483398151915281519160206147b760018060a01b0382840151169261043a60408201519160018060a01b0360608201511660018060a01b0360808301511660a083015160c084015160018060401b0360e0860151169160018060401b03610100870151169360018060401b036101208801511695610160610140890151980151996040519d8e9d8e600d6101a08083528201526c13d999995c94995a9958dd1959609a1b6101c0820152015260408d015260608c015260808b015260a08a015260c089015260e08801526101008701526101208601526101e080610140870152850190613a5a565b426001600160401b03166101808301520390a2565b6001600160a01b039091168152602081019190915260400190565b60068210156139895752565b9060068110156139895760ff80198354169116179055565b600d81526c115e1a1a589a5d131a5cdd1959609a1b602082015260400190565b9190820180921161483857565b634e487b7160e01b600052601160045260246000fd5b90815180825260208080930193019160005b82811061486e575050505090565b83516001600160a01b031685529381019392810192600101614860565b90815180825260208080930193019160005b8281106148ab575050505090565b83518552938101939281019260010161489d565b604051606091821b6001600160601b031916602082019081526034808301949094529281529081016001600160401b038111828210176129295760405251902090565b600052603d602052604060002054151590565b600052603c602052604060002054151590565b600052603e60205260406000205415159056fe6080806040523461001657610b3c908161001c8239f35b600080fdfe60406080815260048036101561001457600080fd5b600091823560e01c9081631f63503a1461068d57816337bcb2eb1461055d5781635e7375481461046c5781636e553f65146103cb578163715018a61461037357816379ba5097146102eb5781638129fc1c146101a25781638da5cb5b14610179578163b961cbe114610136578163e30c39781461010d575063f2fde38b1461009b57600080fd5b3461010957602036600319011261010957356001600160a01b0381811691829003610105576100c8610969565b609780546001600160a01b03191683179055606554167f38d16b8cac22d99fc7c124b9cd0de2d3fa1faef420bfe791d8c362d765e227008380a380f35b8280fd5b5080fd5b83903461010957816003193601126101095760975490516001600160a01b039091168152602090f35b91905034610105578160031936011261010557602092829161015661090c565b9035825260ca85528282206001600160a01b039091168252845220549051908152f35b83903461010957816003193601126101095760655490516001600160a01b039091168152602090f35b91905034610105578260031936011261010557825460ff8160081c1615918280936102de575b80156102c7575b1561026d575060ff19811660011784558161025c575b5061021560ff845460081c166101fa816109c1565b610203816109c1565b60018055610210816109c1565b6109c1565b61021e33610927565b610226575080f35b60207f7f26b83ff96e1f2b6a682f133852f6798a09c465da95921460cefb38474024989161ff001984541684555160018152a180f35b61ffff1916610101178355386101e5565b608490602085519162461bcd60e51b8352820152602e60248201527f496e697469616c697a61626c653a20636f6e747261637420697320616c72656160448201526d191e481a5b9a5d1a585b1a5e995960921b6064820152fd5b50303b1580156101cf5750600160ff8316146101cf565b50600160ff8316106101c8565b905034610105578260031936011261010557609754336001600160a01b039091160361031e578261031b33610927565b80f35b906020608492519162461bcd60e51b8352820152602960248201527f4f776e61626c6532537465703a2063616c6c6572206973206e6f7420746865206044820152683732bb9037bbb732b960b91b6064820152fd5b83346103c857806003193601126103c85761038c610969565b609780546001600160a01b031990811690915560658054918216905581906001600160a01b0316600080516020610ae78339815191528280a380f35b80fd5b83915080600319360112610109578235906103e461090c565b6103ec610a70565b82845260ca60209081528285206001600160a01b038316808752915282852080543481019190821061045957600080516020610ac7833981519152959697505584865260ca60205282862090865260205261044f82862054925192839283610a55565b0390a26001805580f35b634e487b7160e01b875260118852602487fd5b919050346101055760603660031901126101055780359161048b61090c565b60443590610497610a70565b84865260ca6020528286203387526020528286205493821561052357828503948511610510575085808093819388835260ca602052868320338452602052878784205560018060a01b031682f1156105075751600080516020610ac783398151915291819061044f903383610a55565b513d84823e3d90fd5b634e487b7160e01b875260119052602486fd5b606490602085519162461bcd60e51b8352820152601460248201527343616e6e6f7420636c61696d20302076616c756560601b6044820152fd5b905082346103c857602092836003193601126101095735815260c98352818120908251610589816108a1565b8351835480825284845286842087830191855b81811061067057505050816105b29103826108d2565b8152600180930194845191828288549182815201908198865283862090865b81811061065d57505050836105e79103846108d2565b8282820152519185519580870190875283518091528260608801940190855b81811061064157505050858303868301525180835291810195925b82811061062e5785870386f35b8351875295810195928101928401610621565b82516001600160a01b0316865294840194918401918701610606565b82548452928501929188019188016105d1565b82546001600160a01b03168452928901926001928301920161059c565b919050346101055760603660031901126101055760248035926001600160401b039290919083851161089d573660238601121561089d5784810135916106d2836108f5565b956106df855197886108d2565b838752602093828589019160051b83010191368311610899578301905b82821061087a5750505060443593858511610876573660238601121561087657848301359461072a866108f5565b95610737835197886108d2565b808752838688019160051b830101913683116108725784879101915b8383106108625750505050610766610969565b805196610772886108a1565b87528387019485528235885260c984528720955191825186811161082357600160401b938482116108505785906107ae838b54818d558c610a21565b01888a52858a208a5b83811061083557505050506001809701945192835196871161082357861161081257505081906107ec85855481875586610a21565b0191855280852090855b848110610801578680f35b8351838201559281019285016107f6565b634e487b7160e01b88526041905286fd5b50634e487b7160e01b88526041905286fd5b82516001600160a01b031682820155918701916001016107b7565b634e487b7160e01b8a5260418352838afd5b8235815291810191879101610753565b8a80fd5b8780fd5b81356001600160a01b03811681036108725781529085019085016106fc565b8980fd5b8580fd5b604081019081106001600160401b038211176108bc57604052565b634e487b7160e01b600052604160045260246000fd5b601f909101601f19168101906001600160401b038211908210176108bc57604052565b6001600160401b0381116108bc5760051b60200190565b602435906001600160a01b038216820361092257565b600080fd5b609780546001600160a01b0319908116909155606580549182166001600160a01b039384169081179091559116600080516020610ae7833981519152600080a3565b6065546001600160a01b0316330361097d57565b606460405162461bcd60e51b815260206004820152602060248201527f4f776e61626c653a2063616c6c6572206973206e6f7420746865206f776e65726044820152fd5b156109c857565b60405162461bcd60e51b815260206004820152602b60248201527f496e697469616c697a61626c653a20636f6e7472616374206973206e6f74206960448201526a6e697469616c697a696e6760a81b6064820152608490fd5b9091828110610a2f57505050565b60009182526020822092830192015b828110610a4a57505050565b818155600101610a3e565b6001600160a01b039091168152602081019190915260400190565b600260015414610a81576002600155565b60405162461bcd60e51b815260206004820152601f60248201527f5265656e7472616e637947756172643a207265656e7472616e742063616c6c006044820152606490fdfeae8f8bf7a17e85228ceb45755da4f4caefd40f17bfad89e34e910a6f952c17008be0079c531659141344cd1fd0a4f28419497f9722a3daafe3b4186f6b6457e0a2646970667358221220ad1ace53266a484cd7879ad4083ae4f647e40eb005538259b313eae8954081fd64736f6c63430008110033bf076646518bfc89aa04223054c6ebb7b85b3ecce008024a5b0d21fee43f97c71c7babc4e894749cf4ce6a85c4751e3d0f558d1959c95f83233cec8aad742d738be0079c531659141344cd1fd0a4f28419497f9722a3daafe3b4186f6b6457e066db01a2d81855ab9f32c6e24f5b9dd677486ecaf7f601ba22798f41231d3cb5a2646970667358221220dfa089426cb26312c8115d40dde43d8b052cb9c2cf08d3e8ffee59b0503e97b464736f6c63430008110033",
  "linkReferences": {},
  "deployedLinkReferences": {}
}