{
  "_format": "hh-sol-artifact-1",
  "contractName": "IMartCollective",
  "sourceName": "contracts/IMartCollective.sol",
  "abi": [
    {
      "inputs": [],
      "stateMutability": "nonpayable",
      "type": "constructor"
    },
    {
      "anonymous": false,
      "inputs": [
        {
          "indexed": false,
          "internalType": "address",
          "name": "root",
          "type": "address"
        },
        {
          "indexed": false,
          "internalType": "address",
          "name": "creator",
          "type": "address"
        },
        {
          "indexed": false,
          "internalType": "string",
          "name": "name",
          "type": "string"
        },
        {
          "indexed": false,
          "internalType": "string",
          "name": "category",
          "type": "string"
        },
        {
          "indexed": false,
          "internalType": "string[]",
          "name": "tags",
          "type": "string[]"
        },
        {
          "indexed": false,
          "internalType": "string",
          "name": "description",
          "type": "string"
        },
        {
          "indexed": false,
          "internalType": "string",
          "name": "uri",
          "type": "string"
        },
        {
          "indexed": false,
          "internalType": "address[]",
          "name": "payees",
          "type": "address[]"
        },
        {
          "indexed": false,
          "internalType": "uint256[]",
          "name": "royalties",
          "type": "uint256[]"
        },
        {
          "indexed": false,
          "internalType": "uint64",
          "name": "maximum",
          "type": "uint64"
        }
      ],
      "name": "CollectionCreated",
      "type": "event"
    },
    {
      "anonymous": false,
      "inputs": [
        {
          "indexed": true,
          "internalType": "address",
          "name": "previousOwner",
          "type": "address"
        },
        {
          "indexed": true,
          "internalType": "address",
          "name": "newOwner",
          "type": "address"
        }
      ],
      "name": "OwnershipTransferred",
      "type": "event"
    },
    {
      "inputs": [
        {
          "internalType": "string",
          "name": "name",
          "type": "string"
        },
        {
          "internalType": "string",
          "name": "category",
          "type": "string"
        },
        {
          "internalType": "string[]",
          "name": "tags",
          "type": "string[]"
        },
        {
          "internalType": "string",
          "name": "description",
          "type": "string"
        },
        {
          "internalType": "string",
          "name": "uri",
          "type": "string"
        },
        {
          "internalType": "address[]",
          "name": "payees",
          "type": "address[]"
        },
        {
          "internalType": "uint256[]",
          "name": "royalties",
          "type": "uint256[]"
        },
        {
          "internalType": "uint64",
          "name": "maximum",
          "type": "uint64"
        }
      ],
      "name": "createCollection",
      "outputs": [],
      "stateMutability": "nonpayable",
      "type": "function"
    },
    {
      "inputs": [
        {
          "internalType": "string",
          "name": "_collection",
          "type": "string"
        },
        {
          "internalType": "address",
          "name": "to",
          "type": "address"
        },
        {
          "internalType": "string",
          "name": "uri",
          "type": "string"
        }
      ],
      "name": "mint",
      "outputs": [],
      "stateMutability": "nonpayable",
      "type": "function"
    },
    {
      "inputs": [],
      "name": "owner",
      "outputs": [
        {
          "internalType": "address",
          "name": "",
          "type": "address"
        }
      ],
      "stateMutability": "view",
      "type": "function"
    },
    {
      "inputs": [],
      "name": "renounceOwnership",
      "outputs": [],
      "stateMutability": "nonpayable",
      "type": "function"
    },
    {
      "inputs": [
        {
          "internalType": "address",
          "name": "_marketplace",
          "type": "address"
        }
      ],
      "name": "setMarketplace",
      "outputs": [],
      "stateMutability": "nonpayable",
      "type": "function"
    },
    {
      "inputs": [
        {
          "internalType": "address",
          "name": "newOwner",
          "type": "address"
        }
      ],
      "name": "transferOwnership",
      "outputs": [],
      "stateMutability": "nonpayable",
      "type": "function"
    }
  ],
  "bytecode": "0x6080806040523461007a5760008054336001600160a01b0319821681178355916001600160a01b03909116907f8be0079c531659141344cd1fd0a4f28419497f9722a3daafe3b4186f6b6457e09080a36003805460ff60a01b1916600560a01b17905567016345785d8a0000600455615d0b90816100808239f35b600080fdfe6101c060405260043610156200001457600080fd5b60008061018052803560e01c80633a35fe1b14620012fc578063715018a614620012a857806373ad6c2d146200125a5780638da5cb5b146200122b578063ad6cf0a5146200012f5763f2fde38b146200006c57600080fd5b346200012857602036600319011262000128576200008962002353565b90620000946200236a565b6001600160a01b03918216918215620000d45781546001600160a01b0319811684178355169060008051602062005cb68339815191529080a36101805180f35b60405162461bcd60e51b815260206004820152602660248201527f4f776e61626c653a206e6577206f776e657220697320746865207a65726f206160448201526564647265737360d01b6064820152608490fd5b6101805180fd5b346200012857606036600319011262000128576004356001600160401b038111620001285762000164903690600401620022db565b60243560e08190526001600160a01b0381160362000128576044356001600160401b03811162000128576200019e903690600401620022db565b610120528060a0525115620003a8575b3361018051526020600181526040610180512060405182620001d960a05183815193849201620023c3565b81019182529081900382019020546001600160a01b03169081156200036557610180805183905260028252516040908190206008015490516318160ddd60e01b8152906001600160401b03168282600481875afa918215620002e057610180519262000330575b501115620002ee5750803b15620001285760405190636902622f60e11b825260018060a01b0360e051166004830152604060248301528161018051918180620002906044820161012051620023e8565b039161018051905af18015620002e057620002ad575b6101805180f35b6001600160401b038111620002c65760405280620002a6565b634e487b7160e01b61018051526041600452602461018051fd5b6040513d61018051823e3d90fd5b6064906040519062461bcd60e51b82526004820152601b60248201527a737570706c7920776f756c6420657863656564206d6178696d756d60281b6044820152fd5b9091508281813d83116200035d575b6200034b8183620022b7565b81010312620001285751908462000240565b503d6200033f565b6064906040519062461bcd60e51b825280600483015260248201527f5468617420636f6c6c656374696f6e207761736e2774207075626c69736865646044820152fd5b604051620003b6816200227f565b60138152723ab73a34ba3632b21031b7b63632b1ba34b7b760691b60208201528060a052336101805152600160205260406101805120604051825162000401818360208701620023c3565b8101918252908190036020019020546001600160a01b03161562000427575b50620001ae565b6040519062000436826200229b565b610180518252604051906200044b826200229b565b6101805182526040519062000460826200229b565b6101805182526040519062000475826200227f565b60088252671d5b9d1a5d1b195960c21b60208301526040519362000499856200229b565b610180518552604051620004ad816200229b565b6101805181526101805190835115620011ee573361018051526001602052604061018051206040518551620004e7818360208a01620023c3565b8101918252908190036020019020546001600160a01b0316620011b05782518651036200117957825160ff60035460a01c161062001138576101805197885b845160ff8b1690811015620005a2578851111562000588576020611fe08b60051b168901015181018091116200056e5760ff90991660ff81146200056e576001019862000526565b634e487b7160e01b61018051526011600452602461018051fd5b634e487b7160e01b61018051526032600452602461018051fd5b50909396985096919490939660045410620010f3576040516001600160401b03611c04820190811190821117620002c657611c046200248e82396040611c048201528062000613620005fc6040611c048401018b620023e8565b611c04830181036020611c04850101528a620023e8565b03610180519182f0806101405215620010e75750610140516001600160a01b03163b15620001285760405163f2fde38b60e01b815230600482015261018051610140518290602490829084906001600160a01b03165af18015620002e057620010ce575b50600354610140516001600160a01b0391821691163b15620010ca57604051906373ad6c2d60e01b8252600482015285816024818360018060a01b0361014051165af18015620010bf57908691620010a3575b50503385526001602052604085206020604051809282620006f28c84815193849201620023c3565b8201908152030190206101405181546001600160a01b0319166001600160a01b0391909116179055604051620007288162002262565b33815260208082018981526040808401859052606084018790526080840186905260a0840188905260c084018a905260e084018c90526001600160401b036101008501819052610140516001600160a01b039081168b526002909452908920845181546001600160a01b03191694169390931783559051805191821162000bbb578190620007ba60018501546200240f565b601f81116200106c575b50602090601f831160011462000ff8578a9262000fec575b50508160011b916000199060031b1c19161760018201555b60408201518051906001600160401b03821162000bbb5781906200081c60028501546200240f565b601f811162000fb5575b50602090601f831160011462000f41578a9262000f35575b50508160011b916000199060031b1c19161760028201555b6060820151805190600160401b821162000bbb57600383015482600385015580831062000ea9575b506020016003830189526020892089915b83831062000d67575050505060808201518051906001600160401b03821162000bbb578190620008c360048501546200240f565b601f811162000d30575b50602090601f831160011462000cbc578a9262000cb0575b50508160011b916000199060031b1c19161760048201555b60a08201518051906001600160401b03821162000bbb5781906200092560058501546200240f565b601f811162000c6d575b50602090601f831160011462000bf9578a9262000bed575b50508160011b916000199060031b1c19161760058201555b60c08201518051906001600160401b03821162000bbb57600160401b821162000bbb57602060068401916200099a8484548186558562002465565b0190895260208920895b83811062000bcf575050505060e08201518051906001600160401b03821162000bbb57600160401b821162000bbb5760206007849b9a9b0191620009ee8484548186558562002465565b01908a5260208a208a5b83811062000ba65750505061010090920151600890910180546001600160401b0319166001600160401b0392909216919091179055506040805161014080516001600160a01b031682523360208301529181018290529762000a73929162000a6491908a0190620023e8565b9088820360608a0152620023e8565b8681036080880152825180825260208201916020808360051b83010195019288915b83831062000b705750505050508162000abb918762000aca95940360a0890152620023e8565b9085820360c0870152620023e8565b83810360e085015260208083519283815201920190835b81811062000b5057505050828103610100840152602080855192838152019401915b81811062000b395750506001600160401b036101208301525060008051602062005c968339815191529181900390a18062000420565b825185526020948501949092019160010162000b03565b82516001600160a01b031684526020938401939092019160010162000ae1565b909192939560208062000b93600193601f9d9c9d198682030187528a51620023e8565b9801930193019193929098979862000a95565b825181830155602090920191600101620009f8565b634e487b7160e01b89526041600452602489fd5b82516001600160a01b031681830155602090920191600101620009a4565b015190508c8062000947565b9250600584018a5260208a20908a935b601f198416851062000c51576001945083601f1981161062000c37575b505050811b0160058201556200095f565b015160001960f88460031b161c191690558c808062000c26565b8181015183556020948501946001909301929091019062000c09565b62000c9e90600586018c5260208c20601f850160051c8101916020861062000ca5575b601f0160051c01906200244c565b8d6200092f565b909150819062000c90565b015190508c80620008e5565b9250600484018a5260208a20908a935b601f198416851062000d14576001945083601f1981161062000cfa575b505050811b016004820155620008fd565b015160001960f88460031b161c191690558c808062000ce9565b8181015183556020948501946001909301929091019062000ccc565b62000d6090600486018c5260208c20601f850160051c8101916020861062000ca557601f0160051c01906200244c565b8d620008cd565b80518051906001600160401b03821162000e95578c62000d8885546200240f565b601f811162000e55575b50506020908d601f841160011462000de35792806020936001969387969262000dd7575b5050600019600383901b1c191690841b1785555b019201920191906200088f565b01519050388062000db6565b919085835260208320925b601f198516811062000e3c575083602093600196938796938794601f1981161062000e22575b505050811b01855562000dca565b015160001960f88460031b161c1916905538808062000e14565b9192602060018192868501518155019401920162000dee565b6020828762000e829452206005601f8601811c8201926020871062000e8a575b601f01901c01906200244c565b8c3862000d92565b919250829162000e75565b634e487b7160e01b8d52604160045260248dfd5b600384018a5260208a20908382015b818301811062000eca5750506200087e565b808c62000eda600193546200240f565b8062000eea575b50500162000eb8565b601f8111841462000f065750506101805181555b8c3862000ee1565b83601f6020848662000f23965220920160051c820191016200244c565b8c602081206101805183555562000efe565b015190508c806200083e565b9250600284018a5260208a20908a935b601f198416851062000f99576001945083601f1981161062000f7f575b505050811b01600282015562000856565b015160001960f88460031b161c191690558c808062000f6e565b8181015183556020948501946001909301929091019062000f51565b62000fe590600286018c5260208c20601f850160051c8101916020861062000ca557601f0160051c01906200244c565b8d62000826565b015190508c80620007dc565b9250600184018a5260208a20908a935b601f198416851062001050576001945083601f1981161062001036575b505050811b016001820155620007f4565b015160001960f88460031b161c191690558c808062001025565b8181015183556020948501946001909301929091019062001008565b6200109c90600186018c5260208c20601f850160051c8101916020861062000ca557601f0160051c01906200244c565b8d620007c4565b620010ae9062002238565b620010bb578489620006ca565b8480fd5b6040513d88823e3d90fd5b8580fd5b620010db91955062002238565b61018051938862000677565b604051903d90823e3d90fd5b60405162461bcd60e51b815260206004820152601d60248201527f4578636565646564204d41585f43524541544f525f4541524e494e47530000006044820152606490fd5b60405162461bcd60e51b8152602060048201526019602482015278115e18d9595919590813505617d41056515154d7d0d3d55395603a1b6044820152606490fd5b60405162461bcd60e51b815260206004820152600f60248201526e4c61636b206f6620726f79616c747960881b6044820152606490fd5b60405162461bcd60e51b815260206004820152601660248201527510dbdb1b1958dd1a5bdb881dd85cc8195e1a5cdd195960521b6044820152606490fd5b60405162461bcd60e51b8152602060048201526015602482015274456d70747920636f6c6c656374696f6e206e616d6560581b6044820152606490fd5b34620001285761018051806003193601126200125757546040516001600160a01b039091168152602090f35b80fd5b346200012857602036600319011262000128576200127762002353565b620012816200236a565b600380546001600160a01b0319166001600160a01b03929092169190911790556101805180f35b34620001285761018051806003193601126200125757620012c86200236a565b6101805180546001600160a01b03198116825581906001600160a01b031660008051602062005cb68339815191528280a380f35b5034620012575761010036600319011262001257576004356001600160401b038111620022345762001333903690600401620022db565b6024356001600160401b038111620001285762001355903690600401620022db565b906001600160401b036044351162000128573660236044350112156200012857604435600401359162001388836200233b565b92620013986040519485620022b7565b8084526020840180913660248260051b6044350101116200012857602460443501915b60248260051b60443501018310620021fb57505060643590506001600160401b0381116200012857620013f3903690600401620022db565b926084356001600160401b038111620001285762001416903690600401620022db565b6001600160401b0360a43511620001285736602360a435011215620001285760a435600401359262001448846200233b565b93620014586040519586620022b7565b80855260208501908160c0523660248260051b60a4350101116200012857602460a43501915b60248260051b60a43501018310620021d75750506001600160401b0360c435119050620001285736602360c4350112156200012857620014d6620014c860c435600401356200233b565b604051806101a052620022b7565b6101a05160c43560040135905260206101a05101806101005236602460c4356004013560051b60c4350101116200012857602460c43501905b602460c4356004013560051b60c43501018210620021c657505060e4356001600160401b038116900362000128576101805161016052825115620011ee5733610180515260016020526040610180512060405184519162001575838360208901620023c3565b918101918252908190036020019020546001600160a01b0316620011b05783516101a05151036200117957835160ff60035460a01c161062001138576101805195865b855160ff89169081101562001607576101a05151111562000588576020611fe08960051b166101a05101015181018091116200056e579660ff808216146200056e5760ff1660010196620015b8565b5086899160045410620010f3576040516001600160401b03611c04820190811190821117620002c657611c046200409282396040611c048201528062001670620016596040611c048401018a620023e8565b611c04830181036020611c048501015289620023e8565b03610180519182f08060805215620010e757506080516001600160a01b03163b15620001285760405163f2fde38b60e01b8152306004820152610180516080518290602490829084906001600160a01b03165af18015620002e057620021ac575b506003546080516001600160a01b0391821691163b15620021a557604051906373ad6c2d60e01b8252600482015261016051816024818360018060a01b03608051165af1801562002197576200217e575b5033610160515260016020526040610160512060206040518092826200174f8b84815193849201620023c3565b82019081520301902060805181546001600160a01b0319166001600160a01b0391909116179055604051620017848162002262565b3381526020808201888152604080840185905260608401869052608080850188905260a085018a905260c085018c90526101a05160e086015260e4356001600160401b03908116610100870152905161016080516001600160a01b03928316905260029095529351918220855181546001600160a01b03191695169490941784559151805192909190831162001c7c575081906200182660018501546200240f565b601f811162002141575b506101605190602091601f8411600114620020c957506101605192620020bd575b50508160011b916000199060031b1c19161760018201555b60408201518051906001600160401b03821162001c625781906200189160028501546200240f565b601f811162002080575b506101605190602091601f8411600114620020085750610160519262001ffc575b50508160011b916000199060031b1c19161760028201555b6060820151805190600160401b821162001c6257600383015482600385015580831062001f67575b5061016080516003850190525160208082209392015b82821062001e34575050505060808201518051906001600160401b03821162001c625781906200194660048501546200240f565b601f811162001df7575b506101605190602091601f841160011462001d7f5750610160519262001d73575b50508160011b916000199060031b1c19161760048201555b60a08201518051906001600160401b03821162001c62578190620019b160058501546200240f565b601f811162001d36575b506101605190602091601f841160011462001cbe5750610160519262001cb2575b50508160011b916000199060031b1c19161760058201555b60c082015180516001600160401b03811162001c6257600160401b811162001c62576020600684019262001a2e8385548187558662002465565b01916101605152610160519160208320835b83811062001c94575050505060e08301518051916001600160401b03831162001c7c5750600160401b821162001c62576020600784019162001a888484548186558562002465565b019061016051526101605160208120905b83811062001c4d5750505061010090920151600890910180546001600160401b0319166001600160401b039290921691909117905550604080516080516001600160a01b031681523360208201526101409181018290529662001b15929162001b069190890190620023e8565b908782036060890152620023e8565b90858203608087015251808252602082019160208260051b820101949261016051915b83831062001c1d578989602062001b6c8b62001b5d8c8c86820360a0880152620023e8565b9084820360c0860152620023e8565b9282840360e08401525192838152019160c05190610160515b81811062001bfd5750505080820361010082015260206101a051519283815201916101005190610160515b81811062001be65760e4356001600160401b031661012085015260008051602062005c9683398151915284860385a16101805180f35b825185526020948501949092019160010162001bb0565b82516001600160a01b031685526020948501949092019160010162001b85565b909192939560208062001c3d600193601f198682030187528a51620023e8565b9801930193019193929062001b38565b60019060208451940193818401550162001a99565b634e487b7160e01b61016051526041600452602461016051fd5b634e487b7160e01b9052604160045261016051602490fd5b82516001600160a01b03168183015560209092019160010162001a40565b015190508b80620019dc565b600586019052610160516020812090945091905b601f198416851062001d1a576001945083601f1981161062001d00575b505050811b016005820155620019f4565b015160001960f88460031b161c191690558b808062001cef565b8181015183556020948501946001909301929091019062001cd2565b62001d6c9060058601610160515260206101605120601f850160051c8101916020861062000ca557601f0160051c01906200244c565b8c620019bb565b015190508b8062001971565b600486019052610160516020812090945091905b601f198416851062001ddb576001945083601f1981161062001dc1575b505050811b01600482015562001989565b015160001960f88460031b161c191690558b808062001db0565b8181015183556020948501946001909301929091019062001d93565b62001e2d9060048601610160515260206101605120601f850160051c8101916020861062000ca557601f0160051c01906200244c565b8c62001950565b80518051906001600160401b03821162001c625762001e5486546200240f565b601f811162001f2d575b50610160519086602092601f851160011462001eb95750509282600194936020938695610160519262001ead575b5050600019600383901b1c191690841b1787555b0194019101909262001912565b01519050388062001e8c565b5261016051602081209291905b601f198516811062001f14575083602093600196938796938794601f1981161062001efa575b505050811b01875562001ea0565b015160001960f88460031b161c1916905538808062001eec565b9192602060018192868501518155019401920162001ec6565b62001f609087610160515260206101605120601f850160051c8101916020861062000ca557601f0160051c01906200244c565b8f62001e5e565b60038401610160515260206101605120908382015b818301811062001f8e575050620018fc565b8062001f9d600192546200240f565b8062001fac575b500162001f7c565b601f8111831462001fc657506101805181555b8f62001fa4565b81610160515262001feb610160519184601f60208520920160051c820191016200244c565b602081206101805183555562001fbf565b015190508b80620018bc565b600286019052610160516020812090945091905b601f198416851062002064576001945083601f198116106200204a575b505050811b016002820155620018d4565b015160001960f88460031b161c191690558b808062002039565b818101518355602094850194600190930192909101906200201c565b620020b69060028601610160515260206101605120601f850160051c8101916020861062000ca557601f0160051c01906200244c565b8c6200189b565b015190508b8062001851565b600186019052610160516020812090945091905b601f198416851062002125576001945083601f198116106200210b575b505050811b01600182015562001869565b015160001960f88460031b161c191690558b8080620020fa565b81810151835560209485019460019093019290910190620020dd565b620021779060018601610160515260206101605120601f850160051c8101916020861062000ca557601f0160051c01906200244c565b8c62001830565b620021899062002238565b610160518015620017225780fd5b6040513d61016051823e3d90fd5b6101605180fd5b620021b79062002238565b610180516101605287620016d1565b81358152602091820191016200150f565b82356001600160a01b0381169003620001285782358152602092830192016200147e565b8235906001600160401b038211620001285760208091620022266024948536916044350101620022db565b8152019301929050620013bb565b5080fd5b6001600160401b0381116200224c57604052565b634e487b7160e01b600052604160045260246000fd5b61012081019081106001600160401b038211176200224c57604052565b604081019081106001600160401b038211176200224c57604052565b602081019081106001600160401b038211176200224c57604052565b601f909101601f19168101906001600160401b038211908210176200224c57604052565b81601f8201121562002336578035906001600160401b0382116200224c576040519262002313601f8401601f191660200185620022b7565b828452602083830101116200233657816000926020809301838601378301015290565b600080fd5b6001600160401b0381116200224c5760051b60200190565b600435906001600160a01b03821682036200233657565b6000546001600160a01b031633036200237f57565b606460405162461bcd60e51b815260206004820152602060248201527f4f776e61626c653a2063616c6c6572206973206e6f7420746865206f776e65726044820152fd5b60005b838110620023d75750506000910152565b8181015183820152602001620023c6565b906020916200240381518092818552858086019101620023c3565b601f01601f1916010190565b90600182811c9216801562002441575b60208310146200242b57565b634e487b7160e01b600052602260045260246000fd5b91607f16916200241f565b81811062002458575050565b600081556001016200244c565b918181106200247357505050565b6200248b92600052602060002091820191016200244c565b56fe608060405234620003635762001c04803803806200001d8162000368565b9283398101604082820312620003635781516001600160401b0392908381116200036357826200004f9183016200038e565b906020928382015185811162000363576200006b92016200038e565b9281518181116200034d576000938454916001948584811c9416801562000342575b838510146200032e578190601f94858111620002db575b508390858311600114620002775788926200026b575b5050600019600383901b1c191690851b1785555b8551928311620002575783548481811c911680156200024c575b828210146200023857828111620001f0575b50809183116001146200018a57508394829394926200017e575b5050600019600383901b1c191690821b1790555b600b8054336001600160a01b031982168117909255604051926001600160a01b03909116907f8be0079c531659141344cd1fd0a4f28419497f9722a3daafe3b4186f6b6457e09080a36118039081620004018239f35b01519050388062000114565b90601f198316958486528286209286905b888210620001d85750508385969710620001be575b505050811b01905562000128565b015160001960f88460031b161c19169055388080620001b0565b8087859682949686015181550195019301906200019b565b8486528186208380860160051c8201928487106200022e575b0160051c019085905b82811062000222575050620000fa565b87815501859062000212565b9250819262000209565b634e487b7160e01b86526022600452602486fd5b90607f1690620000e8565b634e487b7160e01b85526041600452602485fd5b015190503880620000ba565b8880528489208894509190601f1984168a5b87828210620002c45750508411620002aa575b505050811b018555620000ce565b015160001960f88460031b161c191690553880806200029c565b8385015186558b9790950194938401930162000289565b9091508780528388208580850160051c82019286861062000324575b918991869594930160051c01915b82811062000315575050620000a4565b8a815585945089910162000305565b92508192620002f7565b634e487b7160e01b87526022600452602487fd5b93607f16936200008d565b634e487b7160e01b600052604160045260246000fd5b600080fd5b6040519190601f01601f191682016001600160401b038111838210176200034d57604052565b919080601f84011215620003635782516001600160401b0381116200034d57602090620003c4601f8201601f1916830162000368565b92818452828287010111620003635760005b818110620003ec57508260009394955001015290565b8581018301518482018401528201620003d656fe6080604081815260048036101561001557600080fd5b600092833560e01c9081629a9b7b14610e5a5750806301ffc9a714610dd057806306fdde0314610d49578063081812fc14610d29578063095ea7b314610bbc57806318160ddd14610b9d57806323b872dd14610b785780632f745c5914610acc57806342842e0e14610a985780634f6ccce714610a055780636352211e146109d457806370a08231146109a7578063715018a61461095c57806373ad6c2d146109175780638da5cb5b146108ee57806395d89b411461082c578063a22cb46514610777578063b88d4fde146106ee578063c87b56dd146105f2578063d204c45e1461021c578063e985e9c5146101ca5763f2fde38b1461011457600080fd5b346101c65760203660031901126101c65761012d610eb6565b90610136610fc2565b6001600160a01b03918216928315610174575050600b80546001600160a01b0319811684179091551660008051602061178e8339815191528380a380f35b906020608492519162461bcd60e51b8352820152602660248201527f4f776e61626c653a206e6577206f776e657220697320746865207a65726f206160448201526564647265737360d01b6064820152fd5b8280fd5b50503461021857806003193601126102185760ff816020936101ea610eb6565b6101f2610ed1565b6001600160a01b0391821683526005875283832091168252855220549151911615158152f35b5080fd5b5082346105ef57826003193601126105ef57610236610eb6565b926024926001600160401b039184358381116105eb57366023820112156105eb5761026990369087818601359101610f8b565b91610272610fc2565b60019283600c54019081600c5583519561028b87610f1c565b8787526001600160a01b038a81169790939088156105a957600998999a9b6102bb6102b58461152d565b15611722565b600854838d5260209a8b52888d20819055600160401b81101561059757918361038f928e9f9e8e83918f8f908f9160029261031d876103028e6103949f86016008556116f1565b90919082549060031b600019811b9283911b16911916179055565b6103268861101a565b868652600684528186208187528452878287205587865260078452818620556103516102b58861152d565b85855260038352842080549091019055848352528d812080546001600160a01b031916831790556000805160206117ae8339815191528180a461154a565b611214565b61039d8161152d565b1561053e578a52600a8752848a2091805191821161052c5781906103c184546110fe565b601f81116104dc575b508890601f831160011461047d578c92610472575b5050600019600383901b1c191690861b1790555b600d541695868614610436575050838652600583528086208587528352808620805460ff1916831790555190815260008051602061176e8339815191529190a380f35b60199085606494519362461bcd60e51b85528401528201527822a9219b99189d1030b8383937bb32903a379031b0b63632b960391b6044820152fd5b015190508b806103df565b848d52898d208994509190601f1984168e5b8c8282106104c657505084116104ad575b505050811b0190556103f3565b015160001960f88460031b161c191690558b80806104a0565b8385015186558c9790950194938401930161048f565b909150838c52888c20601f840160051c8101918a8510610522575b84939291601f8b920160051c01915b8281106105145750506103ca565b8e81558594508a9101610506565b90915081906104f7565b634e487b7160e01b8b5260418552898bfd5b855162461bcd60e51b8152808601899052602e818c01527f45524337323155524953746f726167653a2055524920736574206f66206e6f6e60448201526d32bc34b9ba32b73a103a37b5b2b760911b6064820152608490fd5b634e487b7160e01b8d52604188528d8dfd5b865162461bcd60e51b81526020818801819052818d01527f4552433732313a206d696e7420746f20746865207a65726f20616464726573736044820152606490fd5b8480fd5b80fd5b5090346101c657602091826003193601126106ea57356106196106148261152d565b611091565b8352600a8252808320928151809482908054610634816110fe565b918285526001918883821691826000146106c3575050600114610685575b505050610681939291610666910386610f4d565b815161067181610f1c565b5251928284938452830190610e76565b0390f35b8552868520879350859291905b8284106106ab5750505082010181610666610681610652565b8054848b018601528995508894909301928101610692565b60ff19168782015293151560051b8601909301935084925061066691506106819050610652565b8380fd5b83823461021857608036600319011261021857610709610eb6565b90610712610ed1565b6064359290604435906001600160401b03851161077357366023860112156107735761074d61038f9486602461077098369301359101610f8b565b9261076061075b8433611238565b61115f565b61076b838383611300565b611666565b80f35b8580fd5b5090346101c657806003193601126101c657610791610eb6565b90602435918215158093036105eb576001600160a01b0316923384146107ee5750338452600560205280842083855260205280842060ff1981541660ff84161790555190815260008051602061176e83398151915260203392a380f35b6020606492519162461bcd60e51b8352820152601960248201527822a9219b99189d1030b8383937bb32903a379031b0b63632b960391b6044820152fd5b505034610218578160031936011261021857805190826001805490610850826110fe565b808652918181169081156108c6575060011461088b575b50505061087982610681940383610f4d565b51918291602083526020830190610e76565b80955082526020948583205b8284106108b35750505082610681946108799282010194610867565b8054868501880152928601928101610897565b61068197506108799450602092508693915060ff191682840152151560051b82010194610867565b505034610218578160031936011261021857600b5490516001600160a01b039091168152602090f35b83346105ef5760203660031901126105ef57610931610eb6565b610939610fc2565b600d80546001600160a01b0319166001600160a01b039290921691909117905580f35b83346105ef57806003193601126105ef57610975610fc2565b600b80546001600160a01b0319811690915581906001600160a01b031660008051602061178e8339815191528280a380f35b505034610218576020366003190112610218576020906109cd6109c8610eb6565b61101a565b9051908152f35b5091346105ef5760203660031901126105ef57506109f4602092356110d8565b90516001600160a01b039091168152f35b5082346105ef5760203660031901126105ef5750803590600854821015610a4057602083610a32846116f1565b91905490519160031b1c8152f35b608490602084519162461bcd60e51b8352820152602c60248201527f455243373231456e756d657261626c653a20676c6f62616c20696e646578206f60448201526b7574206f6620626f756e647360a01b6064820152fd5b5050346102185761038f61077091610aaf36610ee7565b91925192610abc84610f1c565b86845261076061075b8433611238565b5091346105ef57816003193601126105ef57610ae6610eb6565b60243590610af38161101a565b821015610b21576001600160a01b031682526006602090815283832091835290815290829020548251908152f35b835162461bcd60e51b8152602081870152602b60248201527f455243373231456e756d657261626c653a206f776e657220696e646578206f7560448201526a74206f6620626f756e647360a81b6064820152608490fd5b83346105ef57610770610b8a36610ee7565b91610b9861075b8433611238565b611300565b5050346102185781600319360112610218576020906008549051908152f35b50346101c657816003193601126101c657610bd5610eb6565b6024359290916001600160a01b0391908280610bf0876110d8565b16941693808514610cdc57803314908115610cbd575b5015610c5557848652602052842080546001600160a01b03191683179055610c2d836110d8565b167f8c5be1e5ebec7d5bd14f71427d1e84f3dd0314c0f7b2291e5b200ac8c7c3b9258480a480f35b6020608492519162461bcd60e51b8352820152603d60248201527f4552433732313a20617070726f76652063616c6c6572206973206e6f7420746f60448201527f6b656e206f776e6572206f7220617070726f76656420666f7220616c6c0000006064820152fd5b90508652600560205281862033875260205260ff828720541638610c06565b506020608492519162461bcd60e51b8352820152602160248201527f4552433732313a20617070726f76616c20746f2063757272656e74206f776e656044820152603960f91b6064820152fd5b5091346105ef5760203660031901126105ef57506109f460209235611138565b505034610218578160031936011261021857805190828054610d6a816110fe565b808552906001908181169081156108c65750600114610d955750505061087982610681940383610f4d565b94508180526020948583205b828410610dbd5750505082610681946108799282010194610867565b8054868501880152928601928101610da1565b50346101c65760203660031901126101c657359063ffffffff60e01b82168092036101c6576020925063780e9d6360e01b8214918215610e14575b50519015158152f35b9091506380ac58cd60e01b8114908115610e49575b8115610e38575b509038610e0b565b6301ffc9a760e01b14905038610e30565b635b5e139f60e01b81149150610e29565b849034610218578160031936011261021857602090600c548152f35b919082519283825260005b848110610ea2575050826000602080949584010152601f8019910116010190565b602081830181015184830182015201610e81565b600435906001600160a01b0382168203610ecc57565b600080fd5b602435906001600160a01b0382168203610ecc57565b6060906003190112610ecc576001600160a01b03906004358281168103610ecc57916024359081168103610ecc579060443590565b602081019081106001600160401b03821117610f3757604052565b634e487b7160e01b600052604160045260246000fd5b601f909101601f19168101906001600160401b03821190821017610f3757604052565b6001600160401b038111610f3757601f01601f191660200190565b929192610f9782610f70565b91610fa56040519384610f4d565b829481845281830111610ecc578281602093846000960137010152565b600b546001600160a01b03163303610fd657565b606460405162461bcd60e51b815260206004820152602060248201527f4f776e61626c653a2063616c6c6572206973206e6f7420746865206f776e65726044820152fd5b6001600160a01b0316801561103a57600052600360205260406000205490565b60405162461bcd60e51b815260206004820152602960248201527f4552433732313a2061646472657373207a65726f206973206e6f7420612076616044820152683634b21037bbb732b960b91b6064820152608490fd5b1561109857565b60405162461bcd60e51b8152602060048201526018602482015277115490cdcc8c4e881a5b9d985b1a59081d1bdad95b88125160421b6044820152606490fd5b6000908152600260205260409020546001600160a01b03166110fb811515611091565b90565b90600182811c9216801561112e575b602083101461111857565b634e487b7160e01b600052602260045260246000fd5b91607f169161110d565b6111446106148261152d565b6000908152600460205260409020546001600160a01b031690565b1561116657565b60405162461bcd60e51b815260206004820152602d60248201527f4552433732313a2063616c6c6572206973206e6f7420746f6b656e206f776e6560448201526c1c881bdc88185c1c1c9bdd9959609a1b6064820152608490fd5b60809060208152603260208201527f4552433732313a207472616e7366657220746f206e6f6e20455243373231526560408201527131b2b4bb32b91034b6b83632b6b2b73a32b960711b60608201520190565b1561121b57565b60405162461bcd60e51b815280611234600482016111c1565b0390fd5b906001600160a01b03808061124c846110d8565b1693169183831493841561127f575b508315611269575b50505090565b61127591929350611138565b1614388080611263565b909350600052600560205260406000208260005260205260ff60406000205416923861125b565b156112ad57565b60405162461bcd60e51b815260206004820152602560248201527f4552433732313a207472616e736665722066726f6d20696e636f72726563742060448201526437bbb732b960d91b6064820152608490fd5b6113249161130d846110d8565b6001600160a01b03938484169391851684146112a6565b8382169384156114dc57839182611423575060085460008781526009602052604090208190559150600160401b821015610f375761138a92611371876103028560018997016008556116f1565b8286036113f0575b50611383866110d8565b16146112a6565b6000805160206117ae833981519152600084815260046020526040812060018060a01b03199081815416905583825260036020526040822060001981540190558482526040822060018154019055858252600260205284604083209182541617905580a4565b6113f99061101a565b60406000878152600660205281812083825260205288828220558881526007602052205538611379565b858303611435575b5061138a92611371565b61144091925061101a565b6000198101919082116114c65761138a928492600090888252602090600782526040918284205482810361148f575b508a8452838381205586845260068152828420918452528120559261142b565b878552600682528385208386528252838520548886526006835284862082875283528085872055855260078252838520553861146f565b634e487b7160e01b600052601160045260246000fd5b60405162461bcd60e51b8152602060048201526024808201527f4552433732313a207472616e7366657220746f20746865207a65726f206164646044820152637265737360e01b6064820152608490fd5b6000908152600260205260409020546001600160a01b0316151590565b9192600092909190803b1561165c57611598946040518092630a85bd0160e11b9485835233600484015287602484015260448301526080606483015281878160209a8b966084830190610e76565b03926001600160a01b03165af184918161161c575b5061160b575050503d600014611603573d6115c781610f70565b906115d56040519283610f4d565b81528091833d92013e5b805191826116005760405162461bcd60e51b815280611234600482016111c1565b01fd5b5060606115df565b6001600160e01b0319161492509050565b9091508581813d8311611655575b6116348183610f4d565b810103126105eb57516001600160e01b0319811681036105eb5790386115ad565b503d61162a565b5050915050600190565b9293600093909291803b156116e6579484916116c09660405180948193630a85bd0160e11b9788845233600485015260018060a01b0380921660248501526044840152608060648401528260209b8c976084830190610e76565b0393165af184918161161c575061160b575050503d600014611603573d6115c781610f70565b505050915050600190565b60085481101561170c57600860005260206000200190600090565b634e487b7160e01b600052603260045260246000fd5b1561172957565b60405162461bcd60e51b815260206004820152601c60248201527b115490cdcc8c4e881d1bdad95b88185b1c9958591e481b5a5b9d195960221b6044820152606490fdfe17307eab39ab6107e8899845ad3d59bd9653f200f220920489ca2b5937696c318be0079c531659141344cd1fd0a4f28419497f9722a3daafe3b4186f6b6457e0ddf252ad1be2c89b69c2b068fc378daa952ba7f163c4a11628f55a4df523b3efa2646970667358221220b12eabd260b96f359dd0ccbfc2110734e9805ca4b2e2fc69ddfbc6d53b67740164736f6c63430008110033608060405234620003635762001c04803803806200001d8162000368565b9283398101604082820312620003635781516001600160401b0392908381116200036357826200004f9183016200038e565b906020928382015185811162000363576200006b92016200038e565b9281518181116200034d576000938454916001948584811c9416801562000342575b838510146200032e578190601f94858111620002db575b508390858311600114620002775788926200026b575b5050600019600383901b1c191690851b1785555b8551928311620002575783548481811c911680156200024c575b828210146200023857828111620001f0575b50809183116001146200018a57508394829394926200017e575b5050600019600383901b1c191690821b1790555b600b8054336001600160a01b031982168117909255604051926001600160a01b03909116907f8be0079c531659141344cd1fd0a4f28419497f9722a3daafe3b4186f6b6457e09080a36118039081620004018239f35b01519050388062000114565b90601f198316958486528286209286905b888210620001d85750508385969710620001be575b505050811b01905562000128565b015160001960f88460031b161c19169055388080620001b0565b8087859682949686015181550195019301906200019b565b8486528186208380860160051c8201928487106200022e575b0160051c019085905b82811062000222575050620000fa565b87815501859062000212565b9250819262000209565b634e487b7160e01b86526022600452602486fd5b90607f1690620000e8565b634e487b7160e01b85526041600452602485fd5b015190503880620000ba565b8880528489208894509190601f1984168a5b87828210620002c45750508411620002aa575b505050811b018555620000ce565b015160001960f88460031b161c191690553880806200029c565b8385015186558b9790950194938401930162000289565b9091508780528388208580850160051c82019286861062000324575b918991869594930160051c01915b82811062000315575050620000a4565b8a815585945089910162000305565b92508192620002f7565b634e487b7160e01b87526022600452602487fd5b93607f16936200008d565b634e487b7160e01b600052604160045260246000fd5b600080fd5b6040519190601f01601f191682016001600160401b038111838210176200034d57604052565b919080601f84011215620003635782516001600160401b0381116200034d57602090620003c4601f8201601f1916830162000368565b92818452828287010111620003635760005b818110620003ec57508260009394955001015290565b8581018301518482018401528201620003d656fe6080604081815260048036101561001557600080fd5b600092833560e01c9081629a9b7b14610e5a5750806301ffc9a714610dd057806306fdde0314610d49578063081812fc14610d29578063095ea7b314610bbc57806318160ddd14610b9d57806323b872dd14610b785780632f745c5914610acc57806342842e0e14610a985780634f6ccce714610a055780636352211e146109d457806370a08231146109a7578063715018a61461095c57806373ad6c2d146109175780638da5cb5b146108ee57806395d89b411461082c578063a22cb46514610777578063b88d4fde146106ee578063c87b56dd146105f2578063d204c45e1461021c578063e985e9c5146101ca5763f2fde38b1461011457600080fd5b346101c65760203660031901126101c65761012d610eb6565b90610136610fc2565b6001600160a01b03918216928315610174575050600b80546001600160a01b0319811684179091551660008051602061178e8339815191528380a380f35b906020608492519162461bcd60e51b8352820152602660248201527f4f776e61626c653a206e6577206f776e657220697320746865207a65726f206160448201526564647265737360d01b6064820152fd5b8280fd5b50503461021857806003193601126102185760ff816020936101ea610eb6565b6101f2610ed1565b6001600160a01b0391821683526005875283832091168252855220549151911615158152f35b5080fd5b5082346105ef57826003193601126105ef57610236610eb6565b926024926001600160401b039184358381116105eb57366023820112156105eb5761026990369087818601359101610f8b565b91610272610fc2565b60019283600c54019081600c5583519561028b87610f1c565b8787526001600160a01b038a81169790939088156105a957600998999a9b6102bb6102b58461152d565b15611722565b600854838d5260209a8b52888d20819055600160401b81101561059757918361038f928e9f9e8e83918f8f908f9160029261031d876103028e6103949f86016008556116f1565b90919082549060031b600019811b9283911b16911916179055565b6103268861101a565b868652600684528186208187528452878287205587865260078452818620556103516102b58861152d565b85855260038352842080549091019055848352528d812080546001600160a01b031916831790556000805160206117ae8339815191528180a461154a565b611214565b61039d8161152d565b1561053e578a52600a8752848a2091805191821161052c5781906103c184546110fe565b601f81116104dc575b508890601f831160011461047d578c92610472575b5050600019600383901b1c191690861b1790555b600d541695868614610436575050838652600583528086208587528352808620805460ff1916831790555190815260008051602061176e8339815191529190a380f35b60199085606494519362461bcd60e51b85528401528201527822a9219b99189d1030b8383937bb32903a379031b0b63632b960391b6044820152fd5b015190508b806103df565b848d52898d208994509190601f1984168e5b8c8282106104c657505084116104ad575b505050811b0190556103f3565b015160001960f88460031b161c191690558b80806104a0565b8385015186558c9790950194938401930161048f565b909150838c52888c20601f840160051c8101918a8510610522575b84939291601f8b920160051c01915b8281106105145750506103ca565b8e81558594508a9101610506565b90915081906104f7565b634e487b7160e01b8b5260418552898bfd5b855162461bcd60e51b8152808601899052602e818c01527f45524337323155524953746f726167653a2055524920736574206f66206e6f6e60448201526d32bc34b9ba32b73a103a37b5b2b760911b6064820152608490fd5b634e487b7160e01b8d52604188528d8dfd5b865162461bcd60e51b81526020818801819052818d01527f4552433732313a206d696e7420746f20746865207a65726f20616464726573736044820152606490fd5b8480fd5b80fd5b5090346101c657602091826003193601126106ea57356106196106148261152d565b611091565b8352600a8252808320928151809482908054610634816110fe565b918285526001918883821691826000146106c3575050600114610685575b505050610681939291610666910386610f4d565b815161067181610f1c565b5251928284938452830190610e76565b0390f35b8552868520879350859291905b8284106106ab5750505082010181610666610681610652565b8054848b018601528995508894909301928101610692565b60ff19168782015293151560051b8601909301935084925061066691506106819050610652565b8380fd5b83823461021857608036600319011261021857610709610eb6565b90610712610ed1565b6064359290604435906001600160401b03851161077357366023860112156107735761074d61038f9486602461077098369301359101610f8b565b9261076061075b8433611238565b61115f565b61076b838383611300565b611666565b80f35b8580fd5b5090346101c657806003193601126101c657610791610eb6565b90602435918215158093036105eb576001600160a01b0316923384146107ee5750338452600560205280842083855260205280842060ff1981541660ff84161790555190815260008051602061176e83398151915260203392a380f35b6020606492519162461bcd60e51b8352820152601960248201527822a9219b99189d1030b8383937bb32903a379031b0b63632b960391b6044820152fd5b505034610218578160031936011261021857805190826001805490610850826110fe565b808652918181169081156108c6575060011461088b575b50505061087982610681940383610f4d565b51918291602083526020830190610e76565b80955082526020948583205b8284106108b35750505082610681946108799282010194610867565b8054868501880152928601928101610897565b61068197506108799450602092508693915060ff191682840152151560051b82010194610867565b505034610218578160031936011261021857600b5490516001600160a01b039091168152602090f35b83346105ef5760203660031901126105ef57610931610eb6565b610939610fc2565b600d80546001600160a01b0319166001600160a01b039290921691909117905580f35b83346105ef57806003193601126105ef57610975610fc2565b600b80546001600160a01b0319811690915581906001600160a01b031660008051602061178e8339815191528280a380f35b505034610218576020366003190112610218576020906109cd6109c8610eb6565b61101a565b9051908152f35b5091346105ef5760203660031901126105ef57506109f4602092356110d8565b90516001600160a01b039091168152f35b5082346105ef5760203660031901126105ef5750803590600854821015610a4057602083610a32846116f1565b91905490519160031b1c8152f35b608490602084519162461bcd60e51b8352820152602c60248201527f455243373231456e756d657261626c653a20676c6f62616c20696e646578206f60448201526b7574206f6620626f756e647360a01b6064820152fd5b5050346102185761038f61077091610aaf36610ee7565b91925192610abc84610f1c565b86845261076061075b8433611238565b5091346105ef57816003193601126105ef57610ae6610eb6565b60243590610af38161101a565b821015610b21576001600160a01b031682526006602090815283832091835290815290829020548251908152f35b835162461bcd60e51b8152602081870152602b60248201527f455243373231456e756d657261626c653a206f776e657220696e646578206f7560448201526a74206f6620626f756e647360a81b6064820152608490fd5b83346105ef57610770610b8a36610ee7565b91610b9861075b8433611238565b611300565b5050346102185781600319360112610218576020906008549051908152f35b50346101c657816003193601126101c657610bd5610eb6565b6024359290916001600160a01b0391908280610bf0876110d8565b16941693808514610cdc57803314908115610cbd575b5015610c5557848652602052842080546001600160a01b03191683179055610c2d836110d8565b167f8c5be1e5ebec7d5bd14f71427d1e84f3dd0314c0f7b2291e5b200ac8c7c3b9258480a480f35b6020608492519162461bcd60e51b8352820152603d60248201527f4552433732313a20617070726f76652063616c6c6572206973206e6f7420746f60448201527f6b656e206f776e6572206f7220617070726f76656420666f7220616c6c0000006064820152fd5b90508652600560205281862033875260205260ff828720541638610c06565b506020608492519162461bcd60e51b8352820152602160248201527f4552433732313a20617070726f76616c20746f2063757272656e74206f776e656044820152603960f91b6064820152fd5b5091346105ef5760203660031901126105ef57506109f460209235611138565b505034610218578160031936011261021857805190828054610d6a816110fe565b808552906001908181169081156108c65750600114610d955750505061087982610681940383610f4d565b94508180526020948583205b828410610dbd5750505082610681946108799282010194610867565b8054868501880152928601928101610da1565b50346101c65760203660031901126101c657359063ffffffff60e01b82168092036101c6576020925063780e9d6360e01b8214918215610e14575b50519015158152f35b9091506380ac58cd60e01b8114908115610e49575b8115610e38575b509038610e0b565b6301ffc9a760e01b14905038610e30565b635b5e139f60e01b81149150610e29565b849034610218578160031936011261021857602090600c548152f35b919082519283825260005b848110610ea2575050826000602080949584010152601f8019910116010190565b602081830181015184830182015201610e81565b600435906001600160a01b0382168203610ecc57565b600080fd5b602435906001600160a01b0382168203610ecc57565b6060906003190112610ecc576001600160a01b03906004358281168103610ecc57916024359081168103610ecc579060443590565b602081019081106001600160401b03821117610f3757604052565b634e487b7160e01b600052604160045260246000fd5b601f909101601f19168101906001600160401b03821190821017610f3757604052565b6001600160401b038111610f3757601f01601f191660200190565b929192610f9782610f70565b91610fa56040519384610f4d565b829481845281830111610ecc578281602093846000960137010152565b600b546001600160a01b03163303610fd657565b606460405162461bcd60e51b815260206004820152602060248201527f4f776e61626c653a2063616c6c6572206973206e6f7420746865206f776e65726044820152fd5b6001600160a01b0316801561103a57600052600360205260406000205490565b60405162461bcd60e51b815260206004820152602960248201527f4552433732313a2061646472657373207a65726f206973206e6f7420612076616044820152683634b21037bbb732b960b91b6064820152608490fd5b1561109857565b60405162461bcd60e51b8152602060048201526018602482015277115490cdcc8c4e881a5b9d985b1a59081d1bdad95b88125160421b6044820152606490fd5b6000908152600260205260409020546001600160a01b03166110fb811515611091565b90565b90600182811c9216801561112e575b602083101461111857565b634e487b7160e01b600052602260045260246000fd5b91607f169161110d565b6111446106148261152d565b6000908152600460205260409020546001600160a01b031690565b1561116657565b60405162461bcd60e51b815260206004820152602d60248201527f4552433732313a2063616c6c6572206973206e6f7420746f6b656e206f776e6560448201526c1c881bdc88185c1c1c9bdd9959609a1b6064820152608490fd5b60809060208152603260208201527f4552433732313a207472616e7366657220746f206e6f6e20455243373231526560408201527131b2b4bb32b91034b6b83632b6b2b73a32b960711b60608201520190565b1561121b57565b60405162461bcd60e51b815280611234600482016111c1565b0390fd5b906001600160a01b03808061124c846110d8565b1693169183831493841561127f575b508315611269575b50505090565b61127591929350611138565b1614388080611263565b909350600052600560205260406000208260005260205260ff60406000205416923861125b565b156112ad57565b60405162461bcd60e51b815260206004820152602560248201527f4552433732313a207472616e736665722066726f6d20696e636f72726563742060448201526437bbb732b960d91b6064820152608490fd5b6113249161130d846110d8565b6001600160a01b03938484169391851684146112a6565b8382169384156114dc57839182611423575060085460008781526009602052604090208190559150600160401b821015610f375761138a92611371876103028560018997016008556116f1565b8286036113f0575b50611383866110d8565b16146112a6565b6000805160206117ae833981519152600084815260046020526040812060018060a01b03199081815416905583825260036020526040822060001981540190558482526040822060018154019055858252600260205284604083209182541617905580a4565b6113f99061101a565b60406000878152600660205281812083825260205288828220558881526007602052205538611379565b858303611435575b5061138a92611371565b61144091925061101a565b6000198101919082116114c65761138a928492600090888252602090600782526040918284205482810361148f575b508a8452838381205586845260068152828420918452528120559261142b565b878552600682528385208386528252838520548886526006835284862082875283528085872055855260078252838520553861146f565b634e487b7160e01b600052601160045260246000fd5b60405162461bcd60e51b8152602060048201526024808201527f4552433732313a207472616e7366657220746f20746865207a65726f206164646044820152637265737360e01b6064820152608490fd5b6000908152600260205260409020546001600160a01b0316151590565b9192600092909190803b1561165c57611598946040518092630a85bd0160e11b9485835233600484015287602484015260448301526080606483015281878160209a8b966084830190610e76565b03926001600160a01b03165af184918161161c575b5061160b575050503d600014611603573d6115c781610f70565b906115d56040519283610f4d565b81528091833d92013e5b805191826116005760405162461bcd60e51b815280611234600482016111c1565b01fd5b5060606115df565b6001600160e01b0319161492509050565b9091508581813d8311611655575b6116348183610f4d565b810103126105eb57516001600160e01b0319811681036105eb5790386115ad565b503d61162a565b5050915050600190565b9293600093909291803b156116e6579484916116c09660405180948193630a85bd0160e11b9788845233600485015260018060a01b0380921660248501526044840152608060648401528260209b8c976084830190610e76565b0393165af184918161161c575061160b575050503d600014611603573d6115c781610f70565b505050915050600190565b60085481101561170c57600860005260206000200190600090565b634e487b7160e01b600052603260045260246000fd5b1561172957565b60405162461bcd60e51b815260206004820152601c60248201527b115490cdcc8c4e881d1bdad95b88185b1c9958591e481b5a5b9d195960221b6044820152606490fdfe17307eab39ab6107e8899845ad3d59bd9653f200f220920489ca2b5937696c318be0079c531659141344cd1fd0a4f28419497f9722a3daafe3b4186f6b6457e0ddf252ad1be2c89b69c2b068fc378daa952ba7f163c4a11628f55a4df523b3efa2646970667358221220b12eabd260b96f359dd0ccbfc2110734e9805ca4b2e2fc69ddfbc6d53b67740164736f6c6343000811003386edab837edec9b099eb0aa474d221a1b69172248fcca83c120f72e6f35723818be0079c531659141344cd1fd0a4f28419497f9722a3daafe3b4186f6b6457e0a264697066735822122030f393dd7d824d7bdb090bff53b69822a67560da235c91c162e93c6c5ff466b264736f6c63430008110033",
  "linkReferences": {},
  "deployedLinkReferences": {}
}