{
  "_format": "hh-sol-artifact-1",
  "contractName": "NftLottery",
  "sourceName": "contracts/NftLottery.sol",
  "abi": [
    {
      "anonymous": false,
      "inputs": [
        {
          "indexed": true,
          "internalType": "address",
          "name": "claimer",
          "type": "address"
        },
        {
          "indexed": true,
          "internalType": "address",
          "name": "organizer",
          "type": "address"
        },
        {
          "indexed": true,
          "internalType": "uint256",
          "name": "activityId",
          "type": "uint256"
        },
        {
          "indexed": false,
          "internalType": "uint256",
          "name": "tokenId",
          "type": "uint256"
        }
      ],
      "name": "Claimed",
      "type": "event"
    },
    {
      "anonymous": false,
      "inputs": [
        {
          "indexed": true,
          "internalType": "address",
          "name": "organizer",
          "type": "address"
        },
        {
          "indexed": true,
          "internalType": "uint256",
          "name": "activityId",
          "type": "uint256"
        },
        {
          "indexed": false,
          "internalType": "address",
          "name": "nftContractAddress",
          "type": "address"
        },
        {
          "indexed": false,
          "internalType": "uint256[]",
          "name": "tokenIds",
          "type": "uint256[]"
        },
        {
          "indexed": true,
          "internalType": "uint256",
          "name": "endBlockNumber",
          "type": "uint256"
        }
      ],
      "name": "CreateActivity",
      "type": "event"
    },
    {
      "anonymous": false,
      "inputs": [
        {
          "indexed": false,
          "internalType": "uint8",
          "name": "version",
          "type": "uint8"
        }
      ],
      "name": "Initialized",
      "type": "event"
    },
    {
      "anonymous": false,
      "inputs": [
        {
          "indexed": true,
          "internalType": "uint256",
          "name": "activityId",
          "type": "uint256"
        },
        {
          "indexed": false,
          "internalType": "bytes32",
          "name": "merkleRoot",
          "type": "bytes32"
        }
      ],
      "name": "MerkleRoot",
      "type": "event"
    },
    {
      "anonymous": false,
      "inputs": [
        {
          "indexed": true,
          "internalType": "address",
          "name": "previousOwner",
          "type": "address"
        },
        {
          "indexed": true,
          "internalType": "address",
          "name": "newOwner",
          "type": "address"
        }
      ],
      "name": "OwnershipTransferStarted",
      "type": "event"
    },
    {
      "anonymous": false,
      "inputs": [
        {
          "indexed": true,
          "internalType": "address",
          "name": "previousOwner",
          "type": "address"
        },
        {
          "indexed": true,
          "internalType": "address",
          "name": "newOwner",
          "type": "address"
        }
      ],
      "name": "OwnershipTransferred",
      "type": "event"
    },
    {
      "anonymous": false,
      "inputs": [
        {
          "indexed": true,
          "internalType": "address",
          "name": "organizer",
          "type": "address"
        },
        {
          "indexed": true,
          "internalType": "uint256",
          "name": "activityId",
          "type": "uint256"
        }
      ],
      "name": "WithdrawPrize",
      "type": "event"
    },
    {
      "inputs": [],
      "name": "acceptOwnership",
      "outputs": [],
      "stateMutability": "nonpayable",
      "type": "function"
    },
    {
      "inputs": [
        {
          "internalType": "bytes32",
          "name": "",
          "type": "bytes32"
        }
      ],
      "name": "acitivityExist",
      "outputs": [
        {
          "internalType": "bool",
          "name": "",
          "type": "bool"
        }
      ],
      "stateMutability": "view",
      "type": "function"
    },
    {
      "inputs": [
        {
          "internalType": "bytes32",
          "name": "",
          "type": "bytes32"
        },
        {
          "internalType": "uint256",
          "name": "",
          "type": "uint256"
        }
      ],
      "name": "acitivityPrizeTokenIds",
      "outputs": [
        {
          "internalType": "uint256",
          "name": "",
          "type": "uint256"
        }
      ],
      "stateMutability": "view",
      "type": "function"
    },
    {
      "inputs": [
        {
          "internalType": "address",
          "name": "_organizer",
          "type": "address"
        },
        {
          "internalType": "uint256",
          "name": "_activityId",
          "type": "uint256"
        },
        {
          "internalType": "bytes32[]",
          "name": "merkleProof",
          "type": "bytes32[]"
        }
      ],
      "name": "checkWhitelist",
      "outputs": [
        {
          "internalType": "bool",
          "name": "",
          "type": "bool"
        }
      ],
      "stateMutability": "view",
      "type": "function"
    },
    {
      "inputs": [
        {
          "internalType": "address",
          "name": "_organizer",
          "type": "address"
        },
        {
          "internalType": "uint256",
          "name": "_activityId",
          "type": "uint256"
        },
        {
          "internalType": "address",
          "name": "_nftContract",
          "type": "address"
        },
        {
          "internalType": "uint256",
          "name": "_tokenId",
          "type": "uint256"
        },
        {
          "internalType": "bytes32[]",
          "name": "merkleProof",
          "type": "bytes32[]"
        }
      ],
      "name": "claim",
      "outputs": [],
      "stateMutability": "nonpayable",
      "type": "function"
    },
    {
      "inputs": [
        {
          "internalType": "address",
          "name": "_nftContractAddress",
          "type": "address"
        },
        {
          "internalType": "uint256",
          "name": "_endBlockNumber",
          "type": "uint256"
        },
        {
          "internalType": "uint256",
          "name": "_activityId",
          "type": "uint256"
        },
        {
          "internalType": "uint256[]",
          "name": "_tokenIds",
          "type": "uint256[]"
        }
      ],
      "name": "createActivity",
      "outputs": [],
      "stateMutability": "nonpayable",
      "type": "function"
    },
    {
      "inputs": [
        {
          "internalType": "address",
          "name": "_organizer",
          "type": "address"
        },
        {
          "internalType": "uint256",
          "name": "_activityId",
          "type": "uint256"
        },
        {
          "internalType": "address",
          "name": "_nftContractAddress",
          "type": "address"
        }
      ],
      "name": "emergencyWithdraw",
      "outputs": [],
      "stateMutability": "nonpayable",
      "type": "function"
    },
    {
      "inputs": [
        {
          "internalType": "address",
          "name": "_organizer",
          "type": "address"
        },
        {
          "internalType": "uint256",
          "name": "_activityId",
          "type": "uint256"
        }
      ],
      "name": "getActivityInfo",
      "outputs": [
        {
          "components": [
            {
              "internalType": "address",
              "name": "organizer",
              "type": "address"
            },
            {
              "internalType": "uint256",
              "name": "activityId",
              "type": "uint256"
            },
            {
              "internalType": "address",
              "name": "nftContractAddress",
              "type": "address"
            },
            {
              "internalType": "uint256[]",
              "name": "tokenIds",
              "type": "uint256[]"
            },
            {
              "internalType": "uint256",
              "name": "endBlockNumber",
              "type": "uint256"
            },
            {
              "internalType": "bytes32",
              "name": "merkleRoot",
              "type": "bytes32"
            }
          ],
          "internalType": "struct NftLottery.ActivityInfo",
          "name": "",
          "type": "tuple"
        }
      ],
      "stateMutability": "view",
      "type": "function"
    },
    {
      "inputs": [
        {
          "internalType": "address",
          "name": "_organizer",
          "type": "address"
        },
        {
          "internalType": "uint256",
          "name": "_activityId",
          "type": "uint256"
        }
      ],
      "name": "getRemainingTokenIds",
      "outputs": [
        {
          "internalType": "uint256[]",
          "name": "",
          "type": "uint256[]"
        }
      ],
      "stateMutability": "view",
      "type": "function"
    },
    {
      "inputs": [
        {
          "internalType": "address",
          "name": "_user",
          "type": "address"
        },
        {
          "internalType": "address",
          "name": "_organizer",
          "type": "address"
        },
        {
          "internalType": "uint256",
          "name": "_activityId",
          "type": "uint256"
        }
      ],
      "name": "getUserHasClaimed",
      "outputs": [
        {
          "internalType": "bool",
          "name": "",
          "type": "bool"
        }
      ],
      "stateMutability": "view",
      "type": "function"
    },
    {
      "inputs": [
        {
          "internalType": "bytes32",
          "name": "",
          "type": "bytes32"
        }
      ],
      "name": "hasClaimed",
      "outputs": [
        {
          "internalType": "bool",
          "name": "",
          "type": "bool"
        }
      ],
      "stateMutability": "view",
      "type": "function"
    },
    {
      "inputs": [],
      "name": "initialize",
      "outputs": [],
      "stateMutability": "nonpayable",
      "type": "function"
    },
    {
      "inputs": [
        {
          "internalType": "address",
          "name": "operator",
          "type": "address"
        },
        {
          "internalType": "address",
          "name": "from",
          "type": "address"
        },
        {
          "internalType": "uint256",
          "name": "tokenId",
          "type": "uint256"
        },
        {
          "internalType": "bytes",
          "name": "data",
          "type": "bytes"
        }
      ],
      "name": "onERC721Received",
      "outputs": [
        {
          "internalType": "bytes4",
          "name": "",
          "type": "bytes4"
        }
      ],
      "stateMutability": "nonpayable",
      "type": "function"
    },
    {
      "inputs": [
        {
          "internalType": "bytes32",
          "name": "",
          "type": "bytes32"
        }
      ],
      "name": "organizerActivityInfo",
      "outputs": [
        {
          "internalType": "address",
          "name": "organizer",
          "type": "address"
        },
        {
          "internalType": "uint256",
          "name": "activityId",
          "type": "uint256"
        },
        {
          "internalType": "address",
          "name": "nftContractAddress",
          "type": "address"
        },
        {
          "internalType": "uint256",
          "name": "endBlockNumber",
          "type": "uint256"
        },
        {
          "internalType": "bytes32",
          "name": "merkleRoot",
          "type": "bytes32"
        }
      ],
      "stateMutability": "view",
      "type": "function"
    },
    {
      "inputs": [],
      "name": "owner",
      "outputs": [
        {
          "internalType": "address",
          "name": "",
          "type": "address"
        }
      ],
      "stateMutability": "view",
      "type": "function"
    },
    {
      "inputs": [],
      "name": "pendingOwner",
      "outputs": [
        {
          "internalType": "address",
          "name": "",
          "type": "address"
        }
      ],
      "stateMutability": "view",
      "type": "function"
    },
    {
      "inputs": [],
      "name": "renounceOwnership",
      "outputs": [],
      "stateMutability": "nonpayable",
      "type": "function"
    },
    {
      "inputs": [
        {
          "internalType": "uint256",
          "name": "_activityId",
          "type": "uint256"
        },
        {
          "internalType": "bytes32",
          "name": "_merkleRoot",
          "type": "bytes32"
        }
      ],
      "name": "setMerkleRoot",
      "outputs": [],
      "stateMutability": "nonpayable",
      "type": "function"
    },
    {
      "inputs": [
        {
          "internalType": "address",
          "name": "newOwner",
          "type": "address"
        }
      ],
      "name": "transferOwnership",
      "outputs": [],
      "stateMutability": "nonpayable",
      "type": "function"
    },
    {
      "inputs": [
        {
          "internalType": "uint256",
          "name": "_activityId",
          "type": "uint256"
        }
      ],
      "name": "withdrawPrize",
      "outputs": [],
      "stateMutability": "nonpayable",
      "type": "function"
    }
  ],
  "bytecode": "0x608060405234801561001057600080fd5b5061383f806100206000396000f3fe608060405234801561001057600080fd5b506004361061012c5760003560e01c80637ab4d0fd116100ad578063c20eec7b11610071578063c20eec7b1461032d578063e0f4b54e14610349578063e30c397814610379578063f2fde38b14610397578063f9b70fea146103b35761012c565b80637ab4d0fd146102895780637c6fa74a146102a55780638129fc1c146102d55780638da5cb5b146102df578063a894c457146102fd5761012c565b8063551512de116100f4578063551512de146101f95780636c40ad70146102155780636f1ef68814610245578063715018a61461027557806379ba50971461027f5761012c565b806312d18ed614610131578063150b7a021461014d578063183d506d1461017d57806318712c21146101ad5780634b4e5be7146101c9575b600080fd5b61014b60048036038101906101469190612528565b6103e7565b005b61016760048036038101906101629190612618565b610959565b60405161017491906126db565b60405180910390f35b6101976004803603810190610192919061272c565b610987565b6040516101a49190612774565b60405180910390f35b6101c760048036038101906101c2919061278f565b6109a7565b005b6101e360048036038101906101de91906127cf565b610baf565b6040516101f0919061281e565b60405180910390f35b610213600480360381019061020e9190612839565b610be0565b005b61022f600480360381019061022a919061288c565b610dee565b60405161023c9190612a31565b60405180910390f35b61025f600480360381019061025a9190612a53565b610f7c565b60405161026c9190612774565b60405180910390f35b61027d611001565b005b610287611015565b005b6102a3600480360381019061029e9190612afc565b6110a2565b005b6102bf60048036038101906102ba9190612b84565b61145e565b6040516102cc9190612774565b60405180910390f35b6102dd611712565b005b6102e7611850565b6040516102f49190612c07565b60405180910390f35b6103176004803603810190610312919061272c565b61187a565b6040516103249190612774565b60405180910390f35b61034760048036038101906103429190612c22565b61189a565b005b610363600480360381019061035e919061288c565b611c57565b6040516103709190612cbe565b60405180910390f35b610381611d01565b60405161038e9190612c07565b60405180910390f35b6103b160048036038101906103ac9190612ce0565b611d2b565b005b6103cd60048036038101906103c8919061272c565b611dd8565b6040516103de959493929190612d1c565b60405180910390f35b600060405180604001604052808873ffffffffffffffffffffffffffffffffffffffff168152602001878152509050600060405180606001604052803373ffffffffffffffffffffffffffffffffffffffff1681526020018973ffffffffffffffffffffffffffffffffffffffff168152602001888152509050600061046c83611e4e565b9050600061047983611e88565b9050600115156104898b8b611ec8565b1515146104cb576040517f08c379a00000000000000000000000000000000000000000000000000000000081526004016104c290612dcc565b60405180910390fd5b6000609760008481526020019081526020016000206040518060c00160405290816000820160009054906101000a900473ffffffffffffffffffffffffffffffffffffffff1673ffffffffffffffffffffffffffffffffffffffff1673ffffffffffffffffffffffffffffffffffffffff168152602001600182015481526020016002820160009054906101000a900473ffffffffffffffffffffffffffffffffffffffff1673ffffffffffffffffffffffffffffffffffffffff1673ffffffffffffffffffffffffffffffffffffffff168152602001600382018054806020026020016040519081016040528092919081815260200182805480156105f057602002820191906000526020600020905b8154815260200190600101908083116105dc575b5050505050815260200160048201548152602001600582015481525050905080608001514310610655576040517f08c379a000000000000000000000000000000000000000000000000000000000815260040161064c90612e38565b60405180910390fd5b600015156099600084815260200190815260200160002060009054906101000a900460ff161515146106bc576040517f08c379a00000000000000000000000000000000000000000000000000000000081526004016106b390612ea4565b60405180910390fd5b610732878780806020026020016040519081016040528093929190818152602001838360200280828437600081840152601f19601f820116905080830192505050505050508260a00151336040516020016107179190612f0c565b60405160208183030381529060405280519060200120611f30565b610771576040517f08c379a000000000000000000000000000000000000000000000000000000000815260040161076890612f73565b60405180910390fd5b8873ffffffffffffffffffffffffffffffffffffffff166342842e0e30338b6040518463ffffffff1660e01b81526004016107ae93929190612f93565b600060405180830381600087803b1580156107c857600080fd5b505af11580156107dc573d6000803e3d6000fd5b5050505060016099600084815260200190815260200160002060006101000a81548160ff0219169083151502179055506000609a6000858152602001908152602001600020905060005b81805490508110156108e4578982828154811061084657610845612fca565b5b9060005260206000200154036108d15781600183805490506108689190613028565b8154811061087957610878612fca565b5b906000526020600020015482828154811061089757610896612fca565b5b9060005260206000200181905550818054806108b6576108b561305c565b5b600190038181906000526020600020016000905590556108e4565b80806108dc9061308b565b915050610826565b508a8c73ffffffffffffffffffffffffffffffffffffffff163373ffffffffffffffffffffffffffffffffffffffff167f2f6639d24651730c7bf57c95ddbf96d66d11477e4ec626876f92c22e5f365e688c604051610943919061281e565b60405180910390a4505050505050505050505050565b60007f150b7a023d4804d13e8c85fb27262cb750cf6ba9f9dd3bb30d90f482ceeb4b1f905095945050505050565b60986020528060005260406000206000915054906101000a900460ff1681565b6000801b81036109ec576040517f08c379a00000000000000000000000000000000000000000000000000000000081526004016109e39061311f565b60405180910390fd5b600115156109fa3384611ec8565b151514610a3c576040517f08c379a0000000000000000000000000000000000000000000000000000000008152600401610a3390612dcc565b60405180910390fd5b600060405180604001604052803373ffffffffffffffffffffffffffffffffffffffff1681526020018481525090506000610a7682611e4e565b905060006097600083815260200190815260200160002090503373ffffffffffffffffffffffffffffffffffffffff168160000160009054906101000a900473ffffffffffffffffffffffffffffffffffffffff1673ffffffffffffffffffffffffffffffffffffffff1614610b21576040517f08c379a0000000000000000000000000000000000000000000000000000000008152600401610b18906131b1565b60405180910390fd5b43816004015411610b67576040517f08c379a0000000000000000000000000000000000000000000000000000000008152600401610b5e90612e38565b60405180910390fd5b838160050181905550847f48211a20c285b6b077b7917b8bb118eaa92efdfb8fa2e3b114ffa253e0b665ae85604051610ba091906131d1565b60405180910390a25050505050565b609a6020528160005260406000208181548110610bcb57600080fd5b90600052602060002001600091509150505481565b610be8611f47565b600060405180604001604052808573ffffffffffffffffffffffffffffffffffffffff1681526020018481525090506000610c2282611e4e565b905060011515610c328686611ec8565b151514610c74576040517f08c379a0000000000000000000000000000000000000000000000000000000008152600401610c6b90612dcc565b60405180910390fd5b6000609a6000838152602001908152602001600020805480602002602001604051908101604052809291908181526020018280548015610cd357602002820191906000526020600020905b815481526020019060010190808311610cbf575b505050505090506000815111610d1e576040517f08c379a0000000000000000000000000000000000000000000000000000000008152600401610d1590613238565b60405180910390fd5b60005b8151811015610dc6578473ffffffffffffffffffffffffffffffffffffffff166342842e0e3089858581518110610d5b57610d5a612fca565b5b60200260200101516040518463ffffffff1660e01b8152600401610d8193929190612f93565b600060405180830381600087803b158015610d9b57600080fd5b505af1158015610daf573d6000803e3d6000fd5b505050508080610dbe9061308b565b915050610d21565b50609a60008381526020019081526020016000206000610de691906122e8565b505050505050565b610df6612309565b600060405180604001604052808573ffffffffffffffffffffffffffffffffffffffff1681526020018481525090506000610e3082611e4e565b9050609760008281526020019081526020016000206040518060c00160405290816000820160009054906101000a900473ffffffffffffffffffffffffffffffffffffffff1673ffffffffffffffffffffffffffffffffffffffff1673ffffffffffffffffffffffffffffffffffffffff168152602001600182015481526020016002820160009054906101000a900473ffffffffffffffffffffffffffffffffffffffff1673ffffffffffffffffffffffffffffffffffffffff1673ffffffffffffffffffffffffffffffffffffffff16815260200160038201805480602002602001604051908101604052809291908181526020018280548015610f5557602002820191906000526020600020905b815481526020019060010190808311610f41575b50505050508152602001600482015481526020016005820154815250509250505092915050565b60008060405180606001604052808673ffffffffffffffffffffffffffffffffffffffff1681526020018573ffffffffffffffffffffffffffffffffffffffff1681526020018481525090506000610fd382611e88565b90506099600082815260200190815260200160002060009054906101000a900460ff16925050509392505050565b611009611f47565b6110136000611fc5565b565b600061101f611ff6565b90508073ffffffffffffffffffffffffffffffffffffffff16611040611d01565b73ffffffffffffffffffffffffffffffffffffffff1614611096576040517f08c379a000000000000000000000000000000000000000000000000000000000815260040161108d906132ca565b60405180910390fd5b61109f81611fc5565b50565b600073ffffffffffffffffffffffffffffffffffffffff168573ffffffffffffffffffffffffffffffffffffffff1603611111576040517f08c379a000000000000000000000000000000000000000000000000000000000815260040161110890613336565b60405180910390fd5b438411611153576040517f08c379a000000000000000000000000000000000000000000000000000000000815260040161114a906133c8565b60405180910390fd5b60008282905011611199576040517f08c379a000000000000000000000000000000000000000000000000000000000815260040161119090613238565b60405180910390fd5b600015156111a73385611ec8565b1515146111e9576040517f08c379a00000000000000000000000000000000000000000000000000000000081526004016111e090613434565b60405180910390fd5b60006040518060c001604052803373ffffffffffffffffffffffffffffffffffffffff1681526020018581526020018773ffffffffffffffffffffffffffffffffffffffff168152602001848480806020026020016040519081016040528093929190818152602001838360200280828437600081840152601f19601f8201169050808301925050505050505081526020018681526020016000801b8152509050611295868484611ffe565b600060405180604001604052803373ffffffffffffffffffffffffffffffffffffffff16815260200186815250905060006112cf82611e4e565b9050826097600083815260200190815260200160002060008201518160000160006101000a81548173ffffffffffffffffffffffffffffffffffffffff021916908373ffffffffffffffffffffffffffffffffffffffff1602179055506020820151816001015560408201518160020160006101000a81548173ffffffffffffffffffffffffffffffffffffffff021916908373ffffffffffffffffffffffffffffffffffffffff160217905550606082015181600301908051906020019061139992919061236e565b506080820151816004015560a082015181600501559050508484609a600084815260200190815260200160002091906113d39291906123bb565b5060016098600083815260200190815260200160002060006101000a81548160ff02191690831515021790555086863373ffffffffffffffffffffffffffffffffffffffff167feece7c57cc04066794eda97475dec1084a86f44d0b254b7fc9f4ec0ae1cb11ed8b898960405161144c939291906134be565b60405180910390a45050505050505050565b60008060405180604001604052808773ffffffffffffffffffffffffffffffffffffffff168152602001868152509050600060405180606001604052803373ffffffffffffffffffffffffffffffffffffffff1681526020018873ffffffffffffffffffffffffffffffffffffffff16815260200187815250905060006114e483611e4e565b905060006114f183611e88565b9050600115156115018a8a611ec8565b151514611543576040517f08c379a000000000000000000000000000000000000000000000000000000000815260040161153a90612dcc565b60405180910390fd5b6000609760008481526020019081526020016000206040518060c00160405290816000820160009054906101000a900473ffffffffffffffffffffffffffffffffffffffff1673ffffffffffffffffffffffffffffffffffffffff1673ffffffffffffffffffffffffffffffffffffffff168152602001600182015481526020016002820160009054906101000a900473ffffffffffffffffffffffffffffffffffffffff1673ffffffffffffffffffffffffffffffffffffffff1673ffffffffffffffffffffffffffffffffffffffff1681526020016003820180548060200260200160405190810160405280929190818152602001828054801561166857602002820191906000526020600020905b815481526020019060010190808311611654575b5050505050815260200160048201548152602001600582015481525050905060006116ff898980806020026020016040519081016040528093929190818152602001838360200280828437600081840152601f19601f820116905080830192505050505050508360a00151336040516020016116e49190612f0c565b60405160208183030381529060405280519060200120611f30565b9050809650505050505050949350505050565b60008060019054906101000a900460ff161590508080156117435750600160008054906101000a900460ff1660ff16105b806117705750611752306120ad565b15801561176f5750600160008054906101000a900460ff1660ff16145b5b6117af576040517f08c379a00000000000000000000000000000000000000000000000000000000081526004016117a690613562565b60405180910390fd5b60016000806101000a81548160ff021916908360ff16021790555080156117ec576001600060016101000a81548160ff0219169083151502179055505b6117f46120d0565b801561184d5760008060016101000a81548160ff0219169083151502179055507f7f26b83ff96e1f2b6a682f133852f6798a09c465da95921460cefb3847402498600160405161184491906135d4565b60405180910390a15b50565b6000603360009054906101000a900473ffffffffffffffffffffffffffffffffffffffff16905090565b60996020528060005260406000206000915054906101000a900460ff1681565b600115156118a83383611ec8565b1515146118ea576040517f08c379a00000000000000000000000000000000000000000000000000000000081526004016118e190612dcc565b60405180910390fd5b600060405180604001604052803373ffffffffffffffffffffffffffffffffffffffff168152602001838152509050600061192482611e4e565b90506000609760008381526020019081526020016000206040518060c00160405290816000820160009054906101000a900473ffffffffffffffffffffffffffffffffffffffff1673ffffffffffffffffffffffffffffffffffffffff1673ffffffffffffffffffffffffffffffffffffffff168152602001600182015481526020016002820160009054906101000a900473ffffffffffffffffffffffffffffffffffffffff1673ffffffffffffffffffffffffffffffffffffffff1673ffffffffffffffffffffffffffffffffffffffff16815260200160038201805480602002602001604051908101604052809291908181526020018280548015611a4b57602002820191906000526020600020905b815481526020019060010190808311611a37575b505050505081526020016004820154815260200160058201548152505090503373ffffffffffffffffffffffffffffffffffffffff16816000015173ffffffffffffffffffffffffffffffffffffffff1614611adc576040517f08c379a0000000000000000000000000000000000000000000000000000000008152600401611ad390613661565b60405180910390fd5b6000609a600084815260200190815260200160002090506000818054905011611b3a576040517f08c379a0000000000000000000000000000000000000000000000000000000008152600401611b3190613238565b60405180910390fd5b60005b8180549050811015611bec57826040015173ffffffffffffffffffffffffffffffffffffffff166342842e0e3033858581548110611b7e57611b7d612fca565b5b90600052602060002001546040518463ffffffff1660e01b8152600401611ba793929190612f93565b600060405180830381600087803b158015611bc157600080fd5b505af1158015611bd5573d6000803e3d6000fd5b505050508080611be49061308b565b915050611b3d565b50609a60008481526020019081526020016000206000611c0c91906122e8565b843373ffffffffffffffffffffffffffffffffffffffff167fa73ef00cf3770008853149621e0eef4bdb15b3215395affcd01b8f60cc58ae2960405160405180910390a35050505050565b6060600060405180604001604052808573ffffffffffffffffffffffffffffffffffffffff1681526020018481525090506000611c9382611e4e565b9050609a6000828152602001908152602001600020805480602002602001604051908101604052809291908181526020018280548015611cf257602002820191906000526020600020905b815481526020019060010190808311611cde575b50505050509250505092915050565b6000606560009054906101000a900473ffffffffffffffffffffffffffffffffffffffff16905090565b611d33611f47565b80606560006101000a81548173ffffffffffffffffffffffffffffffffffffffff021916908373ffffffffffffffffffffffffffffffffffffffff1602179055508073ffffffffffffffffffffffffffffffffffffffff16611d93611850565b73ffffffffffffffffffffffffffffffffffffffff167f38d16b8cac22d99fc7c124b9cd0de2d3fa1faef420bfe791d8c362d765e2270060405160405180910390a350565b60976020528060005260406000206000915090508060000160009054906101000a900473ffffffffffffffffffffffffffffffffffffffff16908060010154908060020160009054906101000a900473ffffffffffffffffffffffffffffffffffffffff16908060040154908060050154905085565b600081600001518260200151604051602001611e6b9291906136a2565b604051602081830303815290604052805190602001209050919050565b6000816000015182602001518360400151604051602001611eab939291906136ce565b604051602081830303815290604052805190602001209050919050565b60008060405180604001604052808573ffffffffffffffffffffffffffffffffffffffff1681526020018481525090506000611f0382611e4e565b90506098600082815260200190815260200160002060009054906101000a900460ff169250505092915050565b600082611f3d8584612129565b1490509392505050565b611f4f611ff6565b73ffffffffffffffffffffffffffffffffffffffff16611f6d611850565b73ffffffffffffffffffffffffffffffffffffffff1614611fc3576040517f08c379a0000000000000000000000000000000000000000000000000000000008152600401611fba90613757565b60405180910390fd5b565b606560006101000a81549073ffffffffffffffffffffffffffffffffffffffff0219169055611ff38161217f565b50565b600033905090565b60005b828290508110156120a7578373ffffffffffffffffffffffffffffffffffffffff166342842e0e333086868681811061203d5761203c612fca565b5b905060200201356040518463ffffffff1660e01b815260040161206293929190612f93565b600060405180830381600087803b15801561207c57600080fd5b505af1158015612090573d6000803e3d6000fd5b50505050808061209f9061308b565b915050612001565b50505050565b6000808273ffffffffffffffffffffffffffffffffffffffff163b119050919050565b600060019054906101000a900460ff1661211f576040517f08c379a0000000000000000000000000000000000000000000000000000000008152600401612116906137e9565b60405180910390fd5b612127612245565b565b60008082905060005b84518110156121745761215f8286838151811061215257612151612fca565b5b60200260200101516122a6565b9150808061216c9061308b565b915050612132565b508091505092915050565b6000603360009054906101000a900473ffffffffffffffffffffffffffffffffffffffff16905081603360006101000a81548173ffffffffffffffffffffffffffffffffffffffff021916908373ffffffffffffffffffffffffffffffffffffffff1602179055508173ffffffffffffffffffffffffffffffffffffffff168173ffffffffffffffffffffffffffffffffffffffff167f8be0079c531659141344cd1fd0a4f28419497f9722a3daafe3b4186f6b6457e060405160405180910390a35050565b600060019054906101000a900460ff16612294576040517f08c379a000000000000000000000000000000000000000000000000000000000815260040161228b906137e9565b60405180910390fd5b6122a461229f611ff6565b611fc5565b565b60008183106122be576122b982846122d1565b6122c9565b6122c883836122d1565b5b905092915050565b600082600052816020526040600020905092915050565b50805460008255906000526020600020908101906123069190612408565b50565b6040518060c00160405280600073ffffffffffffffffffffffffffffffffffffffff16815260200160008152602001600073ffffffffffffffffffffffffffffffffffffffff1681526020016060815260200160008152602001600080191681525090565b8280548282559060005260206000209081019282156123aa579160200282015b828111156123a957825182559160200191906001019061238e565b5b5090506123b79190612408565b5090565b8280548282559060005260206000209081019282156123f7579160200282015b828111156123f65782358255916020019190600101906123db565b5b5090506124049190612408565b5090565b5b80821115612421576000816000905550600101612409565b5090565b600080fd5b600080fd5b600073ffffffffffffffffffffffffffffffffffffffff82169050919050565b600061245a8261242f565b9050919050565b61246a8161244f565b811461247557600080fd5b50565b60008135905061248781612461565b92915050565b6000819050919050565b6124a08161248d565b81146124ab57600080fd5b50565b6000813590506124bd81612497565b92915050565b600080fd5b600080fd5b600080fd5b60008083601f8401126124e8576124e76124c3565b5b8235905067ffffffffffffffff811115612505576125046124c8565b5b602083019150836020820283011115612521576125206124cd565b5b9250929050565b60008060008060008060a0878903121561254557612544612425565b5b600061255389828a01612478565b965050602061256489828a016124ae565b955050604061257589828a01612478565b945050606061258689828a016124ae565b935050608087013567ffffffffffffffff8111156125a7576125a661242a565b5b6125b389828a016124d2565b92509250509295509295509295565b60008083601f8401126125d8576125d76124c3565b5b8235905067ffffffffffffffff8111156125f5576125f46124c8565b5b602083019150836001820283011115612611576126106124cd565b5b9250929050565b60008060008060006080868803121561263457612633612425565b5b600061264288828901612478565b955050602061265388828901612478565b9450506040612664888289016124ae565b935050606086013567ffffffffffffffff8111156126855761268461242a565b5b612691888289016125c2565b92509250509295509295909350565b60007fffffffff0000000000000000000000000000000000000000000000000000000082169050919050565b6126d5816126a0565b82525050565b60006020820190506126f060008301846126cc565b92915050565b6000819050919050565b612709816126f6565b811461271457600080fd5b50565b60008135905061272681612700565b92915050565b60006020828403121561274257612741612425565b5b600061275084828501612717565b91505092915050565b60008115159050919050565b61276e81612759565b82525050565b60006020820190506127896000830184612765565b92915050565b600080604083850312156127a6576127a5612425565b5b60006127b4858286016124ae565b92505060206127c585828601612717565b9150509250929050565b600080604083850312156127e6576127e5612425565b5b60006127f485828601612717565b9250506020612805858286016124ae565b9150509250929050565b6128188161248d565b82525050565b6000602082019050612833600083018461280f565b92915050565b60008060006060848603121561285257612851612425565b5b600061286086828701612478565b9350506020612871868287016124ae565b925050604061288286828701612478565b9150509250925092565b600080604083850312156128a3576128a2612425565b5b60006128b185828601612478565b92505060206128c2858286016124ae565b9150509250929050565b6128d58161244f565b82525050565b6128e48161248d565b82525050565b600081519050919050565b600082825260208201905092915050565b6000819050602082019050919050565b600061292283836128db565b60208301905092915050565b6000602082019050919050565b6000612946826128ea565b61295081856128f5565b935061295b83612906565b8060005b8381101561298c5781516129738882612916565b975061297e8361292e565b92505060018101905061295f565b5085935050505092915050565b6129a2816126f6565b82525050565b600060c0830160008301516129c060008601826128cc565b5060208301516129d360208601826128db565b5060408301516129e660408601826128cc565b50606083015184820360608601526129fe828261293b565b9150506080830151612a1360808601826128db565b5060a0830151612a2660a0860182612999565b508091505092915050565b60006020820190508181036000830152612a4b81846129a8565b905092915050565b600080600060608486031215612a6c57612a6b612425565b5b6000612a7a86828701612478565b9350506020612a8b86828701612478565b9250506040612a9c868287016124ae565b9150509250925092565b60008083601f840112612abc57612abb6124c3565b5b8235905067ffffffffffffffff811115612ad957612ad86124c8565b5b602083019150836020820283011115612af557612af46124cd565b5b9250929050565b600080600080600060808688031215612b1857612b17612425565b5b6000612b2688828901612478565b9550506020612b37888289016124ae565b9450506040612b48888289016124ae565b935050606086013567ffffffffffffffff811115612b6957612b6861242a565b5b612b7588828901612aa6565b92509250509295509295909350565b60008060008060608587031215612b9e57612b9d612425565b5b6000612bac87828801612478565b9450506020612bbd878288016124ae565b935050604085013567ffffffffffffffff811115612bde57612bdd61242a565b5b612bea878288016124d2565b925092505092959194509250565b612c018161244f565b82525050565b6000602082019050612c1c6000830184612bf8565b92915050565b600060208284031215612c3857612c37612425565b5b6000612c46848285016124ae565b91505092915050565b600082825260208201905092915050565b6000612c6b826128ea565b612c758185612c4f565b9350612c8083612906565b8060005b83811015612cb1578151612c988882612916565b9750612ca38361292e565b925050600181019050612c84565b5085935050505092915050565b60006020820190508181036000830152612cd88184612c60565b905092915050565b600060208284031215612cf657612cf5612425565b5b6000612d0484828501612478565b91505092915050565b612d16816126f6565b82525050565b600060a082019050612d316000830188612bf8565b612d3e602083018761280f565b612d4b6040830186612bf8565b612d58606083018561280f565b612d656080830184612d0d565b9695505050505050565b600082825260208201905092915050565b7f20616374697669747920646f6573206e6f742065786973742000000000000000600082015250565b6000612db6601983612d6f565b9150612dc182612d80565b602082019050919050565b60006020820190508181036000830152612de581612da9565b9050919050565b7f206163746976697479206973206f766572200000000000000000000000000000600082015250565b6000612e22601283612d6f565b9150612e2d82612dec565b602082019050919050565b60006020820190508181036000830152612e5181612e15565b9050919050565b7f20796f7572207072697a6520616c726561647920636c61696d65642000000000600082015250565b6000612e8e601c83612d6f565b9150612e9982612e58565b602082019050919050565b60006020820190508181036000830152612ebd81612e81565b9050919050565b60008160601b9050919050565b6000612edc82612ec4565b9050919050565b6000612eee82612ed1565b9050919050565b612f06612f018261244f565b612ee3565b82525050565b6000612f188284612ef5565b60148201915081905092915050565b7f41697264726f703a20496e76616c6964206d65726b6c652070726f6f66000000600082015250565b6000612f5d601d83612d6f565b9150612f6882612f27565b602082019050919050565b60006020820190508181036000830152612f8c81612f50565b9050919050565b6000606082019050612fa86000830186612bf8565b612fb56020830185612bf8565b612fc2604083018461280f565b949350505050565b7f4e487b7100000000000000000000000000000000000000000000000000000000600052603260045260246000fd5b7f4e487b7100000000000000000000000000000000000000000000000000000000600052601160045260246000fd5b60006130338261248d565b915061303e8361248d565b925082820390508181111561305657613055612ff9565b5b92915050565b7f4e487b7100000000000000000000000000000000000000000000000000000000600052603160045260246000fd5b60006130968261248d565b91507fffffffffffffffffffffffffffffffffffffffffffffffffffffffffffffffff82036130c8576130c7612ff9565b5b600182019050919050565b7f206d65726b6c65526f6f74206973206e6f74207a65726f000000000000000000600082015250565b6000613109601783612d6f565b9150613114826130d3565b602082019050919050565b60006020820190508181036000830152613138816130fc565b9050919050565b7f206f6e6c79206f7267616e697a65722063616e20736574206d65726b6c65207260008201527f6f6f742000000000000000000000000000000000000000000000000000000000602082015250565b600061319b602483612d6f565b91506131a68261313f565b604082019050919050565b600060208201905081810360008301526131ca8161318e565b9050919050565b60006020820190506131e66000830184612d0d565b92915050565b7f20746f6b656e4964732073686f756c64206e6f7420626520656d707479200000600082015250565b6000613222601e83612d6f565b915061322d826131ec565b602082019050919050565b6000602082019050818103600083015261325181613215565b9050919050565b7f4f776e61626c6532537465703a2063616c6c6572206973206e6f74207468652060008201527f6e6577206f776e65720000000000000000000000000000000000000000000000602082015250565b60006132b4602983612d6f565b91506132bf82613258565b604082019050919050565b600060208201905081810360008301526132e3816132a7565b9050919050565b7f206e6674436f6e747261637441646472657373206973206e6f74207a65726f00600082015250565b6000613320601f83612d6f565b915061332b826132ea565b602082019050919050565b6000602082019050818103600083015261334f81613313565b9050919050565b7f20656e64426c6f636b4e756d6265722073686f756c642062652067726561746560008201527f72207468616e2063757272656e7420626c6f636b206e756d6265722000000000602082015250565b60006133b2603c83612d6f565b91506133bd82613356565b604082019050919050565b600060208201905081810360008301526133e1816133a5565b9050919050565b7f20616374697669747920616c7265616479206578697374200000000000000000600082015250565b600061341e601883612d6f565b9150613429826133e8565b602082019050919050565b6000602082019050818103600083015261344d81613411565b9050919050565b600080fd5b82818337505050565b600061346e8385612c4f565b93507f07ffffffffffffffffffffffffffffffffffffffffffffffffffffffffffffff8311156134a1576134a0613454565b5b6020830292506134b2838584613459565b82840190509392505050565b60006040820190506134d36000830186612bf8565b81810360208301526134e6818486613462565b9050949350505050565b7f496e697469616c697a61626c653a20636f6e747261637420697320616c72656160008201527f647920696e697469616c697a6564000000000000000000000000000000000000602082015250565b600061354c602e83612d6f565b9150613557826134f0565b604082019050919050565b6000602082019050818103600083015261357b8161353f565b9050919050565b6000819050919050565b600060ff82169050919050565b6000819050919050565b60006135be6135b96135b484613582565b613599565b61358c565b9050919050565b6135ce816135a3565b82525050565b60006020820190506135e960008301846135c5565b92915050565b7f206f6e6c79206f7267616e697a65722063616e2077697468647261772070726960008201527f7a65200000000000000000000000000000000000000000000000000000000000602082015250565b600061364b602383612d6f565b9150613656826135ef565b604082019050919050565b6000602082019050818103600083015261367a8161363e565b9050919050565b6000819050919050565b61369c6136978261248d565b613681565b82525050565b60006136ae8285612ef5565b6014820191506136be828461368b565b6020820191508190509392505050565b60006136da8286612ef5565b6014820191506136ea8285612ef5565b6014820191506136fa828461368b565b602082019150819050949350505050565b7f4f776e61626c653a2063616c6c6572206973206e6f7420746865206f776e6572600082015250565b6000613741602083612d6f565b915061374c8261370b565b602082019050919050565b6000602082019050818103600083015261377081613734565b9050919050565b7f496e697469616c697a61626c653a20636f6e7472616374206973206e6f74206960008201527f6e697469616c697a696e67000000000000000000000000000000000000000000602082015250565b60006137d3602b83612d6f565b91506137de82613777565b604082019050919050565b60006020820190508181036000830152613802816137c6565b905091905056fea2646970667358221220fa9bf14f7da9e0e1900dcdc5426a4cb3c471ba104e2e65c85ff8aa4e48fc6e7564736f6c63430008120033",
  "linkReferences": {},
  "deployedLinkReferences": {}
}