{
  "_format": "hh-sol-artifact-1",
  "contractName": "MixverseSpace",
  "sourceName": "contracts/MixverseSpace.sol",
  "abi": [
    {
      "inputs": [],
      "stateMutability": "nonpayable",
      "type": "constructor"
    },
    {
      "anonymous": false,
      "inputs": [
        {
          "indexed": true,
          "internalType": "address",
          "name": "account",
          "type": "address"
        },
        {
          "indexed": true,
          "internalType": "address",
          "name": "operator",
          "type": "address"
        },
        {
          "indexed": false,
          "internalType": "bool",
          "name": "approved",
          "type": "bool"
        }
      ],
      "name": "ApprovalForAll",
      "type": "event"
    },
    {
      "anonymous": false,
      "inputs": [
        {
          "indexed": true,
          "internalType": "uint256",
          "name": "id",
          "type": "uint256"
        },
        {
          "indexed": false,
          "internalType": "uint256",
          "name": "tokenId",
          "type": "uint256"
        },
        {
          "indexed": false,
          "internalType": "address",
          "name": "collection",
          "type": "address"
        },
        {
          "indexed": false,
          "internalType": "address",
          "name": "owner",
          "type": "address"
        },
        {
          "indexed": false,
          "internalType": "uint256",
          "name": "totalAmount",
          "type": "uint256"
        },
        {
          "indexed": false,
          "internalType": "uint256",
          "name": "amount",
          "type": "uint256"
        },
        {
          "indexed": false,
          "internalType": "uint256",
          "name": "pricePerToken",
          "type": "uint256"
        }
      ],
      "name": "ItemCanceledEvent",
      "type": "event"
    },
    {
      "anonymous": false,
      "inputs": [
        {
          "indexed": true,
          "internalType": "uint256",
          "name": "id",
          "type": "uint256"
        },
        {
          "indexed": false,
          "internalType": "uint256",
          "name": "tokenId",
          "type": "uint256"
        },
        {
          "indexed": false,
          "internalType": "address",
          "name": "collection",
          "type": "address"
        },
        {
          "indexed": false,
          "internalType": "address",
          "name": "owner",
          "type": "address"
        },
        {
          "indexed": false,
          "internalType": "uint256",
          "name": "totalAmount",
          "type": "uint256"
        },
        {
          "indexed": false,
          "internalType": "uint256",
          "name": "pricePerToken",
          "type": "uint256"
        },
        {
          "indexed": false,
          "internalType": "string",
          "name": "uri",
          "type": "string"
        }
      ],
      "name": "ItemListedEvent",
      "type": "event"
    },
    {
      "anonymous": false,
      "inputs": [
        {
          "indexed": true,
          "internalType": "uint256",
          "name": "id",
          "type": "uint256"
        },
        {
          "indexed": false,
          "internalType": "uint256",
          "name": "tokenId",
          "type": "uint256"
        },
        {
          "indexed": false,
          "internalType": "address",
          "name": "collection",
          "type": "address"
        },
        {
          "indexed": false,
          "internalType": "address",
          "name": "owner",
          "type": "address"
        },
        {
          "indexed": false,
          "internalType": "address",
          "name": "buyer",
          "type": "address"
        },
        {
          "indexed": false,
          "internalType": "uint256",
          "name": "totalAmount",
          "type": "uint256"
        },
        {
          "indexed": false,
          "internalType": "uint256",
          "name": "amount",
          "type": "uint256"
        },
        {
          "indexed": false,
          "internalType": "uint256",
          "name": "pricePerToken",
          "type": "uint256"
        }
      ],
      "name": "ItemPurchasedEvent",
      "type": "event"
    },
    {
      "anonymous": false,
      "inputs": [
        {
          "indexed": true,
          "internalType": "uint256",
          "name": "id",
          "type": "uint256"
        },
        {
          "indexed": false,
          "internalType": "uint256",
          "name": "tokenId",
          "type": "uint256"
        },
        {
          "indexed": false,
          "internalType": "address",
          "name": "collection",
          "type": "address"
        },
        {
          "indexed": false,
          "internalType": "address",
          "name": "owner",
          "type": "address"
        },
        {
          "indexed": false,
          "internalType": "uint256",
          "name": "totalAmount",
          "type": "uint256"
        },
        {
          "indexed": false,
          "internalType": "uint256",
          "name": "pricePerToken",
          "type": "uint256"
        }
      ],
      "name": "ItemSoldEvent",
      "type": "event"
    },
    {
      "anonymous": false,
      "inputs": [
        {
          "indexed": true,
          "internalType": "address",
          "name": "previousOwner",
          "type": "address"
        },
        {
          "indexed": true,
          "internalType": "address",
          "name": "newOwner",
          "type": "address"
        }
      ],
      "name": "OwnershipTransferred",
      "type": "event"
    },
    {
      "anonymous": false,
      "inputs": [
        {
          "indexed": true,
          "internalType": "address",
          "name": "operator",
          "type": "address"
        },
        {
          "indexed": true,
          "internalType": "address",
          "name": "from",
          "type": "address"
        },
        {
          "indexed": true,
          "internalType": "address",
          "name": "to",
          "type": "address"
        },
        {
          "indexed": false,
          "internalType": "uint256[]",
          "name": "ids",
          "type": "uint256[]"
        },
        {
          "indexed": false,
          "internalType": "uint256[]",
          "name": "values",
          "type": "uint256[]"
        }
      ],
      "name": "TransferBatch",
      "type": "event"
    },
    {
      "anonymous": false,
      "inputs": [
        {
          "indexed": true,
          "internalType": "address",
          "name": "operator",
          "type": "address"
        },
        {
          "indexed": true,
          "internalType": "address",
          "name": "from",
          "type": "address"
        },
        {
          "indexed": true,
          "internalType": "address",
          "name": "to",
          "type": "address"
        },
        {
          "indexed": false,
          "internalType": "uint256",
          "name": "id",
          "type": "uint256"
        },
        {
          "indexed": false,
          "internalType": "uint256",
          "name": "value",
          "type": "uint256"
        }
      ],
      "name": "TransferSingle",
      "type": "event"
    },
    {
      "anonymous": false,
      "inputs": [
        {
          "indexed": false,
          "internalType": "string",
          "name": "value",
          "type": "string"
        },
        {
          "indexed": true,
          "internalType": "uint256",
          "name": "id",
          "type": "uint256"
        }
      ],
      "name": "URI",
      "type": "event"
    },
    {
      "inputs": [
        {
          "internalType": "address",
          "name": "account",
          "type": "address"
        },
        {
          "internalType": "uint256",
          "name": "id",
          "type": "uint256"
        }
      ],
      "name": "balanceOf",
      "outputs": [
        {
          "internalType": "uint256",
          "name": "",
          "type": "uint256"
        }
      ],
      "stateMutability": "view",
      "type": "function"
    },
    {
      "inputs": [
        {
          "internalType": "address[]",
          "name": "accounts",
          "type": "address[]"
        },
        {
          "internalType": "uint256[]",
          "name": "ids",
          "type": "uint256[]"
        }
      ],
      "name": "balanceOfBatch",
      "outputs": [
        {
          "internalType": "uint256[]",
          "name": "",
          "type": "uint256[]"
        }
      ],
      "stateMutability": "view",
      "type": "function"
    },
    {
      "inputs": [
        {
          "internalType": "uint256",
          "name": "itemId",
          "type": "uint256"
        },
        {
          "internalType": "uint256",
          "name": "_amount",
          "type": "uint256"
        }
      ],
      "name": "buy",
      "outputs": [],
      "stateMutability": "payable",
      "type": "function"
    },
    {
      "inputs": [
        {
          "internalType": "uint256",
          "name": "itemId",
          "type": "uint256"
        },
        {
          "internalType": "uint256",
          "name": "_amount",
          "type": "uint256"
        }
      ],
      "name": "cancel",
      "outputs": [],
      "stateMutability": "nonpayable",
      "type": "function"
    },
    {
      "inputs": [
        {
          "internalType": "uint256",
          "name": "_amount",
          "type": "uint256"
        },
        {
          "internalType": "string",
          "name": "_cid",
          "type": "string"
        }
      ],
      "name": "create",
      "outputs": [],
      "stateMutability": "nonpayable",
      "type": "function"
    },
    {
      "inputs": [
        {
          "internalType": "uint256",
          "name": "id",
          "type": "uint256"
        }
      ],
      "name": "exists",
      "outputs": [
        {
          "internalType": "bool",
          "name": "",
          "type": "bool"
        }
      ],
      "stateMutability": "view",
      "type": "function"
    },
    {
      "inputs": [],
      "name": "getBaseURI",
      "outputs": [
        {
          "internalType": "string",
          "name": "",
          "type": "string"
        }
      ],
      "stateMutability": "view",
      "type": "function"
    },
    {
      "inputs": [],
      "name": "getUserItems",
      "outputs": [
        {
          "components": [
            {
              "internalType": "uint256",
              "name": "id",
              "type": "uint256"
            },
            {
              "internalType": "uint256",
              "name": "tokenId",
              "type": "uint256"
            },
            {
              "internalType": "address",
              "name": "collection",
              "type": "address"
            },
            {
              "internalType": "address",
              "name": "owner",
              "type": "address"
            },
            {
              "internalType": "uint256",
              "name": "totalAmount",
              "type": "uint256"
            },
            {
              "internalType": "uint256",
              "name": "remainAmount",
              "type": "uint256"
            },
            {
              "internalType": "uint256",
              "name": "pricePerToken",
              "type": "uint256"
            },
            {
              "internalType": "enum MixverseSpace.ItemStatus",
              "name": "status",
              "type": "uint8"
            }
          ],
          "internalType": "struct MixverseSpace.ListingItem[]",
          "name": "",
          "type": "tuple[]"
        }
      ],
      "stateMutability": "view",
      "type": "function"
    },
    {
      "inputs": [
        {
          "internalType": "address",
          "name": "account",
          "type": "address"
        },
        {
          "internalType": "address",
          "name": "operator",
          "type": "address"
        }
      ],
      "name": "isApprovedForAll",
      "outputs": [
        {
          "internalType": "bool",
          "name": "",
          "type": "bool"
        }
      ],
      "stateMutability": "view",
      "type": "function"
    },
    {
      "inputs": [
        {
          "internalType": "uint256",
          "name": "_tokenId",
          "type": "uint256"
        },
        {
          "internalType": "uint256",
          "name": "_amount",
          "type": "uint256"
        },
        {
          "internalType": "uint256",
          "name": "_price",
          "type": "uint256"
        }
      ],
      "name": "list",
      "outputs": [],
      "stateMutability": "nonpayable",
      "type": "function"
    },
    {
      "inputs": [
        {
          "internalType": "address",
          "name": "",
          "type": "address"
        },
        {
          "internalType": "address",
          "name": "",
          "type": "address"
        },
        {
          "internalType": "uint256[]",
          "name": "",
          "type": "uint256[]"
        },
        {
          "internalType": "uint256[]",
          "name": "",
          "type": "uint256[]"
        },
        {
          "internalType": "bytes",
          "name": "",
          "type": "bytes"
        }
      ],
      "name": "onERC1155BatchReceived",
      "outputs": [
        {
          "internalType": "bytes4",
          "name": "",
          "type": "bytes4"
        }
      ],
      "stateMutability": "nonpayable",
      "type": "function"
    },
    {
      "inputs": [
        {
          "internalType": "address",
          "name": "",
          "type": "address"
        },
        {
          "internalType": "address",
          "name": "",
          "type": "address"
        },
        {
          "internalType": "uint256",
          "name": "",
          "type": "uint256"
        },
        {
          "internalType": "uint256",
          "name": "",
          "type": "uint256"
        },
        {
          "internalType": "bytes",
          "name": "",
          "type": "bytes"
        }
      ],
      "name": "onERC1155Received",
      "outputs": [
        {
          "internalType": "bytes4",
          "name": "",
          "type": "bytes4"
        }
      ],
      "stateMutability": "nonpayable",
      "type": "function"
    },
    {
      "inputs": [],
      "name": "owner",
      "outputs": [
        {
          "internalType": "address",
          "name": "",
          "type": "address"
        }
      ],
      "stateMutability": "view",
      "type": "function"
    },
    {
      "inputs": [],
      "name": "renounceOwnership",
      "outputs": [],
      "stateMutability": "nonpayable",
      "type": "function"
    },
    {
      "inputs": [
        {
          "internalType": "address",
          "name": "from",
          "type": "address"
        },
        {
          "internalType": "address",
          "name": "to",
          "type": "address"
        },
        {
          "internalType": "uint256[]",
          "name": "ids",
          "type": "uint256[]"
        },
        {
          "internalType": "uint256[]",
          "name": "amounts",
          "type": "uint256[]"
        },
        {
          "internalType": "bytes",
          "name": "data",
          "type": "bytes"
        }
      ],
      "name": "safeBatchTransferFrom",
      "outputs": [],
      "stateMutability": "nonpayable",
      "type": "function"
    },
    {
      "inputs": [
        {
          "internalType": "address",
          "name": "from",
          "type": "address"
        },
        {
          "internalType": "address",
          "name": "to",
          "type": "address"
        },
        {
          "internalType": "uint256",
          "name": "id",
          "type": "uint256"
        },
        {
          "internalType": "uint256",
          "name": "amount",
          "type": "uint256"
        },
        {
          "internalType": "bytes",
          "name": "data",
          "type": "bytes"
        }
      ],
      "name": "safeTransferFrom",
      "outputs": [],
      "stateMutability": "nonpayable",
      "type": "function"
    },
    {
      "inputs": [
        {
          "internalType": "address",
          "name": "operator",
          "type": "address"
        },
        {
          "internalType": "bool",
          "name": "approved",
          "type": "bool"
        }
      ],
      "name": "setApprovalForAll",
      "outputs": [],
      "stateMutability": "nonpayable",
      "type": "function"
    },
    {
      "inputs": [
        {
          "internalType": "bytes4",
          "name": "interfaceId",
          "type": "bytes4"
        }
      ],
      "name": "supportsInterface",
      "outputs": [
        {
          "internalType": "bool",
          "name": "",
          "type": "bool"
        }
      ],
      "stateMutability": "view",
      "type": "function"
    },
    {
      "inputs": [
        {
          "internalType": "uint256",
          "name": "id",
          "type": "uint256"
        }
      ],
      "name": "totalSupply",
      "outputs": [
        {
          "internalType": "uint256",
          "name": "",
          "type": "uint256"
        }
      ],
      "stateMutability": "view",
      "type": "function"
    },
    {
      "inputs": [
        {
          "internalType": "address",
          "name": "newOwner",
          "type": "address"
        }
      ],
      "name": "transferOwnership",
      "outputs": [],
      "stateMutability": "nonpayable",
      "type": "function"
    },
    {
      "inputs": [
        {
          "internalType": "string",
          "name": "newURI",
          "type": "string"
        }
      ],
      "name": "updateBaseURI",
      "outputs": [],
      "stateMutability": "nonpayable",
      "type": "function"
    },
    {
      "inputs": [
        {
          "internalType": "uint256",
          "name": "_id",
          "type": "uint256"
        }
      ],
      "name": "uri",
      "outputs": [
        {
          "internalType": "string",
          "name": "",
          "type": "string"
        }
      ],
      "stateMutability": "view",
      "type": "function"
    }
  ],
  "bytecode": "0x60808060405234620002a757600090600b546200001c81620002ac565b808352926001918083169081156200028957506001146200024d575b919250601f916001600160401b0390601f1990859003840181168501828111868210176200023757604052845191821162000237576200007a600254620002ac565b848111620001f7575b506020908483116001146200019257508192939460009262000186575b5050600019600383901b1c191690821b176002555b60048054336001600160a01b0319821681179092556001600160a01b03167f8be0079c531659141344cd1fd0a4f28419497f9722a3daafe3b4186f6b6457e0600080a360055562000108600b54620002ac565b81811162000145575b7f68747470733a2f2f697066732e696f2f697066732f000000000000000000002a600b5560405161291c9081620003038239f35b600b6000526200017e910160051c7f0175b7a638427703f0dbe7bb9bbf987a2551717b34e79f33b5b1008d1fa01db990810190620002e9565b388062000111565b015190503880620000a0565b8216906002600052806000209160005b818110620001e05750958385969710620001c6575b505050811b01600255620000b5565b015160001960f88460031b161c19169055388080620001b7565b8783015184559285019260209283019201620001a2565b6200022690600260005260206000208680860160051c820192602087106200022d575b0160051c0190620002e9565b3862000083565b925081926200021a565b634e487b7160e01b600052604160045260246000fd5b50600b600052602080600020936000905b80821062000273575083809550010162000038565b855485830184015294830194908201906200025e565b602092508495915060ff191682850152151560051b83010162000038565b600080fd5b90600182811c92168015620002de575b6020831014620002c857565b634e487b7160e01b600052602260045260246000fd5b91607f1691620002bc565b818110620002f5575050565b60008155600101620002e956fe6040608081526004908136101561001557600080fd5b60009160e08335811c908162efa89514611924578162fdd58e146118f35781630118fa491461148257816301ffc9a7146113f75781630e89341c146113d557816319aeb490146111d15781632eb2c2d614610dc15781634e1273f414610c235781634f558e7914610bf95781636502096a1461090a578163714c5398146108d457848263715018a614610877575081638da5cb5b1461084f578163931688cb146106bf578163a22cb465146105e1578163bc197c81146105bb578163bd85b03914610593578163d6febde81461027e57508063e985e9c514610225578063f23a6e61146101fc578063f242432a146101db5763f2fde38b1461011657600080fd5b346101d75760203660031901126101d75761012f611b9a565b90610138611e42565b6001600160a01b03918216928315610185575080546001600160a01b031981168417909155167f8be0079c531659141344cd1fd0a4f28419497f9722a3daafe3b4186f6b6457e08380a380f35b906020608492519162461bcd60e51b8352820152602660248201527f4f776e61626c653a206e6577206f776e657220697320746865207a65726f206160448201526564647265737360d01b6064820152fd5b8280fd5b83346101f9576101f66101ed36611dec565b93929092611fd1565b80f35b80fd5b5050346102215760209061020f36611dec565b50505050505163f23a6e6160e01b8152f35b5080fd5b50503461022157806003193601126102215761023f611b9a565b6001600160a01b03602435818116929083900361027a579360ff92849260209616825260018652828220908252855220541690519015158152f35b8480fd5b91905061028a36611b7f565b919093610295612673565b848652602091600a83528187209180516102ae81611bb0565b8354815260018401549685820197885260018060a01b0390816002870154169784840198895282600388015416936060810194855286880154966080820197885260058901549160a0810192835260ff600760068c01549b60c084019c8d520154169061031e8682019283612651565b5115158061056b575b61033191506126c9565b8b51600090815260086020526040902054610356906001600160a01b031615156125c7565b610361831515612605565b8282511061051d578851908382029180830485149015171561050a578134106104d05750908d8080809e9d9c9b9a9998979695948190888a51168282156104c7575bf1156104bd5791818960058f958f8f6103fd7fbc1e0e4e50bc548032162fc5cd63a6c193fe00aa232981ea45f2d5d0c9a2979c988d946103f7600a9451838851916103ed83611be3565b88835233306120ea565b5161270b565b9489835252200155898c5191868d5116878951168b51918d51948c519687528601528a850152336060850152608084015260a083015260c0820152a2898952600a86526005838a20015415610456575b88600160055580f35b8060a0986007857fe81b3c7688efbf6150d5e8ae9fa2b9052b63884e41b20b4851de551a1a82098e9c2001600260ff19825416179055519751169151169251935194825196875286015284015260608301526080820152a23881818080808080808061044d565b85513d8d823e3d90fd5b506108fc6103a3565b875162461bcd60e51b81529081018b90526014602482015273496e73756666696369656e742062616c616e636560601b6044820152606490fd5b634e487b7160e01b8f526011905260248efd5b865162461bcd60e51b81529081018a9052602260248201527f5468657265206973206e6f7420656e6f75676820746f6b656e7320746f2073656044820152611b1b60f21b6064820152608490fd5b50516003811015610580576103319015610327565b634e487b7160e01b8f526021825260248ffd5b5050346101d75760203660031901126101d75760209282913581526003845220549051908152f35b50505034610221576020906105cf36611d36565b50505050505163bc197c8160e01b8152f35b505090346101d757806003193601126101d7576105fc611b9a565b906024359182151580930361027a576001600160a01b03169233841461066b5750338452600160205280842083855260205280842060ff1981541660ff8416179055519081527f17307eab39ab6107e8899845ad3d59bd9653f200f220920489ca2b5937696c3160203392a380f35b6020608492519162461bcd60e51b8352820152602960248201527f455243313135353a2073657474696e6720617070726f76616c20737461747573604482015268103337b91039b2b63360b91b6064820152fd5b8285346101f9576020806003193601126102215767ffffffffffffffff90833582811161084b576106f39036908601611c21565b936106fc611e42565b84519283116108385750610711600b5461258d565b601f81116107d6575b5080601f83116001146107555750829382939261074a575b50508160011b916000199060031b1c191617600b5580f35b015190508380610732565b600b8452601f198316947f0175b7a638427703f0dbe7bb9bbf987a2551717b34e79f33b5b1008d1fa01db9929185905b8782106107be5750508360019596106107a5575b505050811b01600b5580f35b015160001960f88460031b161c19169055838080610799565b80600185968294968601518155019501930190610785565b600b84527f0175b7a638427703f0dbe7bb9bbf987a2551717b34e79f33b5b1008d1fa01db9601f840160051c81019183851061082e575b601f0160051c01905b818110610823575061071a565b848155600101610816565b909150819061080d565b634e487b7160e01b845260419052602483fd5b8380fd5b5050346101d757826003193601126101d7575490516001600160a01b03909116815260209150f35b8084346108d157816003193601126108d157610891611e42565b80546001600160a01b031981169091556001600160a01b03167f8be0079c531659141344cd1fd0a4f28419497f9722a3daafe3b4186f6b6457e08280a380f35b50fd5b50505034610221578160031936011261022157610906906108f3612718565b9051918291602083526020830190611c9b565b0390f35b84929150346101d757826003193601126101d75760079392939182548593865b828110610b7c5750869061093d86611cc0565b9561094a88519788611bff565b808752610959601f1991611cc0565b01885b818110610b2f575050875b838110610a2f575050505083519485946020908187019282885286518094528282890197019581925b85841061099d578989038af35b919395979087819496989a505180518352878101518884015260018060a01b03808583015116858501526060908183015116908401526080808201519084015260a0808201519084015260c0808201519084015201516003811015610a1c57610100828892866001950152019901940191899897959391969496610990565b634e487b7160e01b855260218952602485fd5b60019894969798808201808311610b1c5786526020600a81528a60018060a01b036003338282858d2001541614610a79575b5050505050610a6f90611f1f565b9796959397610967565b8260ff928892610add958d9b999b2092805197610a9589611bb0565b84548952898501549089015282600285015416908801528201541660608601528c8101546080860152600581015460a0860152600681015460c0860152015416898301612651565b610ae7838b611f44565b52610af2828a611f44565b508101809111610b095791610a6f8a8a8180610a61565b634e487b7160e01b855260118752602485fd5b634e487b7160e01b875260118952602487fd5b602090899a96989951610b4181611bb0565b878152828881830152888d8301528860608301528860808301528860a08301528860c0830152888a830152828c01015201989796949861095c565b60019793959697808201808311610be6578552600a602052888520600301546001600160a01b03163314610bbf575b50610bb590611f1f565b969594929661092a565b87919701809111610bd35795610bb5610bab565b634e487b7160e01b845260118652602484fd5b634e487b7160e01b865260118852602486fd5b5050346101d75760203660031901126101d757602092829135815260038452205415159051908152f35b5050346101d757816003193601126101d757803567ffffffffffffffff80821161027a573660238301121561027a578183013590610c6082611cc0565b92610c6d86519485611bff565b82845260209260248486019160051b83010191368311610dbd57602401905b828210610d9a57505050602435908111610d9657610cad9036908501611cd8565b928251845103610d435750815194610cc486611cc0565b95610cd186519788611bff565b808752610ce0601f1991611cc0565b0136838801375b8251811015610d3157610d2c90610d1c6001600160a01b03610d098387611f44565b5116610d158388611f44565b5190611e9a565b610d268289611f44565b52611f1f565b610ce7565b84518281528061090681850189611db8565b60849185519162461bcd60e51b8352820152602960248201527f455243313135353a206163636f756e747320616e6420696473206c656e677468604482015268040dad2e6dac2e8c6d60bb1b6064820152fd5b8580fd5b81356001600160a01b0381168103610db9578152908401908401610c8c565b8980fd5b8880fd5b8285853461022157610dd236611d36565b909692959390926001600160a01b03918216929133841480156111b2575b610df990611f6e565b825189510361115e578716938415610e118115612024565b841561110b575b61104f575b855b8351811015610ea15780610e36610e9c9286611f44565b51610e41828d611f44565b5190808a526020908a82528b8b20898c528252828c8c8b8282205492610e698585101561207e565b858352828752822091528452038c8c20558a528981528a8a2090898b5252610e958a8a209182546120dd565b9055611f1f565b610e1f565b509293909691859892828689518a81527f4a39dc06d4c0dbc64b70af90fd698a233a518aa5d07e595d983b8c0526c8f7fb610ede8c830187611db8565b91808303602082015280610ef333948b611db8565b0390a43b610eff578580f35b8795610f5295610f61610f3f956020978b51998a988997889663bc197c8160e01b9e8f89523390890152602488015260a0604488015260a4870190611db8565b6003199384878303016064880152611db8565b91848303016084850152611c9b565b03925af185918161101f575b50610ff05750506001610f7e612475565b6308c379a014610fb9575b610f9c5750505b81808281808080808580f35b5162461bcd60e51b815291508190610fb5908201612502565b0390fd5b610fc1612493565b80610fcc5750610f89565b9050610fb591602094505193849362461bcd60e51b85528401526024830190611c9b565b6001600160e01b03191603611006575050610f90565b5162461bcd60e51b815291508190610fb590820161242c565b61104191925060203d8111611048575b6110398183611bff565b81019061240c565b9086610f6d565b503d61102f565b9691928596959491945b84518110156110fc5761106c8186611f44565b51611077828c611f44565b5190808a52600360208181528a8c2054928484106110a8578c5252888a2091900390556110a390611f1f565b611059565b8b5162461bcd60e51b8152808c01839052602860248201527f455243313135353a206275726e20616d6f756e74206578636565647320746f74604482015267616c537570706c7960c01b6064820152608490fd5b50929196959495939093610e1d565b98949297939190865b8951811015611151578061112b61114c9289611f44565b51611136828d611f44565b518a526003602052610e958b8b209182546120dd565b611114565b5090919397929498610e18565b865162461bcd60e51b8152602081840152602860248201527f455243313135353a2069647320616e6420616d6f756e7473206c656e677468206044820152670dad2e6dac2e8c6d60c31b6064820152608490fd5b508386526001602090815287872033885290528686205460ff16610df0565b828585346102215760603660031901126102215782356024356044356111f5612673565b600083815260086020526040902054611218906001600160a01b031615156125c7565b611223821515612605565b8161122e8433611e9a565b10611392576007949596600186540195869182825586519061124f82611bb0565b8382528960208301888152898401308152606085019033825260808601928a84528c60a08801958c875260c08901978c895289019a818c528152600a6020522096518755516001870155600286019060018060a01b0380915116916bffffffffffffffffffffffff60a01b92838254161790556003870192511690825416179055518c840155516005830155516006820155019051600381101561137f57917f87ed4be4e4ee79014a64d9fc4a9d0a961f4f5f16189cd3d94648ed66ca50116b959493916113749360ff8019835416911617905561133d855161133181611be3565b89815283863033611fd1565b611346846127d4565b918551958695865230602087015233908601526060850152608084015260c060a084015260c0830190611c9b565b0390a2600160055580f35b634e487b7160e01b885260218952602488fd5b835162461bcd60e51b8152602081880152601d60248201527f496e73756666696369656e742062616c616e636520666f72206c6973740000006044820152606490fd5b505091346101f95760203660031901126101f957506108f361090692356127d4565b5050346101d75760203660031901126101d757359063ffffffff60e01b82168092036101d75760209250636cdb3d1360e11b8214918215611471575b8215611443575b50519015158152f35b909150630271189760e51b8114908115611460575b50903861143a565b6301ffc9a760e01b14905038611458565b6303a24d0760e21b81149250611433565b505090346101d757806003193601126101d75767ffffffffffffffff9180359190602480358581116118ef576114bb9036908401611c21565b6114c3611e42565b6001948560065401918260065582895260209760088952868a20336bffffffffffffffffffffffff60a01b82541617905560098952868a209180519182116118dd578190611511845461258d565b601f811161188d575b508a90601f831160011461182d578c92611822575b5050600019600383901b1c191690881b1790555b84519161154f83611be3565b88835233156117d65788929181886115678b94612557565b61157084612557565b87835b611782575b5050505080855284835287852033865283528785206115988382546120dd565b9055875181815282848201528533917fc3d58168c5ae7397731d063d5bbf3d657854427343f4c083240f7aacaa2d0f628b3392a4333b61167b575b505050505030331461162957505033845281835280842030855283528084208260ff19825416179055519081527f17307eab39ab6107e8899845ad3d59bd9653f200f220920489ca2b5937696c3130923392a380f35b60299085608494519362461bcd60e51b85528401528201527f455243313135353a2073657474696e6720617070726f76616c20737461747573604482015268103337b91039b2b63360b91b6064820152fd5b6116b58851948593849363f23a6e6160e01b98898652338c8701528a8601526044850152606484015260a0608484015260a4830190611c9b565b03818b335af1889181611763575b5061173a575050836116d3612475565b6308c379a014611707575b6116ed575b85388681806115d3565b50905162461bcd60e51b8152908190610fb5908201612502565b61170f612493565b8061171a57506116de565b92945050610fb5925194859462461bcd60e51b8652850152830190611c9b565b6001600160e01b031916146116e35750905162461bcd60e51b8152908190610fb590820161242c565b61177b919250883d8a11611048576110398183611bff565b90386116c3565b90919293949583518210156117cd57906117c09160036117a28386611f44565b51916117ae8488611f44565b518c5252610e958d8b209182546120dd565b908392918d969594611573565b95949392611578565b855162461bcd60e51b81528086018990526021818601527f455243313135353a206d696e7420746f20746865207a65726f206164647265736044820152607360f81b6064820152608490fd5b01519050388061152f565b848d528b8d208b94509190601f1984168e8e5b828210611876575050841161185d575b505050811b019055611543565b015160001960f88460031b161c19169055388080611850565b8385015186558e979095019493840193018e611840565b909150838c528a8c20601f840160051c8101918c85106118d3575b84939291601f8d920160051c01915b8281106118c557505061151a565b8e81558594508c91016118b7565b90915081906118a8565b634e487b7160e01b8b5260418752858bfd5b8680fd5b5050503461022157806003193601126102215760209061191d611914611b9a565b60243590611e9a565b9051908152f35b90508391346101d75761193636611b7f565b611941939193612673565b838552602091600a835286862090875161195a81611bb0565b82548152600183015485820190815260018060a01b039081600286015416978b840198895282600387015416936060810194855281870154956080820196875260058801549160a081019283526119c860ff600760068c01549b60c085019c8d520154169282019283612651565b858751163303611b3c5751151580611b14575b6119e591506126c9565b8251600090815260086020526040902054611a0a906001600160a01b031615156125c7565b611a15881515612605565b87815110611ac55792828b82938e9f7f686a736c00161c1a5a9c35ddee0125551ffd0628a321eef9c060809c3826e9049e9f8d60c09f9e9d9c9b9a98611a758e859c6103f7600a945183895191611a6b83611be3565b8983523330611fd1565b918684525260058383200155611a8c8c8b5161270b565b938152600a8d5220015551985116915116925193519582519788528701528501526060840152608083015260a0820152a2600160055580f35b8c5162461bcd60e51b81528083018a90526024808201527f5468657265206973206e6f7420656e6f75676820746f6b656e7320746f2063616044820152631b98d95b60e21b6064820152608490fd5b50516003811015611b29576119e590156119db565b634e487b7160e01b8d526021835260248dfd5b8e5162461bcd60e51b81528085018c9052601b60248201527f4f6e6c79206f776e65722063616e2063616e63656c206f7264657200000000006044820152606490fd5b6040906003190112611b95576004359060243590565b600080fd5b600435906001600160a01b0382168203611b9557565b610100810190811067ffffffffffffffff821117611bcd57604052565b634e487b7160e01b600052604160045260246000fd5b6020810190811067ffffffffffffffff821117611bcd57604052565b90601f8019910116810190811067ffffffffffffffff821117611bcd57604052565b81601f82011215611b955780359067ffffffffffffffff8211611bcd5760405192611c56601f8401601f191660200185611bff565b82845260208383010111611b9557816000926020809301838601378301015290565b60005b838110611c8b5750506000910152565b8181015183820152602001611c7b565b90602091611cb481518092818552858086019101611c78565b601f01601f1916010190565b67ffffffffffffffff8111611bcd5760051b60200190565b81601f82011215611b9557803591611cef83611cc0565b92611cfd6040519485611bff565b808452602092838086019260051b820101928311611b95578301905b828210611d27575050505090565b81358152908301908301611d19565b60a0600319820112611b95576001600160a01b03916004358381168103611b9557926024359081168103611b95579167ffffffffffffffff91604435838111611b955782611d8691600401611cd8565b92606435818111611b955783611d9e91600401611cd8565b92608435918211611b9557611db591600401611c21565b90565b90815180825260208080930193019160005b828110611dd8575050505090565b835185529381019392810192600101611dca565b60a0600319820112611b95576001600160a01b03916004358381168103611b9557926024359081168103611b95579160443591606435916084359067ffffffffffffffff8211611b9557611db591600401611c21565b6004546001600160a01b03163303611e5657565b606460405162461bcd60e51b815260206004820152602060248201527f4f776e61626c653a2063616c6c6572206973206e6f7420746865206f776e65726044820152fd5b6001600160a01b0316908115611ec757600052600060205260406000209060005260205260406000205490565b60405162461bcd60e51b815260206004820152602a60248201527f455243313135353a2061646472657373207a65726f206973206e6f742061207660448201526930b634b21037bbb732b960b11b6064820152608490fd5b6000198114611f2e5760010190565b634e487b7160e01b600052601160045260246000fd5b8051821015611f585760209160051b010190565b634e487b7160e01b600052603260045260246000fd5b15611f7557565b60405162461bcd60e51b815260206004820152602e60248201527f455243313135353a2063616c6c6572206973206e6f7420746f6b656e206f776e60448201526d195c881bdc88185c1c1c9bdd995960921b6064820152608490fd5b611ffc94939291906001600160a01b0381163381148015611ffe575b611ff79150611f6e565b6120ea565b565b506000526001602052604060002033600052602052611ff760ff60406000205416611fed565b1561202b57565b60405162461bcd60e51b815260206004820152602560248201527f455243313135353a207472616e7366657220746f20746865207a65726f206164604482015264647265737360d81b6064820152608490fd5b1561208557565b60405162461bcd60e51b815260206004820152602a60248201527f455243313135353a20696e73756666696369656e742062616c616e636520666f60448201526939103a3930b739b332b960b11b6064820152608490fd5b91908201809211611f2e57565b90936001600160a01b0380861694919385159390916121098515612024565b61211283612557565b9061211c85612557565b92169485156123af575b6122e3575b5050600093818552602095858752604097888720868852885284898820546121558282101561207e565b858952888a528a8920888a528a52038988205583875286885288872082885288528887206121848682546120dd565b905581868a51868152878b8201527fc3d58168c5ae7397731d063d5bbf3d657854427343f4c083240f7aacaa2d0f628c3392a43b6121c7575b5050505050505050565b612209938688948a519687958694859363f23a6e6160e01b9b8c865233600487015260248601526044850152606484015260a0608484015260a4830190611c9b565b03925af18391816122c4575b50612294575050600191612227612475565b6308c379a01461225e575b505061224757505b38808080808080806121bd565b5162461bcd60e51b815280610fb560048201612502565b612266612493565b91826122725750612232565b84610fb591505192839262461bcd60e51b845260048401526024830190611c9b565b6001600160e01b0319160391506122ad9050575061223a565b5162461bcd60e51b815280610fb56004820161242c565b6122dc919250853d8711611048576110398183611bff565b9038612215565b95926000989592979491985b875181101561239e576123028189611f44565b5161230d828c611f44565b5181600052600391602092808452604093846000205492848410612349579061234496959493929160005252039060002055611f1f565b6122ef565b855162461bcd60e51b815260048101839052602860248201527f455243313135353a206275726e20616d6f756e74206578636565647320746f74604482015267616c537570706c7960c01b6064820152608490fd5b50929550929590939650388061212b565b97936000999591979396929996875b89518110156123fc57806123d56123f7928e611f44565b516123e0828d611f44565b518b526003602052610e9560408c209182546120dd565b6123be565b5093979195999296509397612126565b90816020910312611b9557516001600160e01b031981168103611b955790565b60809060208152602860208201527f455243313135353a204552433131353552656365697665722072656a656374656040820152676420746f6b656e7360c01b60608201520190565b60009060033d1161248257565b905060046000803e60005160e01c90565b600060443d10611db557604051600319913d83016004833e815167ffffffffffffffff918282113d6024840111176124f1578184019485519384116124f9573d850101602084870101116124f15750611db592910160200190611bff565b949350505050565b50949350505050565b60809060208152603460208201527f455243313135353a207472616e7366657220746f206e6f6e2d455243313135356040820152732932b1b2b4bb32b91034b6b83632b6b2b73a32b960611b60608201520190565b604051906040820182811067ffffffffffffffff821117611bcd5760405260018252602082016020368237825115611f58575290565b90600182811c921680156125bd575b60208310146125a757565b634e487b7160e01b600052602260045260246000fd5b91607f169161259c565b156125ce57565b60405162461bcd60e51b815260206004820152600f60248201526e151bdad95b881b9bdd08199bdd5b99608a1b6044820152606490fd5b1561260c57565b60405162461bcd60e51b815260206004820152601a60248201527f496e76616c696420617267756d656e74206f6620616d6f756e740000000000006044820152606490fd5b600382101561265d5752565b634e487b7160e01b600052602160045260246000fd5b600260055414612684576002600555565b60405162461bcd60e51b815260206004820152601f60248201527f5265656e7472616e637947756172643a207265656e7472616e742063616c6c006044820152606490fd5b156126d057565b60405162461bcd60e51b81526020600482015260136024820152724974656d207761736e2774206c697374696e6760681b6044820152606490fd5b91908203918211611f2e57565b60405190600082600b549161272c8361258d565b808352926001908181169081156127b25750600114612753575b50611ffc92500383611bff565b600b600090815291507f0175b7a638427703f0dbe7bb9bbf987a2551717b34e79f33b5b1008d1fa01db95b8483106127975750611ffc935050810160200138612746565b81935090816020925483858a0101520191019091859261277e565b905060209250611ffc94915060ff191682840152151560051b82010138612746565b6000818152600860205260409020546127f7906001600160a01b031615156125c7565b6000908152602090600982526040812061280f612718565b91604051908083546128208161258d565b918285528785019560019283811690816000146128c4575060011461288d575b50505050918161285a611db5959361288197950382611bff565b60405195836128728895518092888089019101611c78565b84019151809386840190611c78565b01038084520182611bff565b90809450528683205b8284106128b157505050810184018161285a81612881612840565b8054858501890152928701928101612896565b60ff1916885250505050151560051b8201850190508161285a8161288161284056fea26469706673582212206089b6282938f6c31d47e3463181adac058a5d7b436c24199c50965e533c3ebe64736f6c63430008110033",
  "linkReferences": {},
  "deployedLinkReferences": {}
}