{
  "_format": "hh-sol-artifact-1",
  "contractName": "MultipleCollective",
  "sourceName": "contracts/collective/MultipleCollective.sol",
  "abi": [
    {
      "anonymous": false,
      "inputs": [
        {
          "indexed": false,
          "internalType": "address",
          "name": "root",
          "type": "address"
        },
        {
          "indexed": false,
          "internalType": "address",
          "name": "creator",
          "type": "address"
        },
        {
          "indexed": false,
          "internalType": "string",
          "name": "name",
          "type": "string"
        },
        {
          "indexed": false,
          "internalType": "string",
          "name": "category",
          "type": "string"
        },
        {
          "indexed": false,
          "internalType": "string[]",
          "name": "tags",
          "type": "string[]"
        },
        {
          "indexed": false,
          "internalType": "string",
          "name": "description",
          "type": "string"
        },
        {
          "indexed": false,
          "internalType": "string",
          "name": "uri",
          "type": "string"
        },
        {
          "indexed": false,
          "internalType": "address[]",
          "name": "payees",
          "type": "address[]"
        },
        {
          "indexed": false,
          "internalType": "uint256[]",
          "name": "royalties",
          "type": "uint256[]"
        },
        {
          "indexed": false,
          "internalType": "uint64",
          "name": "maximum",
          "type": "uint64"
        }
      ],
      "name": "CollectionCreated",
      "type": "event"
    },
    {
      "anonymous": false,
      "inputs": [
        {
          "indexed": false,
          "internalType": "uint8",
          "name": "version",
          "type": "uint8"
        }
      ],
      "name": "Initialized",
      "type": "event"
    },
    {
      "inputs": [
        {
          "internalType": "string",
          "name": "name",
          "type": "string"
        },
        {
          "internalType": "string",
          "name": "category",
          "type": "string"
        },
        {
          "internalType": "string[]",
          "name": "tags",
          "type": "string[]"
        },
        {
          "internalType": "string",
          "name": "description",
          "type": "string"
        },
        {
          "internalType": "string",
          "name": "uri",
          "type": "string"
        },
        {
          "internalType": "address[]",
          "name": "payees",
          "type": "address[]"
        },
        {
          "internalType": "uint256[]",
          "name": "royalties",
          "type": "uint256[]"
        },
        {
          "internalType": "uint64",
          "name": "maximum",
          "type": "uint64"
        }
      ],
      "name": "createCollection",
      "outputs": [],
      "stateMutability": "nonpayable",
      "type": "function"
    },
    {
      "inputs": [
        {
          "internalType": "address",
          "name": "owner",
          "type": "address"
        },
        {
          "internalType": "string",
          "name": "name",
          "type": "string"
        },
        {
          "internalType": "string",
          "name": "symbol",
          "type": "string"
        }
      ],
      "name": "createRoot",
      "outputs": [
        {
          "internalType": "contract IToken",
          "name": "",
          "type": "address"
        }
      ],
      "stateMutability": "nonpayable",
      "type": "function"
    },
    {
      "inputs": [
        {
          "internalType": "address",
          "name": "owner",
          "type": "address"
        }
      ],
      "name": "initialize",
      "outputs": [],
      "stateMutability": "nonpayable",
      "type": "function"
    },
    {
      "inputs": [
        {
          "internalType": "string",
          "name": "_collection",
          "type": "string"
        },
        {
          "internalType": "uint256",
          "name": "balance",
          "type": "uint256"
        },
        {
          "internalType": "string",
          "name": "uri",
          "type": "string"
        }
      ],
      "name": "mint",
      "outputs": [],
      "stateMutability": "nonpayable",
      "type": "function"
    },
    {
      "inputs": [
        {
          "internalType": "address",
          "name": "_marketplace",
          "type": "address"
        }
      ],
      "name": "setMarketplace",
      "outputs": [],
      "stateMutability": "nonpayable",
      "type": "function"
    },
    {
      "inputs": [
        {
          "internalType": "address",
          "name": "newOwner",
          "type": "address"
        }
      ],
      "name": "transferOwnership",
      "outputs": [],
      "stateMutability": "nonpayable",
      "type": "function"
    }
  ],
  "bytecode": "0x6080806040523461001657613fc6908161001c8239f35b600080fdfe610100604052600436101561001357600080fd5b600060e05260003560e01c806306bdc949146111d15780633a35fe1b1461032c57806373ad6c2d146102e2578063a2443be614610272578063c4d66de81461010d5763f2fde38b1461006457600080fd5b346101075760203660031901126101075761007d61205d565b600554906001600160a01b03906100978284163314612073565b169081156100b3576001600160a01b0319161760055560e05180f35b60405162461bcd60e51b815260206004820152602660248201527f4f776e61626c653a206e6577206f776e657220697320746865207a65726f206160448201526564647265737360d01b6064820152608490fd5b60e05180fd5b346101075760203660031901126101075761012661205d565b60e051549060ff8260081c161590818092610265575b801561024e575b156101f25760e05160ff198416600117815592826101e1575b50600580546001600160a01b0319166001600160a01b03929092169190911790556003805460ff60a01b1916600560a01b17905567016345785d8a00006004556101a7575b60e05180f35b61ff001981541690557f7f26b83ff96e1f2b6a682f133852f6798a09c465da95921460cefb3847402498602060405160018152a1806101a1565b61ffff19166101011783558361015c565b60405162461bcd60e51b815260206004820152602e60248201527f496e697469616c697a61626c653a20636f6e747261637420697320616c72656160448201526d191e481a5b9a5d1a585b1a5e995960921b6064820152608490fd5b50303b1580156101435750600160ff841614610143565b50600160ff84161061013c565b346101075760603660031901126101075761028b61205d565b6001600160401b03602435818111610107576102ab903690600401611ff0565b91604435918211610107576020926102ca6102d0933690600401611ff0565b9161217c565b6040516001600160a01b039091168152f35b34610107576020366003190112610107576102fb61205d565b6005546001600160a01b0391906103159083163314612073565b1660018060a01b0319600354161760035560e05180f35b3461010757610100366003190112610107576004356001600160401b0381116101075761035d903690600401611ff0565b6024356001600160401b0381116101075761037c903690600401611ff0565b906001600160401b0360443511610107573660236044350112156101075760443560040135906103ab82612046565b926103b96040519485611fcd565b8284526020840180933660248260051b60443501011161010757602460443501915b60248260051b6044350101831061119c5750506001600160401b036064351190506101075761040f36606435600401611ff0565b926001600160401b03608435116101075761042f36608435600401611ff0565b926001600160401b0360a435116101075736602360a4350112156101075761045c60a43560040135612046565b6104696040519182611fcd565b60a43560040135815260208101908136602460a4356004013560051b60a43501011161010757602460a43501905b602460a4356004013560051b60a435010182106111755750506001600160401b0360c435116101075736602360c435011215610107576104dc60c43560040135612046565b956104ea6040519788611fcd565b60c43560040135875260208701948536602460c4356004013560051b60c43501011161010757602460c43501905b602460c4356004013560051b60c4350101821061116557505060e4356001600160401b038116900361010757600060c052845115611128573360c051526001602052604060c05120604051865191610574838360208b016120be565b918101918252908190036020019020546001600160a01b03166110ea5782518851036110b357825160ff60035460a01c16106110725760c05198895b845160ff8c1690811015610624578a51111561060c576020611fe08c60051b168b01015181018091116105f4579960ff808216146105f45760ff16600101996105b0565b634e487b7160e01b60c051526011600452602460c051fd5b634e487b7160e01b60c051526032600452602460c051fd5b5089959697988c916004541061102d576001600160a01b036106478a803061217c565b600354911699906001600160a01b03168a3b15611027576040516373ad6c2d60e01b8152600481019190915260c05181602481838f5af1801561101a5761100b575b503360c051526001602052604060c051206020604051809284516106b081848689016120be565b82019081520301902080546001600160a01b0319168b1790556040516106d581611f7b565b3381528160208201528260408201528360608201528460808201528660a08201528760c08201528860e082015260018060401b0360e435166101008201528a60c05152600260205260c051604081209060018060a01b0383511660018060a01b0319835416178255602083015180519160018060401b038311610b5d5750819061076260018501546120e1565b601f8111610fd4575b5060c05190602091601f8411600114610f62575060c05192610f57575b50508160011b916000199060031b1c19161760018201555b60408201518051906001600160401b038211610b455781906107c560028501546120e1565b601f8111610f20575b5060c05190602091601f8411600114610eae575060c05192610ea3575b50508160011b916000199060031b1c19161760028201555b6060820151805190600160401b8211610b45576003830154826003850155808310610e21575b5060c080516003850190525160208082209392015b828210610d04575050505060808201518051906001600160401b038211610b4557819061086e60048501546120e1565b601f8111610ccd575b5060c05190602091601f8411600114610c5b575060c05192610c50575b50508160011b916000199060031b1c19161760048201555b60a08201518051906001600160401b038211610b455781906108d160058501546120e1565b601f8111610c0e575b5060c05190602091601f8411600114610b9c575060c05192610b91575b50508160011b916000199060031b1c19161760058201555b60c082015180516001600160401b038111610b4557600160401b8111610b45576020600684019261094583855481875586612132565b019160c0515260c0519160208320835b838110610b74575050505060e08301518051916001600160401b038311610b5d5750600160401b8211610b45576020600784019161099884845481865585612132565b019060c0515260c05160208120905b838110610b315750505061010090920151600890910180546001600160401b0319166001600160401b039290921691909117905550604080519a8b523360208c0152610140908b01819052610a119291610a03918c0190612157565b908a820360608c0152612157565b9088820360808a015251808252602082019160208260051b820101949260c051915b838310610b0457505050505091610a578260209489610a65950360a08b0152612157565b9087820360c0890152612157565b9185830360e0870152519182815201929060c0515b818110610ae557505050602090838303610100850152519182815201929060c0515b818110610acf5760e4356001600160401b0316610120850152600080516020613f7183398151915284860385a160e05180f35b8251855260209485019490920191600101610a9c565b82516001600160a01b0316855260209485019490920191600101610a7a565b9091929395602080610b22600193601f198682030187528a51612157565b98019301930191939290610a33565b6001906020845194019381840155016109a7565b634e487b7160e01b60c051526041600452602460c051fd5b634e487b7160e01b9052604160045260c051602490fd5b82516001600160a01b031681830155602090920191600101610955565b015190508f806108f7565b60058601905260c0516020812090945091905b601f1984168510610bf3576001945083601f19811610610bda575b505050811b01600582015561090f565b015160001960f88460031b161c191690558f8080610bca565b81810151835560209485019460019093019290910190610baf565b610c40906005860160c05152602060c05120601f850160051c81019160208610610c46575b601f0160051c019061211b565b386108da565b9091508190610c33565b015190508f80610894565b60048601905260c0516020812090945091905b601f1984168510610cb2576001945083601f19811610610c99575b505050811b0160048201556108ac565b015160001960f88460031b161c191690558f8080610c89565b81810151835560209485019460019093019290910190610c6e565b610cfe906004860160c05152602060c05120601f850160051c81019160208610610c4657601f0160051c019061211b565b38610877565b80518051906001600160401b038211610b4557610d2186546120e1565b601f8111610ded575b5060c0519086602092601f8511600114610d7f575050928260019493602093869560c05192610d74575b5050600019600383901b1c191690841b1787555b0194019101909261083e565b015190503880610d54565b5260c051602081209291905b601f1985168110610dd5575083602093600196938796938794601f19811610610dbc575b505050811b018755610d68565b015160001960f88460031b161c19169055388080610daf565b91926020600181928685015181550194019201610d8b565b610e1b908760c05152602060c05120601f850160051c81019160208610610c4657601f0160051c019061211b565b38610d2a565b6003840160c05152602060c05120908382015b8183018110610e44575050610829565b80610e51600192546120e1565b80610e5e575b5001610e34565b601f81118314610e745750600081555b38610e57565b8160c05152610e9560c0519184601f60208520920160051c8201910161211b565b602081206000835555610e6e565b015190508f806107eb565b60028601905260c0516020812090945091905b601f1984168510610f05576001945083601f19811610610eec575b505050811b016002820155610803565b015160001960f88460031b161c191690558f8080610edc565b81810151835560209485019460019093019290910190610ec1565b610f51906002860160c05152602060c05120601f850160051c81019160208610610c4657601f0160051c019061211b565b386107ce565b015190508f80610788565b60018601905260c0516020812090945091905b601f1984168510610fb9576001945083601f19811610610fa0575b505050811b0160018201556107a0565b015160001960f88460031b161c191690558f8080610f90565b81810151835560209485019460019093019290910190610f75565b611005906001860160c05152602060c05120601f850160051c81019160208610610c4657601f0160051c019061211b565b3861076b565b61101490611f52565b8b610689565b6040513d60c051823e3d90fd5b60c05180fd5b60405162461bcd60e51b815260206004820152601d60248201527f4578636565646564204d41585f43524541544f525f4541524e494e47530000006044820152606490fd5b60405162461bcd60e51b8152602060048201526019602482015278115e18d9595919590813505617d41056515154d7d0d3d55395603a1b6044820152606490fd5b60405162461bcd60e51b815260206004820152600f60248201526e4c61636b206f6620726f79616c747960881b6044820152606490fd5b60405162461bcd60e51b815260206004820152601660248201527510dbdb1b1958dd1a5bdb881dd85cc8195e1a5cdd195960521b6044820152606490fd5b60405162461bcd60e51b8152602060048201526015602482015274456d70747920636f6c6c656374696f6e206e616d6560581b6044820152606490fd5b8135815260209182019101610518565b81356001600160a01b0381169003611197578135815260209182019101610497565b600080fd5b8235906001600160401b03821161010757602080916111c46024948536916044350101611ff0565b81520193019290506103db565b34611197576060366003190112611197576004356001600160401b03811161119757611201903690600401611ff0565b6044356001600160401b03811161010757611220903690600401611ff0565b6080528051156113e4575b3360e0515260209060018252604060e05120908261125260405192838151938492016120be565b81019182529081900382019020546001600160a01b03169081156113a15760e08051839052600282525160409081902060080154905163023fe4d560e11b8152906001600160401b03168282600481875afa9182156113235760e05192611372575b5011156113305750803b156101075760405190633349e71f60e21b82523360048301526024356024830152606060448301528160e0519181806112fc60648201608051612157565b039160e051905af18015611323576113145760e05180f35b61131d90611f52565b806101a1565b6040513d60e051823e3d90fd5b6064906040519062461bcd60e51b82526004820152601b60248201527a737570706c7920776f756c6420657863656564206d6178696d756d60281b6044820152fd5b9091508281813d831161139a575b61138a8183611fcd565b81010312610107575190846112b4565b503d611380565b6064906040519062461bcd60e51b825280600483015260248201527f5468617420636f6c6c656374696f6e207761736e2774207075626c69736865646044820152fd5b506040516113f181611f97565b60138152723ab73a34ba3632b21031b7b63632b1ba34b7b760691b6020820152803360e051526001602052604060e0512060405182516114358183602087016120be565b8101918252908190036020019020546001600160a01b031615611459575b5061122b565b6040519161146683611fb2565b60e05183526040519161147883611fb2565b60e05183526040519161148a83611fb2565b60e05183526040519161149c83611f97565b60088352671d5b9d1a5d1b195960c21b6020840152604051946114be86611fb2565b60e05186526040516114cf81611fb2565b60e051815260e05190835115611128573360e051526001602052604060e051206040518551611502818360208a016120be565b8101918252908190036020019020546001600160a01b03166110ea5782518751036110b357825160ff60035460a01c16106110725760e05198895b845160ff8c16908110156115b05789511115611598576020611fe08c60051b168a01015181018091116115805760ff909a1660ff8114611580576001019961153d565b634e487b7160e01b60e051526011600452602460e051fd5b634e487b7160e01b60e051526032600452602460e051fd5b50909396919498929599506004541061102d576001600160a01b036115d689803061217c565b1660a08190526003546001600160a01b0316903b1561010757604051906373ad6c2d60e01b8252600482015260e051816024818360a0515af1801561132357611f3d575b50338552600160205260408520602060405180928261163f8d848151938492016120be565b82019081520301902060a05181546001600160a01b03191617905560405161166681611f7b565b33815260208082018a81526040808401859052606084018790526080840186905260a080850189905260c085018b905260e085018c90526001600160401b03610100860181905290518a5260029093528820835181546001600160a01b0319166001600160a01b03919091161781559051805191928211611aa95781906116f060018501546120e1565b601f8111611f0a575b50602090601f8311600114611e9b578a92611e90575b50508160011b916000199060031b1c19161760018201555b60408201518051906001600160401b038211611aa957819061174c60028501546120e1565b601f8111611e5d575b50602090601f8311600114611dee578a92611de3575b50508160011b916000199060031b1c19161760028201555b6060820151805190600160401b8211611aa9576003830154826003850155808310611d64575b506020016003830189526020892089915b838310611c34575050505060808201518051906001600160401b038211611aa95781906117ea60048501546120e1565b601f8111611c01575b50602090601f8311600114611b92578a92611b87575b50508160011b916000199060031b1c19161760048201555b60a08201518051906001600160401b038211611aa957819061184660058501546120e1565b601f8111611b54575b50602090601f8311600114611ae5578a92611ada575b50508160011b916000199060031b1c19161760058201555b60c08201518051906001600160401b038211611aa957600160401b8211611aa957602060068401916118b484845481865585612132565b0190895260208920895b838110611abd575050505060e08201518051906001600160401b038211611aa957600160401b8211611aa95760206007849b9a9b019161190384845481865585612132565b01908a5260208a208a5b838110611a95575050505090600861196f9392019061010060018060401b039101511660018060401b03198254161790556119616040519960a0518b523360208c01526101408060408d01528b0190612157565b9089820360608b0152612157565b8781036080890152825180825260208201916020808360051b83010195019288915b838310611a62575050505050816119b391886119c195940360a08a0152612157565b9086820360c0880152612157565b84810360e086015260208083519283815201920190835b818110611a4357505050838103610100850152602080845192838152019301915b818110611a2d5750506001600160401b0361012084015250600080516020613f71833981519152919081900390a181611453565b82518452602093840193909201916001016119f9565b82516001600160a01b03168452602093840193909201916001016119d8565b9091929395602080611a83600193601f9d9c9d198682030187528a51612157565b98019301930191939290989798611991565b82518183015560209092019160010161190d565b634e487b7160e01b89526041600452602489fd5b82516001600160a01b0316818301556020909201916001016118be565b015190508d80611865565b9250600584018a5260208a20908a935b601f1984168510611b39576001945083601f19811610611b20575b505050811b01600582015561187d565b015160001960f88460031b161c191690558d8080611b10565b81810151835560209485019460019093019290910190611af5565b611b8190600586018c5260208c20601f850160051c81019160208610610c4657601f0160051c019061211b565b8e61184f565b015190508d80611809565b9250600484018a5260208a20908a935b601f1984168510611be6576001945083601f19811610611bcd575b505050811b016004820155611821565b015160001960f88460031b161c191690558d8080611bbd565b81810151835560209485019460019093019290910190611ba2565b611c2e90600486018c5260208c20601f850160051c81019160208610610c4657601f0160051c019061211b565b8e6117f3565b80518051906001600160401b038211611d50578c611c5285546120e1565b601f8111611d15575b50506020908d601f8411600114611ca857928060209360019693879692611c9d575b5050600019600383901b1c191690841b1785555b019201920191906117ba565b015190503880611c7d565b919085835260208320925b601f1985168110611cfd575083602093600196938796938794601f19811610611ce4575b505050811b018555611c91565b015160001960f88460031b161c19169055388080611cd7565b91926020600181928685015181550194019201611cb3565b60208287611d3f9452206005601f8601811c82019260208710611d46575b601f01901c019061211b565b8c38611c5b565b9192508291611d33565b634e487b7160e01b8d52604160045260248dfd5b600384018a5260208a20908382015b8183018110611d835750506117a9565b808c611d91600193546120e1565b80611d9f575b505001611d73565b601f81118414611db857505060e05181555b8c38611d97565b83601f60208486611dd3965220920160051c8201910161211b565b8c6020812060e051835555611db1565b015190508d8061176b565b9250600284018a5260208a20908a935b601f1984168510611e42576001945083601f19811610611e29575b505050811b016002820155611783565b015160001960f88460031b161c191690558d8080611e19565b81810151835560209485019460019093019290910190611dfe565b611e8a90600286018c5260208c20601f850160051c81019160208610610c4657601f0160051c019061211b565b8e611755565b015190508d8061170f565b9250600184018a5260208a20908a935b601f1984168510611eef576001945083601f19811610611ed6575b505050811b016001820155611727565b015160001960f88460031b161c191690558d8080611ec6565b81810151835560209485019460019093019290910190611eab565b611f3790600186018c5260208c20601f850160051c81019160208610610c4657601f0160051c019061211b565b8e6116f9565b611f48919550611f52565b60e051938961161a565b6001600160401b038111611f6557604052565b634e487b7160e01b600052604160045260246000fd5b61012081019081106001600160401b03821117611f6557604052565b604081019081106001600160401b03821117611f6557604052565b602081019081106001600160401b03821117611f6557604052565b601f909101601f19168101906001600160401b03821190821017611f6557604052565b81601f82011215611197578035906001600160401b038211611f655760405192612024601f8401601f191660200185611fcd565b8284526020838301011161119757816000926020809301838601378301015290565b6001600160401b038111611f655760051b60200190565b600435906001600160a01b038216820361119757565b1561207a57565b606460405162461bcd60e51b815260206004820152602060248201527f4f776e61626c653a2063616c6c6572206973206e6f7420746865206f776e65726044820152fd5b60005b8381106120d15750506000910152565b81810151838201526020016120c1565b90600182811c92168015612111575b60208310146120fb57565b634e487b7160e01b600052602260045260246000fd5b91607f16916120f0565b818110612126575050565b6000815560010161211b565b9181811061213f57505050565b612155926000526020600020918201910161211b565b565b90602091612170815180928185528580860191016120be565b601f01601f1916010190565b604051611d2d8082019291906001600160401b03841182851017611f6557612244823980600093039083f0908115612238576001600160a01b0391821694853b1561223457906122068493926121f46040519788958695639065714760e01b8752166004860152606060248601526064850190612157565b83810360031901604485015290612157565b038183875af1908115612228575061221c575090565b61222590611f52565b90565b604051903d90823e3d90fd5b8380fd5b6040513d84823e3d90fdfe6080806040523461001657611d11908161001c8239f35b600080fdfe60406080815260048036101561001457600080fd5b600091823560e01c8062fdd58e1461156157806301ffc9a7146114d6578063047fc9aa146114b65780630e89341c146113865780632eb2c2d614610fd457806335403023146109cf5780634e1273f414610e375780634f558e7914610e0d57806373ad6c2d14610dbd5780639065714714610ad4578063a22cb46514610a1c578063bc197c81146109f7578063bd85b039146109cf578063cd279c7c14610552578063e985e9c5146104f9578063f23a6e61146104d4578063f242432a1461018d5763f2fde38b146100e557600080fd5b34610189576020366003190112610189576100fe611591565b6101318054909390916001600160a01b039061011d8285163314611b76565b169283156101375750506001600160a01b03191617905580f35b906020608492519162461bcd60e51b8352820152602660248201527f4f776e61626c653a206e6577206f776e657220697320746865207a65726f206160448201526564647265737360d01b6064820152fd5b8280fd5b509190346104d05761019e366117a5565b9196936001600160a01b03908116919033831480156104b1575b6101c1906118ce565b84168015986101d08a15611931565b6101d981611b41565b6101e284611b41565b9a8515610457575b6103a4575b5088995080899697989952602096606588528887208588528852838988205461021a8282101561198b565b83895260658a528a8920878a528a52038988205581875260658852888720838852885288872061024b8582546119ea565b905582858a51848152868b820152600080516020611c9c8339815191528c3392a43b610275578580f35b889587946102b68a519788968795869463f23a6e6160e01b9c8d8752339087015260248601526044850152606484015260a0608484015260a48301906115ac565b03925af1869181610375575b506103445750506001906102d4611a60565b6308c379a014610311575b506102f45750505b3880808381808080808580f35b5162461bcd60e51b81529150819061030d908201611aec565b0390fd5b610319611a7e565b8061032457506102df565b61030d8591855193849362461bcd60e51b855284015260248301906115ac565b6001600160e01b03191603905061035c5750506102e7565b5162461bcd60e51b81529150819061030d908201611a17565b610396919250843d861161039d575b61038e81836115ec565b8101906119f7565b90386102c2565b503d610384565b9492909897959391885b8651811015610440578b6103cd826103c6818b6118a4565b51926118a4565b51818c52609760208181528c8e205492938484106103fe578e52528a8c2091900390556103f99061187f565b6103ae565b508b6084918e519162461bcd60e51b835282015260286024820152600080516020611cbc833981519152604482015267616c537570706c7960c01b6064820152fd5b5097995089989597939592945090929091386101ef565b999694929098959391875b8c8b518210156104a157908b61047f826103c68161049c966118a4565b518b5260976020526104958c8c209182546119ea565b905561187f565b610462565b50509193959890929496996101ea565b5082885260666020908152868920338a5290528588205460ff166101b8565b5080fd5b8382346104d0576020906104e7366117a5565b50505050505163f23a6e6160e01b8152f35b8382346104d057806003193601126104d057610513611591565b6001600160a01b03602435818116929083900361054e579360ff92849260209616825260668652828220908252855220541690519015158152f35b8480fd5b50346101895760603660031901126101895761056c611591565b6001600160401b03916044358381116109cb5761058c903690860161169a565b9060019161012d938385540180955584885260209461012f86528389209660018060a01b0393848416988960018060a01b03198254161790556101308852858b20908051908382116109b8578c82916105e58554611c21565b8c601f8211610963575b50508b91601f841160011461090257926108f7575b5050600019600383901b1c191690881b1790555b845190878201908111828210176108e4578552898152871561089757818a88926106438c9695611b41565b94896024359661065288611b41565b85835b610832575b50505050838352606585528883208c8452855288832061067b8782546119ea565b90558b838a518681528888820152600080516020611c9c8339815191528c3392a43b61072c575b50505050505061012e5416948585146106eb5750838652606683528086208587528352808620805460ff19168317905551908152600080516020611c5c8339815191529190a380f35b83608492519162461bcd60e51b835282015260296024820152600080516020611c7c833981519152604482015268103337b91039b2b63360b91b6064820152fd5b610768908851958694859463f23a6e6160e01b998a8752339087015260248601526044850152606484015260a0608484015260a48301906115ac565b03818c8b5af1899181610813575b506107ed57505082610786611a60565b6308c379a0146107b8575b6107a1575b853885818a816106a2565b815162461bcd60e51b81528061030d818901611aec565b6107c0611a7e565b806107cb5750610791565b835162461bcd60e51b815280890187905290819061030d9060248301906115ac565b6001600160e01b0319161461079657815162461bcd60e51b81528061030d818901611a17565b61082b919250873d891161039d5761038e81836115ec565b9038610776565b91939597849a91939597999a5183101561088857829150609761085861087694866118a4565b519161086484886118a4565b518b52526104958d8a209182546119ea565b9183918f99989694938e989694610655565b979593819a999795935061065a565b845162461bcd60e51b8152808a01889052602160248201527f455243313135353a206d696e7420746f20746865207a65726f206164647265736044820152607360f81b6064820152608490fd5b634e487b7160e01b8b5260418a5260248bfd5b015190503880610604565b8581528c81208c9550929190601f198516908e5b82821061094c5750508411610933575b505050811b019055610618565b015160001960f88460031b161c19169055388080610926565b8385015186558e979095019493840193018e610916565b9193509185815220601f840160051c81018c85106109b1575b918f92859492601f8e92930160051c01915b82811061099d5750508c6105ef565b809294919395505501918e918b859461098e565b508061097c565b634e487b7160e01b8d5260418c5260248dfd5b8580fd5b5090346101895760203660031901126101895760209282913581526097845220549051908152f35b8382346104d057602090610a0a366116f0565b50505050505163bc197c8160e01b8152f35b5034610189578060031936011261018957610a35611591565b906024359182151580930361054e576001600160a01b031692338414610a925750338452606660205280842083855260205280842060ff1981541660ff841617905551908152600080516020611c5c83398151915260203392a380f35b6020608492519162461bcd60e51b835282015260296024820152600080516020611c7c833981519152604482015268103337b91039b2b63360b91b6064820152fd5b50903461018957606036600319011261018957610aef611591565b916001600160401b03906024358281116109cb57610b10903690850161169a565b506044358281116109cb57610b28903690850161169a565b5084549160ff8360081c161594858096610db0575b8015610d99575b15610d3f57600193868560ff198316178955610d2e575b5061013180546001600160a01b0319166001600160a01b03909216919091179055815160209485820183811183821017610d1b578452878252610bad60ff895460081c16610ba881611bc1565b611bc1565b8151928311610d0857508190610bc4606754611c21565b601f8111610cb7575b508590601f8311600114610c56578892610c4b575b5050600019600383901b1c191690831b176067555b845493610c0d60ff8660081c16610ba881611bc1565b610c15578480f35b7f7f26b83ff96e1f2b6a682f133852f6798a09c465da95921460cefb38474024989361ff001916855551908152a1388080808480f35b015190503880610be2565b606789528689208694509190601f1984168a5b89828210610ca15750508411610c88575b505050811b01606755610bf7565b015160001960f88460031b161c19169055388080610c7a565b8385015186558997909501949384019301610c69565b90915060678852858820601f840160051c810191878510610cfe575b84939291601f88920160051c01915b828110610cf0575050610bcd565b8a8155859450879101610ce2565b9091508190610cd3565b634e487b7160e01b885260419052602487fd5b634e487b7160e01b895260418252602489fd5b61ffff191661010117875538610b5b565b825162461bcd60e51b8152602081870152602e60248201527f496e697469616c697a61626c653a20636f6e747261637420697320616c72656160448201526d191e481a5b9a5d1a585b1a5e995960921b6064820152608490fd5b50303b158015610b445750600160ff851614610b44565b50600160ff851610610b3d565b8334610e0a576020366003190112610e0a57610dd7611591565b610131546001600160a01b0390610df19082163314611b76565b61012e80546001600160a01b0319169190921617905580f35b80fd5b50903461018957602036600319011261018957602092829135815260978452205415159051908152f35b50903461018957816003193601126101895780356001600160401b0380821161054e573660238301121561054e578183013590610e7382611625565b92610e80865194856115ec565b82845260209260248486019160051b83010191368311610fd057602401905b828210610fad575050506024359081116109cb57610ec0903690850161163c565b928251845103610f5a5750815194610ed786611625565b95610ee4865197886115ec565b808752610ef3601f1991611625565b0136838801375b8251811015610f4457610f3f90610f2f6001600160a01b03610f1c83876118a4565b5116610f2883886118a4565b51906117fa565b610f3982896118a4565b5261187f565b610efa565b845182815280610f5681850189611771565b0390f35b60849185519162461bcd60e51b8352820152602960248201527f455243313135353a206163636f756e747320616e6420696473206c656e677468604482015268040dad2e6dac2e8c6d60bb1b6064820152fd5b81356001600160a01b0381168103610fcc578152908401908401610e9f565b8980fd5b8880fd5b508290346104d057610fe5366116f0565b909692959390926001600160a01b0391821692913384148015611367575b61100c906118ce565b82518951036113135787169384156110248115611931565b84156112c0575b611216575b855b83518110156110ae57806110496110a992866118a4565b51611054828d6118a4565b5190808a5260656020918183528c8c208a8d528352838d8d8c828220549261107e8585101561198b565b858352868852822091528552038d8d20558b5281528a8a2090898b52526104958a8a209182546119ea565b611032565b509293909691859892828689518a81527f4a39dc06d4c0dbc64b70af90fd698a233a518aa5d07e595d983b8c0526c8f7fb6110eb8c830187611771565b9180830360208201528061110033948b611771565b0390a43b61110c578580f35b879561115f9561116e61114c956020978b51998a988997889663bc197c8160e01b9e8f89523390890152602488015260a0604488015260a4870190611771565b6003199384878303016064880152611771565b918483030160848501526115ac565b03925af18591816111f6575b506111e0575050600161118b611a60565b6308c379a0146111a9575b6102f45750505b81808281808080808580f35b6111b1611a7e565b806111bc5750611196565b905061030d91602094505193849362461bcd60e51b855284015260248301906115ac565b6001600160e01b0319160361035c57505061119d565b61120f91925060203d811161039d5761038e81836115ec565b908661117a565b9691928596959491945b84518110156112b15761123381866118a4565b5161123e828c6118a4565b5190808a52609760208181528a8c20549284841061126f578c5252888a20919003905561126a9061187f565b611220565b8b5162461bcd60e51b8152808c0183905260286024820152600080516020611cbc833981519152604482015267616c537570706c7960c01b6064820152608490fd5b50929196959495939093611030565b98949297939190865b895181101561130657806112e061130192896118a4565b516112eb828d6118a4565b518a5260976020526104958b8b209182546119ea565b6112c9565b509091939792949861102b565b865162461bcd60e51b8152602081840152602860248201527f455243313135353a2069647320616e6420616d6f756e7473206c656e677468206044820152670dad2e6dac2e8c6d60c31b6064820152608490fd5b508386526066602090815287872033885290528686205460ff16611003565b503461018957602091826003193601126114b257803580855261012f8452828520549091906001600160a01b03161561147d5750835261013082528083208151938491818154906113d682611c21565b92838652600192888482169182600014611453575050600114611415575b8588610f5689611406848a03856115ec565b519282849384528301906115ac565b87945081939291528383205b82841061143b5750505082010181611406610f56386113f4565b8054848a018601528895508794909301928101611421565b60ff19168882015294151560051b870190940194508593506114069250610f5691503890506113f4565b825162461bcd60e51b8152908101849052600f60248201526e151bdad95b881b9bdd08199bdd5b99608a1b6044820152606490fd5b8380fd5b8382346104d057816003193601126104d05760209061012d549051908152f35b50903461018957602036600319011261018957359063ffffffff60e01b82168092036101895760209250630271189760e51b821491821561151b575b50519015158152f35b909150636cdb3d1360e11b8114908115611550575b811561153f575b509038611512565b6301ffc9a760e01b14905038611537565b6303a24d0760e21b81149150611530565b8382346104d057806003193601126104d05760209061158a611581611591565b602435906117fa565b9051908152f35b600435906001600160a01b03821682036115a757565b600080fd5b919082519283825260005b8481106115d8575050826000602080949584010152601f8019910116010190565b6020818301810151848301820152016115b7565b601f909101601f19168101906001600160401b0382119082101761160f57604052565b634e487b7160e01b600052604160045260246000fd5b6001600160401b03811161160f5760051b60200190565b81601f820112156115a75780359161165383611625565b9261166160405194856115ec565b808452602092838086019260051b8201019283116115a7578301905b82821061168b575050505090565b8135815290830190830161167d565b81601f820112156115a7578035906001600160401b03821161160f57604051926116ce601f8401601f1916602001856115ec565b828452602083830101116115a757816000926020809301838601378301015290565b60a06003198201126115a7576001600160a01b039160043583811681036115a7579260243590811681036115a757916001600160401b03916044358381116115a7578261173f9160040161163c565b926064358181116115a757836117579160040161163c565b926084359182116115a75761176e9160040161169a565b90565b90815180825260208080930193019160005b828110611791575050505090565b835185529381019392810192600101611783565b60a06003198201126115a7576001600160a01b039160043583811681036115a7579260243590811681036115a757916044359160643591608435906001600160401b0382116115a75761176e9160040161169a565b6001600160a01b031690811561182757600052606560205260406000209060005260205260406000205490565b60405162461bcd60e51b815260206004820152602a60248201527f455243313135353a2061646472657373207a65726f206973206e6f742061207660448201526930b634b21037bbb732b960b11b6064820152608490fd5b600019811461188e5760010190565b634e487b7160e01b600052601160045260246000fd5b80518210156118b85760209160051b010190565b634e487b7160e01b600052603260045260246000fd5b156118d557565b60405162461bcd60e51b815260206004820152602e60248201527f455243313135353a2063616c6c6572206973206e6f7420746f6b656e206f776e60448201526d195c881bdc88185c1c1c9bdd995960921b6064820152608490fd5b1561193857565b60405162461bcd60e51b815260206004820152602560248201527f455243313135353a207472616e7366657220746f20746865207a65726f206164604482015264647265737360d81b6064820152608490fd5b1561199257565b60405162461bcd60e51b815260206004820152602a60248201527f455243313135353a20696e73756666696369656e742062616c616e636520666f60448201526939103a3930b739b332b960b11b6064820152608490fd5b9190820180921161188e57565b908160209103126115a757516001600160e01b0319811681036115a75790565b60809060208152602860208201527f455243313135353a204552433131353552656365697665722072656a656374656040820152676420746f6b656e7360c01b60608201520190565b60009060033d11611a6d57565b905060046000803e60005160e01c90565b600060443d1061176e57604051600319913d83016004833e81516001600160401b03918282113d602484011117611adb57818401948551938411611ae3573d85010160208487010111611adb575061176e929101602001906115ec565b949350505050565b50949350505050565b60809060208152603460208201527f455243313135353a207472616e7366657220746f206e6f6e2d455243313135356040820152732932b1b2b4bb32b91034b6b83632b6b2b73a32b960611b60608201520190565b60408051919082016001600160401b0381118382101761160f57604052600182526020820160203682378251156118b8575290565b15611b7d57565b606460405162461bcd60e51b815260206004820152602060248201527f4f776e61626c653a2063616c6c6572206973206e6f7420746865206f776e65726044820152fd5b15611bc857565b60405162461bcd60e51b815260206004820152602b60248201527f496e697469616c697a61626c653a20636f6e7472616374206973206e6f74206960448201526a6e697469616c697a696e6760a81b6064820152608490fd5b90600182811c92168015611c51575b6020831014611c3b57565b634e487b7160e01b600052602260045260246000fd5b91607f1691611c3056fe17307eab39ab6107e8899845ad3d59bd9653f200f220920489ca2b5937696c31455243313135353a2073657474696e6720617070726f76616c20737461747573c3d58168c5ae7397731d063d5bbf3d657854427343f4c083240f7aacaa2d0f62455243313135353a206275726e20616d6f756e74206578636565647320746f74a2646970667358221220a3e07a3513bb6f48ab429de667318ea70da531c6b9bba1cf9ca9004e3769d74b64736f6c6343000811003386edab837edec9b099eb0aa474d221a1b69172248fcca83c120f72e6f3572381a26469706673582212206e67fe3c2e212af0944218142ec7cf73b4b279f84d1f8a8bb900bf1a9231dd6e64736f6c63430008110033",
  "linkReferences": {},
  "deployedLinkReferences": {}
}