{
  "_format": "hh-sol-artifact-1",
  "contractName": "MultipleCollective",
  "sourceName": "contracts/collective/MultipleCollective.sol",
  "abi": [
    {
      "inputs": [],
      "stateMutability": "nonpayable",
      "type": "constructor"
    },
    {
      "anonymous": false,
      "inputs": [
        {
          "indexed": false,
          "internalType": "address",
          "name": "root",
          "type": "address"
        },
        {
          "indexed": false,
          "internalType": "address",
          "name": "creator",
          "type": "address"
        },
        {
          "indexed": false,
          "internalType": "string",
          "name": "name",
          "type": "string"
        },
        {
          "indexed": false,
          "internalType": "string",
          "name": "category",
          "type": "string"
        },
        {
          "indexed": false,
          "internalType": "string[]",
          "name": "tags",
          "type": "string[]"
        },
        {
          "indexed": false,
          "internalType": "string",
          "name": "description",
          "type": "string"
        },
        {
          "indexed": false,
          "internalType": "string",
          "name": "uri",
          "type": "string"
        },
        {
          "indexed": false,
          "internalType": "address[]",
          "name": "payees",
          "type": "address[]"
        },
        {
          "indexed": false,
          "internalType": "uint256[]",
          "name": "royalties",
          "type": "uint256[]"
        },
        {
          "indexed": false,
          "internalType": "uint64",
          "name": "maximum",
          "type": "uint64"
        }
      ],
      "name": "CollectionCreated",
      "type": "event"
    },
    {
      "anonymous": false,
      "inputs": [
        {
          "indexed": true,
          "internalType": "address",
          "name": "previousOwner",
          "type": "address"
        },
        {
          "indexed": true,
          "internalType": "address",
          "name": "newOwner",
          "type": "address"
        }
      ],
      "name": "OwnershipTransferred",
      "type": "event"
    },
    {
      "inputs": [
        {
          "internalType": "string",
          "name": "name",
          "type": "string"
        },
        {
          "internalType": "string",
          "name": "category",
          "type": "string"
        },
        {
          "internalType": "string[]",
          "name": "tags",
          "type": "string[]"
        },
        {
          "internalType": "string",
          "name": "description",
          "type": "string"
        },
        {
          "internalType": "string",
          "name": "uri",
          "type": "string"
        },
        {
          "internalType": "address[]",
          "name": "payees",
          "type": "address[]"
        },
        {
          "internalType": "uint256[]",
          "name": "royalties",
          "type": "uint256[]"
        },
        {
          "internalType": "uint64",
          "name": "maximum",
          "type": "uint64"
        }
      ],
      "name": "createCollection",
      "outputs": [],
      "stateMutability": "nonpayable",
      "type": "function"
    },
    {
      "inputs": [
        {
          "internalType": "string",
          "name": "",
          "type": "string"
        },
        {
          "internalType": "string",
          "name": "",
          "type": "string"
        }
      ],
      "name": "createRoot",
      "outputs": [
        {
          "internalType": "contract IToken",
          "name": "",
          "type": "address"
        }
      ],
      "stateMutability": "nonpayable",
      "type": "function"
    },
    {
      "inputs": [
        {
          "internalType": "string",
          "name": "_collection",
          "type": "string"
        },
        {
          "internalType": "uint256",
          "name": "balance",
          "type": "uint256"
        },
        {
          "internalType": "string",
          "name": "uri",
          "type": "string"
        }
      ],
      "name": "mint",
      "outputs": [],
      "stateMutability": "nonpayable",
      "type": "function"
    },
    {
      "inputs": [],
      "name": "owner",
      "outputs": [
        {
          "internalType": "address",
          "name": "",
          "type": "address"
        }
      ],
      "stateMutability": "view",
      "type": "function"
    },
    {
      "inputs": [],
      "name": "renounceOwnership",
      "outputs": [],
      "stateMutability": "nonpayable",
      "type": "function"
    },
    {
      "inputs": [
        {
          "internalType": "address",
          "name": "_marketplace",
          "type": "address"
        }
      ],
      "name": "setMarketplace",
      "outputs": [],
      "stateMutability": "nonpayable",
      "type": "function"
    },
    {
      "inputs": [
        {
          "internalType": "address",
          "name": "newOwner",
          "type": "address"
        }
      ],
      "name": "transferOwnership",
      "outputs": [],
      "stateMutability": "nonpayable",
      "type": "function"
    }
  ],
  "bytecode": "0x6080806040523461007a5760008054336001600160a01b0319821681178355916001600160a01b03909116907f8be0079c531659141344cd1fd0a4f28419497f9722a3daafe3b4186f6b6457e09080a36003805460ff60a01b1916600560a01b17905567016345785d8a0000600455613fee90816100808239f35b600080fdfe61010060405260043610156200001457600080fd5b600060e05260003560e01c806306bdc94914620012255780633a35fe1b1462000276578063715018a6146200022457806373ad6c2d14620001d75780638da5cb5b14620001a9578063c682a10d14620001385763f2fde38b146200007757600080fd5b346200013257602036600319011262000132576200009462002200565b6200009e62002217565b6001600160a01b03908116908115620000de576000548260018060a01b03198216176000551660008051602062003f99833981519152600080a360e05180f35b60405162461bcd60e51b815260206004820152602660248201527f4f776e61626c653a206e6577206f776e657220697320746865207a65726f206160448201526564647265737360d01b6064820152608490fd5b60e05180fd5b346200013257604036600319011262000132576001600160401b0360043581811162000132576200016e9036906004016200218d565b5060243590811162000132576200018a9036906004016200218d565b506020620001976200233a565b6040516001600160a01b039091168152f35b34620001325760e05180600319360112620001d457546040516001600160a01b039091168152602090f35b80fd5b34620001325760203660031901126200013257620001f462002200565b620001fe62002217565b600380546001600160a01b0319166001600160a01b039290921691909117905560e05180f35b34620001325760e05180600319360112620001d4576200024362002217565b600080546001600160a01b0319811682556001600160a01b031660008051602062003f998339815191528280a360e05180f35b34620001325761010036600319011262000132576004356001600160401b0381116200013257620002ac9036906004016200218d565b6024356001600160401b0381116200013257620002ce9036906004016200218d565b906001600160401b03604435116200013257366023604435011215620001325760443560040135906200030182620021e8565b9262000311604051948562002169565b8284526020840180933660248260051b6044350101116200013257602460443501915b60248260051b60443501018310620011ec5750506001600160401b0360643511905062000132576200036c366064356004016200218d565b926001600160401b036084351162000132576200038f366084356004016200218d565b926001600160401b0360a43511620001325736602360a4350112156200013257620003c060a43560040135620021e8565b620003cf604051918262002169565b60a43560040135815260208101908136602460a4356004013560051b60a4350101116200013257602460a43501905b602460a4356004013560051b60a43501018210620011c35750506001600160401b0360c43511620001325736602360c43501121562000132576200044860c43560040135620021e8565b9562000458604051978862002169565b60c43560040135875260208701948536602460c4356004013560051b60c4350101116200013257602460c43501905b602460c4356004013560051b60c43501018210620011b257505060e4356001600160401b03811690036200013257600060a05284511562001175573360a051526001602052604060a05120604051865191620004e8838360208b0162002270565b918101918252908190036020019020546001600160a01b0316620011375782518851036200110057825160ff60035460a01c1610620010bf5760a05198895b845160ff8c1690811015620005a0578a51111562000588576020611fe08c60051b168b010151810180911162000570579960ff80821614620005705760ff166001019962000527565b634e487b7160e01b60a051526011600452602460a051fd5b634e487b7160e01b60a051526032600452602460a051fd5b5089959697988c91600454106200107a576001600160a01b03620005c36200233a565b1698893b156200106257604051633f89655560e11b815230600482015260a05181602481838f5af18015620010555762001068575b506003546001600160a01b03168a3b1562001062576040516373ad6c2d60e01b8152600481019190915260a05181602481838f5af1801562001055576200103d575b503360a051526001602052604060a0512060206040518092845162000663818486890162002270565b82019081520301902080546001600160a01b0319168b1790556040516200068a8162002114565b3381528160208201528260408201528360608201528460808201528660a08201528760c08201528860e082015260018060401b0360e435166101008201528a60a05152600260205260a051604081209060018060a01b0383511660018060a01b0319835416178255602083015180519160018060401b03831162000b49575081906200071a600185015462002295565b601f811162001002575b5060a05190602091601f841160011462000f8b575060a0519262000f7f575b50508160011b916000199060031b1c19161760018201555b60408201518051906001600160401b03821162000b3157819062000783600285015462002295565b601f811162000f44575b5060a05190602091601f841160011462000ecd575060a0519262000ec1575b50508160011b916000199060031b1c19161760028201555b6060820151805190600160401b821162000b3157600383015482600385015580831062000e34575b5060a080516003850190525160208082209392015b82821062000d06575050505060808201518051906001600160401b03821162000b3157819062000835600485015462002295565b601f811162000ccb575b5060a05190602091601f841160011462000c54575060a0519262000c48575b50508160011b916000199060031b1c19161760048201555b60a08201518051906001600160401b03821162000b315781906200089e600585015462002295565b601f811162000c01575b5060a05190602091601f841160011462000b8a575060a0519262000b7e575b50508160011b916000199060031b1c19161760058201555b60c082015180516001600160401b03811162000b3157600160401b811162000b3157602060068401926200091983855481875586620022eb565b019160a0515260a0519160208320835b83811062000b60575050505060e08301518051916001600160401b03831162000b495750600160401b821162000b3157602060078401916200097184845481865585620022eb565b019060a0515260a05160208120905b83811062000b1c5750505061010090920151600890910180546001600160401b0319166001600160401b039290921691909117905550604080519a8b523360208c0152610140908b01819052620009ef9291620009e0918c019062002313565b908a820360608c015262002313565b9088820360808a015251808252602082019160208260051b820101949260a051915b83831062000aec5750505050509162000a39826020948962000a48950360a08b015262002313565b9087820360c089015262002313565b9185830360e0870152519182815201929060a0515b81811062000acc57505050602090838303610100850152519182815201929060a0515b81811062000ab55760e4356001600160401b031661012085015260008051602062003f7983398151915284860385a160e05180f35b825185526020948501949092019160010162000a80565b82516001600160a01b031685526020948501949092019160010162000a5d565b909192939560208062000b0c600193601f198682030187528a5162002313565b9801930193019193929062000a11565b60019060208451940193818401550162000980565b634e487b7160e01b60a051526041600452602460a051fd5b634e487b7160e01b9052604160045260a051602490fd5b82516001600160a01b03168183015560209092019160010162000929565b015190508f80620008c7565b60058601905260a0516020812090945091905b601f198416851062000be5576001945083601f1981161062000bcb575b505050811b016005820155620008df565b015160001960f88460031b161c191690558f808062000bba565b8181015183556020948501946001909301929091019062000b9d565b62000c36906005860160a05152602060a05120601f850160051c8101916020861062000c3d575b601f0160051c0190620022d2565b38620008a8565b909150819062000c28565b015190508f806200085e565b60048601905260a0516020812090945091905b601f198416851062000caf576001945083601f1981161062000c95575b505050811b01600482015562000876565b015160001960f88460031b161c191690558f808062000c84565b8181015183556020948501946001909301929091019062000c67565b62000cff906004860160a05152602060a05120601f850160051c8101916020861062000c3d57601f0160051c0190620022d2565b386200083f565b80518051906001600160401b03821162000b315762000d26865462002295565b601f811162000dfc575b5060a0519086602092601f851160011462000d89575050928260019493602093869560a0519262000d7d575b5050600019600383901b1c191690841b1787555b0194019101909262000801565b01519050388062000d5c565b5260a051602081209291905b601f198516811062000de3575083602093600196938796938794601f1981161062000dc9575b505050811b01875562000d70565b015160001960f88460031b161c1916905538808062000dbb565b9192602060018192868501518155019401920162000d95565b62000e2d908760a05152602060a05120601f850160051c8101916020861062000c3d57601f0160051c0190620022d2565b3862000d30565b6003840160a05152602060a05120908382015b818301811062000e59575050620007ec565b8062000e686001925462002295565b8062000e77575b500162000e47565b601f8111831462000e8f5750600081555b3862000e6f565b8160a0515262000eb260a0519184601f60208520920160051c82019101620022d2565b60208120600083555562000e88565b015190508f80620007ac565b60028601905260a0516020812090945091905b601f198416851062000f28576001945083601f1981161062000f0e575b505050811b016002820155620007c4565b015160001960f88460031b161c191690558f808062000efd565b8181015183556020948501946001909301929091019062000ee0565b62000f78906002860160a05152602060a05120601f850160051c8101916020861062000c3d57601f0160051c0190620022d2565b386200078d565b015190508f8062000743565b60018601905260a0516020812090945091905b601f198416851062000fe6576001945083601f1981161062000fcc575b505050811b0160018201556200075b565b015160001960f88460031b161c191690558f808062000fbb565b8181015183556020948501946001909301929091019062000f9e565b62001036906001860160a05152602060a05120601f850160051c8101916020861062000c3d57601f0160051c0190620022d2565b3862000724565b6200104890620020ea565b60a05180156200063a5780fd5b6040513d60a051823e3d90fd5b60a05180fd5b6200107390620020ea565b8b620005f8565b60405162461bcd60e51b815260206004820152601d60248201527f4578636565646564204d41585f43524541544f525f4541524e494e47530000006044820152606490fd5b60405162461bcd60e51b8152602060048201526019602482015278115e18d9595919590813505617d41056515154d7d0d3d55395603a1b6044820152606490fd5b60405162461bcd60e51b815260206004820152600f60248201526e4c61636b206f6620726f79616c747960881b6044820152606490fd5b60405162461bcd60e51b815260206004820152601660248201527510dbdb1b1958dd1a5bdb881dd85cc8195e1a5cdd195960521b6044820152606490fd5b60405162461bcd60e51b8152602060048201526015602482015274456d70747920636f6c6c656374696f6e206e616d6560581b6044820152606490fd5b813581526020918201910162000487565b81356001600160a01b0381169003620011e7578135815260209182019101620003fe565b600080fd5b8235906001600160401b0382116200013257602080916200121760249485369160443501016200218d565b815201930192905062000334565b34620011e7576060366003190112620011e7576004356001600160401b038111620011e7576200125a9036906004016200218d565b6044356001600160401b03811162000132576200127c9036906004016200218d565b60805280511562001475575b3360e0515260209060018252604060e051209082620012b1604051928381519384920162002270565b81019182529081900382019020546001600160a01b0316908115620014325760e08051839052600282525160409081902060080154905163023fe4d560e11b8152906001600160401b03168282600481875afa918215620013ae5760e05192620013fd575b501115620013bb5750803b15620001325760405190633349e71f60e21b82523360048301526024356024830152606060448301528160e051918180620013626064820160805162002313565b039160e051905af18015620013ae576200137d575b60e05180f35b6001600160401b03811162001396576040528062001377565b634e487b7160e01b60e051526041600452602460e051fd5b6040513d60e051823e3d90fd5b6064906040519062461bcd60e51b82526004820152601b60248201527a737570706c7920776f756c6420657863656564206d6178696d756d60281b6044820152fd5b9091508281813d83116200142a575b62001418818362002169565b81010312620001325751908462001316565b503d6200140c565b6064906040519062461bcd60e51b825280600483015260248201527f5468617420636f6c6c656374696f6e207761736e2774207075626c69736865646044820152fd5b50604051620014848162002131565b60138152723ab73a34ba3632b21031b7b63632b1ba34b7b760691b6020820152803360e051526001602052604060e051206040518251620014ca81836020870162002270565b8101918252908190036020019020546001600160a01b031615620014f0575b5062001288565b60405191620014ff836200214d565b60e05183526040519162001513836200214d565b60e05183526040519162001527836200214d565b60e0518352604051916200153b8362002131565b60088352671d5b9d1a5d1b195960c21b6020840152604051946200155f866200214d565b60e051865260405162001572816200214d565b60e051815260e0519083511562001175573360e051526001602052604060e051206040518551620015a8818360208a0162002270565b8101918252908190036020019020546001600160a01b0316620011375782518751036200110057825160ff60035460a01c1610620010bf5760e05198895b845160ff8c16908110156200165e578951111562001646576020611fe08c60051b168a01015181018091116200162e5760ff909a1660ff81146200162e5760010199620015e6565b634e487b7160e01b60e051526011600452602460e051fd5b634e487b7160e01b60e051526032600452602460e051fd5b5090939691949892959950600454106200107a576001600160a01b03620016846200233a565b168060c0523b156200013257604051633f89655560e11b815230600482015260e051816024818360c0515af18015620013ae57620020d2575b5060018060a01b036003541660c0513b15620020ce57604051906373ad6c2d60e01b8252600482015285816024818360c0515af18015620020c357908691620020a7575b50503385526001602052604085206020604051809282620017298d8481519384920162002270565b82019081520301902060c05181546001600160a01b031916179055604051620017528162002114565b33815260208082018a81526040808401859052606084018790526080840186905260a0840188905260c08085018b905260e085018c90526001600160401b03610100860181905290518a5260029093528820835181546001600160a01b0319166001600160a01b0391909116178155905180519192821162001bcd578190620017df600185015462002295565b601f811162002070575b50602090601f831160011462001ffc578a9262001ff0575b50508160011b916000199060031b1c19161760018201555b60408201518051906001600160401b03821162001bcd57819062001841600285015462002295565b601f811162001fb9575b50602090601f831160011462001f45578a9262001f39575b50508160011b916000199060031b1c19161760028201555b6060820151805190600160401b821162001bcd57600383015482600385015580831062001eaf575b506020016003830189526020892089915b83831062001d6d575050505060808201518051906001600160401b03821162001bcd578190620018e8600485015462002295565b601f811162001d36575b50602090601f831160011462001cc2578a9262001cb6575b50508160011b916000199060031b1c19161760048201555b60a08201518051906001600160401b03821162001bcd5781906200194a600585015462002295565b601f811162001c7f575b50602090601f831160011462001c0b578a9262001bff575b50508160011b916000199060031b1c19161760058201555b60c08201518051906001600160401b03821162001bcd57600160401b821162001bcd5760206006840191620019bf84845481865585620022eb565b0190895260208920895b83811062001be1575050505060e08201518051906001600160401b03821162001bcd57600160401b821162001bcd5760206007849b9a9b019162001a1384845481865585620022eb565b01908a5260208a208a5b83811062001bb8575050505090600862001a849392019061010060018060401b039101511660018060401b031982541617905562001a756040519960c0518b523360208c01526101408060408d01528b019062002313565b9089820360608b015262002313565b8781036080890152825180825260208201916020808360051b83010195019288915b83831062001b825750505050508162001acc918862001adb95940360a08a015262002313565b9086820360c088015262002313565b84810360e086015260208083519283815201920190835b81811062001b6257505050838103610100850152602080845192838152019301915b81811062001b4b5750506001600160401b036101208401525060008051602062003f79833981519152919081900390a181620014e9565b825184526020938401939092019160010162001b14565b82516001600160a01b031684526020938401939092019160010162001af2565b909192939560208062001ba5600193601f9d9c9d198682030187528a5162002313565b9801930193019193929098979862001aa6565b82518183015560209092019160010162001a1d565b634e487b7160e01b89526041600452602489fd5b82516001600160a01b031681830155602090920191600101620019c9565b015190508d806200196c565b9250600584018a5260208a20908a935b601f198416851062001c63576001945083601f1981161062001c49575b505050811b01600582015562001984565b015160001960f88460031b161c191690558d808062001c38565b8181015183556020948501946001909301929091019062001c1b565b62001caf90600586018c5260208c20601f850160051c8101916020861062000c3d57601f0160051c0190620022d2565b8e62001954565b015190508d806200190a565b9250600484018a5260208a20908a935b601f198416851062001d1a576001945083601f1981161062001d00575b505050811b01600482015562001922565b015160001960f88460031b161c191690558d808062001cef565b8181015183556020948501946001909301929091019062001cd2565b62001d6690600486018c5260208c20601f850160051c8101916020861062000c3d57601f0160051c0190620022d2565b8e620018f2565b80518051906001600160401b03821162001e9b578c62001d8e855462002295565b601f811162001e5b575b50506020908d601f841160011462001de95792806020936001969387969262001ddd575b5050600019600383901b1c191690841b1785555b01920192019190620018b4565b01519050388062001dbc565b919085835260208320925b601f198516811062001e42575083602093600196938796938794601f1981161062001e28575b505050811b01855562001dd0565b015160001960f88460031b161c1916905538808062001e1a565b9192602060018192868501518155019401920162001df4565b6020828762001e889452206005601f8601811c8201926020871062001e90575b601f01901c0190620022d2565b8c3862001d98565b919250829162001e7b565b634e487b7160e01b8d52604160045260248dfd5b600384018a5260208a20908382015b818301811062001ed0575050620018a3565b808c62001ee06001935462002295565b8062001ef0575b50500162001ebe565b601f8111841462001f0b57505060e05181555b8c3862001ee7565b83601f6020848662001f28965220920160051c82019101620022d2565b8c6020812060e05183555562001f03565b015190508d8062001863565b9250600284018a5260208a20908a935b601f198416851062001f9d576001945083601f1981161062001f83575b505050811b0160028201556200187b565b015160001960f88460031b161c191690558d808062001f72565b8181015183556020948501946001909301929091019062001f55565b62001fe990600286018c5260208c20601f850160051c8101916020861062000c3d57601f0160051c0190620022d2565b8e6200184b565b015190508d8062001801565b9250600184018a5260208a20908a935b601f198416851062002054576001945083601f198116106200203a575b505050811b01600182015562001819565b015160001960f88460031b161c191690558d808062002029565b818101518355602094850194600190930192909101906200200c565b620020a090600186018c5260208c20601f850160051c8101916020861062000c3d57601f0160051c0190620022d2565b8e620017e9565b620020b290620020ea565b620020bf57848a62001701565b8480fd5b6040513d88823e3d90fd5b8580fd5b620020df919550620020ea565b60e0519389620016bd565b6001600160401b038111620020fe57604052565b634e487b7160e01b600052604160045260246000fd5b61012081019081106001600160401b03821117620020fe57604052565b604081019081106001600160401b03821117620020fe57604052565b602081019081106001600160401b03821117620020fe57604052565b601f909101601f19168101906001600160401b03821190821017620020fe57604052565b81601f82011215620011e7578035906001600160401b038211620020fe5760405192620021c5601f8401601f19166020018562002169565b82845260208383010111620011e757816000926020809301838601378301015290565b6001600160401b038111620020fe5760051b60200190565b600435906001600160a01b0382168203620011e757565b6000546001600160a01b031633036200222c57565b606460405162461bcd60e51b815260206004820152602060248201527f4f776e61626c653a2063616c6c6572206973206e6f7420746865206f776e65726044820152fd5b60005b838110620022845750506000910152565b818101518382015260200162002273565b90600182811c92168015620022c7575b6020831014620022b157565b634e487b7160e01b600052602260045260246000fd5b91607f1691620022a5565b818110620022de575050565b60008155600101620022d2565b91818110620022f957505050565b620023119260005260206000209182019101620022d2565b565b906020916200232e8151809281855285808601910162002270565b601f01601f1916010190565b604051611bf68082016001600160401b03811183821017620020fe57829162002383833903906000f0801562002376576001600160a01b031690565b6040513d6000823e3d90fdfe6080346200012257602081016001600160401b038111828210176200010c576040526000908190528054336001600160a01b0319821681178355906001600160a01b03167f8be0079c531659141344cd1fd0a4f28419497f9722a3daafe3b4186f6b6457e08380a36003546001908181811c9116801562000101575b6020821014620000ed57601f8111620000a3575b82600355604051611ace9081620001288239f35b60038352601f0160051c7fc2575a0e9e593c00f959f8c92f12db2869c3395a3b0502d05e2516446f71f85b908101905b818110620000e257506200008f565b8381558201620000d3565b634e487b7160e01b83526022600452602483fd5b90607f16906200007b565b634e487b7160e01b600052604160045260246000fd5b600080fdfe6040608081526004908136101561001557600080fd5b600091823560e01c8062fdd58e1461131157806301ffc9a714611287578063047fc9aa146112685780630e89341c146111395780632eb2c2d614610d8657806335403023146109db5780634e1273f414610bea5780634f558e7914610bc2578063715018a614610b7a57806373ad6c2d14610b325780637f12caaa14610b075780638da5cb5b14610adf578063a22cb46514610a26578063bc197c8114610a01578063bd85b039146109db578063cd279c7c14610554578063e985e9c5146104fb578063f23a6e61146104d6578063f242432a146101905763f2fde38b146100fc57600080fd5b3461018c57602036600319011261018c57610115611341565b9161011e6115b5565b6001600160a01b0383161561013a57836101378461160d565b80f35b906020608492519162461bcd60e51b8352820152602660248201527f4f776e61626c653a206e6577206f776e657220697320746865207a65726f206160448201526564647265737360d01b6064820152fd5b8280fd5b508290346104d2576101a136611560565b9196936001600160a01b03908116919033831480156104b3575b6101c490611716565b84168015986101d38a15611779565b6101dc81611989565b6101e584611989565b9a851561045a575b6103a7575b5088995080899697989952602096600188528887208588528852838988205461021d828210156117d3565b83895260018a528a8920878a528a52038988205581875260018852888720838852885288872061024e858254611832565b905582858a51848152868b820152600080516020611a398339815191528c3392a43b610278578580f35b889587946102b98a519788968795869463f23a6e6160e01b9c8d8752339087015260248601526044850152606484015260a0608484015260a483019061135c565b03925af1869181610378575b506103475750506001906102d76118a8565b6308c379a014610314575b506102f75750505b8180808381808080808580f35b5162461bcd60e51b815291508190610310908201611934565b0390fd5b61031c6118c6565b8061032757506102e2565b6103108591855193849362461bcd60e51b8552840152602483019061135c565b6001600160e01b03191603905061035f5750506102ea565b5162461bcd60e51b81529150819061031090820161185f565b610399919250843d86116103a0575b610391818361139c565b81019061183f565b90876102c5565b503d610387565b9492909897959391885b8651811015610443578b6103d0826103c9818b6116ec565b51926116ec565b5190808c5260208a81528b8d205491838310610401576103fc949392918c918f5252038a8c20556116c7565b6103b1565b8c5162461bcd60e51b8152808d0183905260286024820152600080516020611a59833981519152604482015267616c537570706c7960c01b6064820152608490fd5b50979950899895979395929450909290918a6101f2565b999694929098959391875b8c8b518210156104a357908b610482826103c98161049e966116ec565b518b52896020526104978c8c20918254611832565b90556116c7565b610465565b50509193959890929496996101ed565b5082885260026020908152868920338a5290528588205460ff166101bb565b5080fd5b5050346104d2576020906104e936611560565b50505050505163f23a6e6160e01b8152f35b5050346104d257806003193601126104d257610515611341565b6001600160a01b036024358181169290839003610550579360ff92849260209616825260028652828220908252855220541690519015158152f35b8480fd5b50903461018c57606036600319011261018c5761056f611341565b6001600160401b03916044358381116109d757366023820112156109d7576105a0903690602481880135910161144a565b9060019182600554019384600555848852602094600786528389209660018060a01b0393848416988960018060a01b031982541617905560088852858b20908051908382116109c4578c82916105f685546119be565b8c601f821161096f575b50508b91601f841160011461090e5792610903575b5050600019600383901b1c191690881b1790555b845190878201908111828210176108f057855289815287156108a357818a88926106548c9695611989565b94896024359661066388611989565b85835b610841575b505050508383528985528883208c8452855288832061068b878254611832565b90558b838a518681528888820152600080516020611a398339815191528c3392a43b61073b575b50505050505060065416948585146106fa5750838652600283528086208587528352808620805460ff191683179055519081526000805160206119f98339815191529190a380f35b83608492519162461bcd60e51b835282015260296024820152600080516020611a19833981519152604482015268103337b91039b2b63360b91b6064820152fd5b610777908851958694859463f23a6e6160e01b998a8752339087015260248601526044850152606484015260a0608484015260a483019061135c565b03818c8b5af1899181610822575b506107fc575050826107956118a8565b6308c379a0146107c7575b6107b0575b853885818a816106b2565b815162461bcd60e51b815280610310818901611934565b6107cf6118c6565b806107da57506107a0565b835162461bcd60e51b815280890187905290819061031090602483019061135c565b6001600160e01b031916146107a557815162461bcd60e51b81528061031081890161185f565b61083a919250873d89116103a057610391818361139c565b9038610785565b9193959790929496989984518310156108945790829161086461088294866116ec565b519161087084886116ec565b518b52526104978d8a20918254611832565b9183918f99989694938e989694610666565b9998969492819896945061066b565b845162461bcd60e51b8152808a01889052602160248201527f455243313135353a206d696e7420746f20746865207a65726f206164647265736044820152607360f81b6064820152608490fd5b634e487b7160e01b8b5260418a5260248bfd5b015190503880610615565b8581528c81208c9550929190601f198516908e5b828210610958575050841161093f575b505050811b019055610629565b015160001960f88460031b161c19169055388080610932565b8385015186558e979095019493840193018e610922565b9193509185815220601f840160051c81018c85106109bd575b918f92859492601f8e92930160051c01915b8281106109a95750508c610600565b809294919395505501918e918b859461099a565b5080610988565b634e487b7160e01b8d5260418c5260248dfd5b8580fd5b503461018c57602036600319011261018c57602092818392358252845220549051908152f35b5050346104d257602090610a14366114ae565b50505050505163bc197c8160e01b8152f35b50903461018c578060031936011261018c57610a40611341565b9060243591821515809303610550576001600160a01b031692338414610a9d5750338452600260205280842083855260205280842060ff1981541660ff8416179055519081526000805160206119f983398151915260203392a380f35b6020608492519162461bcd60e51b835282015260296024820152600080516020611a19833981519152604482015268103337b91039b2b63360b91b6064820152fd5b5050346104d257816003193601126104d257905490516001600160a01b039091168152602090f35b503461018c57602036600319011261018c57610b21611341565b91610b2a6115b5565b61011e6115b5565b8334610b77576020366003190112610b7757610b4c611341565b610b546115b5565b600680546001600160a01b0319166001600160a01b039290921691909117905580f35b80fd5b8334610b775780600319360112610b7757610b936115b5565b80546001600160a01b03198116825581906001600160a01b0316600080516020611a798339815191528280a380f35b503461018c57602036600319011261018c576020928183923582528452205415159051908152f35b503461018c578160031936011261018c5780356001600160401b038082116105505736602383011215610550578183013590610c25826113d5565b92610c328651948561139c565b82845260209260248486019160051b83010191368311610d8257602401905b828210610d5f575050506024359081116109d757610c7290369085016113ec565b928251845103610d0c5750815194610c89866113d5565b95610c968651978861139c565b808752610ca5601f19916113d5565b0136838801375b8251811015610cf657610cf190610ce16001600160a01b03610cce83876116ec565b5116610cda83886116ec565b5190611642565b610ceb82896116ec565b526116c7565b610cac565b845182815280610d088185018961152c565b0390f35b60849185519162461bcd60e51b8352820152602960248201527f455243313135353a206163636f756e747320616e6420696473206c656e677468604482015268040dad2e6dac2e8c6d60bb1b6064820152fd5b81356001600160a01b0381168103610d7e578152908401908401610c51565b8980fd5b8880fd5b509190346104d257610d97366114ae565b909692959390926001600160a01b039182169291338414801561111a575b610dbe90611716565b82518951036110c6578716938415610dd68115611779565b8415611072575b610fc8575b855b8351811015610e605780610dfb610e5b92866116ec565b51610e06828d6116ec565b5190808a5260016020918183528c8c208a8d528352838d8d8c8282205492610e30858510156117d3565b858352868852822091528552038d8d20558b5281528a8a2090898b52526104978a8a20918254611832565b610de4565b509293909691859892828689518a81527f4a39dc06d4c0dbc64b70af90fd698a233a518aa5d07e595d983b8c0526c8f7fb610e9d8c83018761152c565b91808303602082015280610eb233948b61152c565b0390a43b610ebe578580f35b8795610f1195610f20610efe956020978b51998a988997889663bc197c8160e01b9e8f89523390890152602488015260a0604488015260a487019061152c565b600319938487830301606488015261152c565b9184830301608485015261135c565b03925af1859181610fa8575b50610f925750506001610f3d6118a8565b6308c379a014610f5b575b6102f75750505b38808281808080808580f35b610f636118c6565b80610f6e5750610f48565b905061031091602094505193849362461bcd60e51b8552840152602483019061135c565b6001600160e01b0319160361035f575050610f4f565b610fc191925060203d81116103a057610391818361139c565b9038610f2c565b9691928596959491945b845181101561106357610fe581866116ec565b51610ff0828c6116ec565b5190808a526020888152898b2054918383106110215761101c949392918a918d525203888a20556116c7565b610fd2565b8a5162461bcd60e51b8152808b0183905260286024820152600080516020611a59833981519152604482015267616c537570706c7960c01b6064820152608490fd5b50929196959495939093610de2565b9792969594919390855b88518110156110b857806110936110b3928d6116ec565b5161109e828c6116ec565b518952876020526104978a8a20918254611832565b61107c565b509093919495969297610ddd565b865162461bcd60e51b8152602081840152602860248201527f455243313135353a2069647320616e6420616d6f756e7473206c656e677468206044820152670dad2e6dac2e8c6d60c31b6064820152608490fd5b508386526002602090815287872033885290528686205460ff16610db5565b50903461018c576020918260031936011261126457803580855260078452828520549091906001600160a01b03161561122f5750835260088252808320815193849181815490611188826119be565b928386526001928884821691826000146112055750506001146111c7575b8588610d08896111b8848a038561139c565b5192828493845283019061135c565b87945081939291528383205b8284106111ed57505050820101816111b8610d08386111a6565b8054848a0186015288955087949093019281016111d3565b60ff19168882015294151560051b870190940194508593506111b89250610d0891503890506111a6565b825162461bcd60e51b8152908101849052600f60248201526e151bdad95b881b9bdd08199bdd5b99608a1b6044820152606490fd5b8380fd5b5050346104d257816003193601126104d2576020906005549051908152f35b503461018c57602036600319011261018c57359063ffffffff60e01b821680920361018c5760209250636cdb3d1360e11b8214918215611300575b82156112d2575b50519015158152f35b909150630271189760e51b81149081156112ef575b5090386112c9565b6301ffc9a760e01b149050386112e7565b6303a24d0760e21b811492506112c2565b5050346104d257806003193601126104d25760209061133a611331611341565b60243590611642565b9051908152f35b600435906001600160a01b038216820361135757565b600080fd5b919082519283825260005b848110611388575050826000602080949584010152601f8019910116010190565b602081830181015184830182015201611367565b601f909101601f19168101906001600160401b038211908210176113bf57604052565b634e487b7160e01b600052604160045260246000fd5b6001600160401b0381116113bf5760051b60200190565b81601f8201121561135757803591611403836113d5565b92611411604051948561139c565b808452602092838086019260051b820101928311611357578301905b82821061143b575050505090565b8135815290830190830161142d565b9192916001600160401b0382116113bf5760405191611473601f8201601f19166020018461139c565b829481845281830111611357578281602093846000960137010152565b9080601f83011215611357578160206114ab9335910161144a565b90565b60a0600319820112611357576001600160a01b039160043583811681036113575792602435908116810361135757916001600160401b039160443583811161135757826114fd916004016113ec565b926064358181116113575783611515916004016113ec565b92608435918211611357576114ab91600401611490565b90815180825260208080930193019160005b82811061154c575050505090565b83518552938101939281019260010161153e565b60a0600319820112611357576001600160a01b039160043583811681036113575792602435908116810361135757916044359160643591608435906001600160401b038211611357576114ab91600401611490565b6000546001600160a01b031633036115c957565b606460405162461bcd60e51b815260206004820152602060248201527f4f776e61626c653a2063616c6c6572206973206e6f7420746865206f776e65726044820152fd5b600080546001600160a01b039283166001600160a01b0319821681178355921690600080516020611a798339815191529080a3565b6001600160a01b031690811561166f57600052600160205260406000209060005260205260406000205490565b60405162461bcd60e51b815260206004820152602a60248201527f455243313135353a2061646472657373207a65726f206973206e6f742061207660448201526930b634b21037bbb732b960b11b6064820152608490fd5b60001981146116d65760010190565b634e487b7160e01b600052601160045260246000fd5b80518210156117005760209160051b010190565b634e487b7160e01b600052603260045260246000fd5b1561171d57565b60405162461bcd60e51b815260206004820152602e60248201527f455243313135353a2063616c6c6572206973206e6f7420746f6b656e206f776e60448201526d195c881bdc88185c1c1c9bdd995960921b6064820152608490fd5b1561178057565b60405162461bcd60e51b815260206004820152602560248201527f455243313135353a207472616e7366657220746f20746865207a65726f206164604482015264647265737360d81b6064820152608490fd5b156117da57565b60405162461bcd60e51b815260206004820152602a60248201527f455243313135353a20696e73756666696369656e742062616c616e636520666f60448201526939103a3930b739b332b960b11b6064820152608490fd5b919082018092116116d657565b9081602091031261135757516001600160e01b0319811681036113575790565b60809060208152602860208201527f455243313135353a204552433131353552656365697665722072656a656374656040820152676420746f6b656e7360c01b60608201520190565b60009060033d116118b557565b905060046000803e60005160e01c90565b600060443d106114ab57604051600319913d83016004833e81516001600160401b03918282113d6024840111176119235781840194855193841161192b573d8501016020848701011161192357506114ab9291016020019061139c565b949350505050565b50949350505050565b60809060208152603460208201527f455243313135353a207472616e7366657220746f206e6f6e2d455243313135356040820152732932b1b2b4bb32b91034b6b83632b6b2b73a32b960611b60608201520190565b60408051919082016001600160401b038111838210176113bf5760405260018252602082016020368237825115611700575290565b90600182811c921680156119ee575b60208310146119d857565b634e487b7160e01b600052602260045260246000fd5b91607f16916119cd56fe17307eab39ab6107e8899845ad3d59bd9653f200f220920489ca2b5937696c31455243313135353a2073657474696e6720617070726f76616c20737461747573c3d58168c5ae7397731d063d5bbf3d657854427343f4c083240f7aacaa2d0f62455243313135353a206275726e20616d6f756e74206578636565647320746f748be0079c531659141344cd1fd0a4f28419497f9722a3daafe3b4186f6b6457e0a26469706673582212204ed4ad4c62e75ee5fae2640525c1b1ec70a1af63fec7583915aba6d5add3e3ca64736f6c6343000811003386edab837edec9b099eb0aa474d221a1b69172248fcca83c120f72e6f35723818be0079c531659141344cd1fd0a4f28419497f9722a3daafe3b4186f6b6457e0a26469706673582212205960c36a2b01027aa1bc7cb1a578e7ff119379fde143bc5089fdb7b873b78d9464736f6c63430008110033",
  "linkReferences": {},
  "deployedLinkReferences": {}
}