{
  "_format": "hh-sol-artifact-1",
  "contractName": "SingleCollective",
  "sourceName": "contracts/collective/SingleCollective.sol",
  "abi": [
    {
      "inputs": [],
      "stateMutability": "nonpayable",
      "type": "constructor"
    },
    {
      "anonymous": false,
      "inputs": [
        {
          "indexed": false,
          "internalType": "address",
          "name": "root",
          "type": "address"
        },
        {
          "indexed": false,
          "internalType": "address",
          "name": "creator",
          "type": "address"
        },
        {
          "indexed": false,
          "internalType": "string",
          "name": "name",
          "type": "string"
        },
        {
          "indexed": false,
          "internalType": "string",
          "name": "category",
          "type": "string"
        },
        {
          "indexed": false,
          "internalType": "string[]",
          "name": "tags",
          "type": "string[]"
        },
        {
          "indexed": false,
          "internalType": "string",
          "name": "description",
          "type": "string"
        },
        {
          "indexed": false,
          "internalType": "string",
          "name": "uri",
          "type": "string"
        },
        {
          "indexed": false,
          "internalType": "address[]",
          "name": "payees",
          "type": "address[]"
        },
        {
          "indexed": false,
          "internalType": "uint256[]",
          "name": "royalties",
          "type": "uint256[]"
        },
        {
          "indexed": false,
          "internalType": "uint64",
          "name": "maximum",
          "type": "uint64"
        }
      ],
      "name": "CollectionCreated",
      "type": "event"
    },
    {
      "anonymous": false,
      "inputs": [
        {
          "indexed": true,
          "internalType": "address",
          "name": "previousOwner",
          "type": "address"
        },
        {
          "indexed": true,
          "internalType": "address",
          "name": "newOwner",
          "type": "address"
        }
      ],
      "name": "OwnershipTransferred",
      "type": "event"
    },
    {
      "inputs": [
        {
          "internalType": "string",
          "name": "name",
          "type": "string"
        },
        {
          "internalType": "string",
          "name": "category",
          "type": "string"
        },
        {
          "internalType": "string[]",
          "name": "tags",
          "type": "string[]"
        },
        {
          "internalType": "string",
          "name": "description",
          "type": "string"
        },
        {
          "internalType": "string",
          "name": "uri",
          "type": "string"
        },
        {
          "internalType": "address[]",
          "name": "payees",
          "type": "address[]"
        },
        {
          "internalType": "uint256[]",
          "name": "royalties",
          "type": "uint256[]"
        },
        {
          "internalType": "uint64",
          "name": "maximum",
          "type": "uint64"
        }
      ],
      "name": "createCollection",
      "outputs": [],
      "stateMutability": "nonpayable",
      "type": "function"
    },
    {
      "inputs": [
        {
          "internalType": "string",
          "name": "name",
          "type": "string"
        },
        {
          "internalType": "string",
          "name": "symbol",
          "type": "string"
        }
      ],
      "name": "createRoot",
      "outputs": [
        {
          "internalType": "contract IToken",
          "name": "",
          "type": "address"
        }
      ],
      "stateMutability": "nonpayable",
      "type": "function"
    },
    {
      "inputs": [
        {
          "internalType": "string",
          "name": "_collection",
          "type": "string"
        },
        {
          "internalType": "uint256",
          "name": "balance",
          "type": "uint256"
        },
        {
          "internalType": "string",
          "name": "uri",
          "type": "string"
        }
      ],
      "name": "mint",
      "outputs": [],
      "stateMutability": "nonpayable",
      "type": "function"
    },
    {
      "inputs": [],
      "name": "owner",
      "outputs": [
        {
          "internalType": "address",
          "name": "",
          "type": "address"
        }
      ],
      "stateMutability": "view",
      "type": "function"
    },
    {
      "inputs": [],
      "name": "renounceOwnership",
      "outputs": [],
      "stateMutability": "nonpayable",
      "type": "function"
    },
    {
      "inputs": [
        {
          "internalType": "address",
          "name": "_marketplace",
          "type": "address"
        }
      ],
      "name": "setMarketplace",
      "outputs": [],
      "stateMutability": "nonpayable",
      "type": "function"
    },
    {
      "inputs": [
        {
          "internalType": "address",
          "name": "newOwner",
          "type": "address"
        }
      ],
      "name": "transferOwnership",
      "outputs": [],
      "stateMutability": "nonpayable",
      "type": "function"
    }
  ],
  "bytecode": "0x6080806040523461007a5760008054336001600160a01b0319821681178355916001600160a01b03909116907f8be0079c531659141344cd1fd0a4f28419497f9722a3daafe3b4186f6b6457e09080a36003805460ff60a01b1916600560a01b17905567016345785d8a000060045561409f90816100808239f35b600080fdfe61010060405260043610156200001457600080fd5b600060a05260003560e01c806306bdc94914620012265780633a35fe1b1462000277578063715018a6146200022557806373ad6c2d14620001d85780638da5cb5b14620001aa578063c682a10d14620001385763f2fde38b146200007757600080fd5b346200013257602036600319011262000132576200009462002203565b6200009e6200221a565b6001600160a01b03908116908115620000de576000548260018060a01b0319821617600055166000805160206200404a833981519152600080a360a05180f35b60405162461bcd60e51b815260206004820152602660248201527f4f776e61626c653a206e6577206f776e657220697320746865207a65726f206160448201526564647265737360d01b6064820152608490fd5b60a05180fd5b346200013257604036600319011262000132576001600160401b0360043581811162000132576200016e90369060040162002190565b906024359081116200013257602091620001916200019892369060040162002190565b906200233d565b6040516001600160a01b039091168152f35b34620001325760a05180600319360112620001d557546040516001600160a01b039091168152602090f35b80fd5b34620001325760203660031901126200013257620001f562002203565b620001ff6200221a565b600380546001600160a01b0319166001600160a01b039290921691909117905560a05180f35b34620001325760a05180600319360112620001d557620002446200221a565b600080546001600160a01b0319811682556001600160a01b03166000805160206200404a8339815191528280a360a05180f35b34620001325761010036600319011262000132576004356001600160401b0381116200013257620002ad90369060040162002190565b6024356001600160401b0381116200013257620002cf90369060040162002190565b906001600160401b03604435116200013257366023604435011215620001325760443560040135906200030282620021eb565b926200031260405194856200216c565b8284526020840180933660248260051b6044350101116200013257602460443501915b60248260051b60443501018310620011ef5750506001600160401b0360643511905062000132576200036d3660643560040162002190565b926001600160401b03608435116200013257620003903660843560040162002190565b926001600160401b0360a43511620001325736602360a4350112156200013257620003c160a43560040135620021eb565b620003d060405191826200216c565b60a43560040135815260208101908136602460a4356004013560051b60a4350101116200013257602460a43501905b602460a4356004013560051b60a43501018210620011c65750506001600160401b0360c43511620001325736602360c43501121562000132576200044960c43560040135620021eb565b956200045960405197886200216c565b60c43560040135875260208701948536602460c4356004013560051b60c4350101116200013257602460c43501905b602460c4356004013560051b60c43501018210620011b557505060e4356001600160401b03811690036200013257600060e05284511562001178573360e051526001602052604060e05120604051865191620004e9838360208b0162002273565b918101918252908190036020019020546001600160a01b03166200113a5782518851036200110357825160ff60035460a01c1610620010c25760e05198895b845160ff8c1690811015620005a1578a51111562000589576020611fe08c60051b168b010151810180911162000571579960ff80821614620005715760ff166001019962000528565b634e487b7160e01b60e051526011600452602460e051fd5b634e487b7160e01b60e051526032600452602460e051fd5b5089959697988c91600454106200107d576001600160a01b03620005c68a806200233d565b1698893b156200106557604051633f89655560e11b815230600482015260e05181602481838f5af1801562001058576200106b575b506003546001600160a01b03168a3b1562001065576040516373ad6c2d60e01b8152600481019190915260e05181602481838f5af18015620010585762001040575b503360e051526001602052604060e0512060206040518092845162000666818486890162002273565b82019081520301902080546001600160a01b0319168b1790556040516200068d8162002117565b3381528160208201528260408201528360608201528460808201528660a08201528760c08201528860e082015260018060401b0360e435166101008201528a60e05152600260205260e051604081209060018060a01b0383511660018060a01b0319835416178255602083015180519160018060401b03831162000b4c575081906200071d600185015462002298565b601f811162001005575b5060e05190602091601f841160011462000f8e575060e0519262000f82575b50508160011b916000199060031b1c19161760018201555b60408201518051906001600160401b03821162000b3457819062000786600285015462002298565b601f811162000f47575b5060e05190602091601f841160011462000ed0575060e0519262000ec4575b50508160011b916000199060031b1c19161760028201555b6060820151805190600160401b821162000b3457600383015482600385015580831062000e37575b5060e080516003850190525160208082209392015b82821062000d09575050505060808201518051906001600160401b03821162000b3457819062000838600485015462002298565b601f811162000cce575b5060e05190602091601f841160011462000c57575060e0519262000c4b575b50508160011b916000199060031b1c19161760048201555b60a08201518051906001600160401b03821162000b34578190620008a1600585015462002298565b601f811162000c04575b5060e05190602091601f841160011462000b8d575060e0519262000b81575b50508160011b916000199060031b1c19161760058201555b60c082015180516001600160401b03811162000b3457600160401b811162000b3457602060068401926200091c83855481875586620022ee565b019160e0515260e0519160208320835b83811062000b63575050505060e08301518051916001600160401b03831162000b4c5750600160401b821162000b3457602060078401916200097484845481865585620022ee565b019060e0515260e05160208120905b83811062000b1f5750505061010090920151600890910180546001600160401b0319166001600160401b039290921691909117905550604080519a8b523360208c0152610140908b01819052620009f29291620009e3918c019062002316565b908a820360608c015262002316565b9088820360808a015251808252602082019160208260051b820101949260e051915b83831062000aef5750505050509162000a3c826020948962000a4b950360a08b015262002316565b9087820360c089015262002316565b9185830360e0870152519182815201929060e0515b81811062000acf57505050602090838303610100850152519182815201929060e0515b81811062000ab85760e4356001600160401b03166101208501526000805160206200402a83398151915284860385a160a05180f35b825185526020948501949092019160010162000a83565b82516001600160a01b031685526020948501949092019160010162000a60565b909192939560208062000b0f600193601f198682030187528a5162002316565b9801930193019193929062000a14565b60019060208451940193818401550162000983565b634e487b7160e01b60e051526041600452602460e051fd5b634e487b7160e01b9052604160045260e051602490fd5b82516001600160a01b0316818301556020909201916001016200092c565b015190508f80620008ca565b60058601905260e0516020812090945091905b601f198416851062000be8576001945083601f1981161062000bce575b505050811b016005820155620008e2565b015160001960f88460031b161c191690558f808062000bbd565b8181015183556020948501946001909301929091019062000ba0565b62000c39906005860160e05152602060e05120601f850160051c8101916020861062000c40575b601f0160051c0190620022d5565b38620008ab565b909150819062000c2b565b015190508f8062000861565b60048601905260e0516020812090945091905b601f198416851062000cb2576001945083601f1981161062000c98575b505050811b01600482015562000879565b015160001960f88460031b161c191690558f808062000c87565b8181015183556020948501946001909301929091019062000c6a565b62000d02906004860160e05152602060e05120601f850160051c8101916020861062000c4057601f0160051c0190620022d5565b3862000842565b80518051906001600160401b03821162000b345762000d29865462002298565b601f811162000dff575b5060e0519086602092601f851160011462000d8c575050928260019493602093869560e0519262000d80575b5050600019600383901b1c191690841b1787555b0194019101909262000804565b01519050388062000d5f565b5260e051602081209291905b601f198516811062000de6575083602093600196938796938794601f1981161062000dcc575b505050811b01875562000d73565b015160001960f88460031b161c1916905538808062000dbe565b9192602060018192868501518155019401920162000d98565b62000e30908760e05152602060e05120601f850160051c8101916020861062000c4057601f0160051c0190620022d5565b3862000d33565b6003840160e05152602060e05120908382015b818301811062000e5c575050620007ef565b8062000e6b6001925462002298565b8062000e7a575b500162000e4a565b601f8111831462000e925750600081555b3862000e72565b8160e0515262000eb560e0519184601f60208520920160051c82019101620022d5565b60208120600083555562000e8b565b015190508f80620007af565b60028601905260e0516020812090945091905b601f198416851062000f2b576001945083601f1981161062000f11575b505050811b016002820155620007c7565b015160001960f88460031b161c191690558f808062000f00565b8181015183556020948501946001909301929091019062000ee3565b62000f7b906002860160e05152602060e05120601f850160051c8101916020861062000c4057601f0160051c0190620022d5565b3862000790565b015190508f8062000746565b60018601905260e0516020812090945091905b601f198416851062000fe9576001945083601f1981161062000fcf575b505050811b0160018201556200075e565b015160001960f88460031b161c191690558f808062000fbe565b8181015183556020948501946001909301929091019062000fa1565b62001039906001860160e05152602060e05120601f850160051c8101916020861062000c4057601f0160051c0190620022d5565b3862000727565b6200104b90620020ed565b60e05180156200063d5780fd5b6040513d60e051823e3d90fd5b60e05180fd5b6200107690620020ed565b8b620005fb565b60405162461bcd60e51b815260206004820152601d60248201527f4578636565646564204d41585f43524541544f525f4541524e494e47530000006044820152606490fd5b60405162461bcd60e51b8152602060048201526019602482015278115e18d9595919590813505617d41056515154d7d0d3d55395603a1b6044820152606490fd5b60405162461bcd60e51b815260206004820152600f60248201526e4c61636b206f6620726f79616c747960881b6044820152606490fd5b60405162461bcd60e51b815260206004820152601660248201527510dbdb1b1958dd1a5bdb881dd85cc8195e1a5cdd195960521b6044820152606490fd5b60405162461bcd60e51b8152602060048201526015602482015274456d70747920636f6c6c656374696f6e206e616d6560581b6044820152606490fd5b813581526020918201910162000488565b81356001600160a01b0381169003620011ea578135815260209182019101620003ff565b600080fd5b6001600160401b0383351162000132576020806024926200121836858835604435010162002190565b815201930192905062000335565b34620011ea576060366003190112620011ea576004356001600160401b038111620011ea576200125b90369060040162002190565b6044356001600160401b03811162000132576200127d90369060040162002190565b60c05280511562001476575b3360a0515260209060018252604060a051209082620012b2604051928381519384920162002273565b81019182529081900382019020546001600160a01b0316908115620014335760a08051839052600282525160409081902060080154905163023fe4d560e11b8152906001600160401b03168282600481875afa918215620013af5760a05192620013fe575b501115620013bc5750803b15620001325760405190633349e71f60e21b82523360048301526024356024830152606060448301528160a051918180620013636064820160c05162002316565b039160a051905af18015620013af576200137e575b60a05180f35b6001600160401b03811162001397576040528062001378565b634e487b7160e01b60a051526041600452602460a051fd5b6040513d60a051823e3d90fd5b6064906040519062461bcd60e51b82526004820152601b60248201527a737570706c7920776f756c6420657863656564206d6178696d756d60281b6044820152fd5b9091508281813d83116200142b575b6200141981836200216c565b81010312620001325751908462001317565b503d6200140d565b6064906040519062461bcd60e51b825280600483015260248201527f5468617420636f6c6c656374696f6e207761736e2774207075626c69736865646044820152fd5b50604051620014858162002134565b60138152723ab73a34ba3632b21031b7b63632b1ba34b7b760691b6020820152803360a051526001602052604060a051206040518251620014cb81836020870162002273565b8101918252908190036020019020546001600160a01b031615620014f1575b5062001289565b60405191620015008362002150565b60a051835260405191620015148362002150565b60a051835260405191620015288362002150565b60a0518352604051916200153c8362002134565b60088352671d5b9d1a5d1b195960c21b602084015260405194620015608662002150565b60a0518652604051620015738162002150565b60a051815260a0519083511562001178573360a051526001602052604060a051206040518551620015a9818360208a0162002273565b8101918252908190036020019020546001600160a01b03166200113a5782518751036200110357825160ff60035460a01c1610620010c25760a05198895b845160ff8c16908110156200165f578951111562001647576020611fe08c60051b168a01015181018091116200162f5760ff909a1660ff81146200162f5760010199620015e7565b634e487b7160e01b60a051526011600452602460a051fd5b634e487b7160e01b60a051526032600452602460a051fd5b5090939691949892959950600454106200107d576001600160a01b036200168789806200233d565b16806080523b156200013257604051633f89655560e11b815230600482015260a05181602481836080515af18015620013af57620020d5575b5060018060a01b03600354166080513b15620020d157604051906373ad6c2d60e01b825260048201528581602481836080515af18015620020c657908691620020aa575b505033855260016020526040852060206040518092826200172c8d8481519384920162002273565b82019081520301902060805181546001600160a01b031916179055604051620017558162002117565b33815260208082018a8152604080840185905260608401879052608080850187905260a0850189905260c085018b905260e085018c90526001600160401b03610100860181905290518a5260029093528820835181546001600160a01b0319166001600160a01b0391909116178155905180519192821162001bd0578190620017e2600185015462002298565b601f811162002073575b50602090601f831160011462001fff578a9262001ff3575b50508160011b916000199060031b1c19161760018201555b60408201518051906001600160401b03821162001bd057819062001844600285015462002298565b601f811162001fbc575b50602090601f831160011462001f48578a9262001f3c575b50508160011b916000199060031b1c19161760028201555b6060820151805190600160401b821162001bd057600383015482600385015580831062001eb2575b506020016003830189526020892089915b83831062001d70575050505060808201518051906001600160401b03821162001bd0578190620018eb600485015462002298565b601f811162001d39575b50602090601f831160011462001cc5578a9262001cb9575b50508160011b916000199060031b1c19161760048201555b60a08201518051906001600160401b03821162001bd05781906200194d600585015462002298565b601f811162001c82575b50602090601f831160011462001c0e578a9262001c02575b50508160011b916000199060031b1c19161760058201555b60c08201518051906001600160401b03821162001bd057600160401b821162001bd05760206006840191620019c284845481865585620022ee565b0190895260208920895b83811062001be4575050505060e08201518051906001600160401b03821162001bd057600160401b821162001bd05760206007849b9a9b019162001a1684845481865585620022ee565b01908a5260208a208a5b83811062001bbb575050505090600862001a879392019061010060018060401b039101511660018060401b031982541617905562001a78604051996080518b523360208c01526101408060408d01528b019062002316565b9089820360608b015262002316565b8781036080890152825180825260208201916020808360051b83010195019288915b83831062001b855750505050508162001acf918862001ade95940360a08a015262002316565b9086820360c088015262002316565b84810360e086015260208083519283815201920190835b81811062001b6557505050838103610100850152602080845192838152019301915b81811062001b4e5750506001600160401b03610120840152506000805160206200402a833981519152919081900390a181620014ea565b825184526020938401939092019160010162001b17565b82516001600160a01b031684526020938401939092019160010162001af5565b909192939560208062001ba8600193601f9d9c9d198682030187528a5162002316565b9801930193019193929098979862001aa9565b82518183015560209092019160010162001a20565b634e487b7160e01b89526041600452602489fd5b82516001600160a01b031681830155602090920191600101620019cc565b015190508d806200196f565b9250600584018a5260208a20908a935b601f198416851062001c66576001945083601f1981161062001c4c575b505050811b01600582015562001987565b015160001960f88460031b161c191690558d808062001c3b565b8181015183556020948501946001909301929091019062001c1e565b62001cb290600586018c5260208c20601f850160051c8101916020861062000c4057601f0160051c0190620022d5565b8e62001957565b015190508d806200190d565b9250600484018a5260208a20908a935b601f198416851062001d1d576001945083601f1981161062001d03575b505050811b01600482015562001925565b015160001960f88460031b161c191690558d808062001cf2565b8181015183556020948501946001909301929091019062001cd5565b62001d6990600486018c5260208c20601f850160051c8101916020861062000c4057601f0160051c0190620022d5565b8e620018f5565b80518051906001600160401b03821162001e9e578c62001d91855462002298565b601f811162001e5e575b50506020908d601f841160011462001dec5792806020936001969387969262001de0575b5050600019600383901b1c191690841b1785555b01920192019190620018b7565b01519050388062001dbf565b919085835260208320925b601f198516811062001e45575083602093600196938796938794601f1981161062001e2b575b505050811b01855562001dd3565b015160001960f88460031b161c1916905538808062001e1d565b9192602060018192868501518155019401920162001df7565b6020828762001e8b9452206005601f8601811c8201926020871062001e93575b601f01901c0190620022d5565b8c3862001d9b565b919250829162001e7e565b634e487b7160e01b8d52604160045260248dfd5b600384018a5260208a20908382015b818301811062001ed3575050620018a6565b808c62001ee36001935462002298565b8062001ef3575b50500162001ec1565b601f8111841462001f0e57505060a05181555b8c3862001eea565b83601f6020848662001f2b965220920160051c82019101620022d5565b8c6020812060a05183555562001f06565b015190508d8062001866565b9250600284018a5260208a20908a935b601f198416851062001fa0576001945083601f1981161062001f86575b505050811b0160028201556200187e565b015160001960f88460031b161c191690558d808062001f75565b8181015183556020948501946001909301929091019062001f58565b62001fec90600286018c5260208c20601f850160051c8101916020861062000c4057601f0160051c0190620022d5565b8e6200184e565b015190508d8062001804565b9250600184018a5260208a20908a935b601f198416851062002057576001945083601f198116106200203d575b505050811b0160018201556200181c565b015160001960f88460031b161c191690558d80806200202c565b818101518355602094850194600190930192909101906200200f565b620020a390600186018c5260208c20601f850160051c8101916020861062000c4057601f0160051c0190620022d5565b8e620017ec565b620020b590620020ed565b620020c257848a62001704565b8480fd5b6040513d88823e3d90fd5b8580fd5b620020e2919550620020ed565b60a0519389620016c0565b6001600160401b0381116200210157604052565b634e487b7160e01b600052604160045260246000fd5b61012081019081106001600160401b038211176200210157604052565b604081019081106001600160401b038211176200210157604052565b602081019081106001600160401b038211176200210157604052565b601f909101601f19168101906001600160401b038211908210176200210157604052565b81601f82011215620011ea578035906001600160401b038211620021015760405192620021c8601f8401601f1916602001856200216c565b82845260208383010111620011ea57816000926020809301838601378301015290565b6001600160401b038111620021015760051b60200190565b600435906001600160a01b0382168203620011ea57565b6000546001600160a01b031633036200222f57565b606460405162461bcd60e51b815260206004820152602060248201527f4f776e61626c653a2063616c6c6572206973206e6f7420746865206f776e65726044820152fd5b60005b838110620022875750506000910152565b818101518382015260200162002276565b90600182811c92168015620022ca575b6020831014620022b457565b634e487b7160e01b600052602260045260246000fd5b91607f1691620022a8565b818110620022e1575050565b60008155600101620022d5565b91818110620022fc57505050565b620023149260005260206000209182019101620022d5565b565b90602091620023318151809281855285808601910162002273565b601f01601f1916010190565b60405191611c799190828401906001600160401b0382118583101762002101576200237d6200238c938695620023b1873960408452604084019062002316565b91602081840391015262002316565b03906000f08015620023a4576001600160a01b031690565b6040513d6000823e3d90fdfe608060405234620003505762001c79803803806200001d8162000355565b928339810190604081830312620003505780516001600160401b0391908281116200035057836200005091830162000391565b906020938482015184811162000350576200006c920162000391565b60008054336001600160a01b031982168117835591939291906001600160a01b03167f8be0079c531659141344cd1fd0a4f28419497f9722a3daafe3b4186f6b6457e08580a38151928484116200025a576001938454938585811c9516801562000345575b8886101462000331578190601f95868111620002de575b5088908683116001146200027a5784926200026e575b5050600019600383901b1c191690851b1784555b81519485116200025a576002548481811c911680156200024f575b878210146200023b57838111620001f2575b5085928511600114620001895793945084929190836200017d575b50501b916000199060031b1c1916176002555b6040516118759081620004048239f35b0151925038806200015a565b6002815285812093958591601f198316915b88838310620001d75750505010620001bd575b505050811b016002556200016d565b015160001960f88460031b161c19169055388080620001ae565b8587015188559096019594850194879350908101906200019b565b600282528682208480880160051c82019289891062000231575b0160051c019085905b828110620002255750506200013f565b83815501859062000215565b925081926200020c565b634e487b7160e01b82526022600452602482fd5b90607f16906200012d565b634e487b7160e01b81526041600452602490fd5b015190503880620000fe565b8785528985208894509190601f198416865b8c828210620002c75750508411620002ad575b505050811b01845562000112565b015160001960f88460031b161c191690553880806200029f565b8385015186558b979095019493840193016200028c565b9091508684528884208680850160051c8201928b861062000327575b918991869594930160051c01915b82811062000318575050620000e8565b86815585945089910162000308565b92508192620002fa565b634e487b7160e01b83526022600452602483fd5b94607f1694620000d1565b600080fd5b6040519190601f01601f191682016001600160401b038111838210176200037b57604052565b634e487b7160e01b600052604160045260246000fd5b919080601f84011215620003505782516001600160401b0381116200037b57602090620003c7601f8201601f1916830162000355565b92818452828287010111620003505760005b818110620003ef57508260009394955001015290565b8581018301518482018401528201620003d956fe6080604081815260048036101561001557600080fd5b600092833560e01c90816301ffc9a714610e2d57508063047fc9aa14610bf757806306fdde0314610da6578063081812fc14610d86578063095ea7b314610c1657806318160ddd14610bf757806323b872dd14610bd25780632f745c5914610b265780633540302314610b0657806342842e0e14610ad25780634f6ccce714610a3f5780636352211e14610a0e57806370a08231146109e1578063715018a61461099957806373ad6c2d146109545780637f12caaa146109295780638da5cb5b1461090157806395d89b4114610820578063a22cb46514610767578063b88d4fde146106e1578063c87b56dd146105e9578063cd279c7c14610211578063e985e9c5146101bf5763f2fde38b1461012b57600080fd5b346101bb5760203660031901126101bb57610144610ef3565b9161014d610fff565b6001600160a01b03831615610169578361016684611057565b80f35b906020608492519162461bcd60e51b8352820152602660248201527f4f776e61626c653a206e6577206f776e657220697320746865207a65726f206160448201526564647265737360d01b6064820152fd5b8280fd5b50503461020d578060031936011261020d5760ff816020936101df610ef3565b6101e7610f0e565b6001600160a01b0391821683526006875283832091168252855220549151911615158152f35b5080fd5b5082346105e65760603660031901126105e65761022c610ef3565b92604435926001600160401b03918285116105e257366023860112156105e257610260602495369087818601359101610fc8565b91610269610fff565b60019283600c54019081600c5583519561028287610f59565b8787526001600160a01b038a81169790939088156105a057600a98999a9b6102b26102ac8461159f565b15611794565b600954838d5260209a8b52888d20819055600160401b81101561058e579183610386928e9f9e8e83918f8f908f918f92600393610316886102fb61038b9f868101600955611763565b90919082549060031b600019811b9283911b16911916179055565b61031f8961108c565b8787526007855282872081885285528883882055888752600885528287205561034a6102ac8961159f565b8686528352842080549091019055848352528d812080546001600160a01b031916831790556000805160206118208339815191528180a46115bc565b611286565b6103948161159f565b15610535578a52600b8752848a209180519182116105235781906103b88454611170565b601f81116104d3575b508890601f8311600114610474578c92610469575b5050600019600383901b1c191690861b1790555b600d54169586861461042d575050838652600683528086208587528352808620805460ff191683179055519081526000805160206117e08339815191529190a380f35b60199085606494519362461bcd60e51b85528401528201527822a9219b99189d1030b8383937bb32903a379031b0b63632b960391b6044820152fd5b015190508b806103d6565b848d52898d208994509190601f1984168e5b8c8282106104bd57505084116104a4575b505050811b0190556103ea565b015160001960f88460031b161c191690558b8080610497565b8385015186558c97909501949384019301610486565b909150838c52888c20601f840160051c8101918a8510610519575b84939291601f8b920160051c01915b82811061050b5750506103c1565b8e81558594508a91016104fd565b90915081906104ee565b634e487b7160e01b8b5260418552898bfd5b855162461bcd60e51b8152808601899052602e818c01527f45524337323155524953746f726167653a2055524920736574206f66206e6f6e60448201526d32bc34b9ba32b73a103a37b5b2b760911b6064820152608490fd5b634e487b7160e01b8d52604188528d8dfd5b865162461bcd60e51b81526020818801819052818d01527f4552433732313a206d696e7420746f20746865207a65726f20616464726573736044820152606490fd5b8380fd5b80fd5b5090346101bb57602091826003193601126105e2573561061061060b8261159f565b611103565b8352600b825280832092815180948290805461062b81611170565b918285526001918883821691826000146106ba57505060011461067c575b50505061067893929161065d910386610f8a565b815161066881610f59565b5251928284938452830190610eb3565b0390f35b8552868520879350859291905b8284106106a2575050508201018161065d610678610649565b8054848b018601528995508894909301928101610689565b60ff19168782015293151560051b8601909301935084925061065d91506106789050610649565b83823461020d57608036600319011261020d576106fc610ef3565b90610705610f0e565b6064359290604435906001600160401b0385116107635736602386011215610763576107406103869486602461016698369301359101610fc8565b9261075361074e84336112aa565b6111d1565b61075e838383611372565b6116d8565b8580fd5b5090346101bb57806003193601126101bb57610781610ef3565b906024359182151580930361081c576001600160a01b0316923384146107de5750338452600660205280842083855260205280842060ff1981541660ff8416179055519081526000805160206117e083398151915260203392a380f35b6020606492519162461bcd60e51b8352820152601960248201527822a9219b99189d1030b8383937bb32903a379031b0b63632b960391b6044820152fd5b8480fd5b50503461020d578160031936011261020d578051908260025461084281611170565b808552906001908181169081156108d95750600114610880575b50505061086e82610678940383610f8a565b51918291602083526020830190610eb3565b60028352602095507f405787fa12a823e0f2b7631cc41b3ba8828b3321ca811111fa75cd3aa3bb5ace5b8284106108c657505050826106789461086e928201019461085c565b80548685018801529286019281016108aa565b610678975061086e9450602092508693915060ff191682840152151560051b8201019461085c565b50503461020d578160031936011261020d57905490516001600160a01b039091168152602090f35b50346101bb5760203660031901126101bb57610943610ef3565b9161094c610fff565b61014d610fff565b83346105e65760203660031901126105e65761096e610ef3565b610976610fff565b600d80546001600160a01b0319166001600160a01b039290921691909117905580f35b83346105e657806003193601126105e6576109b2610fff565b80546001600160a01b03198116825581906001600160a01b03166000805160206118008339815191528280a380f35b50503461020d57602036600319011261020d57602090610a07610a02610ef3565b61108c565b9051908152f35b5091346105e65760203660031901126105e65750610a2e6020923561114a565b90516001600160a01b039091168152f35b5082346105e65760203660031901126105e65750803590600954821015610a7a57602083610a6c84611763565b91905490519160031b1c8152f35b608490602084519162461bcd60e51b8352820152602c60248201527f455243373231456e756d657261626c653a20676c6f62616c20696e646578206f60448201526b7574206f6620626f756e647360a01b6064820152fd5b50503461020d5761038661016691610ae936610f24565b91925192610af684610f59565b86845261075361074e84336112aa565b50503461020d57602036600319011261020d576020906009549051908152f35b5091346105e657816003193601126105e657610b40610ef3565b60243590610b4d8161108c565b821015610b7b576001600160a01b031682526007602090815283832091835290815290829020548251908152f35b835162461bcd60e51b8152602081870152602b60248201527f455243373231456e756d657261626c653a206f776e657220696e646578206f7560448201526a74206f6620626f756e647360a81b6064820152608490fd5b83346105e657610166610be436610f24565b91610bf261074e84336112aa565b611372565b50503461020d578160031936011261020d576020906009549051908152f35b50346101bb57816003193601126101bb57610c2f610ef3565b6024359290916001600160a01b0391908280610c4a8761114a565b16941693808514610d3957803314908115610d1a575b5015610cb257508385526005602052842080546001600160a01b03191683179055610c8a8361114a565b167f8c5be1e5ebec7d5bd14f71427d1e84f3dd0314c0f7b2291e5b200ac8c7c3b9258480a480f35b6020608492519162461bcd60e51b8352820152603d60248201527f4552433732313a20617070726f76652063616c6c6572206973206e6f7420746f60448201527f6b656e206f776e6572206f7220617070726f76656420666f7220616c6c0000006064820152fd5b90508652600660205281862033875260205260ff828720541638610c60565b506020608492519162461bcd60e51b8352820152602160248201527f4552433732313a20617070726f76616c20746f2063757272656e74206f776e656044820152603960f91b6064820152fd5b5091346105e65760203660031901126105e65750610a2e602092356111aa565b50503461020d578160031936011261020d57805190826001805490610dca82611170565b808652918181169081156108d95750600114610df25750505061086e82610678940383610f8a565b80955082526020948583205b828410610e1a57505050826106789461086e928201019461085c565b8054868501880152928601928101610dfe565b925050346101bb5760203660031901126101bb573563ffffffff60e01b81168091036101bb576020925063780e9d6360e01b8114908115610e70575b5015158152f35b6380ac58cd60e01b811491508115610ea2575b8115610e91575b5038610e69565b6301ffc9a760e01b14905038610e8a565b635b5e139f60e01b81149150610e83565b919082519283825260005b848110610edf575050826000602080949584010152601f8019910116010190565b602081830181015184830182015201610ebe565b600435906001600160a01b0382168203610f0957565b600080fd5b602435906001600160a01b0382168203610f0957565b6060906003190112610f09576001600160a01b03906004358281168103610f0957916024359081168103610f09579060443590565b602081019081106001600160401b03821117610f7457604052565b634e487b7160e01b600052604160045260246000fd5b601f909101601f19168101906001600160401b03821190821017610f7457604052565b6001600160401b038111610f7457601f01601f191660200190565b929192610fd482610fad565b91610fe26040519384610f8a565b829481845281830111610f09578281602093846000960137010152565b6000546001600160a01b0316330361101357565b606460405162461bcd60e51b815260206004820152602060248201527f4f776e61626c653a2063616c6c6572206973206e6f7420746865206f776e65726044820152fd5b600080546001600160a01b039283166001600160a01b03198216811783559216906000805160206118008339815191529080a3565b6001600160a01b031680156110ac57600052600460205260406000205490565b60405162461bcd60e51b815260206004820152602960248201527f4552433732313a2061646472657373207a65726f206973206e6f7420612076616044820152683634b21037bbb732b960b91b6064820152608490fd5b1561110a57565b60405162461bcd60e51b8152602060048201526018602482015277115490cdcc8c4e881a5b9d985b1a59081d1bdad95b88125160421b6044820152606490fd5b6000908152600360205260409020546001600160a01b031661116d811515611103565b90565b90600182811c921680156111a0575b602083101461118a57565b634e487b7160e01b600052602260045260246000fd5b91607f169161117f565b6111b661060b8261159f565b6000908152600560205260409020546001600160a01b031690565b156111d857565b60405162461bcd60e51b815260206004820152602d60248201527f4552433732313a2063616c6c6572206973206e6f7420746f6b656e206f776e6560448201526c1c881bdc88185c1c1c9bdd9959609a1b6064820152608490fd5b60809060208152603260208201527f4552433732313a207472616e7366657220746f206e6f6e20455243373231526560408201527131b2b4bb32b91034b6b83632b6b2b73a32b960711b60608201520190565b1561128d57565b60405162461bcd60e51b8152806112a660048201611233565b0390fd5b906001600160a01b0380806112be8461114a565b169316918383149384156112f1575b5083156112db575b50505090565b6112e7919293506111aa565b16143880806112d5565b909350600052600660205260406000208260005260205260ff6040600020541692386112cd565b1561131f57565b60405162461bcd60e51b815260206004820152602560248201527f4552433732313a207472616e736665722066726f6d20696e636f72726563742060448201526437bbb732b960d91b6064820152608490fd5b6113969161137f8461114a565b6001600160a01b0393848416939185168414611318565b83821693841561154e5783918261149557506009546000878152600a602052604090208190559150600160401b821015610f74576113fc926113e3876102fb856001899701600955611763565b828603611462575b506113f58661114a565b1614611318565b600080516020611820833981519152600084815260056020526040812060018060a01b03199081815416905583825260046020526040822060001981540190558482526040822060018154019055858252600360205284604083209182541617905580a4565b61146b9061108c565b604060008781526007602052818120838252602052888282205588815260086020522055386113eb565b8583036114a7575b506113fc926113e3565b6114b291925061108c565b600019810191908211611538576113fc9284926000908882526020906008825260409182842054828103611501575b508a8452838381205586845260078152828420918452528120559261149d565b87855260078252838520838652825283852054888652600783528486208287528352808587205585526008825283852055386114e1565b634e487b7160e01b600052601160045260246000fd5b60405162461bcd60e51b8152602060048201526024808201527f4552433732313a207472616e7366657220746f20746865207a65726f206164646044820152637265737360e01b6064820152608490fd5b6000908152600360205260409020546001600160a01b0316151590565b9192600092909190803b156116ce5761160a946040518092630a85bd0160e11b9485835233600484015287602484015260448301526080606483015281878160209a8b966084830190610eb3565b03926001600160a01b03165af184918161168e575b5061167d575050503d600014611675573d61163981610fad565b906116476040519283610f8a565b81528091833d92013e5b805191826116725760405162461bcd60e51b8152806112a660048201611233565b01fd5b506060611651565b6001600160e01b0319161492509050565b9091508581813d83116116c7575b6116a68183610f8a565b8101031261081c57516001600160e01b03198116810361081c57903861161f565b503d61169c565b5050915050600190565b9293600093909291803b15611758579484916117329660405180948193630a85bd0160e11b9788845233600485015260018060a01b0380921660248501526044840152608060648401528260209b8c976084830190610eb3565b0393165af184918161168e575061167d575050503d600014611675573d61163981610fad565b505050915050600190565b60095481101561177e57600960005260206000200190600090565b634e487b7160e01b600052603260045260246000fd5b1561179b57565b60405162461bcd60e51b815260206004820152601c60248201527b115490cdcc8c4e881d1bdad95b88185b1c9958591e481b5a5b9d195960221b6044820152606490fdfe17307eab39ab6107e8899845ad3d59bd9653f200f220920489ca2b5937696c318be0079c531659141344cd1fd0a4f28419497f9722a3daafe3b4186f6b6457e0ddf252ad1be2c89b69c2b068fc378daa952ba7f163c4a11628f55a4df523b3efa2646970667358221220ab8e1761522c94c0ed3c5fe3f86553425e83389d59b7e40324b8f5673872eb4a64736f6c6343000811003386edab837edec9b099eb0aa474d221a1b69172248fcca83c120f72e6f35723818be0079c531659141344cd1fd0a4f28419497f9722a3daafe3b4186f6b6457e0a26469706673582212206a73e787555642108fb27fce284d6462f7e81098bab113998ca5015a9113049464736f6c63430008110033",
  "linkReferences": {},
  "deployedLinkReferences": {}
}